:020000022000DC
:10700000000004205D730200457302004773020014
:10701000497302004B7302004D7302000000000030
:107020000000000000000000000000004F7302009C
:1070300051730200000000005373020055730200F8
:10704000ED97020057730200CD9C020057730200B7
:107050005773020057730200519B020057730200DE
:1070600057730200577302005773020057730200F0
:1070700057730200577302005773020057730200E0
:10708000577302000588020057730200577302000D
:107090005773020057730200ADC30200577302001A
:1070A00057730200577302005773020057730200B0
:1070B0005773020057730200000000000000000038
:1070C0005773020057730200577302005773020090
:1070D0005773020057730200577302005773020080
:1070E000577302005773020057730200000000003C
:1070F00000000000577302000000000057730200F8
:10710000000000000000000000000000000000007F
:10711000000000000000000000000000000000006F
:10712000000000000000000000000000000000005F
:10713000000000000000000000000000000000004F
:10714000000000000000000000000000000000003F
:10715000000000000000000000000000000000002F
:10716000000000000000000000000000000000001F
:10717000000000000000000000000000000000000F
:1071800000000000000000000000000000000000FF
:1071900000000000000000000000000000000000EF
:1071A00000000000000000000000000000000000DF
:1071B00000000000000000000000000000000000CF
:1071C00000000000000000000000000000000000BF
:1071D00000000000000000000000000000000000AF
:1071E000000000000000000000000000000000009F
:1071F000000000000000000000000000000000008F
:10720000314932480A1A02D0072291438D4630494B
:1072100030480A1A06D00722914381F309880222D6
:1072200082F314882C482D492D4A00F03CF82D4853
:107230002D492E4A00F037F82D482E492E4A00F0ED
:1072400032F82E482E492F4A00F02DF82E482F49AB
:107250002F4A00F028F82F482F49304A00F023F831
:107260002F483049304A00F01EF83048304900229B
:1072700000F024F82F483049002200F01FF82F4A70
:1072800090471F481F49884205D00268043003B464
:10729000904703BCF7E700208646EC46002000211B
:1072A000274A9047FEE7884207D0521A05D0037854
:1072B00001300B700131013AF9D17047884202D098
:1072C00002700130FAE770470000042000E003205C
:1072D0000000042000000420C4DE0200A8430020B7
:1072E000B4720020B8730200B873020054CB0200DD
:1072F000C4DE0200A8430020A843002008CD0200FD
:1073000008CD020008CD020008CD020008CD020021
:1073100008CD020008CD020008CD0200C4DE020044
:10732000D00D0300B4720020B4720020B4720020AB
:107330000083002000830020048300208573020066
:10734000E5AA0200FEE7FEE7FEE7FEE7FEE7FEE74E
:10735000FEE7FEE7FEE7FEE700F002B8FFF7FCBF3E
:107360000F484FF00701884385460E4880470E4876
:10737000016841F470010160BFF34F8FBFF36F8F5D
:10738000FFF73EBF09480A490A4A884207D0521A05
:1073900005D0037801300B700131013AF9D1704703
:1073A00000000420C192020088ED00E008CD020038
:0873B000A8430020A8430020BF
:1073B80000487047F8820020F0B595B01D46164683
:1073C80008460C4601F0C8FD1A9B0D93CDE90865E7
:1073D80000252B46082205A920460A958DF82C5031
:1073E8000C9501F0D5FD079B0293069B03939DF82E
:1073F80014308DF8115003F00302012A1DD1BDF895
:107408001420059DC3F3C203C2F383168DF8103010
:10741800B20008230EA9204601F0BAFDC5F3952550
:1074280008AB0093324602AB0EA9284600F0BAFB1F
:10743800204601F095FD15B0F0BD022AF8D1BDF83F
:107448001650C3F3C203C5F389158DF81030082709
:10745800082D2E4628BF08263B4632460EA9204650
:1074680001F096FDAD1B08AB02AA31460EA83744C1
:1074780000F0FCFB002DEBD1DAE70000014B012204
:107488001A707047F57200207047000070B50E4DF5
:1074980006460FCD88B06C460FC495E80F00002E45
:1074A80084E80F00094A0A484FF0060308BF002283
:1074B8006946009302F01EF908B100F0D5FD054BAE
:1074C8001E7008B070BD00BF08CD020085740200B0
:1074D800A8430020B472002007B5044B0093044A67
:1074E8004023FFF769FF03B05DF804FBFD74020059
:1074F800B572002038B50D480D4C0E4D0023237091
:107508000378EB5CD2B263B1043003F0A5F808B19C
:1075180000F0AAFD084B1A7812B12378002BFBD093
:1075280038BD0C3002F028FEF1E700BFA843002068
:10753800F572002088790020B472002008B5084848
:10754800084A0378D35C3BB1043002F0F5FFBDE88C
:1075580008400020FFF79ABF0C3002F0A5FDF6E7BF
:10756800A8430020887900200120FFF78FBF000082
:1075780008B5FFF7F9FF0448042100F07DFA034B32
:1075880001225A7108BD00BFF8CC0200BC4300209C
:10759800037813F0040216D003F00303012B03D081
:1075A800022B09D0012070470A6800880232C0F314
:1075B800831002440A60F5E70B684288023303EB44
:1075C80092130B60EEE71046704700002DE9F04F6C
:1075D800DFF81CA187B00F4600230446861C0DF176
:1075E800070015468DF8073000F09AFFDAF80420F6
:1075F8003A60DAF8083003F580739B1A0AF21C47E0
:107608000AF583690AF21448B3421AD30020002D00
:1076180069D004F00F039B0143F0050363F30F00E7
:10762800DAF80430DAB2033233444AF822009DF81B
:107638000700CAF8043000F097FF012007B0BDE842
:10764800F08F0121384601F0B6F9484601F0CBF930
:10765800404601F0C8F9DAF808000290C0B20330D9
:107668000AEB800002A9FFF793FF029B30BBDAB256
:107678000AEB8202D16803919A1C0133DBB20AEB50
:1076880083030292D3F80CB001F00303012B22D03C
:10769800022B15D08346404601F0A8F910B1029B91
:1076A800CAF808305946384601F085F9DAF8083042
:1076B800DAF8042003F580739B1AA5E7D8B2CEE761
:1076C800BDF80E30C3F3891303334FEA1B4B02EBAB
:1076D80093030293DFE7BDF80C30C3F383134FEA3B
:1076E8001B4B1344F5E7A40544F0060098E700BFD8
:1076F800C8730020064B074810B500221A7001F025
:10770800E4FB044610B9044801F045FD204610BDCD
:10771800C8730020A4CC02005CCD020030B50A4C2E
:1077280071B10A4A0A49121BD20800239A4201D1B0
:10773800002030BD31F82350854202D00133F5E7EF
:10774800034654F83300F4E70CCC0200A4CC020042
:10775800A8430020094B013903EBC000032909D8CD
:10776800DFE801F00A020406042070470079704738
:107778004079704700207047022070470CCC020007
:1077880070470000034BD3E90130C31A58425841EF
:10779800704700BFC87300202DE9F04186B0FFF79D
:1077A800F1FF0546002840F0ED80774CC4F8180436
:1077B800BFF34F8FA3680293DBB2033304EB83005C
:1077C80002A9FFF7E5FE029B18B1D4F81824002A95
:1077D8005AD0DAB2991C013304EB8202DBB204EB13
:1077E8008303D268DB68049302F00303022B03923D
:1077F800029154D1BDF80E306448C3F38917502F55
:107808003E4628BF502606F1080166F38F13C1F3E0
:107818000901ADF80E3001F070FB0546002800F0B4
:107828009C8001F099FB0023082203A9284601F057
:10783800A5FB0299CB43DBB20133C9B20331B6EBE6
:10784800830F4FEA830204EB810125D95FFA82F89E
:107858000823A6EB0806284601F090FBF6B208F1CB
:1078680008034B4903F0FC033246284601F086FB27
:10787800029B033703EB97070297D4F81834002BC1
:1078880043D1D4F8106453E062689A4294D8A26055
:10789800284606B0BDE8F08108233246E5E7012B0B
:1078A8005BD1BDF80C303948C3F38311062928BFD2
:1078B800062161F38913023101F00F018900ADF847
:1078C8000C3001F01AFB0546002846D001F044FBB5
:1078D8000023082203A9284601F050FB0026BDF822
:1078E8000C20C2F38312B300964203F10803C4D2FA
:1078F80002994A1CC9B20331029204EB81010422A5
:10790800284601F03BFB0136E9E7284601F028FB51
:10791800FFF738FF80F00100C5B2B9E7F3685B797B
:1079280023B1336829461B6830469847F3681E68B8
:10793800002EF3D1284601F013FB0DF107008DF856
:10794800076000F0EDFDD4F818340BB9029BA36072
:107958009DF8070000F008FEDAE7D4F8104454B99F
:107968000C4B0D480D49C01AC008000440F0020035
:1079780000F05EF8CCE7236820469B689847E368E8
:107988001C68ECE7002583E7C8730020A4CC02003C
:10799800D47300200CCC020034CC020045CD020088
:1079A8002DE9F34704460E46924601A901221846DE
:1079B8009946FFF70BFE1C4F10B3019D4FF00008CE
:1079C800AA1CC84508EB020125D11848002100F07F
:1079D800C3FF80F31000000440EA1440E4006B1C6D
:1079E80004F03804DBB2EDB244F0010407EB830382
:1079F800033544EA881444EA8624D86047F82540C9
:107A08003B781BB1FFF7C8FE0028FBD1FFF7B8FE93
:107A180002B0BDE8F087C9B207EB81015AF82830F7
:107A2800CB6008F10108CCE7C8730020E477002098
:107A380000231A46FFF7B4BF07B50123019201AA34
:107A4800FFF7AEFF03B05DF804FB07B5CDE90023EF
:107A580002236A46FFF7A4FF03B05DF804FB1FB5D5
:107A6800CDE90123069B039301AA0323FFF798FF9F
:107A780005B05DF804FB000030B50F4CD4F81024B5
:107A880003460020114631B9D96808714AB9C4F8CB
:107A980010340A6030BDC9680D79854206D009687E
:107AA800F1E7D26814680C601360F3E701300A2824
:107AB800E8D14FF0FF30EDE7C873002038B5084B28
:107AC8000125D3F810441D7004B938BDE3685D7111
:107AD800236820465B689847E3681C68F4E700BFA2
:107AE800C873002030B5C38885B004460D4633B14D
:107AF800144A00921449154A284600F0DAFF217A00
:107B080005291DD0637A4BB1A088FFF723FE104BDF
:107B1800104953F82020284600F0CBFF227A0E4B5C
:107B2800A08853F8222003920021FFF7F7FD039A5B
:107B38000A490346284605B0BDE8304000F0B9BF01
:107B480005B030BD88CD020070CD020068CD0200BE
:107B5800F4CD02008DCD020018CE020090CD0200B7
:107B680007B503460846197A052911D05B7A2BB167
:107B7800094A0A49019000F09CFF019808490190C0
:107B880000F097FF019803B05DF804EB00F086BFA2
:107B9800002AF8D0F2E700BF88CD02008DCD0200A0
:107BA80085CD02002DE9F04385B01F460C9D0023CA
:107BB80095F80C902B7306460C4690462946384695
:107BC800FFF790FFB8F1060F09D8DFE808F00412B4
:107BD800181F283340003146284600F06AFF00226B
:107BE80029463846FFF7BCFF85F80C9005B0BDE87C
:107BF800F08322683146284600F05BFFEFE7D4E9BE
:107C080000233146284600F054FFE8E7A3680093B4
:107C18003146D4E90023284600F04BFFDFE7E3684C
:107C28000193A36800933146D4E90023284600F065
:107C380040FFD4E723690293E3680193A3680093A4
:107C48003146D4E90023284600F033FFC7E76369CB
:107C5800039323690293E3680193A3680093314671
:107C6800D4E90023284600F024FFB8E708292DE9C5
:107C7800F74F80460E4617461C463DD800251B7B0D
:107C88002573214610460193FFF72CFFDFF88CA0DF
:107C9800DFF88CB0AE4232D918F805205946204694
:107CA80000F007FF0135082DF4D11B49DFF874A057
:107CB800DFF874B0204600F0FCFE4FF000094E4596
:107CC80024D918F809507E2D1ED8284604F03EFE07
:107CD800002814BF2A462E225946204600F0E9FE05
:107CE80009F10109B9F1080FE9D101222146384605
:107CF800FFF736FF019B237303B0BDE8F08F5146B1
:107D0800204600F0D6FECDE72E22E5E75146204674
:107D180000F0CFFEE4E700BFA4CD0200A0CD020032
:107D28009ACD0200A2CD0200A6CD0200C30710B56D
:107D380007D4F023054A4008145C23401943115422
:107D480010BD0901C9B20F23F4E700BF90780020E5
:107D580030B5094B1C78094B196800239C4202DC9A
:107D68000022104630BD11F83350854201EBC302A2
:107D7800F7D00133F2E700BF80780020B078002008
:107D880013B504460191FFF7E3FF38B143682BB1FF
:107D98000199204602B0BDE81040184702B010BD56
:107DA800034B044819680022490800F081BA00BF53
:107DB80084780020C843002010B5C0B2FFF7C8FF80
:107DC8000446007801F0B2FE63785A1E53425341CC
:107DD800834208D1044BD3E90023134303D1BDE800
:107DE8001040FFF7DDBF10BD8878002037B5430885
:107DF800374AD35CC2074CBF1B0903F00F03044684
:107E08000D46042B25D8DFE803F003262F3C40005D
:107E1800F9B10121FFF78AFF00230DF107008DF862
:107E2800073000F07DFB0120A4F12003C4F12001FC
:107E3800284A20FA01F100FA03F30B43A040D2E9E3
:107E4800004120430B43C2E900039DF8070000F0FE
:107E58008BFB03B030BD002918BF0221204603B0B8
:107E6800BDE83040FFF762BF49B10321FFF75EFF6D
:107E78000121204603B0BDE83040FFF781BF012152
:107E8800ECE70029E5D10421E8E709B10321E5E79A
:107E9800FFF74CFF29462046FFF772FF0DF1070058
:107EA8008DF8075000F03CFB0120A4F12003C4F139
:107EB8002001084A20FA01F100FA03F30B43A0401D
:107EC800D2E9004124EA000021EA0303BBE700BF2E
:107ED80090780020887800202DE9F041124E134F49
:107EE80000243378A34208DC114BD3E90023134361
:107EF80018D0BDE8F041FFF753BF3D6805EBC40853
:107F080015F8340001F012FE98F801305A1E534259
:107F18005341181A4142414115F83400FFF766FFF2
:107F28000134DEE7BDE8F08180780020B0780020D9
:107F380088780020092AF7B505460C4616463ED92A
:107F480001F0FAFCE8B11F4B1F481D601F4B204F82
:107F58001C70204B002120221E6004F06CFD1E4B7B
:107F680000200021C3E90001013CE4B20326FF2CF4
:107F78000DD11A4A1A48002103B0BDE8F04000F0BC
:107F880085B901F095FC0028DDD003B0F0BD9DF85F
:107F9800063015F834008DF8046005EBC40223F0B0
:107FA80007038DF8063001A993788DF805303A4615
:107FB80001F0CCFC013CE4B20028D8D0E5E707206A
:107FC800E3E700BFB0780020907800208078002098
:107FD800C17D02008478002088780020E17E0200BC
:107FE80038CE020070B5084D084E00242B789C420C
:107FF80001D3002070BD3368012113F8340001F06B
:1080080025FD0134F2E700BF80780020B078002019
:1080180073B5114D114E00242B789C4215D30023C3
:108028000DF107008DF8073000F07AFA0C4B0021AB
:108038000020C3E900019DF8070000F095FA0948FF
:1080480002B0BDE8704000F061B9336813F834003D
:1080580001F04AFD0134DFE780780020B078002085
:1080680088780020C84300201FB50021039001AA8A
:1080780044F20100CDE9011100F004F805B05DF803
:1080880004FB000038B572B6FFF718FDFFF784FB54
:108098000028FBD1104B114C114D1249E41AE40889
:1080A800240444F00100FFF7C3FCD5F8F030DB07E7
:1080B80000D500BE0C4944F00200FFF7B9FCBFF33D
:1080C8004F8FEA68094B02F4E0621343EB60BFF399
:1080D8004F8F00BFFDE700BF0CCC020034CC02007C
:1080E80000ED00E03CCE020048CE02000400FA0594
:1080F80010B5D0E90243D1E90202A04272EB0303B2
:108108002CBF0120002010BD08B50A4800F05FFB15
:10811800094AD2E90031C018084BD3E9002341F1DC
:108128000001904271EB030303D210F1807041F11A
:10813800000108BDE8430020B8780020307900200D
:1081480037B505460C460A4801A900F074FB60B132
:108158000570446001A9064800F097FB18B105486E
:1081680000F03AFB002003B030BD0420FBE700BF5D
:108178001C790020E8430020294B73B51E7804467B
:108188001EB90026304602B070BD0028F9D0FFF7AE
:10819800BBFFD4E902239042994139D300230DF162
:1081A80007008DF8073000F0BBF923692BB94FF0B1
:1081B800FF324FF0FF33C4E902239DF8070000F0B7
:1081C800D3F9D4E90530984700250DF107008DF85B
:1081D800075000F0A5F92369C3B1D4E90212B2F13E
:1081E800FF3F08BFB1F1FF3F05D05B1842F1000225
:1081F800C4E9023235469DF8070000F0B5F9002DB4
:10820800BFD00848214600F0E5FFBBE71D46F2E76E
:10821800B3F1FF3F08BFB2F1FF3FB2D0F1E700BFB3
:10822800C078002064CE020013B5114B11491868BC
:10823800019008231048582200F0EAFA044698B939
:108248000E4A0F4801A900F0B3F9044660B90C487A
:10825800012100F09FFA01230A4A0948194600F053
:1082680001FA094B01221A70204602B010BD00BF66
:1082780060CE0200C47800201C79002071830200BF
:10828800E8430020FFFF7F00C078002030B56AB1C6
:1082980003684FF0FF344FF0FF355A614A1E5142D0
:1082A800C3E9024551411961002030BD0720FCE7B0
:1082B800F7B5044600250DF1070017460E468DF860
:1082C800075000F02DF9D4E90223B3F1FF3F08BFAE
:1082D800B2F1FF3F07D1FFF717FF301841F1000156
:1082E800C4E9020101259DF8070000F03DF955B1E8
:1082F8002369A76103B126612146002003B0BDE8C8
:10830800F040FFF71DBF284603B0F0BD37B505465E
:1083180000240DF107008DF8074000F001F9D5E9B8
:108328000223B3F1FF3F08BFB2F1FF3F1FBF4FF079
:10833800FF324FF0FF33C5E9022301249DF80700FF
:1083480000F012F934B12946012003B0BDE83040ED
:10835800FFF7F6BE204603B030BD0000014800F02C
:1083680036BA00BFE84300202DE9F743064600F07F
:1083780019FA40B1624AD2E9003113F1807341F130
:108388000001C2E900310021304600F01AFA38B184
:108398005C4C236823B12068FFF7EEFE00232360BE
:1083A8000121304600F00DFA20B1FFF7ADFE564B23
:1083B800C3E900015548534C01A900F076FA4FF083
:1083C800FF384FF0FF39A0B9DFF844814D4D4046E2
:1083D80000F016FF002800F08580D0E90223B3F1F1
:1083E800FF3F08BFB2F1FF3F32D1404600F002FF25
:1083F800EDE70378012B20D0022B08D1444D284605
:1084080000F0F8FE002877D0C0E90289F7E75BB9E9
:108418004168D1E90223B3F1FF3F08BFB2F1FF3F42
:1084280002D03B4800F0D6FE01A9384800F068FAAF
:1084380001A9364800F039FAC5E74168236899422E
:1084480002D100232360EFE7314800F0DCFEEBE7C0
:10845800296891B12968D1E9020182428B412FD262
:108468002B68D3E90223B3F1FF3F08BFB2F1FF3F06
:1084780003D02968404600F0ADFE404600F0BAFE41
:10848800D0E902490746FFF73FFE201A69EB0109C8
:10849800012879F1000318DBB0F5350F13D3FFF786
:1084A8005DFF1C4A02441C484FF49603002100F06B
:1084B800F9F890B92B6813B9304600F0CBF82F6063
:1084C80003B0BDE8F0832246EDE71348002100F031
:1084D8006EF93846FFF750FE01E00D28F9D0002369
:1084E8002B6074E7074B1B68002BE9D1304603B0BB
:1084F800BDE8F04300F0B2B8084B01221A7093E7C8
:10850800B878002038790020307900201C790020C4
:1085180064CE0200FFFFB400E8430020C0780020CA
:1085280070B5EFF3108672B60C4A946801239CB9B3
:1085380093600B4B0B4DD3F8801029401160C3F8A2
:108548008050D3F8841051604FF0FF32C3F8842074
:10855800047006B962B670BD0370FAE73C79002072
:1085680000E100E0FC06FFBD084B9A6810B55AB15F
:1085780050B9EFF3108172B6054A1C6814605C6844
:108588005460986001B962B610BD00BF3C79002004
:1085980000E100E0435882B03BB100234350435808
:1085A8000193019B012002B070471846FBE70000C9
:1085B800F8B5204B4479204E43F824201F4A204B1D
:1085C80006EBC4049B1A2279DB081B0432B143F082
:1085D80002001C49FFF72CFA0820F8BD02680C8835
:1085E800C2F8084590F904508A7804795201002DA0
:1085F800D2B219DB14494F1987F8002301226D09FB
:1086080004F01F0402FA04F441F82540427906EB0D
:10861800C201012446F832000C7143F003000B49F3
:10862800FFF706FA0020D8E7094904F00F040A55B5
:10863800ECE700BF50790020487900200CCC0200FC
:1086480044CC020070CE020000E100E092CE0200AD
:1086580014ED00E0036801221A60704703680122E4
:108668005A60704773B501F15005AD000068ADB2AE
:108678004FF480348C400026C0F80843C0F84843C3
:10868800465101F5A8714559019522F07F42019D97
:1086980040F82120C0F844430BB1C0F8044302B0AD
:1086A80070BD00002DE9F74F0D4622F07F440268A7
:1086B8004FF4803705F150068F408046B60002EB34
:1086C8008500C2F84873B6B2C2F80873D2F8041528
:1086D80099464FF0000BD0F84035C0F8401542F8E5
:1086E80006B05B1A9259009223F07F43012B009A3F
:1086F8004FEA850A0CD1264B4FF4806043F0010302
:108708009847D8F8003043F806B09B590193019B6D
:10871800D8F80010D1F80465C1F84473A31B23F0FE
:108728007F43012B1CD11A4B05F5A875013443F082
:10873800010341F825404FF480609847D8F800308D
:10874800D3F804359E4209D1D8F800300020C3F888
:108758004473C3F8047303B0BDE8F08F0D20FAE743
:108768008A44C9F1FF13CAF84045D1F80405221A12
:10877800013A22F07F4203F57F439342EED3002A69
:10878800E2D10134CAF84045D1F804359842DAE715
:10879800B0CE020003680222C3F8442309B1C3F82B
:1087A8000423704700684FF48271FFF7F3BE4FF45B
:1087B800803303FA01F10368C3F84813C3F80813B8
:1087C800704750318900006889B2FFF7E3BE03683B
:1087D800D3F804057047000090F90430002B09DB3A
:1087E8005A09012103F01F0301FA03F34032024939
:1087F80041F82230704700BF00E100E0024B034A15
:108808001B681068184700BF50790020487900207D
:1088180010B561B1B2FBF3F403FB1424A4B244B95C
:10882800C0E9001484608281C381204610BD0E20F7
:10883800FCE70920FAE737B550E8013F9DB2C48943
:1088480025448489A54228BF2D1B0489A54202BF5F
:10885800BFF32F8F002207E0C5EA030540E8015463
:10886800002CE9D14FF001028DF803200193019A01
:108878000A609DF8031001F0FF0321B1006810FAA7
:1088880082F003B030BD1846FBE70A884B889A424D
:1088980009D150E8012FC2EA024240E80123002B27
:1088A800F7D1012070470020704737B550E8023FE4
:1088B8001FFAA3F5C488A54202BFBFF32F8F002279
:1088C8000DE0C48925448489A54228BF2D1BC3EA2D
:1088D800054540E80254002CE8D14FF001028DF81C
:1088E80003200193019A0A609DF8031001F0FF0329
:1088F80021B1006800EB124003B030BD1846FBE719
:108908000A884B889A4209D150E8022FC2EA2242CB
:1089180040E80223002BF7D1012070470020704760
:1089280001F01F024B090121914000EB830000F088
:108938001EB801F01F0301229A404B0900EB830087
:10894800D14300F02CB84B0901F01F0150F8230067
:10895800C84000F00100704710B5034653E8000F07
:108968000A4643E8002494F0000FF7D110BD10B573
:10897800034653E8002F42EA010043E8000494F05C
:10898800000FF6D110BD10B5034653E8000F00EAFA
:10899800010243E8002494F0000FF6D110BD10B591
:1089A800034653E8002F02EA010043E8000494F06C
:1089B800000FF6D110BD10B5034653E8002F02EBA7
:1089C800010043E8000494F0000FF6D110BD10B583
:1089D800034653E8002FA2EB010043E8000494F09B
:1089E800000FF6D110BD0121FFF7C1BF0021FFF72D
:1089F800CABF10B590B1D0E9012301689B1ADBB258
:108A08000A60013BDBB2FF2B026802D10020107123
:108A180010BD11684C1C14600B70F2E70E20F7E7CC
:108A280037B5054600240DF107008DF80740FFF71C
:108A380077FD2A686B68116899420ED9481E106044
:108A480011F8013CEC68298A01FB0344AB681179F1
:108A58001B1ADBB2994238BF13719DF80700FFF764
:108A680083FD204603B030BD37B5054600230DF120
:108A780007000C468DF80730FFF752FD2A68136887
:108A8800591C1160E968641A298AB4FBF1F41C7056
:108A98009DF80700FFF768FD03B030BD826810B588
:108AA80004462AB143690168006998470023A36016
:108AB80010BD0EB403B5039921B104AB01AA01930B
:108AC80000F076F802B05DF804EB03B070470A29AD
:108AD80038B504460D4602D10D21FFF7F8FFA3680B
:108AE8002268591CA160D554D4E901329A4204D3B2
:108AF8002046BDE83840FFF7D1BF38BD2DE9F84F13
:108B08009846DDE90A43154682460F460A464FF065
:108B18000109AA420FD2C14538BFC14613F0010B63
:108B280001D16CB900240126B8F1010F1BD908F155
:108B3800FF386E43F8E709F10109B2FBF5F2E8E7FF
:108B48009B070ED5B8F1000F0CBF30262026A14593
:108B5800E9D2013C31465046FFF7B9FF002CF6D167
:108B6800E0E72026F3E7B7FBF6F39D42E1D9DFF80B
:108B78003C80B7FBF6F3504618F8031006FB137752
:108B8800FFF7A5FF3346AB42B6FBF5F6F1D2BBF1D2
:108B9800000F02D00CB1A14501D3BDE8F88F202108
:108BA8005046013CFFF793FFF4E700BFB6CE020042
:108BB8002DE9F74F054617468846002900F03E8103
:108BC80018F8011B49B92B7B002B00F03781284688
:108BD80003B0BDE8F04FFFF761BF252940F0B7802B
:108BE800002698F800302D2B424608F1010823D0C2
:108BF800302B24D02B2B25D000242A2B02F1010165
:108C080023D13B681A1D1B683A601C440A46137836
:108C18002E2B26D101324FF0000A104610F8011B06
:108C2800A1F1300CBCF1090F1DD80A2303FB0A136C
:108C3800A3F1300A0246F0E746F00106D1E746F014
:108C48000206CEE746F00406CBE711F8013CA3F193
:108C580030000928DBD80A2202FB0434303C0A46DB
:108C6800CBE74FF0000A12F8011B01F0FB0068285F
:108C78009046F8D0782909D86F290CD8632962D092
:108C880022D8252963D0582900F0888098F8003028
:108C9800002B95D197E770390829F7D801A353F825
:108CA80021F000BF1F8E0200958C0200958C0200F7
:108CB800B58D0200958C0200938D0200958C020000
:108CC800958C0200A58D0200642901D06929DDD1A7
:108CD8003A68D2F80090111D89EAE9723960A2EB6E
:108CE800E9724FF0010B092A35DCD34538BFD3466A
:108CF8002CB1B9F1000F01DB720700D5013CB307B5
:108D080002D5BAF1000F03D0F00701D44CBB002400
:108D1800B9F1000F2DDAC9F100092D212846FFF716
:108D2800D6FE06F00302022A04D1BAF1000F01D1DF
:108D38001CBB0024CDE9004653460A224946284672
:108D4800FFF7DCFEA2E73B681A1D19783A6028464F
:108D5800FFF7BDFE9AE70A230BF1010BB2FBF3F212
:108D6800C1E7A345D4D220212846013CFFF7AFFE36
:108D7800CCE77107D5D52B21D0E7A345DAD230212E
:108D88002846013CFFF7A3FED2E73968CDE9004643
:108D98000A1D3A6053460A220968D0E739680A1D55
:108DA8003A60CDE9004653461022F5E73B681A1DA4
:108DB8003A6016F00106D3F8009024D1B9F1000FFB
:108DC80003D0484603F091FE0646B4421DD809F187
:108DD800FF3919F8011F00293FF458AF2846FFF75B
:108DE80076FEF6E728460136FFF771FE19F80610F9
:108DF8000029F7D1A642BFF449AF20212846013CFB
:108E0800FFF765FEF6E70026F0E720212846013C3B
:108E1800FFF75DFED9E73B681A1D3A603021284606
:108E28001C68FFF754FE78212846FFF750FE002201
:108E38000823CDE900322146102280E703B0BDE8BF
:108E4800F08F00BF2DE9F84FB0F806A04579D2F8A9
:108E580000B09DF828900AFB05F5043D88460BEB09
:108E68000301A94203F1040488BFA5EB030BB4FB7B
:108E7800FAF607460AFB1644C2F800B04EB9AAEB48
:108E880004055D4528BF5D46BBF1000F04D1BDE870
:108E9800F88F3F68013EF1E7043408EB06003C44D4
:108EA8002A46B9F1000F0DD02146ABEB050B03F0B4
:108EB80099FDDA452E443F6855464FF0000428BF17
:108EC8005D46E1E701462046EFE7FFF792BDF8B5BA
:108ED80046790146721E0546002393422D6803D346
:108EE8000024A64202D8F8BD0133F6E70F682846E9
:108EF800FFF7BAFD01343946F3E72DE9F843068A4E
:108F0800CD1C0746FFF78CFD043E35440446B5FBEF
:108F1800F6F5F0B14FF48073EDB28380C680013D61
:108F2800076081464FF00008A84512D23846FFF77F
:108F380077FD064648B163790133637108F101088A
:108F4800C9F8000007608146EEE72046FFF7BFFF3B
:108F580034462046BDE8F88301210430FFF72BBDD5
:108F680010B5012104460430FFF731FDC0B220B925
:108F78002046BDE81040FFF7AABF10BD1FB50392F9
:108F88000022009203AAFFF75DFF05B05DF804FB1D
:108F98001FB503920122009203AAFFF753FF05B001
:108FA8005DF804FB41DF7047064B10B500241C70C8
:108FB800054B1C60BFF35F8F0449054800F0F4F8C7
:108FC800204610BD5C79002060790020D0CE0200D8
:108FD8005479002007B500230DF107008DF80730FC
:108FE800FFF79EFAF1EE103A23F09F03E1EE103AF4
:108FF800BFF35F8F0A4B4022C3F884219DF8070016
:10900800FFF7B2FA03F0B4F920B103B05DF804EB4E
:10901800FFF7C8BF20BF40BF20BF03B05DF804FB07
:1090280000E100E0026813685268934291BFD01AC9
:1090380080680130801888BFC01A7047036881684B
:109048001A685B688B4234BF01330023D31A584235
:109058005841704773B5002304460DF107000D46CB
:109068008DF80730FFF75CFA2046FFF7E7FF10B1ED
:10907800237C002B3BD12368A1685E685A688A422A
:1090880034BF013200225A6028B11A688A4234BFBC
:10909800013200221A60E2686368511E072920D84D
:1090A800DFE801F004101F141F1F1F182A789A55B3
:1090B8002046FFF7B7FF23689A68824200D298607B
:1090C800002415E02A8823F81620F1E72A6843F8D7
:1090D8002620EDE7D5E9000103EBC603C3E900014B
:1090E800E6E7294602FB063003F07CFCE0E70424AF
:1090F8009DF80700FFF738FA204602B070BD0368F4
:1091080018685B68C31A58425841704773B5002302
:1091180005460DF107000C4616468DF80730FFF797
:10912800FFF92846FFF7EBFF002832D12B681968B2
:109138002EB91A68A868824238BF561C1E60EA68B1
:109148006B68501E07281ED8DFE800F0040E1D12B9
:109158001D1D1D165B5C237000249DF80700FFF79A
:1091680003FA204602B070BD33F811302380F3E7CC
:1091780053F821302360EFE703EBC103D3E9002361
:10918800C4E90023E8E701FB0231204603F02AFC8A
:10919800E2E70524E1E7836800225A60C3E9042274
:1091A8009A60DA601A6070470B684A6843609342B5
:1091B80008BF0023016008BF43607047436843B19C
:1091C8000268916852680B449342436004BF0023CD
:1091D8004360704770B5446806460D46206818B16C
:1091E800B3682946984718B923682B60256070BD75
:1091F8002468F3E74368186808B102681A60704782
:109208004368186870474368186800B9704788420F
:1092180003D102681A600120704703460068F4E72A
:1092280010B50D49A1F59472914201D800200FE0C4
:109238008C1AE30F03EBE4035B1002EBC30452F850
:109248003330834205D802D204F10802ECE76068A3
:1092580010BD2146E8E700BFDCD3020008B5FFF7E0
:10926800DFFF024B002808BF184608BD9FD2020046
:109278004FF08053D3F83001A0F108035842584109
:10928800704700004FF08053D3F83021082A06D1E8
:10929800D3F83431052B02D8024AD05C704700203D
:1092A800704700BFE2D30200024AD2F80034002B14
:1092B800FBD0704700E0014010B5FFF7D9FF40B17F
:1092C8004FF080430022C3F80C21C3F81021C3F8E3
:1092D8003825FFF7CDFF002846D04FF08052654B68
:1092E800D2F80414C3F82015D2F80814C3F82415CA
:1092F800D2F80C14C3F82815D2F81014C3F82C159A
:10930800D2F81414C3F83015D2F81814C3F8341569
:10931800D2F81C14C3F84015D2F82014C3F8441529
:10932800D2F82414C3F84815D2F82814C3F84C15F9
:10933800D2F82C14C3F85015D2F83014C3F85415C9
:10934800D2F83414C3F86015D2F83814C3F8641589
:10935800D2F83C14C3F86815D2F84014C3F86C1559
:10936800D2F84424C3F87025FFF78CFF18B1424B9C
:10937800424AC3F88C26FFF785FF18B1404BFB2201
:10938800C3F81825FFF77EFF70B14FF080414FF00A
:109398008053D1F8E42ED3F8583222F00F0203F0AC
:1093A8000F031343C1F8E43EFFF76CFF20B1354BC0
:1093B8004FF40072C3F84026FFF75AFF48B14FF048
:1093C8008043D3F80024D20744BF6FF00102C3F8EA
:1093D80000242D4AD2F8883043F47003C2F888304C
:1093E800BFF34F8FBFF36F8F4FF08053D3F8302107
:1093F800082A0ED1D3F83431052B02D8234AD35C7E
:109408003BB14FF01023D3F808224FF08043C3F844
:1094180058254FF01023D3F80022002A03DBD3F895
:109428000432002B22DA1A4901234FF01020C1F828
:1094380004351224FFF738FFC0F80042FFF734FF65
:10944800C0F80442FFF730FF0023C1F80435FFF7E6
:109458002BFFBFF34F8F0C490E4BCA6802F4E06232
:109468001343CB60BFF34F8F00BFFDE70A4B0B4A96
:109478001A6010BD00C00040005000404881030041
:1094880000F000400090024000ED00E0DCD3020054
:1094980000E001400400FA05F04300200090D003EA
:1094A800074B1B5C1F2B86BF064903F01F034FF0B9
:1094B800A041012202FA03F3C1F80C35704700BF3E
:1094C800E8D3020000030050074B1B5C1F2B86BF2C
:1094D800064903F01F034FF0A041012202FA03F3EB
:1094E800C1F80835704700BFE8D3020000030050F8
:1094F80008B50020FFF7E8FF0120FFF7E5FF02208D
:10950800FFF7E2FFBDE808400320FFF7DDBFC20711
:1095180010B504460CD54FF0A0430322C3F83427F6
:10952800C3F83827C3F83C27C3F84027FFF7E0FF04
:10953800A3070AD54FF0A0430C22C3F82C27C3F881
:109548003027C3F86027C3F8642710BD38B5074C27
:10955800051E04F1080318BF1C4623682BB11A68BE
:1095680022605B6828469847F7E738BD6C79002089
:1095780020B9054B01225A70FFF7E8BF012802D134
:10958800014A9070F8E770476479002020B9034BCE
:1095980001225A70FFF7DABF704700BF64790020D4
:1095A80038B50E4C2378B3B90D486360A3602361C6
:1095B800E36000F0E7F8054602F0DAFE08B900F0CB
:1095C800EDF801232370074BD3F800340BB10123C6
:1095D800A370284638BD8525F5E700BF64790020CB
:1095E800799502000000014037B50D4C00230DF1BC
:1095F80007008DF80730FEF793FFE368013BE3604F
:10960800E36833B9074BD3F8005415B900F0D8F81C
:10961800A5709DF80700FEF7A7FF03B030BD00BF97
:109628006479002000000140012813B50CD00328FC
:1096380020D038B9134B0122C3F88020BFF34F8FD5
:10964800BFF36F8F02B010BD0F4C00230DF1070060
:109658008DF80730FEF764FF23780BB9FFF7A0FFFA
:10966800E3689DF807000133E3600123A370FEF768
:109678007BFFE7E700F092F802B0BDE81040FFF783
:10968800B3BF00BF00E100E0647900201FB5037894
:109698008DF800304368019383688DF80830C368FB
:1096A800054A0393054B684653F8213052F82110B8
:1096B800984705B05DF804FB787900208079002090
:1096C8001FB503788DF800304368019383688DF8DF
:1096D8000830C368054A0393054B684653F82130A0
:1096E80052F82110984705B05DF804FB78790020FE
:1096F80080790020F0B5194B90F800C0DFF86CE0D5
:1097080043F82C20164B16460A6943F82C204B7F49
:109718000EF80C300C4607460FCC89B06D460FC5C5
:1097280094E80F0085E80F003B78CDF810C01EF8CC
:1097380003304BB1002E0B4A694608BF3246381D2C
:1097480000F01EFE09B0F0BD002E074A694608BFAA
:10975800324607F10C0000F0D7FBF3E780790020D0
:109768007879002095960200C99602008879002031
:1097780000F18040002382B0036003680193019BDD
:1097880002B07047044A137923B90121106091800F
:1097980018467047852070478C790020074B1A6857
:1097A800D20704D4C02283F8002301221A604FF0A4
:1097B80080430122C3F81825704700BF00E100E08C
:1097C8004FF0804208B50223C2F808334FF4827084
:1097D800FFF7CEFF0123D360D2F81834DB03FBD4A4
:1097E80008BD00004FF0804110B5D1F8003163B1D9
:1097F8004FF48070FFF7BCFF0D4B58790122C1F878
:10980800082310B95A711B6898474FF08042D2F864
:10981800043163B14FF48270FFF7AAFF0223C2F844
:109828000833034BBDE810401B680120184710BDE2
:109838008C79002000F1804000F5C040002382B000
:10984800036003680193019B02B0704703681F2BF4
:1098580083BF03F01F03036001484FF0A040704727
:109868000003005007B5019001A8FFF7EFFF019B27
:1098780000EB8300D0F8003723F44033C0F80037FA
:10988800D0F8003743EA0141C0F8001703B05DF88B
:1098980004FB0000054B4FF0FF32072843F8202057
:1098A80084BFC01880F85820704700BF9479002002
:1098B80038B51D4991F86A30A3BB4FF6FF70FF24F5
:1098C8005A09012A0CBF02464FF0FF3203F01F0568
:1098D800EA40D20748BFCA1803F1010348BF82F81B
:1098E8003040302BECD10024E0B20134FFF7D2FF36
:1098F8000C2CF9D10D4B00224A669A800C4BC020E3
:1099080083F80603402018604FF4BE70FFF792FFFB
:10991800084B4FF00040C3F80403012381F86A3074
:10992800104638BD0820FCE794790020F87900201B
:1099380000E100E000600040034B93F86A00003843
:1099480018BF0120704700BF94790020F7B53D4F3C
:109958003B18044693F93030002B71DA8B78C3F347
:109968004003002B0BBF082500250C20082085424A
:1099780002D1042003B0F0BD57F82560013647D165
:1099880038196EB247F8252080F8306013B97B1972
:1099980083F858408B785A071AD4D8073AD501A8C3
:1099A8000194FFF753FF019B00EB8300D0F80037C9
:1099B80023F00203C0F800372348E20804F0070C3C
:1099C800012303FA0CF310F802C043EA0C03835492
:1099D80088780B7810F0020028D0AD0005F180459A
:1099E80005F5C0452402D5F8102522F44F3222F49B
:1099F8004072C5F810251B04D5F8102504F47C54D2
:109A080003F440331C431443C5F810450020B1E764
:109A18000135ACE701A84A780194FFF717FF019BCD
:109A280003F5E073920040F82320C5E7083E47FAA3
:109A380086F797F8604044EA831387F8603099E71F
:109A4800082097E794790020F879002073B5244D11
:109A58002E18044696F93020072A1DDD083A45FAE3
:109A680082F595F860309B09032B10D1019001A86D
:109A7800FFF7ECFE019BD0F81015D94001F0010169
:109A88000231204602B0BDE87040FFF7EBBE012B63
:109A98000CBF02210321F4E7D3B2072B1DD8930092
:109AA80003F1804303F5C043D3F8100540F00100EB
:109AB800C3F8100502F1400040B2800080B2FFF701
:109AC800B9FE51B196F9303055F823302BB1012346
:109AD80003FA02F2034BC3F8042302B070BD00BFBF
:109AE80094790020006000400E4B034493F9302025
:109AF800072A02DD0021FFF7B5BED3B2072B10D825
:109B0800930003F1804303F5C043D3F8101521F007
:109B18000101C3F81015012303FA02F2024BC3F83E
:109B280008237047947900200060004007B5019031
:109B380001A8FFF78BFE019BD0F81005D84000F074
:109B4800010003B05DF804FB2DE9FF470024CDE9CF
:109B58000244584D4FF48072012102F1804303F50D
:109B6800C04390B21B68012B06D1D5F804330B42D1
:109B780002D0FFF75FFE0C430432B2F5907F4FEA44
:109B88004101EAD14B4BD3F87C31012B11D14FF471
:109B9800BE70FFF74FFE4FF0A04344F00044D3F8E7
:109BA80020250292C3F82025D3F820280392C3F871
:109BB8002028E3B2D3B1404F00250126344210D00B
:109BC800AB0003F1804303F5C043D3F81005D3F885
:109BD800101557F8253023B1C1F30141C0F3052012
:109BE80098470135082D4FEA4606E7D1002C59DA87
:109BF800314D324C324E4FF00008012716F9013B27
:109C08005A1C3CD0C3F3C201103169445FFA83F98E
:109C180011F8081C03F03F0203F0070307FA03F3E7
:109C280019422CD001A80192FFF710FE019B03F501
:109C3800E07350F82330C3F3014ABAF1020F0CBFA6
:109C4800032102211046FFF70DFE01A80192FFF73C
:109C5800FDFD019B07FA03F3C0F82035AB1893F913
:109C6800303055F8233053B14FEA9911032904D005
:109C7800BAF1020F19D1012901D11046984708F10C
:109C88000108B8F1040FB9D14FF0A043D3F820254B
:109C98000292C3F82025D4F820350393C4F8203560
:109CA8001343A7D104B0BDE8F087BAF1030FE6D19A
:109CB8000229E1E700600040947900200003005089
:109CC800F4790020014B1B68184700BF007A002078
:109CD8000E4B984237B50C4602D0002003B030BD79
:109CE80000230DF107008DF80730FEF719FC084B2B
:109CF8001D7915B901221C601A719DF80700FEF73D
:109D080033FC002DE9D01120E8E700BF0020004017
:109D1800007A0020034B984201BF034B00221A60CF
:109D28001A71704700200040007A00200023435039
:109D380082B043580193019B02B070470A4610B5A0
:109D48004FF48E71FFF7F2FF136A9168C95C136ACA
:109D580001331362C0F81C1510BD8B690A4610B593
:109D68004FF4847123B9FFF7E1FFD0F8183510BD1F
:109D7800FFF7DCFF536AD168D0F81805C854536A56
:109D880001335362F3E700001FB501238DF800305B
:109D9800044BCDE90110D3E900126846904705B09D
:109DA8005DF804FB087A002030B54D4DD5F8043332
:109DB8009A0585B051D5D5F82431002B4DD04FF4F4
:109DC80092712846FFF7B2FF4FF40173C5F80833C4
:109DD800444B93F829200AB901226A6040490222BB
:109DE8008DF80020D1F88024C1F8802403929A6964
:109DF8000292DA6801920022C3E906226846D3E992
:109E0800001290473648D0F81C315BB1354A516989
:109E1800136A99424DD992F82830002B49D111463E
:109E2800FFF78CFF2E48D0F84431002B56D04FF462
:109E3800A271FFF77BFF2B4B93F829200AB101226F
:109E480002609A69002A49D0586AD96800229A6142
:109E580005B0BDE83040FFF797BFD5F804335B077E
:109E6800D0D5D5F80831002BCCD01E4C1C48214643
:109E7800FFF773FF636AA2699A42C3D1E369E16895
:109E88004BB1A3612369E3600023606AE361636205
:109E9800FFF77AFFB6E794F829300BB901236B6016
:109EA8000F4B4FF40172C3F808230023606AA361C3
:109EB800EEE70B484FF48E71FFF738FF5369002B1C
:109EC800B0D051690291002391688DF8003001915A
:109ED80053616846D2E900139847A3E705B030BD3F
:109EE80000200040087A00201F2886BF00F01F00CD
:109EF800044B4FF0A04300F5E070022243F8202005
:109F0800704700BF000300502DE9F843604D90F8FA
:109F180004802C2303FB0853064693F82A300C468A
:109F28009146002B40F0AF805A490068FFF7D0FEF9
:109F38000746002840F0A9802268531C10D01F2A29
:109F480087BF554902F01F0313464FF0A041012077
:109F5800984003F5E073C1F80805032041F8230091
:109F68006168481C0DD01F298BBF01F01F030B46E9
:109F780049484FF0A04003F5E0734FF0000C40F85B
:109F880023C03068A369C0F8243594F814C0637DF1
:109F9800BCF1010F4CEA0303C0F86C35C0F8141586
:109FA800C0F80C252BD1A368591C0DD01F2B8BBFD3
:109FB80003F01F021A4638494FF0A04102F5E0723B
:109FC8004FF0000C41F822C0E1684A1C13D01F2949
:109FD80087BF314A01F01F0C8C464FF0A0424FF06A
:109FE800010E0EFA0CFE0CF5E07CC2F808E54FF005
:109FF800030E42F82CE0C0F80815C0F810352C22E2
:10A0080002FB08F2AB18C3F804902369AB50B9F10E
:10A01800000F20D04FF48E71247FFFF787FE4FF496
:10A02800A2713068FFF782FE32681C4BC2F8043315
:10A03800130B42F307326101002AC9B21EDB18482C
:10A04800841884F800130121520903F01F0301FA50
:10A0580003F340F8223033680422C3F800252C2388
:10A0680003FB08530022C3E9062283F829205A611A
:10A07800012283F82A203846BDE8F883094A03F00C
:10A088000F03D154E7E70827F5E71127F3E700BFE7
:10A09800087A0020B19D02000003005080000200F1
:10A0A80000E100E014ED00E02DE9F04103680579D6
:10A0B800284C0022C3F800252C2202FB0542014649
:10A0C8005268A2B1244AC3F808231A0B43F3073392
:10A0D800002B0CDB02F01F005B09012282402033B9
:10A0E8001E4840F82320BFF34F8FBFF36F8F0B68D4
:10A0F800D3F80C05D3F81485D3F80865D3F8107590
:10A108004FF0FF329042C3F81425C3F80C25C3F86A
:10A118000825C3F8102501D0FFF7E6FEB8F1FF3F88
:10A1280002D04046FFF7E0FE7A1C02D03846FFF71F
:10A13800DBFE731C02D03046FFF7D6FE0868FFF737
:10A14800E9FD2C2303FB0544002384F82A306360CF
:10A15800BDE8F081087A00208402020000E100E0F6
:10A168000279044B2C2101FB02335869003818BFCF
:10A1780001207047087A00202DE9F84F064690F82C
:10A18800048089469246FFF7EBFF044600283CD13D
:10A19800204F2C2508FB057B4FF48E71CBF814A0BB
:10A1A800CBF80890CBF820008BF828003068FFF730
:10A1B800BDFD3068012383605946FFF7BFFDDBF81A
:10A1C80004305D461BBB3068DBF814402B6A9C42A8
:10A1D80011D83368D3F81C21002AFBD00122DA6099
:10A1E80000202C2303FB087700237B61BDE8F88F50
:10A1F80095F828303BB9D0F81C31002BF8D05946D7
:10A20800FFF79CFDE2E70F20EBE71120EEE7204681
:10A21800ECE700BF087A00200023435082B043587F
:10A228000193019B02B070471FB501238DF80030E0
:10A23800044BCDE90110D3E900126846904705B0F8
:10A248005DF804FB347A00207FB5434AD2F82461D4
:10A25800002E60D010464FF49271FFF7DDFF022305
:10A268008DF80030D2F88034C2F880340393D2F8E5
:10A278003C350293394BDA6801920022C3E9062281
:10A288006846D3E9001290473348D0F8443173B197
:10A298004FF4A271FFF7C0FF304B9A693AB1002220
:10A2A800C3E90622D968D0F83C05FFF7BDFF2A4864
:10A2B800D0F82031ABB14FF49071FFF7ADFF012317
:10A2C800C360264B5A6962B1D0F84C15029100223E
:10A2D80099688DF8002001915A616846D3E9001207
:10A2E80090471D48D0F858319BB14FF4AC71FFF737
:10A2F80093FF1A4B5A6962B1D0F84C1502910022AB
:10A3080099688DF8002001915A616846D3E90012D6
:10A31800904704B070BDD2F81031002BB4D04FF480
:10A3280088711046FFF778FF0C4BD2F83C05996905
:10A338008842A9D1DC69D96864B1D2F8005225F005
:10A348002005C2F800521A699C61DA60DE61FFF7E5
:10A358006BFF99E79C61FAE700200040347A0020FF
:10A368001F2886BF00F01F00044B4FF0A04300F5E4
:10A37800E070022243F82020704700BF000300501D
:10A388002DE9F843664E90F80480242303FB086304
:10A39800044693F820300D469146002B40F0BC80CF
:10A3A80060490068FFF794FC0746002840F0B68033
:10A3B80029684B1C10D01F2987BF5B4A01F01F0377
:10A3C8000B464FF0A0420120984003F5E073C2F815
:10A3D8000805032042F823006A68501C0DD01F2A84
:10A3E8008BBF02F01F0313464F484FF0A04003F500
:10A3F800E0734FF0000C40F823C02068AB69C0F848
:10A40800243595F814C06B7DBCF1010F4CEA0303A9
:10A41800C0F86C35C0F80C15C0F814252BD1AB6802
:10A42800591C0DD01F2B8BBF03F01F021A463E4943
:10A438004FF0A04102F5E0724FF0000C41F822C045
:10A44800E9684A1C13D01F2987BF374A01F01F0C3F
:10A458008C464FF0A0424FF0010E0EFA0CFE0CF5A0
:10A46800E07CC2F808E54FF0030E42F82CE0C0F893
:10A478000815C0F81035242202FB08F2B318C3F8F7
:10A4880004902B69B350B9F1000F2FD04FF48871A5
:10A498002A7FFFF7C1FE20684FF49071FFF7BCFEDA
:10A4A80020684FF49271FFF7B7FE20684FF4A2714D
:10A4B800FFF7B2FE4FF4AC712068FFF7ADFE2368DA
:10A4C8001A49C3F80413190B43F307335201002B3D
:10A4D800D2B21CDB1648C51885F8002301225B0997
:10A4E80001F01F0102FA01F140F823102368082245
:10A4F800C3F80025242303FB08660023C6E90633B6
:10A508007361012386F820303846BDE8F883094B8B
:10A5180001F00F015A54E9E70827F5E71127F3E797
:10A52800347A002051A202000003005010034200B8
:10A5380000E100E014ED00E02DE9F0413D4D067921
:10A548000468242303FB065302465B68ABB13A4B0D
:10A55800C4F8083344F30733002B4FEA14310CDBFB
:10A5680001F01F005B09012181402033334840F886
:10A578002310BFF34F8FBFF36F8FD4F8003223F04F
:10A588002003C4F80032242303FB06539B6933B12C
:10A598004FF4A2712046FFF73FFE012363604FF49A
:10A5A800AC712046FFF738FE0123E360242303FB48
:10A5B8000653D4F858110029FBD0996919B1D4F879
:10A5C80044110029F5D00023C4F800351368D3F8E6
:10A5D8000C05D3F81485D3F80815D3F810754FF087
:10A5E800FF329042C3F80C25C3F81425C3F8082598
:10A5F800C3F8102501D0FFF7B3FEB8F1FF3F02D032
:10A608004046FFF7ADFE7A1C02D03846FFF7A8FE99
:10A618004B1C02D00846FFF7A3FE2046FFF77AFB43
:10A62800242303FB0655002385F820306B60BDE822
:10A63800F08100BF347A00201003420000E100E0FE
:10A648000279044B242101FB02335869003818BFF2
:10A6580001207047347A002001F06043B3F1005FB5
:10A668002DE9F0470646884692463BD190F804907B
:10A67800FFF7E6FF0446002836D11D4F3068242531
:10A6880005FB09754FF49071C5F814A0C5F808804A
:10A69800FFF7C2FD4FF4AC713068FFF7BDFD3368BA
:10A6A8006A69A968C3F84415C3F8482501229A6065
:10A6B8006A68DAB9D3F82021D3F858011AB9002802
:10A6C800F8D00F2007E00028FBD10122DA60D3F888
:10A6D8005821002AFBD0242303FB097700237B6140
:10A6E800BDE8F0871020FBE71120F9E72046F7E7DF
:10A6F800347A0020032811D8012A0AD101290FD160
:10A7080000F10E02D2B20D4B00EB40001A540020AB
:10A7180070470129F7D0022904D049B107207047B2
:10A728000022F8E7054B00EB400018444270EEE7C2
:10A73800024B00EB400018448270E8E7587A00208A
:10A7480008B5012202210020FFF7D4FF08B107282D
:10A7580010D1072202210120FFF7CCFF08B10728FA
:10A7680008D100210A220846FFF7C4FF10B10728C4
:10A7780008BF002008BD00000388102B10B502D0C8
:10A78800112B1ED010BD1A4C2168B1B90122084600
:10A79800FFF7B0FF08B1072824D1072202210120C2
:10A7A800FFF7A8FF08B107281CD1042202210020C6
:10A7B800FFF7A0FF08B1072814D1236801332360ED
:10A7C800E0E70B4A1368013B1360002BDAD1FFF76F
:10A7D800B7FF0028D6D0074B1B68002BD2D0BDE8A6
:10A7E80010401847034B1B68002BE6D09847E4E756
:10A7F800687A0020647A002075DF704776DF70473A
:10A808008FDF704710B50378BBB94268137AD62B2F
:10A818000AD0E62B12D0D42B0FD10C49D47C0B785C
:10A828000B4A03F0030005E00A49D47C0B780A4A76
:10A8380003F00300013314540B7010BD0749D47C96
:10A848000B78074A03F00300F4E700BF927A002070
:10A858008C7A0020907A0020847A0020917A002057
:10A86800887A0020FDF700BC4288034B0146182077
:10A8780000FB023001F0D8BB3081002070B50D78A4
:10A88800012D06460C4602D0022D19D070BD18487D
:10A89800184B4A8818491B1ADB081B0443F00300AD
:10A8A800FDF7CAF8FDF79EFB08B1FDF7DDFB304662
:10A8B80001F070FC0028E9D0BDE87040FDF7D4BB7A
:10A8C8000B4B0C484A88C01AC00800040B790B4986
:10A8D80040F00300FDF7B9F8237928461BB1BDE81D
:10A8E8007040FEF7DDBDBDE87040FEF7EDBD00BF6E
:10A8F8000CCC020034CC02000ED4020040D402007A
:10A9080008B50B480B4B0C4A0C49C01AC008000488
:10A9180040F00300FDF790F8094801F0B1FA08B1DA
:10A92800FDF7A2FBBDE808400020FEF7B9BD00BF57
:10A9380034CC02000CCC020070D4020089D402008E
:10A94800F08100200388212B13B5044678D007D85E
:10A95800112B4AD01F2B67D0102B0AD002B010BD84
:10A968003B2B01D0562BF9D1A0881321FFF746FFC6
:10A978005FE03A4B3A48A2883A49C01AC008000436
:10A9880040F00300FDF758F8A388072B02D90020F0
:10A99800FDF76AFBA188344B1820002200FB013028
:10A9A80001F050FC08B1FDF75FFBA1882F4B4FF475
:10A9B800BA6000FB013000F0A5FC08B1FDF754FBBC
:10A9C8000120FEF76DFD00F0BDFA08284FF00000E9
:10A9D80004D102B0BDE81040FEF776BDFEF760FD79
:10A9E80002B0BDE81040FFF78BBF1C4B1C48A28883
:10A9F8001F49C01AC0080004237A40F00300FDF77D
:10AA080024F800F09FFA38B9FDF702FB08B1FDF70A
:10AA18002BFB0120FEF758FDFFF772FF002002B064
:10AA2800BDE81040FEF73CBD00F108018088FFF743
:10AA3800E3FE002892D002B0BDE81040FDF714BB39
:10AA4800002380888DF8043001A98DF80530FFF7C0
:10AA5800D7FE002882D0FDF707FB7FE70CCC020069
:10AA680034CC0200B1D40200308100202044002000
:10AA7800E5D402000B2873B50A4620D1134D0024F3
:10AA880043F2020611462846019201F0ADFB30F070
:10AA98000803019A01D0B04216D10134082C05F1FF
:10AAA8001805EFD10A4B0B480B49C01AC00800041F
:10AAB80040F0030002B0BDE87040FCF7BDBF02B033
:10AAC800BDE87040FDF7D0BA02B070BD30810020FB
:10AAD8000CCC020034CC020017D502002DE9F04F4F
:10AAE8004FF48041B3B00020FCF704FE08B1FDF735
:10AAF800BBFAFCF73DFDFDF797FB08B1FDF7B4FA8B
:10AB08000120FEF704FD6F4840F233320121FDF7C2
:10AB180011FA08B1FDF7A8FAFEF746FA08B1FDF7F1
:10AB2800A3FA01F0E7FB08B1FDF79EFA20AF002376
:10AB380039460120209301F069FC08B1FDF794FA29
:10AB4800384601F005FD08B1FDF78EFA5E48002190
:10AB580000F0B6FD08B1FDF787FA5C4B5C4C20931A
:10AB68003846219400F090FB08B1FDF77DFA594B67
:10AB7800594DCDE92034594B2293002439462846B3
:10AB880001F0A6FA08B1FDF76FFA0134082C05F1B7
:10AB98001805F3D100F0D4F900232393CDE921332C
:10ABA8004F4B20934F4A5048012339468DF88C303B
:10ABB80001F016F908B1FDF757FA4C4A4A48022144
:10ABC80001F0CCF84A4A4848022101F0C7F8494A3E
:10ABD8004548022101F0C2F808B1FDF745FA42489C
:10ABE8000022022101F0E4F808B1FDF73DFA424BDA
:10ABF800424C4349E41AE408240444F00304204680
:10AC0800FCF716FFFFF77CFE1425FCF7C5FD08B915
:10AC1800FEF7E0F9013DF8D10DF1380839493A4E0F
:10AC2800DFF80891DFF808B14822404601F0DAFE63
:10AC380036494822384601F0D5FE0FCE08AD0FC57B
:10AC480096E8030085E80300314D324E05F1040A09
:10AC580019F9013B009315F9012B16F9013B5946E7
:10AC68002046FCF7FCFEAA45F2D12B4C0622032312
:10AC7800C4E9002308AB2361284B63614FF07E557C
:10AC88004FF07F53002605AA02A920460293C4E983
:10AC980002870395049601F0C9FC214B029305AA8B
:10ACA80002A920460395049601F0C0FC1D4B0293AF
:10ACB80005AA1D4B039302A92046049501F0B6FC92
:10ACC800FEE700BFF4430020E480002071A80200E2
:10ACD800FC43002085A80200308100206DA80200F6
:10ACE800B4D602000DA80200F0810020FDD50200B4
:10ACF80004D602000BD602000CCC020034CC0200B1
:10AD08002ED5020054D50200E4D502009CD50200DD
:10AD1800847A0020887A00206C7A0020C1BD9431A2
:10AD28000000C0BFCDCC4CBF000080BF8C7A002093
:10AD380049D5020030B5C8B1F2B10024651C8D4276
:10AD480006DA1588A54212D805196D789D420ED1EC
:10AD5800A14211D9005D48B1013880B230B1023446
:10AD6800A3B210FA84F4A14206DB138030BD055D5E
:10AD780001352C44A4B2E1E70020F7E7F7B500233A
:10AD88000646ADF80630144612B9002003B0F0BDEF
:10AD980009230DF10602FFF7CDFFBDF80670054641
:10ADA800002FF2D00028F0D0204601F09EFEA842E5
:10ADB8000246EAD1F119204601F0DAFDB0FA80F036
:10ADC8004009E3E70AB1FDF7ABBDFDF7B2BD0000EE
:10ADD80002487C22002101F02EBE00BF58820020CC
:10ADE80073B50191019C06466CB100252C46294695
:10ADF80001A8FDF7A8FD18B106EB440301349D80B6
:10AE08000135142DF3D13046346002B070BD000016
:10AE18002DE9F04703888488103B8CB005460A2B3F
:10AE280021D8DFE803F006402020202020202065DC
:10AE38004700DFF8E880D8F80830DB430093D8F8FB
:10AE480004106846FDF7ABFD009901A8FFF7C8FF9D
:10AE58000DF108090027019B9F4207D3132C12D933
:10AE68000420FDF701F90CB0BDE8F08739F802AB12
:10AE780000260136514608EB8600FDF75AFD1E2EC6
:10AE8800F7D10137E7E71F482146FDF749FD1E487E
:10AE98002146FDF745FDEB7B022BE4D11B482146FB
:10AEA800FDF73EFDDFE7174821460CB0BDE8F04747
:10AEB800FDF73FBD027A16483F2A4FEA1215214690
:10AEC80094BF00220122FFF77DFF022D94BF0022CC
:10AED800012210482146FFF775FF012D0E4894BF47
:10AEE8000022012221460CB0BDE8F047FFF76ABFF7
:10AEF800037A002BB7D1427A0548C2F3C002214633
:10AF0800F1E700BF608200205C820020648200209C
:10AF1800708200206C820020688200205882002005
:10AF280037B5002401902546214601A8FDF70BFD01
:10AF380000B101350134142CF6D1284603B030BDD8
:10AF4800FFF746BF07B5064BDA680192996801A872
:10AF5800FDF725FD0198FFF7E3FF03B05DF804FB5B
:10AF68005882002030B50B4B19680B4B00229142D8
:10AF780001D1002009E09D788478A54206D11D887A
:10AF88000488A54202D1054B186830BD013204334C
:10AF9800EDE700BFDC820020E0820020D4820020A0
:10AFA8002DE9F84F90F8C6A24FF0760B04460AFB3D
:10AFB8000B0088469146FFF7D5FF074668B3D4F8DB
:10AFC800CC52052D29D804EBC5165A46A6F8D292BC
:10AFD8000BFB0A4106F5357001F004FDB8F1000FCE
:10AFE800C6F84C730E4F14BF0023022386F8D032E4
:10AFF8003B6801359D42C4F8CC520ED104F5347536
:10B008000026EB6F284698473B6801369E4205F1BB
:10B018008005F6D30023C4F8CC32BDE8F88F00BF12
:10B02800DC82002030B5A1B004460D467C22002108
:10B0380001A801F000FD03238DF80430044BADF89E
:10B0480006501B6802940BB101A8984721B030BD87
:10B05800D48200202DE9F041074691F8C6027623F4
:10B068004FF00008A0B081F8C88200FB03100C461E
:10B078001546FFF777FF064660B17C22414601A8D6
:10B0880001F0D9FC01238DF80430ADF80650029781
:10B0980001A8B0472946204620B0BDE8F041FFF797
:10B0A800C1BF000030B504468BB00D4620220021F8
:10B0B80002A801F0C0FC94F8C53294F8C61213B384
:10B0C800013BDAB276234B43122000FB02332344C0
:10B0D8005B8A01339BB2ADF80430762303FB014150
:10B0E8002A460B89ADF8063003238DF80830019BFA
:10B0F800CDE90543064B0493064B02A9186800F0F6
:10B10800FFFC0BB030BD762303FB0143DB88E2E78D
:10B118005DB00200F8820020F0B5044689B0202214
:10B128000D466846002101F086FC94F8C7321E4A95
:10B1380001331268DBB2934284F8C7324FF0000241
:10B148002AD294F8C632194F84F8C5220133DBB2EB
:10B15800762113FB01F057F8237084F8C6322618BD
:10B1680027504B433271E358CDF81230104B0293FD
:10B178000222104B8DF800200122ADF8102018682B
:10B1880003942A46694600F0BBFC18B12A462146BA
:10B19800FFF760FF09B0F0BD84F8C82229462046B1
:10B1A800FFF740FFF6E700BFDC820020E0820020C6
:10B1B8005DB00200F88200202DE9F047044688B00F
:10B1C8000D46164600212022684601F034FC94F80A
:10B1D800C6C294F8C51276231CFB03F2A0184FF0E0
:10B1E800120E07791EFB012301F1010C0A33BC453D
:10B1F80023441CD004F11C0C00F1220807F1FF398C
:10B208009444CAB2974216D989451B8919D00EFBB6
:10B2180001FA013338F80A2093422AD10CEB0A03C9
:10B2280094F8C522013284F8C5220131E9E71B8967
:10B238000289934208D101232B70002008B0BDE891
:10B24800F0870289934218D001339BB2ADF81030D1
:10B258000B4B029300210B4B297004218DF8001031
:10B26800ADF81220186803943246694600F048FC8D
:10B27800E4E7013A9BB292B2E8E70023D0E700BFC7
:10B288005DB00200F882002010B570B1026862B1AA
:10B29800436853B1064900200860064901240C7030
:10B2A80005490A60054A136010BD0E20FCE700BF7F
:10B2B800DC820020D8820020D4820020F88200207E
:10B2C80010B5044680B10C4B1B787BB1FFF74AFEE2
:10B2D80070B90A4A1368052B0CD80949246841F843
:10B2E80023400133136010BD0E20FCE70820FAE765
:10B2F8000020F8E70420F6E7D8820020DC8200204E
:10B30800E0820020F0B50D468BB0044600283BD003
:10B31800204B1B78002B39D01F4B1B68002B35D0D6
:10B3280090F8C812002933D14FF4BA621B4F01912B
:10B3380001F081FB0199202202A801F07CFB38680A
:10B34800294600F07DFCE8B9154BC4F8CC0284F816
:10B35800C502A4F8C6021868206002238DF80830D8
:10B368000126104BCDF81A00A4F8CA523868ADF877
:10B3780018602A4602A90594049300F0C1FB08B995
:10B3880084F8C8620BB0F0BD0E20FBE70820F9E78F
:10B398001120F7E7D8820020DC820020F882002004
:10B3A800E08200205DB002002DE9FF410C46054611
:10B3B80060B159B1974B1B7843B10388322B67D0E2
:10B3C80007D8112B00F01881302B1FD004B0BDE82E
:10B3D800F081332BFAD18288B1F8CA329342F5D181
:10B3E800C08891F8C6C291F8C562002800F0C080F4
:10B3F800762101FB0C41002309798DF80F30731C6D
:10B408008B4200F0E68084F8C532A5E08388B1F865
:10B41800CA229A42DAD1C3887BBB91F8C632762217
:10B4280002FB03130269C3F8062091F8C432827A3A
:10B438001344062B0EDC81F8C432A9882046FFF796
:10B4480031FE0028C2D0AA88214604B0BDE8F041E8
:10B45800FFF700BE062381F8C4326F486F4B70496E
:10B46800C01AC008000440F002000190FCF7E0FA9E
:10B478006C490198FCF7DCFADFE720460021FFF76A
:10B488008FFDA988204604B0BDE8F041FFF744BE0F
:10B498008288B1F8CA329A4298D1C388002B57D112
:10B4A80091F8C672762317FB03F701EB0708837A36
:10B4B80098F804603344062B25DC88F804301222FF
:10B4C80012FB0672334605F10C012244002098F85D
:10B4D8000460B34201F10A0102F1120227D31222D9
:10B4E800013B02FB034394F8C62276213B4401FB4F
:10B4F8000242598A138999422AD2062E28D0A9884D
:10B5080084F8C5629AE7062388F804304248434B1A
:10B51800CA5B4549C01AC008000440F00200019007
:10B52800FCF78AFA41490198FCF782FAC7E751F813
:10B538000A6C42F8086C51F8066C42F8046C31F851
:10B54800026C168050809080D08010810133BEE755
:10B55800002384F8C532AA880DF10F012046FFF7B1
:10B568002BFE002842D0AA882146FFF773FD2DE75D
:10B57800762303FB0CF3122707FB0633B5F80AE022
:10B58800294623447045BFF433AFCF89A7F5245724
:10B59800082F08D8DFE807F014170507070707077B
:10B5A8001A008F899F829F8A3FB1DF8A2FB11F8B34
:10B5B8001FB15F8B002F7FF41BAF01300631E1E72D
:10B5C8008F89DF82EFE78F891F83ECE78F895F839D
:10B5D800E9E701238DF80F302046AA880121FFF7FB
:10B5E800DFFCA9882046FFF797FDEFE69DF80F30AE
:10B5F800002B3FF4EBAEEFE7B1F8CA3282889A42EB
:10B6080001BF002381F8C8324FF6FF73A1F8CA3290
:10B61800DCE600BFD88200204CCC02000CCC020033
:10B62800C2D60200E1D6020026D702006CD702007B
:10B6380090DF7047A5DF7047B5DF70477FB50023FF
:10B64800ADF80810ADF80A106A4602A90646ADF82A
:10B658000C30ADF80E300093ADF80430FFF7E8FF7A
:10B66800054600B3114B124CE41AE408FDF7F6FD49
:10B67800240444F0010403460E4932462046FCF7F0
:10B68800E4F9BDF80020BDF8023052EA030103D006
:10B6980009492046FCF7D9F9BDF804201AB1074931
:10B6A8002046FCF7C9F9284604B070BD0CCC02004E
:10B6B8006CCC0200D2D702001CD802005BD8020072
:10B6C80010B5A0B14FF0171303601B2381640371F9
:10B6D80000F1400417210022C18001818272C272E8
:10B6E800037343730830A042F6D1002010BD0E202A
:10B6F800FCE70000F7B58588072D0C461AD80388A3
:10B70800242B4FEAC50700F0A18015D8112B79D05A
:10B71800232B00F0AE80102B42D03C44A37A4BB1CF
:10B72800E1882846FFF786FF002840F0A9804FF4FB
:10B738008073638103B0F0BD3A2B6BD0552BECD1ED
:10B74800C388CE19172BF18838BF17238B4228BF1F
:10B758000B4633810023B3722846FFF76DFF60B1B3
:10B76800FDF77CFD504B5149024651481B1ADB0836
:10B778001B0443F00100FCF75FF9F37A002BCCD1EE
:10B78800A36C002BC9D040F67722ADF8002032898F
:10B79800ADF80250ADF80420694620469847BCE74A
:10B7A800C37B0A79CE19012B327313D0022B14D024
:10B7B800F18833898B4205D22846FFF73BFF70B9E1
:10B7C8000123F372317B737B8B42A6D22846FFF7A5
:10B7D80035FFA2E70B88F380EAE74B88FBE71128DF
:10B7E80002D10123B372EDE7FDF738FD2E4B314945
:10B7F80002462F481B1ADB081B0443F00100FCF724
:10B808001BF9DFE7CB191722DA809A6041F61B3261
:10B818009A8182E7CE194389F288934228BF13465A
:10B82800172B8A6C38BF1723338162B1F17A51B173
:10B8380040F67721ADF80010ADF80250ADF80430AD
:10B848006946204690470023738166E7CB19027A40
:10B858005A738B6C002B3FF460AF00218DF80510F4
:10B868004DF67A21ADF80010ADF802508DF804209D
:10B8780092E7CB19017A1B7B994228BF1946A5E7A5
:10B8880011283FF457AFFDF7E9FC074B0949024679
:10B8980007481B1ADB081B0443F0010003B0BDE88E
:10B8A800F040FCF7C9B800BF6CCC0200E2D8020037
:10B8B8000CCC0200B1D802009BDF70479DDF7047B7
:10B8C8009EDF7047A1DF7047A3DF7047AEDF704788
:10B8D80030B5048800239AB2944206D9456835F8F1
:10B8E80013508D4203F10103F5D1104630BD8B6929
:10B8F80010B50C461988102913D8023189B2FDF702
:10B90800FCFA606078B1A16900230222FDF736FBDA
:10B91800A26960681288E1690223FDF72FFB002005
:10B9280010BD0920FCE70420FAE710B50C46C98AC7
:10B9380010290AD8FDF7E1FA606040B1E28AA169EE
:10B948000023FDF71BFB002010BD0920FCE70420A5
:10B95800FAE70000F0B58BB004460022C068124E2A
:10B968000DF10601FDF7D2FB142508B10BB0F0BDAF
:10B97800BDF80630A76805FB0377002202A9384600
:10B98800FDF7C4FB30B1E06800220DF10601FDF7B8
:10B99800BDFBEAE79DF8083056F82330002BECD0C1
:10B9A8000398FDF794FAE8E790D90200F7B5054641
:10B9B8000C4C0D480092241AE40824040B460F4648
:10B9C80016460A492A7844F00100FCF748F8AB68A3
:10B9D80033B1E9683A46304603B0BDE8F04018474D
:10B9E80003B0F0BD74CC02000CCC02001ED90200DA
:10B9F800F0B58FB00D46012206A90646FDF786FB75
:10BA0800044690B99DF81830052B65D8DFE803F097
:10BA1800030F1C24292EBDF82A20BDF8281028461B
:10BA2800FFF750FF0446112C40D10FB0F0BD02A91A
:10BA38000798BDF82E200C910023FDF7A9FA0AA952
:10BA48002846FFF741FFEDE7BDF828100DF12A025F
:10BA58002846FFF731FFE5E70AA92846FFF72EFF3A
:10BA6800E0E70AA92846FFF72BFFDBE70DF10604FC
:10BA780002AB214607980D9302220023FDF788FAAE
:10BA8800BDF806200D9907980C940223FDF780FA5B
:10BA98000AA92846BDF80670FFF718FF04460028D3
:10BAA800C1D1BDF80630BB4218BF0C249DF8182040
:10BAB8000F4B53F8223013B10798FDF708FA00220C
:10BAC80006A93046FDF722FB002CAED022462946B7
:10BAD80006A8FFF76BFFA8E70648074B07491B1A9C
:10BAE800DB081B0443F00200FBF7A2FFDEE700BF00
:10BAF80090D902000CCC020074CC020068D9020074
:10BB08002DE9F8430F461446054620B94FF00E08B4
:10BB18004046BDE8F8830029F8D0FFF71BFF3B78C3
:10BB2800052B6AD821462846FFF7D2FE2B88834288
:10BB380063D014264643A8683044FDF7E0FA00288D
:10BB480060D03B78052B3BD8DFE803F00311171EC4
:10BB5800242A7A8A398A2046FFF7B4FE112851D060
:10BB680058B3024621463846FFF720FF25E007F183
:10BB780010012046FFF7A8FEF0E7398A07F1120204
:10BB88002046FFF799FEE9E707F110012046FFF785
:10BB980095FEE3E707F110012046FFF791FEDDE788
:10BBA800BB6907F110012046B3F80080FFF78EFE4D
:10BBB80030BBBB691B8843450DD14FF00008A7E790
:10BBC8001B4B1C481C49C01AC008000440F0020066
:10BBD800FBF72EFFF1E70C20C3E72869002895D072
:10BBE800394698478046A0B192E73B7859F8233008
:10BBF800BBB17868FDF76BF913E04FF0070887E7EA
:10BC08001128AED1DFF834903B7859F82330002B57
:10BC1800E3D1A86839463044FDF71CFA804600286D
:10BC2800E3D1A86821463044FFF7E2FE70E700BF81
:10BC38000CCC020074CC020068D9020090D9020032
:10BC4800F8B50D46044678B3FFF784FE294620462A
:10BC5800FFF73EFE2288824211D00020F8BD6168BD
:10BC680031F81310814203F101030BD0208800231F
:10BC78004FF6FF769AB282420BD30420EEE70023F8
:10BC88004FF6FF7099B28A42E9D82069FDF71DF98D
:10BC9800ECE761685A0001EB43078A5AB24203F1A4
:10BCA8000103E7D13D80D8E70E20D7E737B50C462A
:10BCB80008B301B30588112D15D181882046FFF7F7
:10BCC80007FE2388ADF80600834214D0112D14D145
:10BCD80063684FF6FF7223F810200DF10601E06843
:10BCE800FDF7B8F907E0A5F130031F2BE5D9A5F159
:10BCF80050031F2BE1D903B030BDA368142202FB07
:10BD08000030FFF775FEF6E78ADF70478BDF704774
:10BD18008CDF704730B590F8233089B004460D4663
:10BD2800D3B190F82C300193FFF7F0FF14220021D3
:10BD380003A800F080FE019B04F1240204F12E0107
:10BD4800A81CFFF7E5FF05238DF80C30049018B107
:10BD5800E36B0BB103A8984709B030BD70B5154621
:10BD68000446E8B1E2B1E9B9104600F0BEFE013878
:10BD7800C0B21F2818D894F82060BEB929462046BA
:10BD880000F08CFE58B1012384F82030284600F0DA
:10BD9800ACFE29460246204600F024FE304670BD1F
:10BDA8000E20FCE70720FAE70C20F8E70420F6E766
:10BDB80068B1CB060DD011F0010116BF012380F840
:10BDC800211080F8213080F82220002070470E20B2
:10BDD80070470720704790F82E00C0F3C0007047E6
:10BDE80038B50D460446002843D0C26300212322FB
:10BDF80000F021FE65B32B7984F823302B7B84F87F
:10BE08002C302B68D3B104F12E0203F10C0153F846
:10BE1800040B42F8040B8B42F9D11B881380AA68E3
:10BE28000AB31068516804F1240303C304F1400302
:10BE380023661F23A4F86430002038BDE28DA38652
:10BE480002F0E30242F48272E2850B4A2263E6E7DB
:10BE5800E38DA58603F0E30343F48273E385064B81
:10BE6800236384F82350054A4FF0C873C4E90923B3
:10BE7800DCE70E20E1E700BFA00050000600180034
:10BE880010B5044686B048B31422002101A800F07A
:10BE9800D2FDFFF73BFF2046FFF79DFF30B1E36B74
:10BEA80023B101228DF8042001A8984704F160010C
:10BEB80004F12E00FFF728FF044630F008000BD0ED
:10BEC8000748084B08491B1ADB081B0443F001000C
:10BED8002246FBF7B1FD204606B010BD0E20FBE759
:10BEE8000CCC02005CCC0200A8D902002DE9F04F6E
:10BEF800054687B035F8082B1B2A06460C4677D02E
:10BF08001D2A13D0102A2ED1002101A800F093FD7C
:10BF180006238DF80430B388ADF80C3004F12E03F5
:10BF28000593E36B0295F3B101A875E01022002197
:10BF380001A800F080FD04F12E0320460593FFF7C9
:10BF48004AFF04F1600888B102238DF8043001A883
:10BF5800E36B0295984741460020FFF7D5FE294636
:10BF68002046FFF7D7FE07B0BDE8F08F94F8210010
:10BF780094F8229088B394F820A0B6F824B0274605
:10BF880004EB4A1A574518D10020034601220295AE
:10BF9800B9F1000F24D09A4226D100238DF804303D
:10BFA80029462046FFF7B6FEE36B0BB101A8984778
:10BFB80041460020FFF7A8FED5E73A46306A5946C1
:10BFC800FEF7DCFE20370028DCD09DF80C3043F06B
:10BFD80001038DF80C300123D8E703460246D6E763
:10BFE80010B18DF80490DBE703238DF80430DBE70C
:10BFF8001422002101A800F01EFD327A012AB2D1D4
:10C00800E36B002BAFD004212E348DF80410059477
:10C018008DF808200DEB01009847A4E762DF704710
:10C02800CB6803B1184770472DE9F0430A7885B00B
:10C038000346002A39D18C8841F22350844234D1F6
:10C048008C79187C844230D101208DF8040091F855
:10C0580008E04888BDF80C60BDF80A50BDF80840F3
:10C06800ADF806001746104641F2245841F225590A
:10C0780086451DD80FB1ADF80C601AB1ADF80A505D
:10C08800ADF8084019884FF6FF72914209D05A68F6
:10C098003AB95A882AB90298BDF80C20C3F80200A8
:10C0A800DA809A6801A91846904705B0BDE8F08380
:10C0B800B1F80EC0C44506D0CC4501D1CE8A0127BF
:10C0C80001301231D4E7CD8A0C8B0122F8E7000049
:10C0D800F0B5194A87B002AD04460B4602F1100CC0
:10C0E8002F46106851682E4603C608326245354609
:10C0F800F7D1FCB1F3B11968E1B15A68D2B10020A7
:10C108009B68A1604FF6FF75C4E900506261E36067
:10C1180004F110013846FFF781FF48B9237C8DF8F8
:10C12800063001A841F22353ADF80430FFF7C8F8F0
:10C1380007B0F0BD0E20FBE7DFD902001FB50346AC
:10C148000846D9B1D3B11A88112A19D0392A15D17C
:10C1580009889A888A4211D15C8981888C420DD1DC
:10C16800D98901290AD11B7C8DF8083002218DF864
:10C1780004108368ADF8062001A9984704B010BDE3
:10C188009A880B889A4202BF4FF6FF720023C1E9D2
:10C198000023F3E700B58BB000B302884FF6FF73B6
:10C1A8009A421DD000218DF805100E49CDE90410E2
:10C1B8004188ADF81A104FF40031079101A9012305
:10C1C800089140698DF8043002A98DF808308DF87F
:10C1D8001830FFF795FC0BB05DF804FB0E20FAE76A
:10C1E8000820F8E729C0020030B58BB004468DF866
:10C1F800071008B305884FF6FF739D421ED0202212
:10C20800002102A800F017FC0D4A60690123CDE95E
:10C2180004248DF80830E288ADF81E300DF10703CC
:10C22800ADF81A2008932A46022302A98DF818307F
:10C23800FFF766FC0BB030BD0E20FBE70820F9E7DE
:10C2480029C0020048B1018022B11368C0F8023049
:10C258009388C3804069FFF7F3BC0E20704710DF56
:10C268007047000013B5044609496846FCF79CFF6F
:10C27800019808B902B010BDD0E9002120469047C6
:10C2880018B16846FCF79AFFF2E71120F2E700BF01
:10C29800FCD9020013B5044607496846FCF784FF39
:10C2A800019B0BB902B010BD2046D3E9002190478D
:10C2B8006846FCF783FFF3E714DA02000B4991F8AC
:10C2C80016335A09EC231341DB0706D5084B9A6845
:10C2D8003AB94FF480030B60704742F20200FBF753
:10C2E800C3BE1A6842F480021A60704700E100E099
:10C2F8003C790020F7B5194F3C7864BB184E0125EE
:10C3080020463570FFF7AEFF112821D02046FFF7F1
:10C31800C1FF144B8DF80340186801900DF103001C
:10C32800FCF7FEF8104901A8FFF799FF0446B0FA98
:10C3380080F0400938709DF80300FCF715F93CB906
:10C348000A4B34701C70FFF7B9FF2846FFF7A2FFAD
:10C35800204603B0F0BD0824FAE700BFFD820020A4
:10C36800FC820020F7D902008D800200FE820020A6
:10C37800014B1878704700BFFD82002007B50849B7
:10C388006846FCF711FF019B13B903B05DF804FB85
:10C39800D3E9002090476846FCF710FFF3E700BF99
:10C3A80008DA0200FFF7EABF60DF704769DF70470D
:10C3B80061DF704730B5134B1B7891B0FBB1124D5C
:10C3C80034240DF1020103A8ADF80240FFF7F0FF95
:10C3D80070B9294601A8FCF7E7FE029B002BF0D0B4
:10C3E80003A8D3E90021904701A8FCF7E7FEF4E78A
:10C3F800052804D011B0BDE83040FBF735BE11B0B8
:10C4080030BD00BFFF82002058DC020030B50C466A
:10C4180085B0002900F089800023CDE90133444A22
:10C42800039308230A608DF804008DF8063001A9EB
:10C4380006232020ADF80830FFF7B8FF60B1FCF7FD
:10C448000DFF3C4B3C4902463C481B1ADB081B04C9
:10C4580043F00100FBF7F0FA0023CDE90133039321
:10C4680022684FF4847301A94020ADF80630FFF725
:10C478009DFF60B1FCF7F2FE2E4B314902462F4872
:10C488001B1ADB081B0443F00100FBF7D5FA002355
:10C4980001202268039301A9CDE901338DF8040036
:10C4A800FFF784FF60B1FCF7D9FE224B254902460D
:10C4B80022481B1ADB081B0443F00100FBF7BCFAF7
:10C4C8000023CDE9023322684FF4B06301A9A1200B
:10C4D8000193FFF76BFF60B1FCF7C0FE154B1A49DB
:10C4E800024616481B1ADB081B0443F00100FBF741
:10C4F800A3FA00252268039501A9A020CDE90155DA
:10C50800FFF754FF034668B1FCF7A8FE094B0F4933
:10C5180002460A481B1ADB081B0443F00100FBF71C
:10C528008BFA2B46184605B030BD0E23FAE700BF3C
:10C53800A843002084CC020020DA02000CCC0200C0
:10C5480066DA0200B2DA0200FEDA02004FDB02000D
:10C5580073B505460668FFF727FF2B68B342044604
:10C568001DD91A481A4B1B491B1ADB081B0443F038
:10C5780002000190FBF75CFA2B68174901983246D4
:10C58800FBF763FA4FF080532A68D3F80C3113494C
:10C5980001989B0203F100539A1AFBF74DFA2CB944
:10C5A8000F4B01221A70204602B070BD2046FCF7DE
:10C5B80055FE074B0B49024604481B1ADB081B04AF
:10C5C80043F00100FBF738FAEDE700BF0CCC02009E
:10C5D80084CC0200A2DB0200D1DB020002DC0200F4
:10C5E800FF8200202CDC02004BDF70471FB50E4C89
:10C5F80001A8FFF7F9FF70B9214602A8FCF7D4FD9E
:10C60800039B002BF4D00198D3E90021904702A89E
:10C61800FCF7D4FDF4E7052804D004B0BDE81040C9
:10C62800FBF722BD04B010BD70DC02002DE9F04F0D
:10C6380081B02DED0C8B84B000920A464168002928
:10C648005BD0834600F1080999E83002101F019079
:10C658004FF0000A9FED2F8ABEEE009A9FED2EAA9A
:10C66800DDF800801AE0B0EE48BAB0EE48CA2CEE09
:10C6780009CA0BEE09CA99ED000A00F08FF83CEEE2
:10C68800000A0AF1010A08F10400DBF8041088ED39
:10C69800000A09F104098A4580462ED2DBF8000019
:10C6A8000028E0D0271F2E1F0024019DB0EE48CAA5
:10C6B800B0EE48BA9BED050A96ED011A31EE00DAA4
:10C6C8002DEE0A0A00F06AF897ED011A95ED012A95
:10C6D80032EE411A21EE011A81EE0D1A3BEE00BA34
:10C6E8003CEE01CA043704360435DBF80000013497
:10C6F8008442DFD33C1D351DB9E703AA02AB00987D
:10C7080000F00CF8029804B0BDEC0C8B01B0BDE849
:10C71800F08F00BF00000000DB0FC94000B590EDAE
:10C72800000A012914D0A0F1040E4FF0000C0120DA
:10C738009EED021AB4EE410AF1EE10FA44BFB0EED3
:10C74800410A844601300EF1040E8142F0D101E025
:10C758004FF0000CC3F800C082ED000A00BD0000D5
:10C7680000B5014610EE100A00F003F800EE100ABA
:10C7780000BD4FF07F43B3EB400F98BF704713EAFB
:10C78800400207D0120E7E3A0A6020EA530040F0B9
:10C798007C5070470A6000F00040704700B5B5EE65
:10C7A800400AF1EE10FA83B060D0B5EEC00AF1EE9F
:10C7B80010FA51D401A8FFF7D3FFDFED317AB4EEB8
:10C7C800E70AF1EE10FA38DCB6EE007A70EE477A36
:10C7D800019BA7EE877A013BF0EE476A87EEA60A2F
:10C7E80007EE103A60EE007A9FED266ADFED265AD2
:10C7F8009FED265ADFED266ADFED264A37EEC66A38
:10C80800A7EEA55AE7EE866ADFED235A9FED236A65
:10C81800E7EE855AA7EEA66AB8EEC77AC5EE866A2D
:10C828009FED1F5A66EEA77AA0EE270AA7EE240A04
:10C83800A7EE050A03B05DF804FBF6EE007AE0EE19
:10C84800277A9DED017AF0EE676AF7EE007A70EECE
:10C85800677A87EEA60AC5E700F080F8114B9FEDCE
:10C86800120A1B68036003B05DF804FB00F076F859
:10C878000E4B9FED0D0A1B68036003B05DF804FBC7
:10C88800F304353F02AC0E42AE204ABF5112834139
:10C8980020049C4383805EB9F93F80C2F55F40C4A1
:10C8A8000080313FBCDE0200000080FFC0DE0200D5
:10C8B8007F2805D8034A044B105C5B5C184070471E
:10C8C8000020704788DC020008DD0200A0F1610347
:10C8D800192B98BF20387047A0F14103192B98BF36
:10C8E800203070477F299ABF017001206FF02E0019
:10C8F800704700BF5AB10A787F2A0AD800B102608F
:10C908000021501AC3E9001118BF012070471046D2
:10C9180070476FF02E007047A0F16103192B98BF84
:10C9280020387047A0F14103192B98BF2030704779
:10C938007F2805D8034A044B105C5B5C184070479D
:10C948000020704788DC020008DD0200024B5B68AB
:10C958009B6809211B681847A072002000B5FAF7E8
:10C9680027FD024B18445DF804FB00BF08000000D7
:10C978006AB30F2A70B511D8013A2FD0034600EBDD
:10C98800020C01E09C4524D08E461C4611F8012B70
:10C9980013F8010B9042F5D0801A70BD40EA010CE3
:10C9A8001CF0030F04460B4606D0013AE6E7043AAA
:10C9B800042A20461946DFD9194620460E6805681C
:10C9C800B54203F1040304F10404F0D0D4E710469F
:10C9D800704760789EF80120801A70BD00780A7848
:10C9E800DAE700BF844640EA010313F0030F18D1C9
:10C9F8008446202A0BD32DE9F007B1E8F807A0E810
:10CA0800F807A2F12002202AF7D2BDE8F007042A8D
:10CA180007D351F8043B40F8043BA2F10402042A6E
:10CA2800F7D2002A05D011F8013B00F8013B013A82
:10CA3800F9D1604670478446002A2DD010F0030FC4
:10CA480004D000F8011B013A26D0F7E7C9B241EA41
:10CA5800012141EA0141202A12D3A2F120022DE945
:10CA6800F0030B460C460D460E460F46884689468F
:10CA7800A0E8FA03203AFBD2BDE8F00320320BD03D
:10CA8800042A05D340F8041B043A05D0042AF9D235
:10CA980000F8011B013AFBD16046704710F0030F04
:10CAA80019D111F0030F16D12DE970004FF001369E
:10CAB8004FF0803350F8044B51F8045BAC4205D179
:10CAC800A4EB060525EA04051D40F3D0A0F10400F7
