:020000021000EC
:1000000000000420BD020100E5020100E70201003A
:10001000E9020100EB020100ED0201000000000016
:10002000000000000000000000000000EF020100DE
:10003000F102010000000000F3020100F5020100DE
:100040005965010089D50500F7020100F70201009A
:10005000F7020100F7020100155D0100F70201003F
:10006000F7020100F7020100F7020100F7020100A8
:10007000F702010071CC0400F7020100F702010051
:10008000F7020100A5480100F7020100F702010094
:10009000F7020100F7020100F7020100F702010078
:1000A000F7020100F7020100F7020100F702010068
:1000B000F7020100F702010000000000000000004C
:1000C000F7020100F7020100F7020100F702010048
:1000D00031BA0400F7020100F7020100A57E010019
:1000E000F7020100F7020100F70201000000000022
:1000F00000000000F702010000000000F70201000C
:1001000000000000000000000000000000000000EF
:1001100000000000000000000000000000000000DF
:1001200000000000000000000000000000000000CF
:1001300000000000000000000000000000000000BF
:1001400000000000000000000000000000000000AF
:10015000000000000000000000000000000000009F
:10016000000000000000000000000000000000008F
:10017000000000000000000000000000000000007F
:10018000000000000000000000000000000000006F
:10019000000000000000000000000000000000005F
:1001A000000000000000000000000000000000004F
:1001B000000000000000000000000000000000003F
:1001C000000000000000000000000000000000002F
:1001D000000000000000000000000000000000001F
:1001E000000000000000000000000000000000000F
:1001F00000000000000000000000000000000000FF
:1002000010B5054C237833B9044B13B10448AFF350
:1002100000800123237010BD900100200000000029
:10022000C0EC060008B5034B1BB103490348AFF30C
:10023000008008BD0000000094010020C0EC060012
:10024000A3F5803A704700BF174B002B08BF134B34
:100250009D46FFF7F5FF00218B460F461348144AD1
:10026000121A53F043FE0E4B002B00D098470D4B53
:10027000002B00D098470020002104000D000D48FD
:10028000002802D00C48AFF3008053F0CBFD2000D3
:10029000290008F04BFF53F09FFD00BF000008004D
:1002A0000000000000000000000004209001002079
:1002B0005C46012000000000000000000649074ADB
:1002C000074B9B1A03DD043BC858D050FBDC09F0F8
:1002D000EDF8FFF7B9FF000058ED06000000002020
:1002E00090010020FEE7FEE7FEE7FEE7FEE7FEE7FF
:1002F000FEE7FEE7FEE7FEE7074B1B5C1F2B8ABF0E
:10030000064A4FF0A04203F01F03D2F80405D8407C
:10031000C04300F001007047385A06000003005047
:10032000064B1A5C1F2A86BF054902F01F024FF0D8
:10033000A04101239340C1F80C357047385A06009C
:1003400000030050064B1A5C1F2A86BF054902F0C5
:100350001F024FF0A04101239340C1F808357047B8
:10036000385A0600000300504FF0A04310B44FF479
:1003700080404FF400544FF400414FF48032C3F8F2
:100380000845C3F80805C3F80815C3F808255DF843
:10039000044B70474FF0A04310B44FF480404FF42B
:1003A00000544FF400414FF48032C3F80C45C3F8B9
:1003B0000C05C3F80C15C3F80C255DF8044B704709
:1003C0000A4B185C1F288ABF09494FF0A04100F072
:1003D0001F00D1F804350122824022EA03001340B5
:1003E000C1F80805C1F80C35704700BF385A06003F
:1003F000000300500B2809D00C2809D0182809D078
:1004000019280CBF03204FF0FF30704700207047C1
:100410000120704702207047C20710B40FD4830731
:100420000AD54FF0A0430C22C3F82C27C3F830277D
:10043000C3F86027C3F864275DF8044B70474FF09A
:10044000A04303224FF40051C3F834274FF48044F3
:10045000C3F83827C3F83C27C3F84027C3F808156A
:100460004FF480324FF40041C3F80845C3F8081533
:10047000C3F80825D3E700BF704700BF00B583B0BD
:10048000044B0093044A402300F036F803B05DF8B3
:1004900004FB00BF9D040100B001002002B32DE960
:1004A000F843114B114E88461446032743F00109C7
:1004B0000025224608EB0501002008F0ABFE0346AC
:1004C000E41A4FF47A401D4423B9337833B1C84756
:1004D000013F06D001233370002CEAD1BDE8F88338
:1004E00070473770BDE8F883405A0600AC01002021
:1004F000704700BF08F0AABFF0B595B008460024C9
:100500000E4617461D4604F0B5FF1A9A0D92234673
:10051000082205A93046CDE9095408978DF82C40EA
:100520000C9405F00BF8DDE906219DF814308DF8E8
:100530001140CDE9021203F00302012A28D0022A59
:1005400004D0304604F09AFF15B0F0BDBDF8165047
:10055000C3F3C203C5F389158DF810300827082DA1
:100560002C4628BF08243B4622460EA9304604F0FC
:10057000E5FF2D1B08AB02AA21460EA8274400F078
:100580006BFC002DEBD1304604F078FF15B0F0BDC8
:10059000BDF814100598C1F38312C3F3C203C0F36E
:1005A0009525C1F383148DF810300EA930469200C2
:1005B000082304F0C3FF08AB0093224602AB0EA948
:1005C000284600F0D3FB304604F058FF15B0F0BDCC
:1005D00008B5FFF78FFF0448042100F041FB034BEF
:1005E00001225A7108BD00BF2CED0600000000205A
:1005F000F0B5314D85B005F5836004F0EFFA05F2F2
:10060000144004F0EBFAD5E9013703EA0701CA1CEC
:1006100005EB820415F82220500710D502F00406DD
:10062000207800F00300012839D0022803F10202EB
:1006300001F1030026D005EB8004002EF0D105EB7C
:1006400081015A1CC86801903A4005EB820200F013
:1006500003010129D66803F1020426D002290FD133
:10066000BDF80630C3F389130333360C04EB93044F
:10067000124804F0BFFA00B16C60304605B0F0BD1E
:100680000026F5E7638802EB931307EA0301CA1C0F
:1006900005EB820415F8222002F00406CDE722883B
:1006A0000233C2F383121344EFE7BDF80430C3F3FF
:1006B0008313360C1C44DBE7C0020020D406002064
:1006C0000B4B0C4810B50022FF21C3F81824C3E9D6
:1006D00000229960C3F8142483F8202404F07EFEDD
:1006E000044610B9044804F05DFF204610BD00BF69
:1006F000C00200203CED06007C5A060030B499B1DF
:100700000D490E4D491BC90813D00D4C002302E0C2
:10071000013399420AD034F823208242F8D1184696
:1007200055F8300030BC7047044DF9E7002030BC6C
:1007300070470846F6E700BF2CED0600C4EC060043
:100740008C010020094B013903EBC00003290BD8B1
:10075000DFE801F004020806042070470220704719
:10076000407970470079704700207047C4EC06005C
:100770002DE9F047974CD4E900239A4284B065D024
:100780000023C4F81834BFF34F8FD4E9013503EACE
:100790000501CA1C04EB820C14F8222050071BD55B
:1007A00026689CF8002002F00302012A43D0022AA6
:1007B00004D1BCF80220023303EB921303EA0501D3
:1007C000D4F81804CA1C04EB820C28B99E4239D90B
:1007D00014F822205207E4D404EB81019E1C01335B
:1007E000CA6801922B4004EB830302F00302DB682A
:1007F0000293022A2ED0012A00F09580D4F81054DA
:100800003DB12B6828469B689847EB681D68002D12
:10081000F7D17148714B7249C01AC008000440F00A
:10082000020000F0E3F8D4E90030C01A18BF01203C
:1008300004B0BDE8F087BCF800200233C2F3831295
:100840001344BBE7666004B0BDE8F087002004B045
:10085000BDE8F087BDF806306248C3F38919B9F1E5
:10086000500FC84628BF4FF0500808F1080168F340
:100870008F13C1F30901ADF8063004F0B1FD07464E
:100880000028BBD004F0F6FD0023082201A9384659
:1008900004F020FE25EA06030133B8EB830F4FEA8C
:1008A000830A7CD9BAF1000F00F08C8005EA0601BA
:1008B000033104EB8101524638460823A8EB0A08AD
:1008C00004F008FE5FFA88F80AF10803464903F0CD
:1008D000FC034246384604F0FDFD09F1030906EB2E
:1008E0009906D4F81834002B68D1D4F8105465B1A7
:1008F000EB685A7928463946002A5BD02B681B687A
:100900009847EB681D68002DF2D1384604F0B6FD1B
:10091000002003F05BFED4F8183403B966600020B1
:1009200003F05CFE7FE7BDF804202E48C2F383137A
:10093000062B28BF062363F38912023303F00F014D
:100940008900ADF8042004F04BFD074600283FF471
:1009500055AF04F08FFD0023082201A9384604F0AA
:10096000B9FDBDF8043013F4707FBAD04FF0000821
:10097000314629404FEA88030331083304EB8101F3
:100980000422384604F0A6FDBDF8043008F1010841
:10099000C3F38313434506F10106E9D8A1E705EA4D
:1009A00006010331424604EB81010823384604F076
:1009B00091FD92E71D68002D9AD1A6E7384604F014
:1009C0005DFD30E7084942460823384604F082FDC1
:1009D00083E700BFC0020020DCEC0600C4EC060088
:1009E000645A06003CED0600CC0200202DE9F843D5
:1009F000DFF8B89005460020D9F80860884603F073
:100A0000E5FDD9E90132D9F8007013440133DB1B4D
:100A1000012B46D809F21C440121204604F0B8F805
:100A2000FFF7E6FD0146204604F0B2F8D9E90132AD
:100A3000D9F80010134401335B1A012BECD90A409A
:100A4000033205230231002049F82230C9F8001092
:100A500003F0C4FD0021144804F090F880F3100363
:100A6000E9007A1C324001F038013E401B0441F09D
:100A7000010109EB8202033643EA154341EA88216A
:100A8000D36049F8261099F820340BB9BDE8F883F3
:100A9000FFF76EFE0028F9D0FFF76AFE0028F7D1B5
:100AA000F4E73946CBE700BFDC060020C002002097
:100AB0002DE9F047DFF8C4A0054600209146DAF89A
:100AC0000860884603F082FDDAE90132DAF8007046
:100AD00013440133DB1B022B4CD80AF21C440121C6
:100AE000204604F055F8FFF783FD0146204604F048
:100AF0004FF8DAE90132DAF80010134401335B1AD7
:100B0000022BECD90A4003320331452300204AF876
:100B10002230CAF8001003F061FDBB1C33400AEB21
:100B200083030021C3F80C90134804F027F880F3E6
:100B30001003E9007A1C324001F038013E401B04EA
:100B400041F041010AEB8202033643EA154341EAD0
:100B50008821D3604AF826109AF820340BB9BDE8F2
:100B6000F087FFF705FE0028F9D0FFF701FE002807
:100B7000F7D1F4E73946C5E7DC060020C0020020C3
:100B80002DE9F84F344C0646002093469A46A76854
:100B9000894603F01BFDD4E90132D4F800801344E8
:100BA0000133A3EB0803032B54D804F21C450121A5
:100BB000284603F0EDFFFFF71BFD0146284603F032
:100BC000E7FFD4E901322168134401335B1A032B98
:100BD000EDD90A40033204318523002044F8223045
:100BE000216003F0FBFC08F102033B4004EB8303AC
:100BF0000021C3F80CB008F103033B4004EB83036E
:100C00001648C3F80CA003F0B9FF80F31003F100FD
:100C100008F101023A4001F0380107EA08071B0415
:100C200041F0810104EB8202033743EA164341EAB3
:100C30008921D36044F8271094F820340BB9BDE81B
:100C4000F88FFFF795FD0028F9D0FFF791FD0028F8
:100C5000F7D1F4E74146BCE7C0020020DC060020E3
:100C600030B4154DD5F810140446002071B10B4670
:100C700001E01B6853B1DB681A798242F9D1013077
:100C80000A28F3D14FF0FF3030BC7047E368187189
:100C9000D5F810344BB1DA68E36812681A60D5F8F9
:100CA0001034DB681C6030BC7047C5F81044E26843
:100CB000136030BC704700BFC002002038B5094B3C
:100CC000D3F81044012583F820544CB1E3685D71DA
:100CD000236820465B689847E3681C68002CF5D1C0
:100CE00038BD00BFC002002030B5C38885B00446BF
:100CF0000D4623BB237A052B1FD0627A82B9144A92
:100D0000A08852F8232003920021FFF7F7FC039AF2
:100D100010490346284605B0BDE8304003F0DCBF6B
:100D20001946A088FFF70EFD0B4B0C4953F8202005
:100D3000284603F0D1FF237AE1E705B030BD08492A
:100D40000091084A0849284603F0C6FFD2E700BFD1
:100D5000505B0600B45A06002C5B0600B05A060031
:100D6000A85A0600885A0600905A06002DE9F0435A
:100D700085B01D460C9C002394F80C90237380468C
:100D80000E46174621462846FFF7AEFF062F09D824
:100D9000DFE807F0042E343B444F1F004146204655
:100DA00003F09AFF2B7A052B05D06B7A5BB92749A4
:100DB000204603F091FF204603F082FF84F80C9058
:100DC00005B0BDE8F083224A2249204603F084FFA3
:100DD000EDE77369039333690293F3680193B36892
:100DE0000093D6E900234146204603F075FFD9E77A
:100DF00032684146204603F06FFFD3E7D6E900236F
:100E00004146204603F068FFCCE7B3680093D6E97B
:100E100000234146204603F05FFFC3E7F3680193D8
:100E2000B3680093D6E900234146204603F054FFFF
:100E3000B8E733690293F3680193B3680093D6E986
:100E400000234146204603F047FFABE7D89C06004D
:100E5000A85A0600B05A0600082900D970472DE9A3
:100E6000F04F1D4683B000241B7B2C730E460746B3
:100E70002946104690460193DFF8D0B0DFF8D0A0A5
:100E8000FFF732FF05E03A5D013403F025FF082C3F
:100E900009D0A64251462846F5D85946013403F0F8
:100EA0001BFF082CF5D12449DFF8A8B0234CDFF84C
:100EB000A8A0284603F010FF4FF0000917E017F82C
:100EC0000910481C7E294FF02E02C0B206D810F837
:100ED0000A2012F0970F14BF0A462E2221462846F8
:100EE00009F1010903F0F8FEB9F1080F0AD04E45E7
:100EF000E5D85946284609F1010903F0EDFEB9F19C
:100F0000080FF4D198F80830052B02D098F8093072
:100F10005BB90B49284603F0DFFE284603F0D0FEFC
:100F2000019B2B7303B0BDE8F08F064A06492846A3
:100F300003F0D2FEEDE700BFCC5A0600D05A0600FF
:100F4000D89C0600A85A0600B05A0600C85A0600E7
:100F5000C05A0600BC5A0600B4EA060038B5174B62
:100F60001D783DB3164A1168C0B200230C4604E058
:100F70000133AB4204F108041CD011F83320904235
:100F8000F6D104F0B7FE6378A3F10103B3FA83F35B
:100F90005B09834200D038BD0A4BD3E900231343D9
:100FA000F9D1094B094819680022BDE838404908C1
:100FB00000F0CEBC00231B78FFDE00BF7C070020C2
:100FC000D0070020A8070020800700208807002005
:100FD0002DE9F84FDFF83C92DFF83CA299F8003099
:100FE000002B39D0DFF83482874F00254FF0010BFA
:100FF000D8F8006016F8350004F07CFE16F835408D
:1010000006EBC506610873787E5C14F0010CA3F151
:101010000103B3FA83F314BF320906F00F025B0930
:10102000042A00F2D680DFE802F06D5B301E030078
:10103000834240F09380BCF1000F0CBFF0230F23DC
:1010400003EA06030CBF032630261E437E5499F89C
:10105000002001359542CBDBDAE90023134340F051
:10106000CA80BDE8F88F834200F0B380BCF1000F66
:101070000CBFF0230F2303EA06030CBF042640260F
:101080001E437E5499F80020E3E7834240F0A48099
:10109000BCF1000F0CBFF0230F2303EA060399F8FD
:1010A00000200CBF032630261E437E54002AD3D0D6
:1010B000D8F800600023314603E0934201F10801B3
:1010C000C7D016F83300A04203F10103F5D14B68F5
:1010D000002BBED020460121984799F80020B8E7A0
:1010E000834219BF0022134620220223BCF1000FC5
:1010F00016BF1346F0220F22164033437B5499F853
:101100000020A6E7834264D1BCF1000F14BF0F2377
:10111000F02303EA060314BF102601261E43002015
:101120007E5403F053FAA4F12003C4F120022BFAF9
:1011300002F20BFA03F31343DAF800200BFA04F47B
:101140002243CAF80020DAF8042000201343CAF82A
:10115000043003F043FA99F800207AE7BCF1000F5D
:1011600014BF0F23F0231E407E5499F800609EB1F7
:10117000D8F800000023024603E0B34202F108025F
:101180000AD010F83310A14203F10103F5D15368DE
:1011900013B1002120469847002003F017FAA4F16C
:1011A0002003C4F120022BFA02F20BFA03F31343DB
:1011B000DAF800200BFA04F422EA0402CAF800204C
:1011C000DAF80420002022EA0303CAF8043003F00E
:1011D00005FA99F800203CE7BCF1000F0CBFF023A2
:1011E0000F2303EA06030CBF012610261E437E547C
:1011F00099F800202DE7054B054819680022BDE845
:10120000F84F490800F0A4BBB00700208007002079
:10121000880700207C070020A8070020D0070020B6
:10122000092A3FD9F0B583B0144605460E4604F0AE
:10123000E5FB88B3204B214A1E70214B156000212D
:1012400020481C60202252F051FE1F4B002000213C
:10125000741EC3E90001E4B236B31C4F05EBC404AD
:10126000032602E0A5421FD01C469DF8063094F8E4
:1012700002C020788DF8046023F007033A4601A9E4
:101280008DF806308DF805C004F0C2FBA4F1080308
:101290000028E7D003B0F0BD04F064FB0028C9D0FB
:1012A00003B0F0BD07207047094A0A48002103B087
:1012B000BDE8F04000F03EBB7C070020D0070020D6
:1012C00080070020B0070020A80700205D0F010064
:1012D000D10F0100705B060070B5084D2B785BB133
:1012E000074E00243368012113F8340004F092FC07
:1012F0002B780134A342F5D8002070BD7C07002074
:10130000D007002000B585B00346002101AA44F2B1
:101310000100CDE90111039300F004F805B05DF878
:1013200004FB00BF10B572B6FFF7C8FCFFF720FA48
:101330000028FBD1104B114C1149E41AE408240495
:1013400044F00100FFF752FB0E4BD3F8F030DB07FF
:1013500000D500BE0C4944F00200FFF747FBBFF385
:101360004F8F0849094BCA6802F4E0621343CB600F
:10137000BFF34F8F00BFFDE7C4EC0600DCEC0600B6
:10138000745B060000ED00E0805B06000400FA05D7
:10139000844612F0030014D14B1C10B4DB000A4C3D
:1013A0009BB213442260094A1360094A094B10702A
:1013B0001870094A094BA2F800C019805DF8044B67
:1013C00070470720704700BFDC070020D8070020C7
:1013D000D4070020E4070020E0070020E2070020F7
:1013E0002DE9F843DFF8B080B8F800308B4202D224
:1013F0000920BDE8F883054600200C46164603F098
:10140000E5F8214B214A1978214B1078B3F800C038
:10141000C3B2604538BF0133C9B234BFDBB2002369
:1014200099422BD017781178DFF87090CBB28C45A9
:1014300086BF0133DBB200230020FFB2137003F03C
:10144000CDF8D9F8003043F8376003EBC703FE004E
:1014500005B11CB900209880BDE8F8830D4BB8F8A1
:1014600000001B68294607FB0030224652F016FD9B
:10147000D9F800301E440020B480BAE7002003F001
:10148000ADF80420BDE8F883E4070020D40700206D
:10149000E2070020D8070020E0070020DC0700203A
:1014A0002DE9F84F1A4C1B4D22782B789A4224D004
:1014B000DFF868A0DFF86890174FDFF868B04FF0EA
:1014C00000082378DAF800103888D9F8006051F85D
:1014D000332001EBC30C03FB0060BCF80410904701
:1014E0002278BBF80010D3B201339142DBB206D9A7
:1014F000237023782A789A42E3D1BDE8F88F84F8E4
:10150000008022782B789A42DBD1BDE8F88F00BFAB
:10151000E4070020D4070020E0070020DC070020BB
:10152000D8070020E207002030B48D688468C368C3
:10153000CA68A54272EB03032CBF0120002030BC17
:10154000704700BFD0E90030184700BF2DE9F04FC9
:101550002DED028B85B008EE100A03F061F940B161
:10156000A94AD2E9003113F1807341F10001C2E9C7
:10157000003118EE100A002103F06EF9A34D002887
:1015800000F089802B68002B00F08580A04B2C6830
:101590001B7823B11CB1237F002B40F047810DF154
:1015A000080A002318EE100A01212B6003F054F9F9
:1015B000002879D09748984E03F05EF9924B1A684C
:1015C0005B688018D6E9001243F10003884273EB90
:1015D000020203D210F1807043F10003C6E9000358
:1015E00051468E4803F088FA002863D18C4FDFF80B
:1015F0002482DFF8149233E0384603F0F5FF044606
:101600004046A2680192D4F80CB0834E03F034F93E
:10161000D9E900238018326843F1000390427268D0
:1016200073EB0202019A03D210F1807043F10003C0
:10163000101A6BEB0303012873F100037ADBB0F59A
:10164000350F80F0BD80A2684FF49603002140461C
:1016500003F060F8002864D00D286FD000232B60C1
:10166000384603F0C7FF2B68002800F0B780002B36
:10167000C2D02B6884689968C268DB688C4272EBC0
:10168000030352D22B681B7F002BB5D02968384644
:1016900003F096FFB0E718EE100A01210DF1080AD9
:1016A00003F0DAF8002885D15C48514603F024FAAB
:1016B00000289BD05A4CDFF85881584E0AE02BB3D3
:1016C0005146304603F04AFA5146304603F014FAC8
:1016D00000288BD00378012B10D0022BEFD12046AD
:1016E000002703F081FF28B10777204603F07CFF35
:1016F0000028F9D1012388F80030E1E72B68416820
:10170000994268D0204603F079FFD9E743681A7FF1
:10171000002AD5D101221A774168204603F050FFF4
:10172000CEE72B68002B51D02C6005B0BDEC028BAE
:10173000BDE8F08F0021404603F082F8344B1B785F
:10174000002B8BD0237F002B88D0404603F094F8E9
:10175000D9F80030D6E90012C018D9F8043043F1A6
:101760000003884273EB020203D210F1807043F150
:101770000003D4E90212884293413CD32369002B31
:1017800037D063690293A369264A03930821504620
:10179000FFF726FE002833D12369002B3FF45EAF0C
:1017A000227F002A3FF45AAFA268D318A360E368EF
:1017B00043F10003E3602146384603F001FF4DE7A3
:1017C000404603F059F8184A02443DE718EE100A63
:1017D00002F06EFFA8E700232B6071E7002BA4D175
:1017E00018EE100A05B0BDEC028BBDE8F04F02F018
:1017F00063BF2377C5E72146384603F0E1FE2DE7B6
:10180000FFF780FDC8E700BFF00700207008002048
:10181000F807002008000020680800205408002075
:10182000A05B060045150100FFFFB400214803F04E
:1018300023F8214B214A19685B684018D2E900124D
:1018400043F10003884273EB020203D210F180706F
:1018500043F10003D4E902128842934122D3236961
:1018600003B92377636902930DF1080AA369144A47
:10187000039308215046FFF7B3FDC0B92269002A3F
:101880003FF48FAE237F002B3FF48BAEA3680D484F
:101890009B18A360E36843F100032146E36003F073
:1018A0008FFE7EE60748214603F08AFE77E6FFF7C3
:1018B00029FDE3E708000020F00700206808002069
:1018C00045150100A05B060010B5134B13491C68B9
:1018D000134882B008235822019403F0B3F8044659
:1018E00010B1204602B010BD0E4A0F4801A902F007
:1018F0007FFE04460028F4D10B48012102F086FF48
:1019000001231946094A084802F0DAFE084B012271
:1019100020461A7002B010BD9C5B0600FC07002038
:10192000540800204D15010008000020FFFF7F0033
:10193000F80700204AB1A1F101010368B1FA81F171
:101940004909C3E90412002070470720704700BF0F
:10195000037F0BB10020704730B5044683B0A2610D
:101960001A480D4602F088FF194B1A685B68801808
:10197000184AD2E9001243F10003884273EB0202D5
:1019800003D210F1807043F100032818226943F15B
:101990000003C4E9020302B125610F4801A903F065
:1019A00069F8034648B100250B481D705C6001A929
:1019B00003F092F820B903B030BD042003B030BD6D
:1019C000024802F05DFF284603B030BD0800002049
:1019D000F0070020680800205408002030B50446B5
:1019E00083B000250C48257701A903F043F880B1A6
:1019F00003460122027001A907485C6003F06CF8FD
:101A000008B903B030BD054802F03AFF284603B0DC
:101A100030BD042003B030BD540800200800002071
:101A200030B583B0124801A903F024F8F0B1114D8C
:101A3000044628682060002002F0C8FD0E4B0F48C5
:101A40001B88026801339B1AE380002103F096F89B
:101A5000A080002002F0C2FD01A9054803F03CF877
:101A6000074B1B6801460BB12846984703B030BDB1
:101A7000200A0020D45B060014090020400A002040
:101A80007808002030B50378052B83B0054625D0B3
:101A9000002B2AD12B4B1C683CB1236868889B68BB
:101AA000984723685C68002CF7D1274C002002F08F
:101AB0008DFD236813B9254B6A881A8001212248BD
:101AC00003F066F8002002F089FD214B1B6813B17A
:101AD000012128469847236803B030BD1D4BD3F839
:101AE0008424D3F88034DBB233B31B4801A902F05D
:101AF000C1FF04460028EFD02B682360002002F0CD
:101B000065FD124B10481B88026801339B1AE38065
:101B1000002103F033F8A080002002F05FFD01A94E
:101B20000D4802F0D9FF0A4B1B680146002BD3D0A9
:101B30002846984703B030BD084BD2B2052A08BFEB
:101B40001D46D2E7380A0020400A00201409002070
:101B50007808002000700240200A0020D05B0600B8
:101B600070B5012882B006D0022804462AD0002889
:101B700031D002B070BD2B4801A902F07BFF0446B2
:101B80000028F6D0284D28682060002002F01EFDB5
:101B9000264B27481B88026801339B1AE3800021EB
:101BA00002F0ECFFA080002002F018FD01A91D4802
:101BB00002F092FF1F4B1B680146002BD9D028462C
:101BC0009847D6E7174801A902F054FF04460028B9
:101BD000CFD0194DD7E7134801A902F04BFF0546B6
:101BE0000028C6D0154E30682860204602F0EEFC72
:101BF0000E4B0F481B88026801339B1AEB8021466D
:101C000002F0BCFFA880204602F0E8FC01A90548CC
:101C100002F062FF074B1B680146002BA9D030463B
:101C20009847A6E7200A0020C45B0600140900209C
:101C3000400A002078080020CC5B0600C85B060044
:101C40002DE9F04F89B0002504460E4601929846D2
:101C5000049500E0013562680123D2F80490214622
:101C6000002204A8C8470028F4D18DF80E00069081
:101C700085B3814682460BE09DF80E306768023BD3
:101C8000D7F804B0D8479DF80E309A44554521D96D
:101C900060680123D0F804B00DF10E02214606A8B9
:101CA000D84760680123D0F804B00DF10F02214637
:101CB00006A8D8479DF80F30B3424FF000022146E6
:101CC00006A8D9D1019B4B4508D009F101095FFA5B
:101CD00089F9D1E7052009B0BDE8F08F129A9DF887
:101CE0000E30136088F8003088F801606268023BAB
:101CF000556808F10202A847002009B0BDE8F08F3E
:101D00002DE9F047464982B00546082345484FF47F
:101D1000847202F097FE00286FD1434805F0CAFB99
:101D2000044618B1204602B0BDE8F0873F49404A5A
:101D3000404B087010600146482218603E4852F03F
:101D4000D5F83E484822214652F0D0F8002D5ED00A
:101D500095E807003A4B83E80700002003F032FDC6
:101D600000284FD1374F3B7A002B55D0013BDBB2D7
:101D700007F10C024FF00309D7F804802F4C2E4DC9
:101D800019FB032907F109067378CBB1B27806F184
:101D9000010C9444013B5CFA83FC324412F8013B91
:101DA00003F00F011B0604EBC10E05EBC10A18D4AA
:101DB00044F831709445D8F80030CEF80430EDD1B5
:101DC00003364E45E0D10B238DF80430D8F80030AF
:101DD0001C4801A9984704460028A3D005F000FC40
:101DE000A0E745F831709445D8F80030CAF80430BF
:101DF000D4D103364E45C7D1E5E70324204602B0CF
:101E0000BDE8F0878528ADD0FFF77CFAAAE70C4B38
:101E1000C3E900551D72A0E7D7F80480D3E700BFDF
:101E200018090020200A0020851A0100440A002019
:101E3000300A0020340A002084080020CC0800204A
:101E400078080020185C060008B503F0DFFC05F0F8
:101E5000C7FB174B1A6832B10020116818600A6876
:101E60000B46002AF9D1134B1A6832B100201168D1
:101E700018604A680B1D002AF9D10F4B1A6832B15D
:101E80000020116818604A680B1D002AF9D1482209
:101E900000210A4852F02AF848220021084852F04E
:101EA00025F80C220021074852F020F8002008BD38
:101EB000300A0020340A0020380A0020840800205C
:101EC000CC0800207808002010B505F0ABFC68B104
:101ED00005F0B0FC044648B9064803F087FC034609
:101EE00028B1FFF70FFA2346184610BD08231846FD
:101EF00010BD00BFC05B060005F07CBB06F04EBC09
:101F00004FF0804303E0D3F83824D1072BD5D3F822
:101F100038249207F7D530B583B0134801A902F0F1
:101F2000A9FD0446E8B1114D28682060002002F0A8
:101F30004DFB0F4B0F481B88026801339B1AE3804F
:101F4000002102F01BFEA080002002F047FB01A947
:101F5000054802F0C1FD084B1B6801460BB128463D
:101F6000984703B030BD7047200A0020E85B0600A8
:101F700014090020400A00207808002010B582B023
:101F8000822313488DF8003001A902F073FDE8B1F7
:101F9000044600982060002002F018FB0D4B0E480C
:101FA0001B88026801339B1AE380002102F0E6FDE2
:101FB000A080002002F012FB01A9054802F08CFD70
:101FC000064B1B6801460BB16846984702B010BD2E
:101FD000200A002014090020400A00207808002070
:101FE0002DE9F043077A83B0002F5DD007F1FF3968
:101FF0005FFA89F300F1090E00F10C024FF00309BA
:10200000DFF8E4C0DFF8E480714619FB03294E785D
:1020100000239E4201EB03021AD08C781557125D03
:10202000002D02F00F0408DB5CF834200133002A95
:10203000EFD0112003B0BDE8F08302F00F020133AE
:1020400058F83220002AF4D19E4201EB0302E4D179
:1020500003314945DBD10026234C244D314601EBA9
:10206000410171444B78DBB14FF0000C63468A7834
:102070000B449F569B5C002F03F00F0204EBC2073A
:1020800005EBC20822DB44F83200426812687A602D
:102090004A780CF1010C5FFA8CF39A42E7D8077A80
:1020A0000136F1B2B942DAD3114A13681BB11A688A
:1020B0001368002BFBD1106043680B228DF80420BD
:1020C0001B6801A9984703B0BDE8F08345F83200CA
:1020D00042681268C8F804204A780CF1010C5FFAD3
:1020E0008CF39A42C3D8DAE7CC0800208408002099
:1020F000300A002030B5474C236883B0002B00F035
:102100008580054603E01C682368002B7ED0AB4227
:10211000F9D16B680C228DF804201B6801A92846B0
:102120009847002873D12A683B4B126822602A68BE
:1021300010601A6895429A6808BFC3E9000095428A
:1021400004BF0022C3E902221A69954204BF00229B
:10215000C3E904229A69954204BF0022C3E906221A
:102160001A6A954204BF0022C3E908229A6A95427E
:1021700004BF0022C3E90A221A6B954204BF002261
:10218000C3E90C229A6B954204BF0022C3E90E22D8
:102190001A6C954204BF0022C3E910221F4B1A6833
:1021A000954204BF0022C3E900229A68954204BF09
:1021B0000022C3E902221A69954204BF0022C3E942
:1021C00004229A69954204BF0022C3E906221A6AD2
:1021D000954204BF0022C3E908229A6A954204BFCF
:1021E0000022C3E90A221A6B954204BF0022C3E908
:1021F0000C229A6B954204BF0022C3E90E221A6C8E
:10220000954204D10022C3E9102200E0052003B06A
:1022100030BD00BF300A002084080020CC08002018
:1022200010B5044C02E0FFF765FF10B920680028E4
:10223000F9D110BD300A0020024B1878003818BFC1
:10224000012070473C0A0020030710B5044604D55E
:102250002046BDE8104005F03BBF05F08FFC20464E
:1022600005F08EFF2046BDE8104005F031BF00BFED
:1022700006F030B8014B1868704700BF300A0020E4
:1022800030B50F4B1D68A5B12C7AA4B100232A46A6
:102290009C4603E05FFA83FC64450CD992F809E0A0
:1022A000864503F1010302F10302F3D109B181F87C
:1022B00000C0284630BD2B681D68002DE4D1F8E72A
:1022C000300A0020436811461B68184700F00F03CE
:1022D000082B0AD802064CBF054A064A02EBC30384
:1022E000186810B143681B6818471020704700BF7A
:1022F00084080020CC08002038B5094B1C6864B164
:10230000054602E023681C683CB1636820461B68F0
:10231000294698470628F5D038BD062038BD00BFAD
:10232000300A002038B504460D4605F0FFFA18B112
:10233000054B1B78022B01D0082038BD29462046CA
:10234000BDE8384005F002BB440A002038B5044619
:102350000D4605F0EBFA18B1054B1B78022B01D0A6
:10236000082038BD29462046BDE8384005F07EBB30
:10237000440A002070B543689B6882B006460D464B
:10238000144623B19847062801D002B070BD4CBB5B
:10239000337AAB422BD9093605EB450535446E78C7
:1023A000EEB13246234606E0013405F091FEE3B279
:1023B0009E4214D96A789A4216D9AB782A19D05C11
:1023C0000307F1D4019005F0D9FB019805F0D8FE80
:1023D0000134019805F07CFEE3B2B342EAD3002059
:1023E00002B070BD0720D0E700231B78FFDE6378C2
:1023F000FFDE00BF43681B6903B1184718467047EA
:102400002DE9F0432E4BD3F8008083B0B8F1000FD4
:102410004CD098F80890B9F1000F40D0002708F18F
:1024200009053C4605E00137FCB2A14505F103056D
:1024300035D9D8F804309B682BB10022214640469C
:1024400098470628EFD198F80830A34231D96E7822
:10245000002EE8D000243246234606E0013405F081
:1024600037FEE3B29E42DED96A78934224D2AB783B
:102470002A19D05C0307F1D4019005F07FFB019885
:1024800005F07EFE0134019805F022FEE3B2B3426E
:10249000EAD30137FCB2A14505F10305C9D8D8F844
:1024A0000030D3F80080B8F1000FB2D103B0BDE81E
:1024B000F08300235B78FFDE00231B78FFDE00BF84
:1024C000300A00202DE9F8431E4B1F68002F34D03E
:1024D00097F80890B9F1000F2BD04FF0000807F1E2
:1024E000090544467B68DB6813B1214638469847A6
:1024F0003B7AA34223D96E789EB10024324623460C
:1025000093420BD2AB782A190134D05C05F0E2FE7D
:10251000E3B29E4205D96A789342F3D300231B7835
:10252000FFDE08F101085FFA88F4A14505F1030513
:10253000D8D83B681F68002FCAD1BDE8F8830023B4
:102540005B78FFDE300A002070B503780446852BE7
:1025500000F2BF80DFE813F0F801AA01BE003202EA
:102560005E02DC00E300BD00FD0010012301BD00A0
:10257000BD00BD00BD003601BD00BD00BD00BD00F9
:10258000BD00BD00BD00BD00BD00BD00BD00BD0063
:10259000BD00BD00BD00BD00BD00BD00BD00BD0053
:1025A000BD00BD00BD00BD00BD00BD00BD00BD0043
:1025B000BD00BD00BD00BD00BD00BD00BD00BD0033
:1025C000BD00BD00BD00BD00BD00BD00BD00BD0023
:1025D000BD00BD00BD00BD00BD00BD00BD00BD0013
:1025E000BD00BD00BD00BD00BD00BD00BD00BD0003
:1025F000BD00BD00BD00BD00BD00BD00BD00BD00F3
:10260000BD00BD00BD00BD00BD00BD00BD00BD00E2
:10261000BD00BD00BD00BD00BD00BD00BD00BD00D2
:10262000BD00BD00BD00BD00BD00BD00BD00BD00C2
:10263000BD00BD00BD00BD00BD00BD00BD00BD00B2
:10264000BD00BD00BD00BD00BD00BD00BD00BD00A2
:10265000BD00BD00BD00BD004A0186005901140245
:10266000DB01DC00884B8949D3E900029047884BA5
:102670001C684CB1854D636820461B682946984705
:1026800023681C68002CF6D1824C63680BB10D20C6
:102690009847FFF717FF01F0C1FB7F4B1B68002B2A
:1026A00000F0FB8101207D4D05F08AF82A78931E09
:1026B000DBB2062B00F213827949CB5C13B103F035
:1026C00067F82A78022A40F00A8205F005F901230A
:1026D0002B7070BD714D2A78931EDBB2062B40F231
:1026E000C581082A01D105F0F7F86A4B5B6803221F
:1026F0002A700BB102209847654B1D6845B16B6885
:1027000028461B68214698472B681D68002DF6D186
:102710005D4B2146D3E90002BDE87040104790F9B7
:1027200002308278002BB4BF5E4B574B02F00F0291
:1027300003EBC203D3E90002214690470028C8D02A
:10274000A0780207C5D00307C3D4BDE8704005F0E8
:10275000E7B9504B5B680BB1082098474C4B1D689C
:10276000002DB6D06B6828461B68214698472B6819
:102770001D68002DF6D1ACE7464B5B680BB1092014
:102780009847434B1D68002DA3D06B6828461B68F3
:10279000214698472B681D68002DF6D199E73D4BDF
:1027A0005B680BB10A209847394B1D68002D90D00B
:1027B0006B6828461B68214698472B681D68002DCA
:1027C000F6D186E7334B5B680BB10F209847304B4F
:1027D0001D68002D3FF47DAF6B6828461B682146BD
:1027E00098472B681D68002DF6D172E72B4C237893
:1027F000062B00F0548103F0FD03052B7FF469AF35
:1028000005F074F80223237070BD244DFFF75AFEC3
:1028100005F01AFE2A78931EDBB2062B31D8204928
:10282000CB5C13B102F0B4FF2A78022A29D105F05B
:1028300053F8174A146800232B704CB11A4E636882
:1028400020461B683146984723681C68002CF6D147
:102850000D4B1549D3E9000290470E4B5B680BB155
:102860000E2098472B78023BDBB2062B3FF631AFA8
:102870000B4AD35C002B3FF42CAFBDE8704002F054
:1028800087BF082AD5D1D2E7CC080020E45B060038
:10289000300A002078080020340A0020440A002072
:1028A000B85B060084080020E05B06009D4DFFF742
:1028B00009FE01F0A9FA2A78931EDBB2062B00F27A
:1028C000DF809949CB5C002B00F0DA80022A03D02C
:1028D000082A01D005F00AF8944B5B6802222A709E
:1028E0000BB101209847924B2146D3E90002904753
:1028F000904B1D68002D3FF4ECAE6B6828461B68BA
:10290000214698472B681D68002DF6D170BD854D76
:102910002B78032B00F0CC8004F0A4FF00283FF4B8
:10292000D8AE2A78931EDBB2062B40F2F1808248A3
:1029300002F000FF2A78022A01D0082A01D104F00F
:10294000CBFF06232B7070BD764B1B78032B00F05A
:10295000AB80082B00F0A880744B5B680BB10020A3
:102960009847764B1D68002D3FF4B3AE6B68284640
:102970001B68214698472B685D68002DF6D170BD15
:10298000684D2B78032B7FF4A4AE05F02DFE0028B4
:102990003FF49FAE2A78931EDBB2062B00F2D48060
:1029A0006149CB5C13B102F0F3FE2A78022A40F0B1
:1029B000CB8004F091FF04232B7070BD594D2A7811
:1029C000082A62D0931EDBB2062B00F28C80564997
:1029D000CB5C002B00F08780022A00F08D8005235D
:1029E0002B70524B5B680BB103209847504B21462C
:1029F000D3E9000290474F4B1D68002D3FF469AEAC
:102A00006B6828461B68214698472B681D68002D77
:102A1000F6D170BD454B5B680BB103209847444B22
:102A20004749D3E900029047424B1C684CB1444DE2
:102A3000636820461B682946984723681C68002C59
:102A4000F6D1384D2B78062B24D0082B0BD09A1EAC
:102A5000D2B2062A53D834498A5C002A4FD0022BBE
:102A600001D004F043FF02232B7070BD2E49CB5CD4
:102A700013B102F08DFE2A78022A3FF434AE30E61C
:102A80002D4802F057FE2A7820E702232B7004F02D
:102A900037FFA6E707232B7070BD207A03E604F00A
:102AA00025FF0823237070BD2648FFF74DFD53E72F
:102AB00005F09AFD00283FF42FAF2A78931EDBB271
:102AC000062B2BD81849CB5C13B102F061FE2A7893
:102AD000022A23D104F000FF04232B701CE7082AEC
:102AE0007FF4F5ADF1E5144802F024FE2B78022BBB
:102AF00002D0082B7FF473AF04F0EEFE6FE70E48B0
:102B000002F018FE2B78022BADD0082BABD0A8E733
:102B10000549CB5C002B7FF40EAF08E7082ADBD118
:102B2000D8E700BF440A0020B85B06007808002000
:102B3000CC080020300A002010000020340A0020B9
:102B4000D85B0600DC5B0600082A7FF434AF30E770
:102B500070B5284E82B03468002301930CB3A58869
:102B6000A5B1E388B3F5006F3ABF5A1C92B20122B7
:102B700005F1FF3528BF002301A8E280A580ADF84C
:102B80000630FFF7E1FC012002B070BD2046FFF7E0
:102B9000DBFC1949194801F0E1FF0120356002B062
:102BA00070BD1549154801F0A7FF044630600028A4
:102BB000D5D1134B1B6813B9184602B070BD01F094
:102BC00005FD104A0E481388B3F5006F39BF5D1C30
:102BD000ADB20125234601211580ADF8063001F084
:102BE000EFFF002001F0FAFC01A8FFF7ADFC012087
:102BF000CAE700BF480A002074080020200A00200D
:102C0000400A0020140900204360CA699A4205D393
:102C10008A6902600B67CB610020704701F12802CE
:102C200002608B6700207047F0B5046891F808E0F7
:102C3000002C00F04884A4F5457CBCF17C0F00F228
:102C40008280BCF17C0F7ED8DFE81CF0C900E60270
:102C5000D1021B0348012303F50214037D007D000C
:102C60007D007D007D007D00C00318027D007D0099
:102C70007D007D007C037E026D027D007D007D0075
:102C80008203030381007D007D007D007D00BC0385
:102C9000860281007D007D007D007D007D007D003D
:102CA000D0037D007D007D007D006B0396019902BD
:102CB0007702CA027D007D00C302D802BC0209026D
:102CC00002027D007D00FB012A035701A0037D0065
:102CD0007D00FC029403DF02B603EE027D007D005E
:102CE0007D007D007D007D007D007D007D007D00FC
:102CF0007D007D007D007D007D007D007D007D00EC
:102D00007D005A03A0027D007D007D000F017D0043
:102D10007D007D007D00AE037D007D007D007D0097
:102D2000A6037D007D007D007D007D007D007F038A
:102D300050017D007D007D007D00B8007D007D009C
:102D40007D007D00B800002303601846F0BD002A16
:102D500000F0A684047915464FF0010C2C70002475
:102D60009C45047180F04C830CF1010412B105798B
:102D700002F80C50BD4D91F814C02D682E78B44562
:102D800000F04383BA4E6D783570BA4E4FF0000CA8
:102D900086F800C0AC45C0F02D83B74D95F800C053
:102DA0000CF1010C5FFA8CFC85F800C0E64500F2DE
:102DB000398340F29B3303600120F0BD01240025DC
:102DC0000AB106795655AB4EA94D96F800C02D783C
:102DD0000CF1010C5FFA8CFC86F800C0DAE7002ADF
:102DE00000F0738404791470012B4FF00B0404710C
:102DF00040F2AE84032502260127D455B3420C7D50
:102E0000047140F2D8839455AB424FF00204047130
:102E100040F2C28305F1010C545563454FF00204A2
:102E2000047140F2AA830CF1010602F80C40B3428F
:102E30004FF00204047140F28A83751C9455AB4232
:102E40004E7E067140F271836C1C5655A3424FF0C2
:102E50000005057140F25F83161901343570864D07
:102E60004FF0000C85F800C0A0E7804C01252668D3
:102E700000241AB190F804C002F804C034780E7D22
:102E8000A64200F0FA828E7DA64200F0AD83402477
:102E9000AB42047140F2C1826C1C002A00F0D9825E
:102EA00006795655A3424FF00005057140F2C182E4
:102EB0001619013435706D4D0E7D2D682D78AE429A
:102EC00000F0BC828E7DAE427FF47DAF0025A34230
:102ED000057140F28A842546013471E7002A00F02A
:102EE0004684047901264FF0000C9EE7002A00F08A
:102EF0004B84057916460124DCE7002A00F057844C
:102F00000679944601240225A3428CF800600571DD
:102F100040F2BB822E46651C1655AB424FF00504AD
:102F2000047140F2CB82264602EB050C6C1C242572
:102F3000A3428CF80060057140F2BB822E46651CEE
:102F40001655AB424FF00604047140F2AD8256199B
:102F5000013534700E7D0671AB4240F2A0826C1CCC
:102F60005655A3428D7D057140F2948216190134A5
:102F700035703E4D2D6805E7002A00F0FA8304798C
:102F800001264FF0000C02F80C40B3424FF0000451
:102F9000047140F20683751C9455AB424FF0100447
:102FA000047140F2EF826E1C5455B3424FF001049D
:102FB000047140F2D18235199455AB424FF00504AB
:102FC000047140F2B7826E1C5455B3424FF0240492
:102FD000047140F2A582751C9455AB424FF0010478
:102FE000047140F293822E195455B3424FF00304FA
:102FF000047140F28682751C9455AB428E7D067139
:1030000040F27A826C1C5655A3424FF004050571BC
:1030100040F26D82161901343570A3424FF0240539
:10302000057140F25F822E46651C1655AB424FF08B
:103030000204047140F25182264602EB050C6C1C1E
:1030400061E7002A00F0CD83057916460124E3E705
:10305000002A00F0C883067901240025D3E7002A5E
:1030600000F0B083047901250026C5E7500A00204E
:103070004C0A00204E0A00204D0A0020002A00F0D1
:10308000988304791646012534700E7ABC4C247856
:10309000B44280F0BC8304EB440401F10906B94F4B
:1030A00016F804C080F804C03444AB423C6040F2DF
:1030B0007D826C1C002A00F0838206795655A3425B
:1030C0004FF00005057140F2628204F1010C1555C4
:1030D000AC4C256863456C78047140F2498202EB80
:1030E0000C060CF1010C34702C780D7DA54200F01B
:1030F00026828D7DA5427FF432AE0A246345047199
:1031000040F27D830CF10104002A00F07A820579F7
:1031100002F80C50A3424FF00005057140F21383F2
:1031200004F1010C1FE0974C2568002A00F0298368
:10313000047916464FF0010CD5E7002A00F03C83D5
:103140000479012600252FE7002A00F03D83057948
:103150004FF0010C0024BAE7002A00F03183057912
:103160004FF0010C0024155563454FF00004047125
:1031700040F2518202EB0C050CF1010CEEE5002A45
:1031800000F0248304790125002605E7002A00F0D9
:1031900026830579944601248CF80050794D2E68D9
:1031A000794D96F801C02D78AC4540F22D8396F804
:1031B00002C03544A34215F80C50057140F2588105
:1031C000651C56E6002A00F0D68204790126002507
:1031D0000AE7002A00F0D182047901260025F3E6EF
:1031E000002A00F0DB82047901250026E4E6002AAB
:1031F00000F0E48204790125002604E6002A00F0AC
:10320000EA82047901250026E6E6002A00F0C18260
:103210000479164601259CE6002A00F0D98204793B
:10322000022501260027E8E5002A00F0BB82057987
:10323000164601249CE6002A00F0CF82067901247C
:10324000002502E6002A00F0A282067994460124B5
:103250006DE6002A00F0A48205794FF0010C0024ED
:1032600015559C454C7E047184D34FF44C73036018
:103270000120F0BD002A00F08E8205791646012457
:10328000ECE5002A00F0918204794FF0010C002552
:10329000C2E5002A00F07382047901250026CDE5FD
:1032A00001250024002A40F09D810224AB420471D4
:1032B00040F213816C1C0225A342057140F2E580A7
:1032C000651C0524AB42047140F2F8806C1C242577
:1032D000A342057140F2ED80651C0624AB420471E7
:1032E00040F2E28001350C7D0471AB4240F2D780A0
:1032F0006C1C8D7D0571A34240F2CC80013438E610
:1033000001260024002A00F02C8105791555B342CE
:103310004FF00505057140F2A68002EB060C741C07
:103320003AE74FF0010C0024002A00F0798105797A
:1033300015559C454FF02404047180F04E810CF12A
:10334000010620E601240025B4E601240025A4E5B9
:1033500001244FF0000C002A00F0E781057902F803
:103360000C509C424FF00205057180F0A98104F1D8
:10337000010C75E701250024002AAED00679DFE5AF
:103380004D0A0020500A00204E0A0020012500248A
:10339000002A96D00679BFE501250026002A3FF4D1
:1033A00076AD0479945572E501250024002A3FF496
:1033B0006EAD067916556AE501240025002A98D0DD
:1033C0000679CDE501244FF0000C9DE6012500248F
:1033D000002A00F0698106791655AB424FF00404CB
:1033E000047140F20981561901354DE601244FF070
:1033F000000CBBE40725A34205712FD9661C81E7A9
:1034000040F23E3303600120F0BD05259C4205716A
:1034100080F0518104F1010C86E740F285330360AE
:103420000120F0BD0925A342057140F27981651C98
:10343000CEE740F2863303600120F0BD0D6AA3425F
:103440002D7805713FF647AD40F28B3303600120C4
:10345000F0BDA3420271ECD901342CE540F26F3388
:1034600003600120F0BD4FF45C7303600120F0BDE8
:103470004FF45D7303600120F0BD0324AB4204717F
:1034800040F26B812C46013590E74FF45573036091
:103490000120F0BD40F25B3303600120F0BD40F23B
:1034A0005A3303600120F0BD40F25933036001201C
:1034B000F0BD4FF4567303600120F0BD40F2573366
:1034C00003600120F0BD08240471002B7FF487AC59
:1034D0004FF4457303600120F0BD40F253330360A5
:1034E0000120F0BD40F2523303600120F0BD40F2F4
:1034F000513303600120F0BD40F24E3303600120E0
:10350000F0BD40F24D3303600120F0BD4FF4537322
:1035100003600120F0BD40F21B3303600120F0BDC9
:1035200040F24B3303600120F0BD40F21A330360D8
:103530000120F0BD40F24A3303600120F0BD0224B7
:103540006345047140F20E810CF1010403E740F27F
:10355000193303600120F0BD40F2473303600120BE
:10356000F0BD0524B34204717FF67DAF741C15E6EF
:1035700040F22A3303600120F0BD4FF4467303602C
:103580000120F0BD40F2463303600120F0BD40F25F
:10359000293303600120F0BD40F21733036001209E
:1035A000F0BD40F2453303600120F0BD4FF44A7393
:1035B00003600120F0BD40F2163303600120F0BD2E
:1035C000A3420271E3D90134934D2D68A3426E7872
:1035D0000671CDD904F1010C86E54FF451730360F7
:1035E0000120F0BD067920E50224AB42047140F2CF
:1035F00001812E460135D1E640F2233303600120DC
:10360000F0BDA342027140F29E8001340025A34226
:10361000057100F2948040F2373303600120F0BD61
:1036200024249C450471D8D20CF101040025A34246
:103630000571B6D901341025A3420571A2D9013410
:103640000125A342057187D92C440525A3420571A4
:103650007FF670AF01342425A34205717FF660AF79
:1036600001340125A34205717FF650AF2C44032598
:10367000A34205717FF645AF01348D7D0571A342EC
:103680007FF63AAF01340425A34205717FF62FAFD0
:1036900001342425A34205717FF624AF651C04E69E
:1036A0004FF0010CFFF75BBB0424AB420471A3D9BC
:1036B0000E7A0135EAE440F2433303600120F0BDA5
:1036C00040F22F3303600120F0BD0B24012B047165
:1036D0003ED9032402250E7D0671AB427FF66BAF07
:1036E0000225A34205717FF657AF01340225A3429C
:1036F00005717FF642AF01340225A34205717FF6C2
:1037000026AF01344D7E0571A3427FF60EAF013422
:103710000025A34205717FF6FEAE0134FFF79FBB83
:1037200040F2223303600120F0BD02259C42057166
:10373000C6D201344D7E0571A3427FF696AD04F1E9
:10374000010CFFF70CBB40F2363303600120F0BDE3
:1037500040F2153303600120F0BD40F2793303607D
:103760000120F0BD40F22E3303600120F0BD0124A2
:10377000C2E701245AE7012479E701246BE7012419
:10378000C0E74FF0010CAFE40124FFF794BB012424
:103790009DE50125A7E50124FFF761BB012454E75E
:1037A0000124C7E70124FFF7E4BB01249EE70124BD
:1037B00081E57646012569E4012441E701248FE78C
:1037C000012423E7012458E70124FDE6012432E720
:1037D000022401257FE7012443E7012498E701241F
:1037E000DCE4012455E701244DE74FF464730360E2
:1037F0000120F0BD40F27E3303600120F0BD40F2B5
:10380000353303600120F0BD00231B78FFDE024A40
:10381000002313601B78FFDE500A002078B910B532
:1038200004460868037B202B01D0062010BD00F160
:103830000E010722183050F031FB204610BD032046
:10384000704700BF4360CA699A4210D38A6910B4B6
:103850000260C8690C6FC01A1A44C861234400385A
:1038600018BF01205DF8044B8A610B67704701F1B6
:103870002802026000208B67704700BF2DE9F047E7
:103880000B7888B00C4605460E2B14D8DFE803F001
:10389000081C0808130D2C13131813080808080037
:1038A0000024204608B0BDE8F0874B78DA0934D10F
:1038B0005B09012B51D00624204608B0BDE8F087F3
:1038C000C3690BB1032198472B68002403F134022C
:1038D0002046C3E91E44C3E920441C845C62DC62C8
:1038E0005A6708B0BDE8F087027A002A00F06381C9
:1038F000837A0930002B00F05C818B78E97A415C97
:103900009942CDD01B061FD4E77807F0FD03012BA9
:10391000C6D0002F66D00324C3E713F0600FC3F3B3
:10392000411200F09580012AC5D18B78212BC2D19C
:10393000B1F80720072ABED10168601C183108B011
:10394000BDE8F04700F074BAE478002C00F0A080E5
:10395000032C14BF03240024A3E78B780668202BD4
:1039600000F09E80222BA6D1B1F80730002BA2D107
:10397000B1F80330328C338403F0010702F0010206
:10398000BA428DD0C3691BB1C7F10301C9B29847D0
:10399000002F85D12B7A012B40F209816B7B05F139
:1039A0000C08002B00F00181AB7B18F8030004F039
:1039B00005FC2B7A012B40F2FA806B7B012B40F245
:1039C000F480AB7B98443C4698F8010004F0F6FB89
:1039D00006F13403C6E91E77C6E920777762F762FD
:1039E00073675EE72E68012A06F10C0100F0DF80A4
:1039F0006A7B012A05F10C0340F2D780AA7B06916D
:103A000013446E4A0592B46A93F80180002C63D186
:103A1000F36FC6F88030F36AC6E91E44002B00F04D
:103A2000B58006F12C0393E8030006F1240383E834
:103A300003000023F36205A94046FEF787FC044615
:103A4000EB69002B3FF42DAF00212846984728E76B
:103A500003F01F03012B7FF42EAF8E78062E7FF428
:103A60002AAF05A8039200F049FD03AB0093074677
:103A7000E278217928463B46FEF7E2F805283FF434
:103A80001AAF601C039A394600F0D2F9044608E7E1
:103A9000EB69002B3FF404AF01212846984700E76B
:103AA000B1F80720072A7FF406AF3373B1F8073067
:103AB000DBB2737300200E36CDE90563079000F08A
:103AC00085FD05A90020FEF72DFC0446002864D0E2
:103AD000002000F083FDE4E6D6F884A0706A544527
:103AE00028BF544606F134092246494650F0D6F91B
:103AF000F26FF767AAEB040309EB04011444F26ABE
:103B0000C6F88040C6E91D13002A42D006F12C07F2
:103B100097E8030006F124044FF0000984E803004D
:103B2000C6F82C90DBB92BE0706A50F0B7F9B26A96
:103B3000B36FC6F880209B1AB367736F1344736723
:103B4000EB6913B1002128469847F36A13B397E84D
:103B5000030084E80300B36FC6F82C9083B1B26A07
:103B6000716F9A42E0D91A46706A50F097F9B26FB5
:103B7000B36AF2679B1AB362736A1344736253B1F8
:103B800005A94046FEF7E2FB044659E700237362AD
:103B900056E700237362002452E7094B03A9CDE9DD
:103BA000033500F097FC044692E73B78FFDE7B7814
:103BB000FFDE1B78FFDE5378FFDE00BF45380100D3
:103BC0001D3801000368B3F820C01CF0010F18D0A5
:103BD0000B46017A012918D9417B00F10C0C91B1F7
:103BE00010B5817B84B01CF8010091060CBF012444
:103BF000002401A9CDE901320394FEF793FB04B040
:103C000010BD082070470B78FFDE00235B78FFDED5
:103C10000368D3F88000704730B50468258CEB0743
:103C200083B033D5A56F0B46EDB9616A11B1112090
:103C300003B030BDC4E90932037A012B2BD9427B92
:103C4000012A00F10C0324D9817B144A0B440C3463
:103C500058786946CDE90024FEF778FB002808BFB4
:103C6000922003B030BD954228BF15462A46616FA9
:103C7000184650F013F9D4E91D320020521B2B4492
:103C8000C4E91D32C4F8805003B030BD082003B031
:103C900030BD0B78FFDE4B78FFDE00BF092C010042
:103CA00070B503460C4600201E68154600F08EFCD9
:103CB000631E012B0BD8338C0026234214BF012333
:103CC00033462B60002000F089FC304670BD06268C
:103CD000002000F083FC304670BD00BF002070471C
:103CE0002DE9F04F4B6885B0CDE900020C46002B62
:103CF00071D003F011FFE568019B9D4228BF1D466E
:103D00008146002D7CD04FF0000A56464FF0010846
:103D1000D346D4E90113AB421F4628BF2F46E9B171
:103D20003A4609EB060050F0B9F8A268E368C4F817
:103D300004B0D21BED1B3E44DF1BA260E7602AB338
:103D4000002F08BF4FF00008002DE2D1009BC3F800
:103D500000905E60404605B0BDE8F08FABB12046F4
:103D600009EB060250F8101B4B68D3F804A03B4641
:103D7000D047A268E368D21BED1B3E44DF1BA26064
:103D8000E7605AB14FF0010ADAE7E768BAF1000FCD
:103D900004D15FB9B846002DBBD1D7E723681B68B3
:103DA0001B6823604FF0010A002FF3D02168F1B1A6
:103DB000CDF808B003E0A36821680133A3604B6825
:103DC00000225F6802A80123B8470028F3D12061D0
:103DD000002D9ED1BAE70B681B681B68002B88D1A9
:103DE0008B68002B85D1036043609846B2E7616021
:103DF000002EABD0019BB34288BF4FF00008A5E76F
:103E00002E464FF00108A1E708B50020FEF71CFA86
:103E1000BDE808408020FEF717BA00BF08B50020B3
:103E2000FEF726FABDE808408020FEF721BA00BF61
:103E300070B5C38893421E4628BF1646934284B08D
:103E40000D4612D8002400200394CDE9015600F05D
:103E5000BDFB01A98020FEF765FA044688B1002069
:103E600000F0BCFB204604B070BD8020144603F077
:103E70004DFDB4FBF0F202FB1044B4FA84F4640983
:103E8000E1E703F0EBFE80280BD1094A094B92E8E9
:103E9000030083E80300002000F0A0FB204604B0EC
:103EA00070BD002000F09AFB1024204604B070BDC5
:103EB000605C0600800A00202DE9F04F0B780E2B85
:103EC00089B00CD893B1013B0D2B0FD8DFE803F07C
:103ED0007118130E33480E0E0E0E18621D23852B1B
:103EE00004D1A44B1A78032A00F025810625284620
:103EF00009B0BDE8F08FA04800F07CFE002868D132
:103F00000025284609B0BDE8F08F4FF08043D3F874
:103F10003834DB0765D4974B1A78012AF0D09749DB
:103F200097480A78012422F002021C700A700025CA
:103F3000FEF70AFBDBE705230DF109008DF80830D9
:103F400003F02CFE9DF809308E4E002203F01F0472
:103F50003260032C00F29380DFE804F093BC7165BB
:103F6000C87803280C46C1D0864E3368002B00F079
:103F7000E08000227168326098470546002858D1D9
:103F80003368002B00F0EC80A378002BB8D103F04D
:103F90002BFEACE7774A1378002BB1D077497848ED
:103FA0000B78002523F0020315700B70FEF7CCFA96
:103FB0009DE7704A1378032B98D0704970480B78AE
:103FC000032423F0020314700B700625FEF7BCFADD
:103FD0008DE76D4B0122DA65BFF36F8FBFF34F8F13
:103FE0008EE7644A1378022B8AD0644964480B78C0
:103FF000022423F0020314700B700025FEF7A4FACC
:1040000075E75C4A1278052A00F02B82042A0AD14F
:104010005E4B1F705D4901220DF10900FFF708FF9B
:104020000546062D03D102A8FEF766F90546002DC8
:1040300046D003F009FE284609B0BDE8F08F9DF890
:104040000D00020707D002A9FEF740F90628054631
:10405000EDD19DF8093013F0600FC3F341150ED177
:104060009DF80A30434A9DF80D401278012B00F06C
:10407000DF80032B00F0CC80002B00F0EC800625C5
:10408000D7E713F0600FC3F34117CCD1DB097FD121
:104090009DF80A30032B00F01D81092B00F00181EF
:1040A000012BC0D1BDF80B30012BBCD1FEF7C4F8F9
:1040B000002800F09081314A137823F00203137036
:1040C0003368002B43D003F0C9FD054600287FF478
:1040D00017AF5CE79DF80D0005A9FEF7D1F804467F
:1040E00000283BD09DF8141002AAFEF7EBF8062832
:1040F00005469CD19DF8092012F0600F99D11D4B07
:104100009DF814101B78D20940F078819DF80A20A0
:104110000B2A8ED1052B40F0C280BDF80B30FF2B4F
:1041200000F257819DF80B202046FEF723F9054643
:104130007DE70E257DE7114911480A78042422F015
:1041400002021C700A700625FEF7FEF9CFE603F0A6
:1041500071FD0025CBE6284600F040FA102568E7FF
:104160004FF08053D3F83021082A4CD003F062FD81
:10417000BDE600BF600A0020880A00207C0A0020FB
:10418000285C0600800A0020007002408C0A002093
:104190009DF80A10062900F0AC8008293FF431AFE1
:1041A00000297FF440AFBB4F022238464FF09EFEFD
:1041B000B94A3B781278900743F0010148BF43F0B9
:1041C0000303397048BF3B70BDF80F30022B1C460B
:1041D00028BF0224022B00F238810023002007931D
:1041E000CDE9057400F0F2F905A98020FEF79AF8F0
:1041F0000546002800F0DF80002000F0EFF9062DD2
:104200007FF417AF0FE7D3F83431002BAED177E648
:1042100025073FF534AFBDF80B30002B7FF42FAFEF
:10422000052A01D020073AD1204603F079FC47E760
:1042300021073FF524AFBDF80B30002B7FF41FAFF3
:10424000052A01D022072AD1204603F097FC2046F8
:1042500003F096FF34E7052A01D023071FD120463B
:1042600003F06AFCBDF80F308A4F022B1C4628BFB2
:104270000224022B388000F2D98000200795CDE976
:10428000057400F0A3F905A98020FEF74BF8054658
:10429000002800F09080002000F0A0F9C9E6082571
:1042A000C7E67E4C2378043B012BF8D89DF80B30F1
:1042B000002B00F09280012B40F08B80FEF7A0F8DD
:1042C0002378052B3FF4FCAE052375482370FEF7D9
:1042D0003BF9F5E6BDF80B30012B7FF4A4AEFDF7FA
:1042E000ABFF002877D06C4A137843F002031370B9
:1042F000E6E69DF80C30022B12D0032B00F0B480C0
:10430000012B7FF490AEBDF80F30002B3FF41FAFB0
:10431000644912220DF10900FFF78AFD054680E687
:10432000BDF80F30002B3FF412AF092B28BF092333
:104330009946FDF79FFF4FF0090A0546B8B105976A
:104340004FF0000801E008F101086A680123D2F883
:1043500004B02946002205A8D8470028F3D12A68CE
:104360002B7A15681C44C244E4B2002DE7D1494FB2
:104370004D494A4638464FF091FD3C71A7F802A0DE
:10438000FDF75AFF18B1FB7943F02003FB71FDF7ED
:1043900071FF464B1860BDF80F20DA600020C3E9BA
:1043A000017900F013F942498020FDF7CFFF05465F
:1043B00000287FF421AF03F051FC80287FF4CBAEBE
:1043C0003C4B93E8030086E80300284600F006F91A
:1043D00076E607252DE60F252BE6FEF773F8237802
:1043E000042B3FF46DAE2C4A2D481378042123F0A2
:1043F000020321701370FEF7A7F861E69DF80A70BA
:10440000002F59D00A2F7FF414AE052B7FF447AF4D
:1044100020460192FDF7EEFF1E49019A03460B70FC
:104420000DF10900FFF704FD054600E6802003F0CA
:104430006DFA0225B5FBF0F505FB00F0A0F1020CCA
:10444000DCF1000545EB0C0517E7802003F05EFA70
:104450000223B3FBF0F300FB03F3991E4B424B41E5
:10446000BCE60C4A1370D5E5BDF80F30002B3FF4C5
:104470006EAEBDF80D109DF80B0000F06FF8014610
:1044800000283FF4D0AD02780DF10900FFF7D0FC11
:104490000546C6E58C0A00207C0A0020600A002040
:1044A000285C06004C5C06002C5C0600640A0020B8
:1044B000685C0600605C0600052B7FF4F0AE0449E2
:1044C00002220DF109000F80FFF7B2FC0546AEE5B0
:1044D0008C0A002038B505460C4603F0BFFBA84205
:1044E00007D194E80300044A82E803000023184639
:1044F00038BD1023184638BD800A002008B140237B
:1045000003600148704700BF8C0A002070B54FF06F
:10451000805286B0D2F8A830D2F8A41000916FEA89
:1045200083436FEA93430B4A0B4E9BB20D2102A8C3
:1045300050F0B6F802AD002404E015F8013B06F88F
:10454000013B013402A850F0FEF88442F5D306B0D6
:1045500070BD00BF705C0600CC0A002030B3052897
:1045600029D8174B185C28B3164B10B553F82040C8
:10457000F4B123780BB9A01C10BD0020FFF7BEFFDB
:104580002178D1B12246C4F1010C02EB0C03DCB25C
:10459000234620F8141012F8011F0029F5D1013329
:1045A0005B00DBB243F44073038010BD06487047E4
:1045B000204610BD70470020704740F20233F3E7F9
:1045C000E85C0600D05C06007E5C060072B6024A1B
:1045D0001368013313607047DC0A0020034A136834
:1045E000013B136003B962B6704700BFDC0A0020CC
:1045F00010B5274C437944F82320264C04EBC30321
:104600001B79002B37D103680A88C3F8082590F975
:1046100004308A78002B26DB03F16043520103F556
:104620006143D2B283F8002390F904301A49012281
:104630004FEA531C03F01F0302FA03F341F82C3036
:104640004379164944F8330004EBC30C1448154B66
:104650008CF80420C01AC008000440F00300FCF7E6
:10466000C5F9002010BD104903F00F035201194491
:10467000D2B20A76D8E70B4B09480C49C01AC008D9
:10468000000440F00200FCF7B1F9082010BD00BFA3
:10469000E80A0020E00A002000E100E0145D0600C6
:1046A000ECEC0600C4EC0600FCEC00E0F05C06005C
:1046B000036801221A607047036801225A6070473C
:1046C00070B405684FF480348C40C5F80843056821
:1046D00001F1500CC5F848434FEA8C0C05681FFAED
:1046E0008CFC002645F80C6083B055F80C50019501
:1046F000019D056801F5A87122F07F4245F821204F
:104700000268C2F8444313B10368C3F8044303B01A
:1047100070BC70472DE9F0474FF4803622F07F4798
:1047200002688E40C2F848630268C2F808630268F3
:1047300002EB810C044601F15005D2F80405DCF8C7
:104740004025CCF84005AD00ADB2121A20684FF0FC
:10475000000840F8058082B04059009022F07F4266
:10476000012A00988A46994641D02268D2F8045519
:10477000C2F844637A1B22F07F42012A0AF5A8712D
:1047800025D0236843F821702068D0F804557B1B9E
:10479000C9F1FF12013B02F57F4223F07F439A42A9
:1047A00011D343B1C0F8446323680020C3F8046305
:1047B00002B0BDE8F087013740F821702068D0F8DA
:1047C00004359D42EED00D2002B0BDE8F08723688D
:1047D000013743F821700C4B4FF4806043F0010324
:1047E00098472068D0F804359D42DBD0EBE7064AB5
:1047F0004FF4806042F001029047226842F8058041
:1048000052590192019AB0E7305D06000268022316
:10481000C2F8443311B10268C2F80433704700BFD4
:104820000368D3F8040100B97047002282B0C3F8CE
:104830000421D3F804310193019B012002B0704799
:1048400002684FF4803303FA01F1C2F84813036899
:10485000C3F80813704700BF50318900036889B25C
:10486000585800B9704700225A5082B05B580193E3
:10487000019B012002B070470368D3F8040570471C
:1048800010B490F90430064C5A09012103F01F03BB
:10489000403201FA03F344F822305DF8044B7047CC
:1048A00000E100E0024A034B10681B68184700BF94
:1048B000E00A0020E80A00200B685A1EB2F5306FAB
:1048C00045D2402BF0B502D8002213460BE0B3F5D9
:1048D000807F30D9B3F5007F8BBF4FF420524FF467
:1048E0000052542350231B4F02E0592B324426D050
:1048F0003F2B27D94F2B27D9542B34BF4FF40076A9
:104900004FF430664FEA531C03F01F0E57F82C404B
:1049100024FA0EF5ED0703F10103E6D50E4B1A4418
:10492000012303FA0EFE026024EA0E0447F82C402D
:104930000E600020F0BD4FF480524023D3E748F2D0
:104940000410F0BD4026DDE74FF48076DAE748F248
:1049500007107047EC0A0020F80A002010B40C4839
:1049600000224FF0010C510902F01F0350F82140C2
:104970000CFA03F301322343592A40F82130F2D1D3
:10498000044B83F800C000205DF8044B704700BF63
:10499000EC0A0020F869002000B50D4B1B7883B0AD
:1049A000002201FB00F0CDE900202BB101A96846EF
:1049B000FFF782FF014618B1002003B05DF804FB49
:1049C000DDE900024FF092FA009803B05DF804FBB5
:1049D000F8690020184B1B7863B358B3002210B459
:1049E0001346164C0BE03F2B1BD94F2B1BD9532BD7
:1049F0001CD94FF430610133592B0A440ED0A11851
:104A00008842F0D158090E4903F01F0351F82040A5
:104A1000012202FA03F3234341F820305DF8044BEE
:104A200070474021E7E74FF48071E4E702F5007238
:104A30000133E4E7704700BFF8690020F80A00205E
:104A4000EC0A002099B110B4B2FBF3F403FB142478
:104A5000A4B244B9C0E9001484608281C3812046B5
:104A60005DF8044B704709205DF8044B70470E2039
:104A7000704700BF10B483B050E8013F1FFA83FCB9
:104A8000C489A4448489A44528BFACEB040C0489E0
:104A9000A44502BFBFF32F8F002207E0CCEA030C2E
:104AA00040E801C4002CE7D14FF001028DF803204B
:104AB0000193019C9DF803200C6032B1006810FA4C
:104AC00084F003B05DF8044B704702F0FF03184612
:104AD00003B05DF8044B70470A884B889A4201D0B6
:104AE0000020704750E8012FC2EA024240E801234B
:104AF000002BF7D10120704710B483B050E8023F7B
:104B00001FFAA3FCC488A44502BFBFF32F8F002265
:104B10000EE0C489A4448489A44528BFACEB040CEE
:104B2000C3EA0C4C40E802C4002CE7D14FF001026C
:104B30008DF803200193019C9DF803200C6032B195
:104B4000006800EB144003B05DF8044B704702F0BE
:104B5000FF03184603B05DF8044B70470A884B8882
:104B60009A4201D00020704750E8022FC2EA224248
:104B700040E80223002BF7D101207047034653E899
:104B8000000F0A4643E8002C9CF0000FF7D1704755
:104B9000034653E8002F02EB010043E8000C9CF0B1
:104BA000000FF6D1704700BF034653E8002FA2EB79
:104BB000010043E8000C9CF0000FF6D1704700BFE5
:104BC000034653E8002F8A422CBF501A104643E890
:104BD000000C9CF0000FF4D1704700BF0346012287
:104BE00053E8001F41EA020043E8000C9CF0000F6C
:104BF000F6D170470346002253E8000F00EA020195
:104C000043E8001C9CF0000FF6D17047D0B110B4FF
:104C1000D0E90112521A0468D2B2531E2160DBB2ED
:104C200052B101680A6803F1FF3C541C0C60137018
:104C30005FFA8CF3FF2BF4D10368002018715DF844
:104C4000044B70470E20704738B504460020FFF72C
:104C5000BDFCD4E900311A688A4215D9511E196089
:104C60002168A36812F8012C208A0D68E4685B1B98
:104C700000FB02440A79DBB29A4200D20B71002099
:104C8000FFF7ACFC204638BD00240020FFF7A6FC4F
:104C9000204638BD38B5054600200C46FFF796FC87
:104CA0002A681368591C1160E9682A8A641AB4FBDF
:104CB000F2F41C70BDE838400020FFF78FBC00BF45
:104CC000826842B110B5044643690168006998479B
:104CD0000023A36010BD70470EB400B582B00399E5
:104CE00021B104AB01AA019300F0B6F802B05DF85F
:104CF00004EB03B0704700BF2DE9F04F154683B0B9
:104D0000A942DDF830900D9A0F4606469A46C0F04B
:104D10009E800B464FF00108B3FBF5F39D4208F16E
:104D20000108F9D9D04538BFD04612F001030193EC
:104D300002D1B9F1000F67D1B268BAF1010F4FF09B
:104D4000010406D90AF1FF3ABAF1010F05FB04F498
:104D5000F8D8B7FBF4F39D4205D805FB04F4B7FB84
:104D6000F4F39D42F9D9DFF8ECA007E0AC42B4FBC4
:104D7000F5F31AD3B2681C46B7FBF3F31AF803B085
:104D8000BBF10A0F04FB137728D03368511CB160C4
:104D900003F802B0D6E901329A42E7D33046FFF772
:104DA0008FFFB4FBF5F3AC42E4D2019B9BB1B9F1A8
:104DB000000F10D02024C84509F1FF390BD2B36889
:104DC0003268591CB160D454D6E901329A4214D2E7
:104DD000B9F1000FEFD103B0BDE8F08F511C33687B
:104DE000B1604FF00D019954D6E901329A42CCD30B
:104DF0003046FFF765FFB268C7E73046FFF760FF50
:104E0000B9F1000FD7D1E6E793071AD42024B2688E
:104E1000C84502F1010190D23368B1609C54D6E9D3
:104E200001329A4209F1FF3903D2B9F1000FEFD1F3
:104E300083E73046FFF744FFB268B9F1000FE7D1CE
:104E40007BE7BAF1000F0CBF30242024DFE74FF0DE
:104E5000010867E7445D0600002900F05C822DE947
:104E6000F04FDFF870950D7885B0064690460C46F9
:104E70004FF00D0A0FE00A2DB36800F08E80326803
:104E8000591CB160D554D6E901329A4280F0818034
:104E90002578002D69D00134002D66D0252DEAD16A
:104EA0000027234614F8012B2D2A6CD0302A6DD010
:104EB0002B2A61D02A2A7FD0A2F1300109294FF094
:104EC00000050BD805EB850502EB450513F8012F0E
:104ED000A2F130010929A5F13005F3D92E2A1C468B
:104EE00075D0002301E014F8012F02F0FB016829BE
:104EF000F9D0252A00F08681583AD1B2202930D83D
:104F0000202A2ED8DFE812F021002D002D002D00E0
:104F10002D002D002D002D002D002D002D00FE0058
:104F200079002D002D002D002D0079002D002D0081
:104F30002D002D002D002D00BD002D002D001A018B
:104F40002D0016012D002D002100D8F80010102290
:104F5000081DC8F8000009683046CDE90057FFF782
:104F6000CBFE01342578002D95D1337B002B40F00A
:104F7000438105B0BDE8F08F234614F8012B2D2A9C
:104F800047F0040792D147F001078AE747F002078C
:104F900087E73046FFF794FE7AE73268591CB16024
:104FA00002F803A0D6E901239342FFF468AF30462C
:104FB000FFF786FEB36862E7D8F80020111DC8F835
:104FC000001015685A782E2A03F1010489D16278FD
:104FD000A2F13003092B04F101044FF0000384D83F
:104FE00003EB830302EB430314F8012FA2F130011A
:104FF0000929A3F13003F3D977E7D8F80020111D70
:10500000C8F80010D2F800B08BEAEB72A2EBEB729A
:10501000092A40F3DB81DFF8C0C301201146632970
:10502000ACFB02E200F101004FEAD202F6DC98424A
:10503000024638BF1A460292002D00F01E81BBF1D5
:10504000000FC0F22E817A0700F12B81B80740F1E2
:105050002A81002B40F02781BBF1000FC0F27D8137
:105060007A0700F18D8107F00302022A00F05D81CA
:10507000CDE9005759460A223046FFF73DFE01347C
:1050800070E7D8F800301A1DC8F800201F68B36810
:105090003268581C3021B060D154D6E901239342C4
:1050A00080F0FA80591C3268B1607821D154D6E979
:1050B00001329A4280F0EB800F2F03D93B461B0947
:1050C0000F2BFCD84FF0805506E00F2D4FEA15133B
:1050D0007FF647AFB2681D46B7FBF5F319F803B08A
:1050E000BBF10A0F05FB137777D03368511CB16011
:1050F00003F802B0D6E901329A42E6D33046FFF710
:10510000DFFDE2E7D8F800301A1DC8F800201D784E
:10511000B3680A2D00F03A813268591CB160D55449
:10512000D6E901329A42FFF41CAF3046FFF7C8FDC2
:10513000013417E7D8F800100A2209E7D8F8003040
:105140001A1DC8F8002017F00107D3F800B064D189
:10515000BBF1000F03D058464FF0F5FA0746BD42A9
:1051600015D9202201E0BD4211D0B1683368481C36
:10517000B0605A54D6E90130984205F1FF35F2D3B8
:105180003046FFF79DFDBD424FF02002EDD19BF868
:105190000050002D3FF4E5AE0A2DB0680FD0336803
:1051A000421CB2601D54D6E90130984280F0B480B0
:1051B0001BF8015F002D3FF4D4AE0A2DEFD1336808
:1051C000421CB26003F800A0D6E901309842E6D351
:1051D0003046FFF775FDB068E1E73368511CB160F8
:1051E00003F802A0D6E901329A42FFF47EAF3046BE
:1051F000FFF766FDB26878E7304605B0BDE8F04FCE
:10520000FFF75EBDB3683168581CB060CA54D6E978
:1052100001329A4289D20134A4E69BF80030002B77
:1052200000F0D680B0685F46CBF101020A2B02EB9A
:10523000070B5ED0411CB16031680B54D6E90130D8
:10524000984248D217F8013F002BEFD15D457FF619
:1052500088AE202702E05D453FF483AEB268336834
:10526000511CB1609F54D6E901329A4205F1FF35D5
:10527000F1D33046FFF724FDEDE7B80705D5002B45
:105280003FF4EAAEF9073FF5E7AE0025E4E6304625
:10529000FFF716FDB2680FE73046FFF711FDB36860
:1052A00000E7013DD2E6F9073FF5D6AE002DECD080
:1052B00020220299A942BFF4CFAEB168481CB06069
:1052C00030684254D6E90101814205F1FF356CD2C4
:1052D000002DEED1D9E730460292FFF7F1FC17F826
:1052E000013F002BB2D0029AB0680A2B02EB070BE9
:1052F000A0D1411CB160316801F800A0D6E90110CD
:10530000884297D33046CDE90232FFF7D9FCDDE978
:105310000232B0688EE770473046FFF7D1FC1BF8C9
:10532000015F002D7FF438AF1BE6002B7FF4A0AEA9
:105330008DB1302202998D427FF69AAEB168481C39
:10534000B06030684254D6E90101814205F1FF3571
:1053500035D2002DEED100258AE6B1683268481CAE
:10536000B060CBF1000B2D205054D6E901219142C1
:10537000FFF479AE30460393FFF7A2FC039B72E67D
:10538000B1683268481CB0602B20EDE73268591CC8
:10539000B16002F803A0D6E901239342FFF4BCAE4A
:1053A0003046FFF78DFCB368B6E630460393FFF74F
:1053B00087FC039B2022002D7FF47BAF65E73046FE
:1053C0000393FFF77DFC039B3022C2E701202EE60A
:1053D0009B463BE7445D0600CDCCCCCCFFF716BC2A
:1053E0002DE9F041058A0331043D4E198046B6FB94
:1053F000F5F6FFF729FCA0B3F6B24FF48073013E37
:1054000004468380C580C0F800802BD00346002569
:1054100008E06279AE4202F1010262713860C0F8C0
:1054200000801FD040461F46FFF70EFC01350346A3
:105430000028EED16779791E17D0224601339942B0
:105440001268FBD1D2F800805FB12668002501E028
:1054500034463668214640460135FFF71BFCAF4213
:10546000F6D800242046BDE8F08120682146FFF7E9
:1054700011FCF6E701210430FFF78ABB2DE9F0416A
:10548000012104460430FFF78FFB10F0FF0301D029
:10549000BDE8F0816779791E16D022460133994222
:1054A0001268FBD1D2F80080002FF1D026680025C9
:1054B00001E034463668214640460135FFF7EAFBF5
:1054C000AF42F6D8BDE8F08120682146BDE8F04142
:1054D000FFF7E0BB2DE9F8438846C788417907FB11
:1054E00001F1043902EB030C1E1D6145154638BF5E
:1054F000CD1AB7420446B6FBF7F207FB126002D89A
:10550000013A2468FCD13E1AAE4228BF2E469DB116
:105510004FF000090430AD1B324608EB090120446E
:105520004EF0BCFCAF42B14424683E464FF0000050
:1055300028BF2E46002DEDD1BDE8F8832DE9F843B4
:105540000446C788407907FB00F0043802EB030CDF
:105550001E1D6045154638BFC51AB7428846B6FBC2
:10556000F7F107FB116202D801392468FCD1BE1A99
:10557000AE4228BF2E469DB14FF00009111DAD1B54
:105580003246214408EB09004EF088FCAF42B1449A
:1055900024683E464FF0000228BF2E46002DEDD174
:1055A000BDE8F88382680023936082681361826893
:1055B00053618268D3608268536082681360704769
:1055C00070B54468064620680D4618B908E024689E
:1055D000206828B1B368294698470028F7D1206889
:1055E0002860256070BD00BF4368186808B1026874
:1055F0001A60704743681868704700BF43681868AE
:1056000018B908E00346006828B18142FAD10A6857
:105610001A6001207047704710B568B90E4CA36836
:10562000012262703BB1D3E900230020A2609847B9
:10563000A368002BF7D110BD0128FCD1064C2369CB
:10564000A070002BF7D0D3E90023012022619847F6
:105650002369002BF7D110BDFC69002010B50B4C5D
:10566000237882B013B1852002B010BD0848636072
:10567000A3602361E36000F0DDF8019000F0E6F83C
:1056800001980123237002B010BD00BFFC69002007
:105690001956010038B5154DAB78044673B110B1F9
:1056A0004368012098470020FEF790FFEB68013324
:1056B000EB600020BDE83840FEF790BF03F0FF002C
:1056C000FEF784FF64B12A6942B1944208D01346C0
:1056D00001E09C4204D01B68002BFAD122602C61AF
:1056E000EB68002BE2D100F0C7F8DFE7FC6900208F
:1056F00038B50B4C0020FEF769FFE368013BE3601F
:10570000E56825B1BDE838400020FEF767BF00F02E
:10571000C5F8A5700020BDE83840FEF75FBF00BFA8
:10572000FC6900204FF08043D3F81804C0F3004018
:10573000704700BF38B5154D6B78044673B110B192
:105740004368002098470020FEF740FF6B68013354
:105750006B600020BDE83840FEF740BF03F0FF005B
:10576000FEF734FF64B1AA6842B1944208D01346F0
:1057700001E09C4204D01B68002BFAD12260AC608F
:105780006B68002BE2D100F093F8DFE7FC690020A2
:1057900038B50B4C0020FEF719FF6368013B6360CE
:1057A000656825B1BDE838400020FEF717BF00F05E
:1057B0008FF865700020BDE83840FEF70FBF00BFCE
:1057C000FC69002010B5074C23784BB9064B002824
:1057D00008BF184600F002FE08B90123237010BD6F
:1057E000852010BD106A0020745D060000B583B0EE
:1057F000019000F023FE00F029FE019800F010FE59
:1058000000F014FE002003B05DF804FB08B500F0C2
:1058100015FEBDE8084000F019BE00BF034653E87E
:10582000000F00EA010243E8002C9CF0000FF6D1C3
:10583000704700BF044A137923B901211060918099
:105840001846704785207047146A0020084B1A6874
:10585000D20704D4C021012283F800131A60054A3C
:105860004FF080410123C1F818351370704700BF15
:1058700000E100E01C6A00204FF080430022C3F8E2
:10588000042182B0D3F8042101920198022101225F
:10589000C3F804139A6002B0704700BF4FF0804213
:1058A0000123D360D2F81834DB03FBD4704700BF68
:1058B0004FF080430022C3F8002182B0D3F80021CA
:1058C000019201990122C3F804231A6002B07047C3
:1058D0004FF0804201235360D2F80C3403F00113DF
:1058E000B3F1011FF8D0024B00225A71704700BF7C
:1058F000146A002010B54FF0804382B0D3F8002125
:1059000062B10021164AC3F80011D3F80011507992
:1059100000910121009CC3F80813A8B14FF0804307
:10592000D3F80421CAB10022C3F80421D3F804211A
:10593000019202210A4A0198C3F808131368012052
:1059400002B0BDE8104018471368517198474FF0F6
:105950008043D3F80421002AE5D102B010BD00BF76
:10596000146A002030B5224C94F86A5083B0002DA0
:105970003BD14FF0FF304FF0FF314FF0FF33C4E920
:1059800000010622294604F16400C4E90233C4E997
:105990000433C4E90633C4E90833C4E90A33C4E96B
:1059A0000C33C4E90E33C4E91033C4E91233C4E93B
:1059B0001433C4E9163323664EF098FA0D4A0E4BA1
:1059C000C02182F8061340211160C3F87C51D3F83E
:1059D0007C21019201984FF000420121284684F871
:1059E0006A10C3F8042303B030BD082003B030BDF3
:1059F000206A002000E100E000600040034B93F8C3
:105A00006A00003818BF0120704700BF206A0020DC
:105A100070B57D4B03EB000E9EF930C0BCF1000F5A
:105A200001DB082070BD91F802C01CF0020FCCF31E
:105A300040055DD11C6A013400F0DF805C6A0134EE
:105A400000F0D1804FF00C0E4FF00A0C53F82C40B0
:105A5000013459D00CF10104744547D253F8246045
:105A6000013600F0B8800CF1020474453ED253F8C0
:105A70002460013600F0AF800CF10306764535D284
:105A800053F8264001343ED00CF1040676452DD261
:105A900053F82640013436D00CF10506764525D260
:105AA00053F8264001342ED00CF1060676451DD25F
:105AB00053F82640013426D00CF10706764515D25E
:105AC00053F8264001341ED00CF1080676450DD25D
:105AD00053F82640013416D00CF1090CF44505D2D8
