:10000000000004205D0300004503000047030000DA
:10001000490300004B0300004D03000000000000F6
:100020000000000000000000000000004F0300007E
:1000300051030000000000005303000055030000BE
:10004000B9540000094D0400A9F50400570300004D
:100050005703000057030000115F00005703000022
:100060005703000057030000570300005703000028
:1000700057030000F143030057030000570300003B
:1000800057030000853700005703000057030000A6
:1000900057030000570300005703000057030000F8
:1000A00057030000570300005703000057030000E8
:1000B000570300005703000000000000000000008C
:1000C00057030000570300005703000057030000C8
:1000D000B531030057030000570300005703000029
:1000E0005703000057030000570300000000000002
:1000F000000000005703000000000000570300004C
:1001000000000000000000000000000000000000EF
:1001100000000000000000000000000000000000DF
:1001200000000000000000000000000000000000CF
:1001300000000000000000000000000000000000BF
:1001400000000000000000000000000000000000AF
:10015000000000000000000000000000000000009F
:10016000000000000000000000000000000000008F
:10017000000000000000000000000000000000007F
:10018000000000000000000000000000000000006F
:10019000000000000000000000000000000000005F
:1001A000000000000000000000000000000000004F
:1001B000000000000000000000000000000000003F
:1001C000000000000000000000000000000000002F
:1001D000000000000000000000000000000000001F
:1001E000000000000000000000000000000000000F
:1001F00000000000000000000000000000000000FF
:10020000314932480A1A02D0072291438D463049BB
:1002100030480A1A06D00722914381F30988022246
:1002200082F314882C482D492D4A00F03CF82D48C3
:100230002D492E4A00F037F82D482E492E4A00F05D
:1002400032F82E482E492F4A00F02DF82E482F491B
:100250002F4A00F028F82F482F49304A00F023F8A1
:100260002F483049304A00F01EF83048304900220B
:1002700000F024F82F483049002200F01FF82F4AE0
:1002800090471F481F49884205D00268043003B4D4
:10029000904703BCF7E700208646EC46002000218B
:1002A000274A9047FEE7884207D0521A05D00378C4
:1002B00001300B700131013AF9D17047884202D008
:1002C00002700130FAE770470000042000E00320CC
:1002D0000000042000000420A0D805000000002039
:1002E00064010020B8030000B8030000A835050031
:1002F000A0D80500000000200000002014360500F2
:1003000014360500143605001436050014360500B1
:10031000143605001436050014360500A0D8050073
:1003200004DA05006401002064010020640100205B
:10033000DB400120DC400120E0400120850300007B
:1003400051780000FEE7FEE7FEE7FEE7FEE7FEE786
:10035000FEE7FEE7FEE7FEE700F002B8FFF7FCBFAE
:100360000F484FF00701884385460E4880470E48E6
:10037000016841F470010160BFF34F8FBFF36F8FCD
:10038000FFF73EBF09480A490A4A884207D0521A75
:1003900005D0037801300B700131013AF9D1704773
:1003A00000000420F119000088ED00E0143605007B
:0803B000000000200000002005
:1003B80000487047D4400120FEE7000000B585B032
:1003C8000190019B002B0AD0074B43F001030393D4
:1003D800019B9B010293039B0298984700E000BF92
:1003E80005B05DF804FB00BF2036050000B583B0FA
:1003F8000190019B002B0AD04FF47A70FFF7DEFFC3
:10040800019B013B0193019B002BF5D100E000BF4C
:1004180003B05DF804FB08B507F0D8FB00BF08BDC2
:1004280000B589B0039002910192019B002B33D053
:100438000023079303230693029A079B1344019A08
:100448001946002007F044FB0590079A059B1344C2
:100458000793019A059BD31A0193059B002B13D18F
:100468000F4B1B7883F00103DBB2002B13D1012063
:10047800FFF7BCFF069B013B0693069B002B03D1AD
:10048800074B00221A7007E0054B01221A70019BE6
:10049800002BD1D100E000BF00BF09B05DF804FB1C
:1004A8006401002000B585B003900291054B0093CC
:1004B8004023054A0299039800F012F800BF05B0DE
:1004C8005DF804FB290400006801002082B0019057
:1004D80000BF02B0704782B0019000BF02B0704701
:1004E80000B5A1B00590049103920293049804F01A
:1004F800F7F9039B1593029B169300231793002388
:100508008DF8603000231993229B1A9300231F93C0
:100518000FA91F9B0822049804F0BCFA08231F9314
:10052800119B1293BDF84030ADF84C30BDF8423005
:10053800ADF84E3000238DF851309DF83C3003F073
:100548000303DBB2012B26D10F9BC3F395231C9326
:100558009DF83C30C3F3C203DBB28DF85030BDF8D0
:100568003C30C3F38313DBB21B931B9B9A0009A98E
:100578001F9B049804F08EFA1B9B9B001F9A134440
:100588001F9312AA09A915AB009313461B9A1C982E
:1005980000F0DEFE2FE09DF83C3003F00303DBB2F1
:1005A800022B28D1BDF83E30C3F389139BB21E93AA
:1005B8009DF83C30C3F3C203DBB28DF850301E9B6C
:1005C800082B28BF08231D9307A91F9B1D9A049871
:1005D80004F060FA1F9A1D9B13441F931E9A1D9BDB
:1005E800D31A1E9315AB12AA07A81D9900F052FF43
:1005F8001E9B002BE3D1049804F081F900BF21B0C1
:100608005DF804FB82B00190019BDB6801225A71FE
:1006180000BF02B07047000000B583B04FF0FF3351
:100628000193FFF7F8FE0421084800F0ABFD0190A4
:10063800019B002B03DA0649412003F03FFA0348E7
:10064800FFF7E0FF00BF03B05DF804FBF0350500DD
:100658003836050000B583B001900091019B1B68F6
:100668001B6800990198984700BF03B05DF804FB28
:1006780000B583B00190019B1B685B68019898479F
:1006880000BF03B05DF804FB00B583B00190019B87
:100698001B689B680198984700BF03B05DF804FB8E
:1006A80082B001900B468DF80330019BDB689DF802
:1006B80003201A7100BF02B0704782B00190019BFD
:1006C800DB681B79184602B0704782B00190019B25
:1006D800DB6801225A7100BF02B0704782B00190F6
:1006E800019BDB685B79184602B0704700B585B09E
:1006F80001900091154BFF229A60144B00221A605A
:10070800124B00225A60114B0022C3F818240F4BD9
:100718000022C3F814240D4B002283F820240C482F
:1007280004F042F80390039B002B01D0039B08E0E0
:10073800084804F0CFF9084A084BD31ADB0802939B
:100748000023184605B05DF804FB00BF1003002025
:1007580000360500B8360500F0350500A835050057
:10076800024A034BD31ADB0818467047F0350500D8
:10077800A835050000B587B001900B468DF8033009
:100788009DF80330002B1FD0FFF7EAFF04900023E9
:10079800059313E0059B9B000E4A13440393039BA8
:1007A8001B881A46019B1B689A4204D1019B059A33
:1007B8001A60002309E0059B01330593059A049B01
:1007C8009A42E7D3052300E00023184607B05DF8F6
:1007D80004FB00BF0000002000B585B001900B4667
:1007E8008DF803309DF8032001AB11461846FFF73A
:1007F800C1FF0346002B07D1019BDB00054A1344C8
:100808000393039B1B6800E00023184605B05DF8BE
:1008180004FB00BFA835050084B001900B468DF895
:100828000330019BDB00174A134402939DF8033001
:10083800013B032B1CD801A252F823F055080000F5
:100848005D080000650800006F08000002238DF8AD
:100858000F3011E004238DF80F300DE0029B1B7957
:100868008DF80F3008E0029B5B798DF80F3003E0BC
:1008780000238DF80F3000BF9DF80F30184604B0E4
:10088800704700BFA835050084B00190009100238F
:100898008DF80F30019B1B7803F00403DBB2002BAB
:1008A80024D0019B1B78C3F30103DBB2012B02D0D8
:1008B800022B0CD017E0009B1B68019A1288C2F328
:1008C8008312D2B213449A1C009B1A600BE0009B5F
:1008D8001B68019A5288C2F3891292B213449A1C77
:1008E800009B1A6000BF01238DF80F309DF80F3070
:1008F800184604B07047000000B58BB00023ADF86F
:1009080026303E4803F06AFA3D4803F067FA3D4B4B
:100918005B6804933B4B9B680693049A069B1340C1
:1009280002339B00374A13440433089304AB194637
:100938000898FFF7A9FF0346002B09D0049A069BE5
:10094800134002339B002F4A134404330893EDE706
:1009580000BF0023079311E0049B5A1C0492069AD7
:100968001340079A920001A90A44264902339B00C2
:100978000B445B681360079B01330793079B012BAC
:10098800EAD99DF80430C3F30103DBB2012B10D080
:10099800022B1CD1BDF80A30ADF82630BDF8063060
:1009A800C3F389139BB203339A08049B134404933B
:1009B80013E0BDF80A30ADF82630BDF80430C3F3B3
:1009C8008313DBB21A46049B1344049305E00E49D3
:1009D8004FF4BF7003F072F800BF094803F00AFA39
:1009E8000590059B002B02D0049B064A5360BDF876
:1009F800263018460BB05DF804FB00BF280700201E
:100A08002407002010030020C836050000B585B073
:100A18000021074803F06BF90390039B0293029BA4
:100A280083F310030193019B184605B05DF804FB9E
:100A38002C07002000B589B0039002910192009321
:100A4800039B1B0C0793FFF7E1FF0690FFF788FE57
:100A58000246079B934204D3214940F2A31003F0B6
:100A68002DF8069B1904009B5A1C0A9B1340079AF1
:100A78000A431C4902339B000B445A60009A0A9BA4
:100A8800134002339B00174A134404330593039B16
:100A980003F00703D9B2059A137861F3C5031370FD
:100AA800019B03F00F03D9B2059A138861F38913E8
:100AB8001380029BC3F31501059A136861F39F2302
:100AC8001360059A1378012161F301031370059AE5
:100AD80013786FF38203137000BF09B05DF804FB4D
:100AE800C83605001003002000B58BB003900291B2
:100AF80013468DF80730039B0233089301238DF8C2
:100B08001F30002002F038FA3E4B1A68029B1A6028
:100B18003C4B9A683B4B59683A4B1B68CB1A1344B9
:100B28000133099314E00121374803F027F9FFF74F
:100B3800E3FE05900599344803F020F9314B9A6893
:100B4800304B59682F4B1B68CB1A13440133099358
:100B5800089A099B9A42E6D89DF81F30002B48D086
:100B6800002304939DF80730002B17D09DF8103010
:100B7800012262F301038DF810309DF8103043F024
:100B880004038DF81030039B03F00F03DAB2BDF8AD
:100B9800103062F38913ADF8103016E09DF810306C
:100BA800022262F301038DF810309DF8103043F0F3
:100BB80004038DF81030039BC3F309039AB2BDF800
:100BC800123062F38F13ADF812300E4B1A680D4BCA
:100BD8009B68134002339B000A4A1344043306936C
:100BE800049A069B1A60074B1A68089B1344054A27
:100BF8001360002002F0D4F99DF81F3018460BB09E
:100C08005DF804FB100300202C07002000B58BB012
:100C180005900491039202931F4B9B68079306ABC0
:100C2800012219460298FFF75FFF0346002B24D0E4
:100C3800069B023309930023089311E0089B9B004D
:100C4800039A1A44099B591C099107990B40126889
:100C5800114902339B000B445A60089B01330893E7
:100C6800089A029B9A42E9D3069A079B0093134677
:100C7800029A04990598FFF7DDFE074B93F8203494
:100C8800002B05D000BF00F07BF80346002BFAD1FB
:100C980000BF0BB05DF804FB1003002000B583B063
:100CA800019000910023002200990198FFF7AEFF00
:100CB80000BF03B05DF804FB00B587B00390029154
:100CC8000192019B059305AA012302990398FFF756
:100CD8009DFF00BF07B05DF804FB00B587B0039027
:100CE800029101920093019B0493009B059304AA2F
:100CF800022302990398FFF789FF00BF07B05DF848
:100D080004FB00B589B00390029101920093019B06
:100D18000593009B06930A9B079305AA0323029950
:100D28000398FFF773FF00BF09B05DF804FB00B537
:100D38008BB00390029101920093019B0593009B55
:100D480006930C9B07930D9B08930E9B099305AA8A
:100D5800052302990398FFF759FF00BF0BB05DF810
:100D680004FB0000054B5A68044B1B689A420CBFF1
:100D780001230023DBB21846704700BF1003002090
:100D880000B599B0FFF7EEFF0346002B01D0002312
:100D9800B7E19B4B0022C3F81824BFF34F8F00BF65
:100DA800974B5B680493964B9B681093049A109B2F
:100DB800134002339B00924A1344043311930023D7
:100DC80017930023169300230F9304AB1946119829
:100DD800FFF75AFD0346002B19D0894BD3F8183476
:100DE800002B14D1864B1A68049B9A4205D8844B71
:100DF8001B68834A5360002383E1049A109B1340C5
:100E080002339B007E4A134404331193DDE7002329
:100E1800159311E0049B5A1C0492109A1340159ADA
:100E2800920001A90A44764902339B000B445B688F
:100E38001360159B01331593159B012BEAD99DF877
:100E4800043003F00303DBB2022B40F09C80BDF8B2
:100E58000630C3F389139BB20D93BDF80630C3F374
:100E680089139BB2502B28BF50239BB20C930C9B29
:100E7800C3F309039AB2BDF8063062F38F13ADF8D5
:100E880006300C9B08330B939DF80430C3F3C20360
:100E9800DBB20F930B995B4803F091FC1790179BFB
:100EA800002B00F0D180179803F01AFD01A9169BBA
:100EB8000822179803F0D0FD169B08331693049B5D
:100EC800DA43109B134001339B000A930C9A0A9B48
:100ED8009A4242D90A9B002B08D0049A109B1340CF
:100EE80002339B00464A1344043300E0464B089300
:100EF8000A9B002B02D00A9BDBB201E00C9BDBB201
:100F08008DF81F300A9B002B01D03F4B00E00023D7
:100F180006930A9B002B06D00C9BDAB20A9BDBB225
:100F2800D31ADBB200E000238DF817309DF81F209C
:100F3800169B0899179803F08FFD9DF81F30169A95
:100F480013441693069B002B16D09DF81720169B6A
:100F58000699179803F080FD0EE0049A109B134041
:100F680002339B00264A134404330993169B0C9AB8
:100F78000999179803F070FD0D9B03339A08049B99
:100F88001344049360E09DF8043003F00303DBB2DC
:100F9800012B59D1BDF80430C3F38313DBB2062B00
:100FA80028BF0623DAB2BDF8043062F38913ADF81E
:100FB8000430BDF80430C3F38313DBB202330E935D
:100FC8009DF80430C3F3C203DBB20F930E9B9B0062
:100FD80019460C4803F0F3FB1790179B002B33D0EE
:100FE800179803F07DFC01A9169B0822179803F0B7
:100FF80033FD169B08331693002315931BE000BF9F
:1010080010030020003605001C030020049B5A1C16
:101018000492109A134002339B003C4A1344191D52
:10102800169B0422179803F017FD169B043316939A
:10103800159B01331593BDF80430C3F38313DBB25A
:101048001A46159B9342E1D3179B002B39D02F4B9F
:10105800D3F8103414932D4BD3F81834002B1BD02D
:10106800179803F04CFC46E000238DF84F30149895
:10107800FFF734FB0346002B02D001238DF84F30D5
:101088009DF84F30002B03D017991498FFF7E2FA18
:10109800149BDB681B681493149B002BE4D11798EE
:1010A80003F02DFC002001F067FF184BD3F818342B
:1010B800002B02D1049B154A5360002001F070FFF9
:1010C80019E0124BD3F81034129306E01298FFF788
:1010D800DBFA129BDB681B681293129B002BF5D17D
:1010E8000B4A0C4BD31ADB081B0443F002030A49D2
:1010F8001846FFF7D3FDFFF735FE034683F00103DB
:10110800DBB2184619B05DF804FB00BF10030020DD
:10111800B8350500A83505004037050000B585B08D
:101128000023039323E0164BD3F8103402930123D2
:101138008DF807300FE00298FFF7BFFA03461A460A
:10114800039B934203D100238DF8073006E0029BEE
:10115800DB681B680293029B002BECD19DF80730DB
:10116800002B01D0039B07E0039B01330393039BF0
:10117800092BD8DD4FF0FF33184605B05DF804FBA6
:101188001003002000B585B001900B468DF80330A0
:10119800FFF7C4FF0390039BB3F1FF3F01D1039B0B
:1011A80022E0039BDBB219460198FFF779FA104B4E
:1011B800D3F81034002B08D10D4A019BC2F8103423
:1011C800019BDB6800221A600DE0094BD3F810344C
:1011D800DA68019BDB6812681A60054BD3F8103493
:1011E800DB68019A1A60039B184605B05DF804FB9A
:1011F8001003002000B583B00D4BD3F810340193D1
:101208000B4B012283F8202409E00198FFF75DFACF
:101218000198FFF72DFA019BDB681B680193019B7E
:10122800002BF2D100BF00BF03B05DF804FB00BF84
:101238001003002082B00190009100BF02B07047F7
:1012480010B584B003900291039BDB88002B0AD071
:10125800039BDB881A461F4B009313461E4A1F49FF
:10126800029802F0F5FE039B1B7A052B2ED0039BF8
:101278005B7A002B12D0039B9B881A46039B1B7A30
:1012880019461046FFF7C8FA03461A46144B53F896
:1012980022301A461349029802F0DAFE039B1B68B3
:1012A80019460298FFF7C6FF039B1B7A1A460E4B96
:1012B80053F82240039B9B8800211846FFF78CFABD
:1012C800034622460949029802F0C2FE00BF04B054
:1012D80010BD00BF7437050084370500BC37050012
:1012E8001C000020D437050008000020D83705006E
:1012F80000B585B00390029113468DF80730039B23
:101308001B7A052B0FD0039B5B7A002B06D00D4B65
:101318001B681A460C49029802F09AFE0B4902987B
:1013280002F096FE07E09DF80730002B03D007492E
:10133800029802F08DFE029802F068FE00BF05B028
:101348005DF804FB1C000020D4370500E4370500D5
:1013580030B58BB007900691059204930E9B1B7BCA
:101368008DF827300E9B00221A730E990498FFF708
:1013780067FF059B062B7FD801A252F823F000BF18
:10138800A5130000AF130000BF130000D313000023
:10139800F1130000191400004914000007990E9871
:1013A80002F056FE69E0069B1B681A4607990E98DC
:1013B80002F04EFE61E0069B1A68069B04331B6828
:1013C80007990E9802F044FE57E0069B1A68069BA0
:1013D80004331968069B08331B6800930B4607996A
:1013E8000E9802F035FE48E0069B1968069B043308
:1013F8001868069B08331B68069A0C32126801921B
:10140800009303460A4607990E9802F021FE34E03D
:10141800069B1868069B04331C68069B08331B68E8
:10142800069A0C32126806991031096802910192E5
:1014380000932346024607990E9802F009FE1CE025
:10144800069B1C68069B04331D68069B08331B68B3
:10145800069A0C32126806991031096806981430F9
:10146800006803900291019200932B462246079947
:101478000E9802F0EDFD00E000BF00220E990498DE
:10148800FFF736FF0E9B9DF827201A7300BF0BB09D
:1014980030BD00BF00B587B0039002910192009360
:1014A800029B082B60D8009B1B7B8DF81330009B98
:1014B80000221A7300990198FFF7C2FE00230593D2
:1014C80014E0059A029B9A4209D2039A059B134499
:1014D8001B781A462649009802F0BAFD03E0254910
:1014E800009802F0B5FD059B01330593059B072B7A
:1014F800E7D92149009802F0ABFD0023059326E0C7
:10150800059A029B9A421BD2039A059B13441B78A7
:101518008DF812309DF812307E2B0AD89DF81230C3
:10152800184646F0C3FC0346002B02D09DF8123043
:1015380000E02E231A461149009802F089FD03E0C5
:101548000F49009802F084FD059B01330593059B24
:10155800072BD5D9012200990198FFF7C9FE009BF6
:101568009DF813201A7300E000BF07B05DF804FB74
:10157800E8370500F0370500F4370500F8370500AF
:10158800FC37050000B583B00190019B1B682F2B29
:1015980004D90B4940F2CD1002F090FA019B1B6868
:1015A8001F2B02D84FF0A04306E0019B1B6803F0F5
:1015B8001F02019B1A60034B184603B05DF804FB39
:1015C800003805000003005000B585B001900846BA
:1015D80011461A4603468DF803300B468DF8023043
:1015E80013468DF8013001AB1846FFF7CBFF039087
:1015F8009DF803209DF802305B001A439DF80130E6
:101608009B001A439DF818301B0242EA03019DF81B
:101618001C301B04019A1943039B02F5E07243F83E
:10162800221000BF05B05DF804FB00B585B003903B
:101638000023019300230093002301220121039832
:10164800FFF7C2FF00BF05B05DF804FB00B585B029
:1016580003900B468DF80B309DF80B300022019259
:1016680000220092002200210398FFF7ADFF00BF7F
:1016780005B05DF804FB00B585B0019001AB1846D4
:10168800FFF780FF0390019B012202FA03F319463A
:10169800039800F069F800BF05B05DF804FB00B5D9
:1016A80085B0019001AB1846FFF76CFF0390019BD2
:1016B800012202FA03F31946039800F05FF800BF0D
:1016C80005B05DF804FB00B585B0019001AB184684
:1016D800FFF758FF0390039BD3F804350293029B4E
:1016E800DA43019B012101FA03F31A40039BC3F873
:1016F8000825019B01229A40029B1A40039BC3F8CC
:101708000C2500BF05B05DF804FB00B583B001905F
:101718000091009B002B03D10198FFF7C0FF02E066
:101728000198FFF7A8FF00BF03B05DF804FB00B500
:1017380085B0019001AB1846FFF724FF039003988A
:1017480000F00AF80246019B22FA03F303F00103B2
:10175800184605B05DF804FB82B00190019BD3F8F0
:101768000435184602B0704782B001900091019B81
:10177800009AC3F8082500BF02B0704782B00190F4
:101788000091019B009AC3F80C2500BF02B0704776
:1017980000B585B00190019B032B03D911493A206C
:1017A80002F08CF9104A019B13441B781846FFF786
:1017B800BEFF0346002B14BF012300238DF80F3012
:1017C8009DF80F30002B14BF01230023DBB283F0F8
:1017D8000103DBB203F00103DBB2184605B05DF884
:1017E80004FB00BF64380500C438050000B583B0A9
:1017F8000190019B032B03D90749412002F05EF9B0
:10180800064A019B13441B7800211846FFF77DFF09
:1018180000BF03B05DF804FB64380500C438050058
:1018280000B583B00190019B032B03D907494720DA
:1018380002F044F9064A019B13441B78012118461B
:10184800FFF763FF00BF03B05DF804FB64380500D1
:10185800C438050000B583B00023019305E0019862
:10186800FFF7DEFF019B01330193019B032BF6D9A0
:1018780000BF00BF03B05DF804FB00B583B00023D0
:10188800019305E00198FFF7B1FF019B0133019334
:10189800019B032BF6D900BF00BF03B05DF804FB22
:1018A80000B583B00190019B032B03D907495F2042
:1018B80002F004F9064A019B13441B781846FFF707
:1018C80002FF00BF03B05DF804FB00BF64380500E9
:1018D800C438050000B583B00023019309E0094A24
:1018E800019B13441B781846FFF79FFE019B0133A9
:1018F8000193019B032BF2D9FFF7ACFF00BF03B0A4
:101908005DF804FBC438050000B583B000230193DB
:101918000AE0094A019B13441B7803211846FFF784
:1019280095FE019B01330193019B032BF1D900BF65
:1019380000BF03B05DF804FBC838050084B001900F
:101948004FF0FF330293002303930DE00A4A039BF1
:1019580013441B781A46019B934202D1039B0293BE
:1019680005E0039B01330393039B032BEED9029BF2
:10197800184604B0704700BFC838050000B583B0EA
:101988000190019B03F00103002B01D0FFF7A2FF98
:10199800019B03F00203002B01D0FFF7B5FF00BF46
:1019A80003B05DF804FB0000BFF34F8F00BF074B87
:1019B800DB6803F4E0620549054B1343CB60BFF3D2
:1019C8004F8F00BF00BF00BFFCE700BF00ED00E085
:1019D8000400FA05024B034A1A6000BF704700BFB3
:1019E800400000200090D00308B500F027F9034616
:1019F800002B0ED04FF080430022C3F80C214FF08B
:101A080080430022C3F810214FF080430022C3F81E
:101A1800382500F037F90346002B76D04FF0805375
:101A28007D4AD3F80434C2F820354FF080537A4AFF
:101A3800D3F80834C2F824354FF08053764AD3F8E7
:101A48000C34C2F828354FF08053734AD3F8103459
:101A5800C2F82C354FF080536F4AD3F81434C2F8CB
:101A680030354FF080536C4AD3F81834C2F8343507
:101A78004FF08053684AD3F81C34C2F840354FF011
:101A88008053654AD3F82034C2F844354FF0805368
:101A9800614AD3F82434C2F848354FF080535E4A7F
:101AA800D3F82834C2F84C354FF080535A4AD3F84B
:101AB8002C34C2F850354FF08053574AD3F830349D
:101AC800C2F854354FF08053534AD3F83434C2F82F
:101AD80060354FF08053504AD3F83834C2F8643533
:101AE8004FF080534C4AD3F83C34C2F868354FF075
:101AF8008053494AD3F84034C2F86C354FF08053CC
:101B0800454AD3F84434C2F8703500F0DFF803468C
:101B1800002B02D0414B424A1A6000F0E9F8034614
:101B2800002B03D03F4BFB22C3F8182500F0F2F836
:101B38000346002B0AD03C4B1B6823F00F023B4B9B
:101B48001B6803F00F03384913430B6000F0F4F8E7
:101B58000346002B03D0364B4FF400721A6000F096
:101B6800FDF80346002B0DD04FF08043D3F8003426
:101B780003F00103002B05D04FF080436FF0010202
:101B8800C3F800242B4BD3F888302A4A43F4700357
:101B9800C2F88830BFF34F8F00BFBFF36F8F00BF0D
:101BA8004FF01023D3F80032002B05DB4FF0102341
:101BB800D3F80432002B2BDA1F4B0122C3F804257B
:101BC80000BF1D4BD3F80034002BFAD04FF0102380
:101BD8001222C3F8002200BF174BD3F80034002BA1
:101BE800FAD04FF010231222C3F8042200BF124B80
:101BF800D3F80034002BFAD00F4B0022C3F8042589
:101C080000BF0D4BD3F80034002BFAD0FFF7CCFE01
:101C1800FFF7E0FE00BF08BD00C000408C56004042
:101C28004881030000F00040E40E00405802001014
:101C38004096024000ED00E000E001400F4B1B68B9
:101C4800082B17D10E4B1B68002B01D1012312E082
:101C58000B4B1B68012B01D101230CE0084B1B68BF
:101C6800022B01D1012306E0054B1B68032B01D190
:101C7800012300E001231846704700BF300100101F
:101C8800340100100F4B1B68082B17D10E4B1B6833
:101C9800002B01D1012312E00B4B1B68012B01D152
:101CA80001230CE0084B1B68022B01D1012306E03D
:101CB800054B1B68032B01D1012300E001231846C3
:101CC800704700BF3001001034010010064B1B683C
:101CD800082B05D1054B1B68002B01D1012300E01F
:101CE80000231846704700BF30010010340100106F
:101CF800064B1B68082B05D1054B1B68002B01D12F
:101D0800012300E000231846704700BF300100108F
:101D180034010010064B1B68082B05D1054B1B68C6
:101D2800002B01D1012300E000231846704700BFB3
:101D38003001001034010010064B1B68082B05D138
:101D4800054B1B68002B01D1012300E00023184636
:101D5800704700BF30010010340100100F4B1B68A2
:101D6800082B17D10E4B1B68002B01D1012312E061
:101D78000B4B1B68012B01D101230CE0084B1B689E
:101D8800022B01D1012306E0054B1B68032B01D16F
:101D9800012300E001231846704700BF30010010FE
:101DA8003401001084B003468DF807309DF80730E1
:101DB8005B08DBB21A460D4B9B5C8DF80F309DF823
:101DC800073003F00103002B04D09DF80F301B09E6
:101DD800DBB204E09DF80F3003F00F03DBB28DF89F
:101DE8000E309DF80E30184604B070476807002082
:101DF80084B003460A468DF8073013468DF806303E
:101E08009DF8073003F00103002B01D00F2300E0F9
:101E1800F0238DF80F309DF8073003F00103002BF5
:101E280004D09DF806301B01DBB201E09DF80630B6
:101E38008DF80E309DF807305B08DBB21A46114B5F
:101E48009A5C9DF807305B08DBB219469DF80F30A5
:101E58001340DAB20B4B5A549DF807305B08DBB2DB
:101E68001A46084B9A5C9DF807305B08DBB21946A6
:101E78009DF80E301343DAB2024B5A5400BF04B037
:101E8800704700BF6807002000B585B003468DF88D
:101E980007300023039310E00F4B1A68039BDB0005
:101EA80013440293029B1B789DF807209A4201D1A4
:101EB800029B0DE0039B01330393084B1B781A46E2
:101EC800039B9342E8DB0649882001F0F7FD0023D5
:101ED800184605B05DF804FB3407002038070020D9
:101EE800D838050000B585B003460A468DF8073096
:101EF80013468DF806309DF807301846FFF7C4FFE3
:101F08000390039B002B0BD0039B5B68002B07D02F
:101F1800039B5B689DF806109DF8072010469847BC
:101F280000BF05B05DF804FB2DE9F04F85B003460E
:101F38000A468DF80F3013468DF80E309DF80F3095
:101F48001846FFF72FFF0346042B00F2B48001A2C6
:101F580052F823F0711F0000D71F0000F31F000084
:101F680023200000392000009DF80E30002B00F0DF
:101F78009F809DF80F3001211846FFF739FF002098
:101F880000F0FAFF9DF80F104FF001024FF0000328
:101F9800A1F12004C1F1200003FA01F702FA04F4C8
:101FA800274322FA00F0074302FA01F6444BD3E92B
:101FB800002346EA020100913B430193404BDDE9CF
:101FC8000012C3E90012002000F0EAFF70E09DF85B
:101FD8000E30002B01D0022200E000229DF80F30C5
:101FE80011461846FFF704FF65E09DF80E30002BF8
:101FF8000CD09DF80F3003211846FFF7F9FE9DF825
:102008000F3001211846FFF76DFF54E09DF80F309F
:1020180001211846FFF7ECFE4DE09DF80E30002B2D
:1020280048D19DF80F3004211846FFF7E1FE41E042
:102038009DF80E30002B06D09DF80F30032118466E
:10204800FFF7D6FE37E09DF80F3000211846FFF75E
:10205800CFFE9DF80F3000211846FFF743FF002000
:1020680000F08AFF9DF80F104FF001024FF00003B7
:10207800A1F12006C1F1200003FA01F502FA06F6E3
:10208800354322FA00F0054302FA01F46FEA040826
:102098006FEA05090A4BD3E9002308EA020A09EAAC
:1020A800030B074BC3E900AB002000F079FF02E007
:1020B80000BF00E000BF00BF05B0BDE8F08F00BF63
:1020C8006007002000B583B00648074B1B685B0813
:1020D8000022194600F0CAFE019000BF03B05DF867
:1020E80004FB00BF400700203C07002000B587B074
:1020F80001900023059328E01C4B1A68059BDB0020
:1021080013440493049B1B78184603F0E3FE03462C
:102118008DF80F30049B5B78012B0CBF0123002343
:10212800DBB21A469DF80F309A420CBF01230023F8
:102138008DF80E30049B1B789DF80E20114618462A
:10214800FFF7F2FE059B01330593094B1B781A46EE
:10215800059B9342D0DB074BD3E90023134301D0FF
:10216800FFF7B0FF00BF07B05DF804FB340700209D
:10217800380700206007002000B585B001900B46A5
:102188008DF80330019BDBB21846FFF77DFE039004
:10219800039B1B78184603F09DFE03468DF80B3011
:1021A800039B5B78012B0CBF01230023DBB21A468B
:1021B8009DF80B309A420CBF012300238DF80A309A
:1021C8009DF80A30002B06D0054BD3E900231343B2
:1021D80001D1FFF777FF00BF05B05DF804FB00BF32
:1021E8006007002000B58BB003900B4601928DF874
:1021F8000B30019B092B01D8072367E003F05CFD36
:10220800034683F00103DBB2002B09D003F002FD83
:102218000990099B0893089B002B01D0089B55E067
:102228002C4A039B13602C4A9DF80B3013702B4AE1
:10223800019B136020220021294846F07EF8294995
:102248004FF000024FF00003C1E9002331E09DF890
:102258000B30DB00039A1344079303238DF81430E3
:1022680000238DF815309DF816306FF300038DF8B4
:1022780016309DF816306FF341038DF816309DF82F
:1022880016306FF382038DF81630079B9B788DF814
:102298001530079B1B78184605AB134A194603F0FF
:1022A80017FD0990099B0693069B002B01D0069BFE
:1022B8000CE09DF80B305A1E8DF80B20002BC6D170
:1022C8000A4A00210A4800F09DFD034618460BB053
:1022D8005DF804FB34070020380700203C07002085
:1022E800680700206007002081210000F520000019
:1022F8004839050000B583B0114B1B68002B04D189
:10230800104940F2351001F0D9FB002301930CE08D
:102318000B4B1A68019BDB0013441B7801211846FC
:1023280003F050FD019B01330193074B1B781A46BC
:10233800019B9342ECD30023184603B05DF804FBDD
:1023480034070020D83805003807002086B00390ED
:102358000291019201238DF817309DF81730214A18
:10236800039B13601F4A029B53601E4A019B9360A4
:10237800039B44F20102934213D0039B44F20202EE
:10238800934221D1019B174AD360164BDB681B8807
:102398001A46144B9A61134BDB685B68114AD36188
:1023A80012E0019B0F4A13610E4B1B699B680D4A93
:1023B80053610C4B1B691B680A4A9361094B1B69E3
:1023C8005B68084AD36100BF72B600BF00BF9DF8C2
:1023D8001730DBB2002BFAD162B600BF00BF06B0DF
:1023E800704700BF8807002000B583B002900091B5
:1023F800019244F2010071466A4600F003F803B006
:1024080000BD00BF30B58BB007900691059272B63B
:1024180000BFFEF7EFFE00BFFEF7B2FC0346002B3D
:10242800FAD1079B44F20102934216D0079B44F26B
:10243800020293423ED1059B09932C4A2C4BD31A96
:10244800DB081B0443F00100099B5B681A46099BE3
:102458001B882849FEF741FC39E0059B0893234A6D
:10246800234BD31ADB081B0443F00104089B9D6827
:10247800089B9B68184602F0F1FB03461846089B28
:102488005B681946089B1B68069A029201930091A3
:1024980003462A4618492046FEF749FC134A144BBE
:1024A800D31ADB081B0443F0010314491846FEF74E
:1024B800F5FB0CE00D4A0E4BD31ADB081B0443F066
:1024C8000103069A0E491846FEF7F6FB00BF0D4BAE
:1024D8001B6803F00103002B00D000BE059A069983
:1024E8000798FFF733FF00BF0BB030BDB8350500C4
:1024F800A83505004C3905006839050090390500F4
:10250800A4390500F0ED00E082B00190019B03F0D2
:102518000303002B0CBF01230023DBB2184602B0D3
:102528007047000082B003468DF807309DF80730E9
:102538009AB2064B1B889A4204D29DF807300133A1
:10254800DBB200E00023184602B07047B407002051
:1025580000B583B00B4B1B788DF807300A4B1B78FE
:10256800DBB21846FFF7DEFF03461A469DF8073030
:1025780093420CBF01230023DBB2184603B05DF879
:1025880004FB00BFB0070020B107002082B0084B51
:102598001B788DF80730074B1B78DBB29DF80720B6
:1025A8009A420CBF01230023DBB2184602B07047E1
:1025B800B0070020B107002000B585B0034600929F
:1025C800ADF806300B46ADF80430BDF804300133E1
:1025D8009BB2DB00ADF80E300098FFF795FF03467D
:1025E80083F00103DBB2002B01D0072317E00E4A6A
:1025F800009B1360BDF80E30009A13440B4A136019
:102608000B4B00221A700B4B00221A700A4ABDF8B5
:1026180006301380094ABDF8043013800023184699
:1026280005B05DF804FB00BFA8070020AC07002038
:10263800B1070020B0070020B2070020B40700202F
:1026480000B587B003900B460192ADF80A30334BC2
:102658001B88BDF80A209A4259D84FF6FF73ADF887
:102668001230002000F088FCFFF772FF0346002BB1
:102678000ED12B4B1B78DBB2ADF81230284B1B78F0
:10268800DBB21846FFF74EFF03461A46244B1A7072
:10269800002000F085FCBDF812304FF6FF7293421F
:1026A80032D0204B1A68BDF81230DB001344019A6F
:1026B8001A60039B002B1CD0BDF80A30002B18D0E1
:1026C800194B1B68BDF812201449098801FB02F256
:1026D8001344BDF80A200399184645F005FE114B2E
:1026E8001A68BDF81230DB001344BDF80A209A803E
:1026F80007E00C4B1A68BDF81230DB0013440022C7
:102708009A800023059304E00423059301E009233C
:102718000593059B184607B05DF804FBB207002037
:10272800B1070020A8070020AC07002000231846A6
:102738007047000000B585B02FE0204B1B78DBB256
:10274800ADF80E301E4B1B68BDF80E201D490988D8
:1027580001FB02F2134402931B4B1A68BDF80E30BA
:10276800DB0013449B88ADF80630174B1A68BDF898
:102778000E30DB0013441B680093BDF80620009B55
:102788001146029898470D4B1B78DBB21846FFF7A5
:10279800C9FE03461A46094B1A70FFF7C7FF0346DE
:1027A80083F00103DBB2002B04D0FFF7EFFE0346F2
:1027B800002BC2D000BF05B05DF804FBB0070020B5
:1027C800AC070020B2070020A80700202DE9F0433D
:1027D80083B0144800F0B8FF034600221C46154693
:1027E800114BD3E9002314EB020845EB0309CDE9AB
:1027F80000890E4BD3E90023DDE90001904271EB1B
:10280800030307D2DDE9002312F1807643F10007C4
:10281800CDE90067DDE900231046194603B0BDE89D
:10282800F08300BF44000020C0070020C807002034
:1028380088B001900091019B0793009B0693079B2A
:10284800D3E90223CDE90423069BD3E90223CDE98A
:102858000223DDE90423DDE90201904271EB030361
:102868002CBF01230023DBB2184608B070470000D4
:1028780000B585B001900B46ADF80230BDF80230C6
:10288800082B03D007498F2001F018F9019B039307
:10289800039B1B68039A52681046984700BF05B00F
:1028A8005DF804FBC8390500F0B589B00190019BBB
:1028B8005B69002B03D13349A22001F0FFF8002304
:1028C8008DF81F30304B1B78002B56D0019B002B06
:1028D80053D0019B1B7FDBB2002B4ED0FFF776FF56
:1028E800019BD3E90223904271EB03033DD3019B83
:1028F8001B69002B02D1019B00221A77019B5B699F
:102908000393019B9B69049303AB204A0821184653
:10291800FFF796FE0690069B0593059B002B04D0B7
:10292800184AB5210598FFF75FFD019B1B69002B2D
:1029380023D0019B1B7FDBB2002B1ED0019BD3E968
:1029480002230199096900200C460546161943EB34
:102958000507019BC3E90267019B19460C4802F071
:10296800D7F801238DF81F3007E0019B1946084866
:1029780002F0CEF801238DF81F309DF81F3018465D
:1029880009B0F0BDC8390500BC070020792800004F
:102998003C3A0500F0B589B0019000910D230793EA
:1029A800009B00221A70019BD3E90245FFF70EFF36
:1029B80002460B46A61A65EB0307CDE90467DDE975
:1029C8000423012A73F100031BDB049BB3F5350FC5
:1029D80005D300F0ABFA0246154B134403E0019B04
:1029E800D3E90223134603934FF49603039A002175
:1029F800104800F0ABFD0790079B002B05D1012381
:102A080013E000210B4800F079FE079B0D2B07D13E
:102A18000198FFF749FF03461A46009B1A7003E026
:102A28000549F52001F04AF80023184609B0F0BD21
:102A3800FFFFB40044000020C839050000B583B08A
:102A4800044802F09FF80190019B184603B05DF816
:102A580004FB00BF3C3A050000B583B0044802F00F
:102A6800B3F80190019B184603B05DF804FB00BF62
:102A78003C3A050000B583B0FFF7E0FF0190019BE9
:102A8800002B02D0019B00221A77019B002BF3D167
:102A980000BF00BF03B05DF804FB0000054BD3E99D
:102AA800002312F1807043F10001024BC3E90001D9
:102AB80000BF7047C007002000B583B00190134BDA
:102AC8001B68002B1DD0019800F03EFE0F4B1B68C1
:102AD800D3E90223134623F07F43194600F01AFA7C
:102AE8000346B3F5960F04D309494FF4957000F0E7
:102AF800E5FF064B1B681846FFF7D6FE034B00227E
:102B08001A6000BF03B05DF804FB00BFB8070020DF
:102B1800C839050000B583B00190FFF757FE02469B
:102B28000B460349C1E9002300BF03B05DF804FB6D
:102B3800C807002000B585B00190FFF78DFF03900E
:102B480000238DF80B30039B002B48D02B4B1B68C0
:102B5800002B03D101238DF80B3019E0039BD3E937
:102B68000201264B1B68D3E90223904271EB030351
:102B78000ED201238DF80B30204B1B681B7FDBB274
:102B8800002B05D01D4B1B6819461D4801F0C0FFDE
:102B98009DF80B30002B2AD0FFF750FF03900DF162
:102BA8000A0319460398FFF7F5FE0346002B12D0D7
:102BB800124B1B68002B02D1019800F0D3FB0F4A7F
:102BC800039B13609DF80A3083F00103DBB2002BEE
:102BD800B3D000BF0EE0094B00221A60ADE7074BE7
:102BE8001B68002B05D1019800F0D2FB01E000BF63
:102BF80000E000BF00BF05B05DF804FBB807002087
:102C08003C3A050000B587B001902C4A03AB194641
:102C1800104601F03FF8059048E0059B1B78022B11
:102C28002ED0022B32DC002B02D0012B14D02DE049
:102C3800059B5B681B7FDBB283F00103DBB2002BD3
:102C480026D0059B5B6801221A77059B5B681946AD
:102C58001B4801F05DFF1BE0059B5A68194B1B6878
:102C68009A4203D1174B00221A6012E0059B5B6859
:102C78001946134801F0BCFF03468DF8133008E0ED
:102C8800FFF7F8FE104B01221A7002E000BF00E0C7
:102C980000BF0A4A03AB1946104601F014F8074A68
:102CA80003AB1946104600F0F5FF0590059B002B75
:102CB800B3D100BF00BF07B05DF804FB28080020AF
:102CC8003C3A0500B8070020BC07002000B583B0D7
:102CD8000190019800F005FD0346002B01D0FFF795
:102CE800DDFE0021019800F01AFD0346002B02D0FA
:102CF8000198FFF7E1FE0121019800F010FD03465D
:102D0800002B02D00198FFF705FF0198FFF77AFF23
:102D18000198FFF70FFF00BF03B05DF804FB000048
:102D280008B5024800F01DFD00BF08BD44000020A2
:102D380000B585B0034600918DF80730114A02AB03
:102D48001946104600F079FF0390039B002B13D01F
:102D5800039B9DF807201A70039B009A5A60094A42
:102D680002AB1946104600F081FF0346002B01D044
:102D7800FFF7D6FF002300E00423184605B05DF8EE
:102D880004FB00BF2808002000B583B0164B1B6861
:102D98000093164808235822154900F01BFF01909C
:102DA800019B002B01D0019B19E06B46114A194683
:102DB800114800F059FA0190019B002B01D0019BAA
:102DC8000DE001210C4800F07BFC01230B4A012196
:102DD800094800F0F3FA0A4B01221A70019B1846C1
:102DE80003B05DF804FB00BF383A0500280800204E
:102DF800D0070020D52C000044000020FFFF7F00F2
:102E0800BC07002000B587B003900B4601928DF8EF
:102E18000B30039B002B04D1134940F22E2000F005
:102E28004DFE019B002B04D10F4940F22F2000F0EA
:102E380045FE019B002B01D1072310E0039B1B6873
:102E48000593059B019A5A619DF80B30012B0CBF25
:102E580001230023DBB21A46059B1A61002318469A
:102E680007B05DF804FB00BFC8390500F0B587B0AE
:102E7800039002910192039B002B04D1164940F262
:102E88003E2000F01BFE039B0593059B1B7FDBB2D6
:102E9800002B01D000231CE0059B019A9A61FFF7E3
:102EA80095FC02460B46029900200C460546161969
:102EB80043EB0507059BC3E90267059B1B69002BCC
:102EC80002D0059B029A1A6105990020FFF730FF8E
:102ED8000346184607B0F0BDC839050000B585B0EF
:102EE8000190019B002B04D109494FF4157000F0A3
:102EF800E5FD019B0393039B00221A7703990120A8
:102F0800FFF716FF0346184605B05DF804FB00BF3F
:102F1800C839050082B001900091019A009BD31A2C
:102F280023F07F43184602B07047000008B50348F5
:102F380000F00AFC0346184608BD00BF4400002004
:102F480072B600BF034B1B680133024A136000BF0F
:102F5800704700BF3C080020064B1B68013B054A30
:102F68001360044B1B68002B01D162B600BF00BF81
:102F7800704700BF3C08002000B583B0019000F006
:102F880025F80346012B03D00449432000F096FDA1
:102F9800FFF7D6FF00BF03B05DF804FB483A050011
:102FA80000B583B003468DF8073000F00FF80346EC
:102FB800012B03D00449512000F080FDFFF7CCFF1E
:102FC80000BF03B05DF804FB483A050084B0EFF396
:102FD80005830193019BC3F308030393039B002B11
:102FE8000DD1EFF314830093009B0293029B03F02F
:102FF8000103002B0CBF01230023DBB200E00123F7
:10300800184604B07047000082B003468DF80730B8
:103018009DF8073003F01F0205499DF907305B0949
:10302800012000FA02F241F8232000BF02B07047E5
:1030380000E100E082B003468DF807309DF80730C4
:1030480003F01F0206499DF907305B09012000FAC9
:1030580002F2403341F8232000BF02B0704700BF9E
:1030680000E100E082B0034600918DF807309DF939
:103078000730002B0CDA009BDAB20C499DF80730B8
:1030880003F00F03043B5201D2B20B441A7609E055
:10309800009BDAB206499DF907305201D2B20B44BF
:1030A80083F8002300BF02B0704700BF00ED00E0C6
:1030B80000E100E000B583B003460A468DF807300A
:1030C80013468DF806309DF80630072B03D90849BA
:1030D8006B2000F0F3FC9DF806209DF9073011469F
:1030E8001846FFF7BFFF00BF03B05DF804FB00BF41
:1030F800BC3A050000B583B003468DF807309DF94A
:1031080007301846FFF780FF00BF03B05DF804FBE7
:1031180000B585B00190019B002B0AD0074B43F006
:1031280001030393019B9B010293039B0298984719
:1031380000E000BF05B05DF804FB00BF403C05009F
:1031480084B0039002910192039B029A02F5A8723F
:10315800019943F8221000BF04B0704782B0019073
:103168000091019B009A02F5A87253F82230184684
:1031780002B0704782B001900091019B009AC3F899
:10318800042300BF02B0704782B001900091019BF8
:10319800009AC3F8082300BF02B0704782B00190BC
:1031A8000B46ADF80230BDF80230019A13441B6893
:1031B800184602B0704784B001900B46ADF8023053
:1031C800BDF80230019A134400221A60BDF802309B
:1031D800019A13441B680393039B00BF04B0704714
:1031E80082B00190019BD3F80435184602B07047AD
:1031F80000B583B001900091009BB3F5805F04D3C4
:1032080006494FF4BE7000F059FC019B009AC3F8C0
:10321800082500BF03B05DF804FB00BF203B050094
:1032280082B001900B468DF803309DF80320019B76
:1032380013441A460123136000BF02B0704782B0DE
:1032480001900091019B009AC3F8442300BF02B08B
:10325800704782B001900091019B009AC3F84823FF
:1032680000BF02B07047000000B587B0039002911C
:103278000192039B002B03D13349552000F01EFC1B
:10328800029B002B03D13049562000F017FC019B0C
:10329800002B03D12C49572000F010FC039B5B79CD
:1032A80019462A4A019B42F82130039B5B79284A38
:1032B800DB0013441B79002B0ED008230593254A05
:1032C800254BD31ADB081B0443F002032349184695
:1032D800FDF7E4FC059B32E0039B1A68029B1B8800
:1032E80019461046FFF784FF039B93F90420029BBD
:1032F8009B7819461046FFF7DDFE039B93F90430CF
:103308001846FFF7F7FE039B5B79114ADB0013446D
:1033180001221A71039B5B7919460D4A039B42F8F7
:103328003130002305930B4A0B4BD31ADB081B04DF
:1033380043F003030A491846FDF7B0FC059B1846FD
:1033480007B05DF804FB00BF803B05004008002083
:1033580044080020C8350500A8350500EC3B0500E9
:10336800103C050000B583B00190019B002B03D1F0
:103378000649872000F0A2FB019B1B680021184624
:10338800FFF74EFF00BF03B05DF804FB803B05006C
:1033980000B583B00190019B002B03D106498D2015
:1033A80000F08CFB019B1B6804211846FFF738FFCF
:1033B80000BF03B05DF804FB803B050000B587B093
:1033C8000390029101928DF80330039B002B03D1E7
:1033D8002149962000F072FB4FF48032029B02FADA
:1033E80003F30593029B50339BB29B00ADF8123058
:1033F800019B23F07F430193039B1B6805991846A3
:10340800FFF7C2FE039B1B6805991846FFF721FFCB
:10341800039B1B68BDF8122011461846FFF7CBFE28
:10342800039B1B68019A02991846FFF789FE039BC4
:103438001B6805991846FFF702FF9DF80330002B1B
:1034480005D0039B1B6805991846FFF793FE00BF3C
:1034580007B05DF804FB00BF803B050000B585B0F0
:103468000390029113468DF80730039B002B03D17C
:103478000B49A92000F022FB039B1B680299184600
:10348800FFF7DDFE9DF80730002B05D0039B1B6876
:1034980002991846FFF76EFE00BF05B05DF804FB01
:1034A800803B050000B583B001900091019B002B83
:1034B80003D10A49B32000F001FB019B1B68009966
:1034C8001846FFF7C6FE019B1B6800991846FFF7D0
:1034D8005BFE00BF03B05DF804FB00BF803B050046
:1034E80000B583B001900B46ADF80230019B002B6C
:1034F80003D10F49BA2000F0E1FA019B1B68BDF81F
:10350800022011461846FFF749FE0346002B09D052
:10351800019B1B68BDF8022011461846FFF74BFEB9
:10352800012300E00023184603B05DF804FB00BF48
:10353800803B050082B001900091019A009BD31A4C
:1035480023F07F43184602B07047000000B58BB0E7
:103558000390029101920093039B002B03D15749DA
:10356800CD2000F0ABFA4FF48032029B02FA03F34D
:103578000993029B50339BB29B00ADF82230019B0C
:1035880023F07F43019309990398FFF78BFF039B6F
:103598001B681846FFF724FE0790039B1B680299D7
:1035A8001846FFF7DBFD0690039B1B68079A0299F4
:1035B8001846FFF7C5FD039B1B68BDF8222011467E
:1035C8001846FFF7F8FD07990698FFF7B3FF03467B
:1035D800012B0AD11020FFF79BFD039B1B68BDF848
:1035E800222011461846FFF7E6FD039B1B68184684
:1035F800FFF7F6FD079007990198FFF79BFF0590E5
:10360800039B1B6809991846FFF719FE059B012BB8
:1036180015D1039B1868019B01331A460299FFF7DD
:103628008FFD1020FFF774FD039B1B681846FFF7FA
:10363800D7FD0246079B934235D00D2339E0039B03
:103648001B68019A02991846FFF77AFD039B1B68CD
:103658001846FFF7C5FD0790019B013B07991846DF
:10366800FFF768FF0590009BC3F1FF1303F57F4345
:10367800059A9A4201D90D231BE0059B002B12D114
:10368800039B1868019B01331A460299FFF758FDFE
:10369800039B1B681846FFF7A3FD0246079B93424E
:1036A80001D00D2305E0012209990398FFF7D6FE02
:1036B800002318460BB05DF804FB00BF803B0500F3
:1036C80000B583B001900B468DF803309DF80330A8
:1036D8001A4602210198FFF7C1FE00BF03B05DF84A
:1036E80004FB00B583B001904FF482710198FFF795
:1036F800F7FE0346184603B05DF804FB00B583B037
:10370800019000914FF48032009B02FA03F31946AE
:103718000198FFF7C7FE00BF03B05DF804FB00B5D2
:1037280085B001900091009B50339BB29B00ADF88F
:103738000E30BDF80E3019460198FFF7D1FE03464A
:10374800184605B05DF804FB00B583B00190019BF5
:103758001B681846FFF744FD0346184603B05DF89A
:1037680004FB00B583B00190019B93F9043018461F
:10377800FFF760FC00BF03B05DF804FB08B5044B1D
:103788001B68044A12681046984700BF08BD00BF6E
:10379800400800204408002086B00390029101925E
:1037A800039B5B090593059B5B01039AD31A04935A
:1037B800029B059A1A60019B049A1A6000BF06B022
:1037C8007047000000B585B0019002AA03AB194606
:1037D8000198FFF7E1FF039B074A52F82310029B69
:1037E80001229A40039B0A43034941F8232000BF62
:1037F80005B05DF804FB00BF4C67002084B0019061
:103808000091002303931FE0019B002B10D0124A64
:10381800039B52F82330019A9A4209D80F4A039B16
:1038280052F823200E49039B51F823309A4206D1BF
:103838000A4A039B52F82330009A9A4201D2039B0A
:1038480006E0039B01330393039B062BDCD900237B
:10385800184604B0704700BF543C05008C3C050076
:10386800703C050000B585B0019001990020FFF774
:10387800C5FF0390034A039B52F82330184605B04E
:103888005DF804FB543C050000B585B0019002AA20
:1038980003AB19460198FFF77FFF039B084A52F8CC
:1038A8002320029B22FA03F303F00103002B14BF29
:1038B80001230023DBB2184605B05DF804FB00BF06
:1038C8004C67002000B585B0019002AA03AB1946E9
:1038D8000198FFF761FF039B084A52F82310029BE7
:1038E800012202FA03F3DA43039B0A40034941F831
:1038F800232000BF05B05DF804FB00BF4C67002023
:1039080000B583B0002301930023019305E00198DB
:10391800FFF758FF019B01330193019B582BF6D900
:10392800034B01221A700023184603B05DF804FB0C
:103938005867002000B589B0019000912E4B1B7884
:1039480083F00103DBB2002B02D048F208134EE0EB
:10395800019B002B02D148F20E1348E0009B002B7C
:1039680002D148F20E1342E0009B1B680493049BAB
:10397800002B03D0049BB3F5306F02D948F207132C
:1039880035E059210498FFF739FF03901B4A039B40
:1039980052F8233006931A4A039B52F823300793B0
:1039A80048F2041305931EE00698FFF75BFF0290A8
:1039B8000698FFF769FF0346002B0DD000230593F7
:1039C8000698FFF77FFF079B0E4A1A44019B1A606F
:1039D800009B029A1A6009E0079A029B1344079316
:1039E800069B01330693069B582BDDD9059B184689
:1039F80009B05DF804FB00BF58670020703C050063
:103A0800A83C05004C08002000B587B00190009143
:103A180000230493009B019A02FB03F3039303AA78
:103A280004AB11461846FFF785FF0590059B002B50
:103A380006D1049B039A0021184644F07EFC01E05D
:103A480000230493049B184607B05DF804FB0000AC
:103A580000B585B00190174B1B7883F00103DBB2EA
:103A6800002B20D1019B002B1FD0002303930023A0
:103A7800029314E0039B104A1344019A9A4204D11A
:103A88000298FFF79FFE00BF10E00298FFF7EAFEDA
:103A98000246039B13440393029B01330293029B48
:103AA800582BE7D902E000BF00E000BF05B05DF881
:103AB80004FB00BF586700204C08002000B585B003
:103AC80003460091ADF80630BDF80630ADF8083071
:103AD800009B039302AB1A46002144F20200FEF752
:103AE80091FC00BF05B05DF804FB86B00190009121
:103AF800019B53E8011F8AB2D889024498898242FF
:103B080028BF121A1889824202BFBFF32F8F0023E1
:103B180007E0C2EA010243E801200028E9D14FF09A
:103B280001038DF80F30059002910492029A009BD0
:103B38001A609DF80F30DBB2184606B0704784B0A3
:103B48000190019951E8013FC3EA034341E801327A
:103B5800002AF7D10392029300BF04B0704786B0E1
:103B680001900091019B53E8021F1FFAA1F2D88827
:103B7800824202BFBFF32F8F00230DE0D889024491
:103B88009889824228BF121AC1EA024243E80220F9
:103B98000028E8D14FF001038DF80F30059002910D
:103BA8000492029A009B1A609DF80F30DBB2184607
:103BB80006B0704784B00190019951E8023FC3EA0A
:103BC800234341E80232002AF7D10392029300BF4F
:103BD80004B0704784B00390029111461A460B4610
:103BE800ADF806301346ADF80430029B002B01D126
:103BF8000E231FE0BDF80630BDF80420B3FBF2F138
:103C080001FB02F29B1A9BB2002B01D0092311E0A1
:103C1800039B029A1A60039B00225A60039B0022AE
:103C28009A60039BBDF806209A81039BBDF8042087
:103C3800DA810023184604B0704700B585B00190BA
:103C48000091009B19460198FFF74FFF0346002B90
:103C580007D0019B1B68009A128813440393039BA7
:103C680000E00023184605B05DF804FB00B583B0FA
:103C780001900091009B1A88009B5B889A4204D1AE
:103C88000198FFF75CFF012300E00023184603B00A
:103C98005DF804FB00B585B001900091009B1946C2
:103CA8000198FFF75CFF0346002B07D0019B1B68B8
:103CB800009A528813440393039B00E0002318469C
:103CC80005B05DF804FB00B583B001900091009B3E
:103CD8001A88009B5B889A4204D10198FFF76AFF13
:103CE800012300E00023184603B05DF804FB10B47C
:103CF80087B001900091019B009A53E8004F10464D
:103D080043E8000191F0000FF7D105940490039166
:103D1800059B184607B05DF8044B704710B487B090
:103D280001900091019B009A53E8004F44EA020079
:103D380043E8000191F0000FF6D105940490039137
:103D4800049B184607B05DF8044B704710B487B061
:103D580001900091019B009A53E8004F04EA020089
:103D680043E8000191F0000FF6D105940490039107
:103D7800059B184607B05DF8044B704710B487B030
:103D880001900091019B009A53E8004F04EB020058
:103D980043E8000191F0000FF6D1059404900391D7
:103DA800049B184607B05DF8044B704710B487B001
:103DB80001900091019B009A53E8004FA4EB020088
:103DC80043E8000191F0000FF6D1059404900391A7
:103DD800049B184607B05DF8044B704700B583B0E4
:103DE800019001210198FFF799FF0346184603B097
:103DF8005DF804FB00B583B0019000210198FFF73E
:103E0800A5FF0346184603B05DF804FB00B583B070
:103E180001900B468DF80330019B002B03D1084914
:103E2800E820FFF74BFE019BDA689DF80330019903
:103E3800098A01FB03F31344184603B05DF804FB39
:103E4800C43C050000B583B001900091019B002B94
:103E580003D10849F520FFF731FE009B019AD2688B
:103E68009B1A019A128AB3FBF2F3DBB2184603B02D
:103E78005DF804FBC43C050000B585B00190019BCA
:103E8800002B01D10E234CE0019B1B68002B03D1B2
:103E98002649FF20FFF712FE019B5B68002B04D127
:103EA80022494FF48070FFF709FE019B9B68002BA5
:103EB80004D11E4940F20110FFF700FE019BDB68A8
:103EC800002B04D119494FF48170FFF7F7FD019BCE
:103ED8001B8A002B04D1154940F20310FFF7EEFDB1
:103EE800019B9A68019B5B68D31A8DF80F30019B80
:103EF8001B68019A52681A6007E0019B1A681368E8
:103F0800591C11609DF80F201A709DF80F305A1E29
:103F18008DF80F20002BF0D1019B1B6800221A712D
:103F28000023184605B05DF804FB00BFC43C05003B
:103F380000B585B00190019B002B04D11C494FF4BA
:103F48009270FFF7BBFD002303930020FFF714F8DE
:103F5800019B1B681A68019B5B689A421FD9019BE9
:103F68001B681A68013A1A601B681B781946019881
:103F7800FFF74CFF0390019B9A68019B1B681B6825
:103F8800D31A8DF80B30019B1B681B799DF80B2009
:103F98009A4204D9019B1B689DF80B201A710020D6
:103FA800FEF7FEFF039B184605B05DF804FB00BF53
:103FB800C43C050010B584B001900091019B002B12
:103FC80004D1114940F24710FFF778FD009B002B00
:103FD80004D10D494FF4A470FFF770FD009B0393C3
:103FE8000020FEF7C9FF019B1B681C68621C1A6051
:103FF80003990198FFF726FF034623700020FEF778
:10400800CFFF00BF04B010BDC43C050000B583B0AD
:104018000190019B002B03D10C493120FFF74EFD85
:10402800019B9B68002B0CD0019B5B69019A10696E
:10403800019A1168019A92689847019B00229A6038
:1040480000E000BF03B05DF804FB00BF343D05008D
:104058000EB400B584B00190019B002B03D1184920
:104068004220FFF72BFD019B5B69002B03D114490C
:104078004320FFF723FD019B1B68002B03D1104948
:104088004420FFF71BFD019B5B68002B03D10C4903
:104098004520FFF713FD059B002B0AD0002303934F
:1040A80006AB039303AB1A460599019800F0B8F9DB
:1040B80000E000BF04B05DF804EB03B0704700BF38
:1040C800343D050000B583B001900B468DF80330F0
:1040D8009DF803300A2B03D10D210198FFF7F2FF59
:1040E800019B1A68019B9B68581C019988601344BE
:1040F8009DF803201A70019B9A68019B5B689A429D
:1041080002D30198FFF782FF00BF03B05DF804FBFC
:1041180000B587B0039002910192009300230593A4
:10412800009B03F00103002B24D00BE0029B01331A
:104138000293059B013305939DF8133019460398A4
:10414800FFF7C0FF029B1B788DF813309DF81330E2
:10415800002BEBD106E0019B013B01932021039842
:10416800FFF7B0FF019A059B9A422ED9019B002BBD
:10417800F1D12AE0029B002B0BD0029844F059F9A8
:10418800059006E0019B013B019320210398FFF76E
:1041980099FF019A059B9A420FD9019B002BF1D1F7
:1041A8000BE0029B01330293059B013305939DF8B5
:1041B800133019460398FFF785FF029B1B788DF88B
:1041C80013309DF81330002BEBD100BF07B05DF81A
:1041D80004FB000000B589B003900291019200939E
:1041E800029B07930123069307E0079A019BB2FB02
:1041F800F3F30793069B01330693079A019B9A42B0
:10420800F3D2009A069B9A4201D9009B06930B9B16
:1042180003F00103002B22D10A9B002B1FD00B9B1C
:1042280003F00203002B06D0009B002B03D13023A0
:104238008DF8173002E020238DF8173008E00A9B2C
:10424800013B0A939DF8173019460398FFF73AFF88
:104258000A9B002B03D0069A0A9B9A42EFD30123AC
:104268000793009B012B03D9009B013B009309E0B6
:10427800029A079BB2FBF3F30493049A019B9A42B8
:1042880000D205E0079B019A02FB03F30793E8E7D6
:10429800029A079BB2FBF3F30493049B079A02FB71
:1042A80003F3029AD31A0293154A049B13441B780A
:1042B80019460398FFF706FF079A019BB2FBF3F331
:1042C8000793079B002BE3D10B9B03F00103002B03
:1042D80011D00A9B002B0ED006E00A9B013B0A93E3
:1042E80020210398FFF7EEFE0A9B002B03D0069AC5
:1042F8000A9B9A42F1D300BF09B05DF804FB00BFE6
:10430800043E050000B589B005900491039202931C
:10431800049B002BB8BF5B4206930123079307E079
:10432800039B069A92FBF3F30693079B01330793CB
:10433800039B069A9A42F3DA029A079B9A4201D99A
:10434800029B07930A9B002B0AD0049B002B04DBDB
:104358000B9B03F00403002B02D00A9B013B0A933A
:104368000B9B03F00203002B02D0029B002B16D0FC
:104378000B9B03F00103002B11D10A9B002B0ED0DD
:1043880006E00A9B013B0A9320210598FFF79AFE55
:104398000A9B002B03D0079A0A9B9A42F1D3049BED
:1043A800002B07DA049B5B4204932D210598FFF745
:1043B80089FE08E00B9B03F00403002B03D02B219C
:1043C8000598FFF77FFE0B9B03F00203002B19D023
:1043D8000B9B03F00103002B14D1029B002B11D17E
:1043E8000A9B002B0ED006E00A9B013B0A93302162
:1043F8000598FFF767FE0A9B002B03D0079A0A9BD4
:104408009A42F1D304990B9B01930A9B0093029B58
:10441800039A0598FFF7DEFE00BF09B05DF804FBBC
:1044280000B58FB0059004910392059B002B04D131
:10443800AD4940F25220FFF741FB059B5B69002B19
:1044480004D1A9494FF41570FFF738FB059B1B6889
:10445800002B04D1A44940F25520FFF72FFB059B00
:104468005B68002B04D1A04940F25620FFF726FBD9
:10447800049B002B00F09381049B1B788DF8373048
:10448800049B013304939DF83730002B00F07E81A4
:104498009DF83730252B40F06D8100230A930123C6
:1044A8000C93049B1B788DF837309DF83730302BF0
:1044B8000DD0302B1BDC2B2B11D02D2B17D10A9BA9
:1044C80043F001030A93049B0133049312E00A9B0F
:1044D80043F002030A93049B013304930AE00A9B06
:1044E80043F004030A93049B0133049302E000237E
:1044F8000C9300BF0C9B002BD3D1002309939DF88C
:1045080037302A2B0CD1039B1B68191D039A1160A5
:104518001B68099A13440993049B013304931AE016
:10452800049B1B788DF837309DF837302F2B12D924
:104538009DF83730392B0ED8049B01330493099A20
:1045480013469B0013445B001A469DF8373013440A
:10455800303B0993D3E700230B93049B1B788DF81A
:1045680037309DF837302E2B1DD1049B013304932F
:10457800049B1B788DF837309DF837302F2B12D9D4
:104588009DF83730392B0ED8049B013304930B9ACE
:1045980013469B0013445B001A469DF837301344BA
:1045A800303B0B93E4E7049B1B788DF837309DF87C
:1045B80037306C2B03D09DF83730682B07D1049B1C
:1045C80001330493049B1B788DF83730EFE79DF88F
:1045D8003730252B00F0C480252BC0F2C680782BFD
:1045E80000F3C380582BC0F2C080583B202B00F248
:1045F800BC8001A252F823F0F54600007347000082
:1046080073470000734700007347000073470000BA
:1046180073470000734700007347000073470000AA
:104628007347000085460000A74600007347000056
:10463800734700007347000073470000A746000057
:10464800734700007347000073470000734700007A
:1046580073470000734700003547000073470000A8
:10466800734700001947000073470000CB4600005D
:104678007347000073470000F5460000039B1B6862
:10468800191D039A11601B680C930C9B8DF81F3041
:104698009DF81F3019460598FFF714FD66E0039B47
:1046A8001B68191D039A11601B680C930A9B0193E0
:1046B800099B00930B9B0A220C990598FFF722FE91
:1046C80054E0039B1B68191D039A11601B680C9327
:1046D8000C990A9B0193099B00930B9B0A2205984E
:1046E800FFF778FD42E000BF983D0500039B1B687B
:1046F800191D039A11601B680C930C990A9B01936E
:10470800099B00930B9B10220598FFF763FD2DE092
:10471800039B1B68191D039A11601B6808930A9B69
:10472800099A08990598FFF7F3FC1FE0039B1B689B
:10473800191D039A11601B680C9330210598FFF727
:10474800C1FC78210598FFF7BDFC0C990023019363
:1047580008230093082310220598FFF73BFD05E086
:1047680025210598FFF7AEFC00E000BF049B01334C
:10477800049305E09DF8373019460598FFF7A2FC29
:10478800049B1B78002B7FF477AE00E000BF059BED
:104798001B7B002B04D00598FFF738FC00E000BF16
:1047A8000FB05DF804FB00BF00B583B0019001981D
:1047B800FFF762FB0346184603B05DF804FB00B53B
:1047C8008BB001900091019B1B8A043B0793009AD0
:1047D800079B1344DA1C079BB2FBF3F38DF81B30DD
:1047E8000198FFF7A5FB0590059B002B01D100233D
:1047F80038E0059B00221A71059B01225A71079B1C
:104808009AB2059BDA80059B09939DF81B30013B02
:104818000493099B019A1A60002308931DE00198EC
:10482800FFF786FB0390039B002B0ED0059B5B795B
:104838000133DAB2059B5A71099B039A1A60039BEC
:10484800019A1A60039B099304E0059800F00EF89A
:10485800002307E0089B01330893089A049B9A42B7
:10486800DDD3059B18460BB05DF804FB00B58BB093
:104878000190019B0793079B5B798DF81B30019B87
:1048880008939DF81B30013B05930023099305E02D
:10489800089B1B680893099B01330993099A059B98
:1048A8009A42F5D3089B1B680493019B0893002345
:1048B80009930BE0089B1B68039308990498FFF77A
:1048C80079FB039B0893099B013309939DF81B30DF
:1048D800099A9A42EED300BF00BF0BB05DF804FB03
:1048E80000B585B00190019B0393039B043301211C
:1048F8001846FFF743FA00BF05B05DF804FB00B5A2
:1049080087B00190019B0593059B0433012118464C
:10491800FFF74CFA0346039303AB0493049B1B78FD
:10492800002B02D10198FFF7A1FF00BF07B05DF887
:1049380004FB000000B591B003900291019200932E
:10494800039B002B03D14349B620FFF7B7F8039B1D
:104958000993039B0F93099BDB881A46099B5B7994
:1049680002FB03F3043B0893009A089B9A4203D383
:104978003849C420FFF7A2F8099BDB880793009BFE
:104988001A1D079BB2FBF3F30E93009B0433079A9F
:10499800B3FBF2F2079901FB02F29B1A0D93019BFC
:1049A8001A68009B1344089A9A4203D2089A009BFB
:1049B800D31A01E0019B1B680C93019B0C9A1A60A7
:1049C80005E00F9B1B680F930E9B013B0E930E9BFC
:1049D800002BF6D100230B93079A0D9BD31A0A9349
:1049E8000A9A0C9B934228BF13460A932AE0029A1C
:1049F8000B9B134406930F9A0D9B134404330593A2
:104A08009DF84830002B05D00A9A0599069843F07E
:104A18006BFC04E00A9A0699059843F065FC0023AC
:104A28000D930F9B1B680F930C9A0A9BD31A0C9338
:104A38000B9A0A9B13440B93079A0C9B934228BF2B
:104A480013460A930C9B002BD1D100BF00BF11B0B5
:104A58005DF804FB143E050000B589B0059004918B
:104A680003920293039B079307AA00230093029BD8
:104A780004990598FFF75EFF079B039A9A4203D0B3
:104A88000349F620FFF71AF800BF09B05DF804FBE8
:104A9800143E050000B589B0059004910392029375
:104AA800039B079307AA01230093029B0499059887
:104AB800FFF740FF079B039A9A4204D004494FF43A
:104AC8008070FEF7FBFF00BF09B05DF804FB00BF74
:104AD800143E050082B00190019B9B6800229A60F9
:104AE800019B9B6800221A61019B9B6800225A6106
:104AF800019B9B680022DA60019B9B6800225A6038
:104B0800019B9B6800221A6000BF02B0704700003A
:104B180000B585B001900091019B002B03D1184985
:104B28003A20FEF7CBFF009B002B03D114493B2012
:104B3800FEF7C4FF019B5B6803930FE0019B9B6832
:104B4800039A1268009910469847034683F00103B8
:104B5800DBB2002B07D1039B1B680393039B1B68E5
:104B6800002BEBD100E000BF039B1A68009B1A6082
:104B7800039B009A1A6000BF05B05DF804FB00BFF4
:104B88000440050000B585B00190019B002B03D1BE
:104B98000C495120FEF792FF019B5B681B68039349
:104BA800019B5B681B68002B06D0019B5B681A6839
:104BB800019B5B6812681A60039B184605B05DF894
:104BC80004FB00BF0440050000B583B00190019BC1
:104BD800002B03D105495D20FEF770FF019B5B6840
:104BE8001B68184603B05DF804FB00BF04400500CD
:104BF80000B585B001900091019B002B03D11649A7
:104C08006920FEF75BFF009B002B03D112496A2045
:104C1800FEF754FF00238DF80B30019B5B6803936C
:104C28000FE0039B1B68009A9A4207D1009B1A6801
:104C3800039B1A6001238DF80B3006E0039B1B6869
:104C48000393039B1B68002BEBD19DF80B30184690
:104C580005B05DF804FB00BF0440050000B585B051
:104C68000190019800F00EF80390039B002B01D0EF
:104C7800039B00E0024B184605B05DF804FB00BF3B
:104C88007840050086B00190164B0593164B0493A7
:104C98001FE0049A059BD31ADB10DA0F13445B104C
:104CA800DB00059A13440393039B1B680293029A43
:104CB800019B9A4202D9039B04930AE0029A019B42
:104CC8009A4203D2039B0833059302E0039B5B6877
:104CD80004E0059A049B9A42DBD30023184606B0E9
:104CE800704700BF4C440500644505004FF0804301
:104CF800D3F818341B0C03F00103002B14BF012355
:104D08000023DBB21846704782B003468DF807309F
:104D18004FF08043D3F80C3403F001129DF80730AC
:104D280043F480339A420CBF01230023DBB21846B8
:104D380002B0704708B50120FFF7E6FF03461846A2
:104D480008BD08B5FFF7D2FF0346184608BD0000A6
:104D580008B500F05BFB024B00229A7000BF08BD4B
:104D68005C67002008B500F06BFB00BF08BD0000C1
:104D780008B500F07FFB024B00225A7000BF08BD47
:104D88005C67002000B583B000230193104B1B78AB
:104D9800002B02D08523019314E00D4B00229A606A
:104DA8000B4B00225A600A4B00221A61084B002262
:104DB800DA60084800F0D6FA019000F0F9FA044BDE
:104DC80001221A70019B184603B05DF804FB00BF6E
:104DD8005C670020B950000084B001900091019BED
:104DE8001B68039306E0039A009B9A420DD0039B2D
:104DF8001B680393039B002BF5D1019B1A68009B4A
:104E08001A60019B009A1A6000E000BF04B0704766
:104E180084B00190019B1B680393039B002B03D074
:104E2800039B1A68019B1A60039B184604B07047DD
:104E380000B583B00190224B1B78002B03D1214988
:104E4800E920FEF73BFE1E4B9B78DBB2002B12D00D
:104E5800019B002B03D0019B5B6801209847002031
:104E6800FEF78AF8164BDB680133154AD360002039
:104E7800FEF796F817E00020FEF77EF8019B002B5E
:104E880003D001991048FFF7A7FF0D4BDB68002BF3
:104E980001D100F0A1FA0A4BDB680133084AD3605C
:104EA8000020FEF77DF8064BDB68002B04D105498E
:104EB80040F20510FEF702FE00BF03B05DF804FBE8
:104EC8005C6700206C4505006C67002008B5124B34
:104ED8001B78002B04D111494FF48570FEF7EEFDC5
:104EE8000D4BDB68002B04D10C4940F20B10FEF788
:104EF800E5FD0020FEF740F8074BDB68013B064A5A
:104F0800D360054BDB68002B01D1FFF721FF0020A0
:104F1800FEF746F800BF08BD5C6700206C45050039
:104F280008B5074B1B78002B04D106494FF48C7049
:104F3800FEF7C4FDFFF705FF0346184608BD00BF8E
:104F48005C6700206C45050000B583B00190234BD9
:104F58001B78002B04D122494FF49370FEF7AEFD65
:104F68001E4B5B78DBB2002B12D0019B002B03D0C9
:104F7800019B5B68002098470020FDF7FDFF174B59
:104F88005B680133154A53600020FEF709F817E003
:104F98000020FDF7F1FF019B002B03D00199114878
:104FA800FFF71AFF0D4B5B68002B01D1FFF7DAFE04
:104FB8000A4B5B680133094A53600020FDF7F0FF94
:104FC800064B5B68002B04D105494FF4A170FEF72E
:104FD80075FD00BF03B05DF804FB00BF5C670020EF
:104FE8006C4505006467002008B5124B1B78002B40
:104FF80004D1114940F24710FEF760FD0D4B5B6884
:10500800002B04D10C494FF4A470FEF757FD002083
:10501800FDF7B2FF074B5B68013B064A5360054B3F
:105028005B68002B01D1FFF7A3FE0020FDF7B8FF56
:1050380000BF08BD5C6700206C45050008B5074B3C
:105048001B78002B04D1064940F25510FEF736FDB7
:10505800FFF770FE0346184608BD00BF5C670020D6
:105068006C45050000B585B003468DF807309DF8FE
:105078000730002B02D10C4B039301E00B4B039339
:105088000398FFF7C5FE0290029B002B06D0029BF7
:105098005B689DF8072010469847F1E700BF00BFFE
:1050A80005B05DF804FB00BF646700206C67002052
:1050B80000B583B003468DF807309DF80730002B04
:1050C80005D10A4B01225A700020FFF7CBFF9DF84B
:1050D8000730012B05D1054B01229A700120FFF7FB
:1050E800C1FF00BF03B05DF804FB00BF5C67002090
:1050F80082B003468DF807309DF8073003F01F0291
:1051080005499DF907305B09012000FA02F241F8D0
:10511800232000BF02B0704700E100E082B00346E0
:1051280000918DF807309DF90730002B0CDA009BB1
:10513800DAB20C499DF8073003F00F03043B520123
:10514800D2B20B441A7609E0009BDAB206499DF9FF
:1051580007305201D2B20B4483F8002300BF02B0DB
:10516800704700BF00ED00E000E100E082B0019070
:10517800019B1B0B5BB2184602B0704700B583B0A9
:1051880003460A468DF8073013468DF806309DF819
:105198000630072B03D908496B20FEF78FFC9DF8D2
:1051A80006209DF9073011461846FFF7B7FF00BFE4
:1051B80003B05DF804FB00BFDC45050000B583B013
:1051C80003468DF807309DF907301846FFF790FF22
:1051D80000BF03B05DF804FB82B003468DF80730CA
:1051E8000F4A9DF90730002B00DA1F335B115BB2C1
:1051F80052F823209DF90730594203F01F0301F0AC
:105208001F0158BF4B425BB222FA03F303F00103BC
:10521800002B14BF01230023DBB2184602B07047ED
:1052280000E100E082B001904FF08042019BC2F89B
:10523800043300BF02B0704782B001904FF0804243
:10524800019BC2F8083300BF02B0704782B0034622
:105258008DF807309DF8073003F1804301221A606A
:1052680000BF02B0704784B00346ADF80630BDF801
:10527800063003F1804300221A60BDF8063003F1BE
:1052880080431B680393039B00BF04B0704782B040
:105298000346ADF80630BDF8063003F180431B68BD
:1052A800002B14BF01230023DBB2184602B070475D
:1052B80082B001904FF08042019BC2F8183500BFC0
:1052C80002B070474FF08043D3F818341B0C03F03A
:1052D8000103002B14BF01230023DBB218467047DB
:1052E80082B003468DF807304FF08043D3F80C3472
:1052F80003F001129DF8073043F480339A420CBF43
:1053080001230023DBB2184602B0704700B583B012
:1053180006238DF807304FF08040FFF727FF03463C
:105328001846FFF759FF034683F00103DBB2002B51
:1053380013D04FF08040FFF719FF03461A469DF837
:10534800073019461046FFF719FF4FF08040FFF766
:105358000DFF03461846FFF731FF00BF03B05DF8A5
:1053680004FB000000B585B00190019B002B03D120
:105378000D49A420FEF7A2FB002303930B4B1B79D6
:10538800002B02D08523039308E0084A019B136091
:10539800064B01221A71054B00225A71039B1846CD
:1053A80005B05DF804FB00BF4846050070670020A3
:1053B80008B5074B1B79002B03D10649BD20FEF722
:1053C8007DFBFFF7A3FF0120FFF772FF00BF08BDB9
:1053D800706700204846050008B50A4B1B79002B6A
:1053E80003D10949EA20FEF769FB4FF48270FFF701
:1053F8003AFF0220FFF716FF0820FFF727FF00BF3C
:1054080008BD00BF706700204846050008B50A4B74
:105418001B79002B03D10949F720FEF74FFB0C201D
:10542800FFF714FF00BFFFF74DFF0346002BFAD12B
:1054380000BF00BF08BD00BF7067002048460500D8
:1054480008B50A4B1B79002B03D10949FF20FEF749
:1054580035FB4FF48070FFF706FF0120FFF7E2FEEF
:105468000020FFF7F3FE00BF08BD00BF70670020F3
:105478004846050008B50C4B1B79002B04D10B4995
:1054880040F20710FEF71AFB0420FFF7DFFE00BF0B
:105498000120FFF725FF0346002BF9D1024B00221C
:1054A8005A7100BF08BD00BF70670020484605005C
:1054B80008B54FF48070FFF7EAFE0346002B14D0BE
:1054C8004FF48070FFF7CFFE0120FFF7B5FE114BB8
:1054D8005B7983F00103DBB2002B06D00D4B012270
:1054E8005A710C4B1B68002098474FF48270FFF7E5
:1054F800CEFE0346002B0AD04FF48270FFF7B3FEAE
:105508000220FFF799FE034B1B680120984700BF54
:1055180008BD00BF7067002082B003468DF80730D1
:105528009DF8073003F01F0205499DF907305B0914
:10553800012000FA02F241F8232000BF02B07047B0
:1055480000E100E082B0034600918DF807309DF934
:105558000730002B0CDA009BDAB20C499DF80730B3
:1055680003F00F03043B5201D2B20B441A7609E050
:10557800009BDAB206499DF907305201D2B20B44BA
:1055880083F8002300BF02B0704700BF00ED00E0C1
:1055980000E100E000B583B003460A468DF8073005
:1055A80013468DF806309DF80630072B03D90849B5
:1055B8006B20FEF783FA9DF806209DF90730114607
:1055C8001846FFF7BFFF00BF03B05DF804FB00BF3C
:1055D800B446050000B583B003468DF807309DF941
:1055E80007301846FFF798FF00BF03B05DF804FBCB
:1055F80000B583B00346ADF80630BDF8063018464E
:1056080000F026F803461B68012B0CBF012300237A
:10561800DBB2184603B05DF804FB00B585B003465D
:10562800ADF80630BDF80630184600F011F803460C
:105638001A4600231360BDF80630184600F008F833
:1056480003461B680393039B00BF05B05DF804FB8A
:1056580082B00346ADF80630BDF8063003F180434A
:1056680003F5C043184602B07047000082B00190AD
:10567800034A019BC2F8043300BF02B0704700BF61
:105688000060004082B00190034BD3F80423019BD3
:105698001340184602B070470060004082B0019085
:1056A800084A019B03F5A27352F82330054943F0D9
:1056B8000102019B03F5A27341F8232000BF02B049
:1056C800704700BF0060004084B003900291134609
:1056D8008DF80730144A039B03F5A27352F8233060
:1056E800114923F44F3323F44073039A02F5A2724D
:1056F80041F822300C4A039B03F5A27352F8232089
:10570800029B1B0203F47C519DF807301B0403F431
:1057180040330B4304491A43039B03F5A27341F832
:10572800232000BF04B070470060004082B00190A1
:10573800054A019B03F5A27352F823301B0A03F0B4
:105748003F03184602B070470060004082B00190E5
:10575800064A019B03F5A27352F823301B0C03F091
:105768000303DBB2184602B0704700BF0060004078
:1057780000B583B00190019B1B682F2B04D90B49FE
:1057880040F2CD10FEF79AF9019B1B681F2B02D837
:105798004FF0A04306E0019B1B6803F01F02019B2A
:1057A8001A60034B184603B05DF804FB1847050060
:1057B8000003005000B585B00190084611461A460E
:1057C80003468DF803300B468DF8023013468DF8EA
:1057D800013001AB1846FFF7CBFF03909DF803207B
:1057E8009DF802305B001A439DF801309B001A4374
:1057F8009DF818301B0242EA03019DF81C301B0477
:10580800019A1943039B02F5E07243F8221000BF86
:1058180005B05DF804FB00B585B003900B468DF824
:105828000B309DF80B3000220192002200920022DA
:1058380000210398FFF7BEFF00BF05B05DF804FB29
:1058480000B585B0019001AB1846FFF791FF0390B2
:10585800019A039B02F5E07253F8223023F0020309
:105868000293019A039B02F5E072029943F8221011
:1058780000BF05B05DF804FB00B585B001900B468C
:105888008DF8033001AB1846FFF772FF0390019AB9
:10589800039B02F5E07253F82230019A23F4403159
:1058A800039B02F5E07243F82210019A039B02F56C
:1058B800E07253F822309DF8032012041146019A31
:1058C8001943039B02F5E07243F8221000BF05B0AC
:1058D8005DF804FB00B585B0019001AB1846FFF7F1
:1058E80047FF0390039800F020F80246019B22FA34
:1058F80003F303F00103184605B05DF804FB00B597
:1059080085B0019001AB1846FFF732FF0390019A6A
:10591800039B02F5E07253F822301B0C03F00303DB
:10592800DBB2184605B05DF804FB82B00190019B1C
:10593800D3F81035184602B07047000000B589B09A
:10594800039002910192184A05AB92E8030083E89C
:105958000300039A029B1344022B04D9134940F213
:10596800FD20FEF7ABF8039B079311E0079B9B0014
:1059780020336B4453F80C3C1846FFF7D6FF024619
:10598800019B1A60019B04330193079B0133079322
:10599800039A029B1344079A9A42E7D300BF00BFB9
:1059A80009B05DF804FB00BF7C47050018470500F7
:1059B80084B001900091009B0393019BDB08029344
:1059C800019B03F0070301930122019B02FA03F3F1
:1059D8000399029A0A4412781340184604B0704793
:1059E80084B001900091009B0393019BDB08029314
:1059F800019B03F007030193039A029B13441B784E
:105A08005AB20121019B01FA03F35BB2134359B265
:105A1800039A029B1344CAB21A7000BF04B07047BD
:105A280082B001900C4A019B1344303393F9003043
:105A3800002B09DB084A019B1344303393F90030EB
:105A4800072B01DC012300E0002303F00103DBB294
:105A5800184602B0704700BF7867002082B00190F6
:105A6800064A019B1344303393F90030072BCCBF0F
:105A780001230023DBB2184602B070477867002084
:105A880082B00190064A019B1344303393F90030E9
:105A9800DB43DBB2DB09DBB2184602B0704700BF5C
:105AA8007867002084B00390029101928DF803304A
:105AB800029B59B20E4A039B134430330A461A70AC
:105AC8000B49029B019A41F823209DF8033083F08B
