:020000022000DC
:10700000000004205D730200457302004773020014
:10701000497302004B7302004D7302000000000030
:107020000000000000000000000000004F7302009C
:1070300051730200000000005373020055730200F8
:10704000B188020057730200DD8A02005773020004
:1070500057730200577302006189020057730200E0
:1070600057730200577302005773020057730200F0
:1070700057730200577302005773020057730200E0
:1070800057730200557D02005773020057730200C8
:1070900057730200577302000998020057730200E9
:1070A00057730200577302005773020057730200B0
:1070B0005773020057730200000000000000000038
:1070C0005773020057730200577302005773020090
:1070D0005773020057730200577302005773020080
:1070E000577302005773020057730200000000003C
:1070F00000000000577302000000000057730200F8
:10710000000000000000000000000000000000007F
:10711000000000000000000000000000000000006F
:10712000000000000000000000000000000000005F
:10713000000000000000000000000000000000004F
:10714000000000000000000000000000000000003F
:10715000000000000000000000000000000000002F
:10716000000000000000000000000000000000001F
:10717000000000000000000000000000000000000F
:1071800000000000000000000000000000000000FF
:1071900000000000000000000000000000000000EF
:1071A00000000000000000000000000000000000DF
:1071B00000000000000000000000000000000000CF
:1071C00000000000000000000000000000000000BF
:1071D00000000000000000000000000000000000AF
:1071E000000000000000000000000000000000009F
:1071F000000000000000000000000000000000008F
:10720000314932480A1A02D0072291438D4630494B
:1072100030480A1A06D00722914381F309880222D6
:1072200082F314882C482D492D4A00F03CF82D4853
:107230002D492E4A00F037F82D482E492E4A00F0ED
:1072400032F82E482E492F4A00F02DF82E482F49AB
:107250002F4A00F028F82F482F49304A00F023F831
:107260002F483049304A00F01EF83048304900229B
:1072700000F024F82F483049002200F01FF82F4A70
:1072800090471F481F49884205D00268043003B464
:10729000904703BCF7E700208646EC46002000211B
:1072A000274A9047FEE7884207D0521A05D0037854
:1072B00001300B700131013AF9D17047884202D098
:1072C00002700130FAE770470000042000E003205C
:1072D000000004200000042028AD0200C81D00208A
:1072E000FC1D0020B8730200B87302000C9B020062
:1072F00028AD0200C81D0020C81D0020F89B020018
:10730000F89B0200F89B0200F89B0200F89B020029
:10731000F89B0200F89B0200F89B020028AD0200D7
:107320005CAD0200FC1D0020FC1D0020FC1D0020A7
:10733000F2240020F4240020F424002085730200AD
:1073400011960200FEE7FEE7FEE7FEE7FEE7FEE736
:10735000FEE7FEE7FEE7FEE700F002B8FFF7FCBF3E
:107360000F484FF00701884385460E4880470E4876
:10737000016841F470010160BFF34F8FBFF36F8F5D
:10738000FFF73EBF09480A490A4A884207D0521A05
:1073900005D0037801300B700131013AF9D1704703
:1073A000000004203184020088ED00E0F89B020018
:0873B000C81D0020C81D0020CB
:1073B800F0B595B01D46164608460C4600F0D4FFB9
:1073C8001A9B0D93CDE9086500252B46082205A9CF
:1073D80020460A958DF82C500C9500F0E1FF079B8C
:1073E8000293069B03939DF814308DF8115003F017
:1073F8000302012A1DD1BDF81420059DC3F3C20361
:10740800C2F383168DF81030B20008230EA9204667
:1074180000F0C6FFC5F3952508AB0093324602ABD2
:107428000EA9284600F050FB204600F0A1FF15B039
:10743800F0BD022AF8D1BDF81650C3F3C203C5F354
:1074480089158DF810300827082D2E4628BF0826E4
:107458003B4632460EA9204600F0A2FFAD1B08AB02
:1074680002AA31460EA8374400F092FB002DEBD15A
:10747800DAE70000014B01221A7070473D1E002018
:107488007047000070B50E4D06460FCD88B06C46AB
:107498000FC495E80F00002E84E80F00094A0A4837
:1074A8004FF0060308BF00226946009301F084F9F3
:1074B80008B100F0CDFB054B1E7008B070BD00BFD1
:1074C800F89B02007D740200C81D0020FC1D0020EE
:1074D80007B5044B0093044A4023FFF769FF03B044
:1074E8005DF804FBF5740200FD1D002038B50D4859
:1074F8000D4C0E4D002323700378EB5CD2B263B1C0
:10750800043001F0B1FF08B100F0A2FB084B1A7873
:1075180012B12378002BFBD038BD0C3001F034FDBC
:10752800F1E700BFC81D00203D1E00206C2300208D
:10753800FC1D002008B50848084A0378D35C3BB115
:10754800043001F001FFBDE808400020FFF79ABFB2
:107558000C3001F0B1FCF6E7C81D00206C230020B8
:10756800037813F0040216D003F00303012B03D0B1
:10757800022B09D0012070470A6800880232C0F344
:10758800831002440A60F5E70B684288023303EB74
:1075980092130B60EEE71046704700002DE9F04F9C
:1075A800DFF81CA187B00F4600230446861C0DF1A6
:1075B800070015468DF8073000F08EFBDAF8042036
:1075C8003A60DAF8083003F580739B1A0AF21C4710
:1075D8000AF583690AF21448B3421AD30020002D31
:1075E80069D004F00F039B0143F0050363F30F0018
:1075F800DAF80430DAB2033233444AF822009DF84C
:107608000700CAF8043000F08BFB012007B0BDE882
:10761800F08F0121384600F0EEFB484600F003FCED
:10762800404600F000FCDAF808000290C0B20330CF
:107638000AEB800002A9FFF793FF029B30BBDAB286
:107648000AEB8202D16803919A1C0133DBB20AEB80
:1076580083030292D3F80CB001F00303012B22D06C
:10766800022B15D08346404600F0E0FB10B1029B88
:10767800CAF808305946384600F0BDFBDAF8083039
:10768800DAF8042003F580739B1AA5E7D8B2CEE791
:10769800BDF80E30C3F3891303334FEA1B4B02EBDB
:1076A80093030293DFE7BDF80C30C3F383134FEA6B
:1076B8001B4B1344F5E7A40544F0060098E700BF08
:1076C800101F002030B50A4C71B10A4A0A49121B32
:1076D800D20800239A4201D1002030BD31F823504E
:1076E800854202D00133F5E7034654F83300F4E746
:1076F800249B0200BC9B0200C81D0020094B0139D5
:1077080003EBC000032909D8DFE801F00A020406E8
:10771800042070470079704740797047002070470F
:1077280002207047249B020070470000034BD3E9F6
:107738000130C31A58425841704700BF101F00203B
:107748002DE9F04186B0FFF7F1FF0546002840F02B
:10775800ED80774CC4F81804BFF34F8FA3680293E9
:10776800DBB2033304EB830002A9FFF7F9FE029BA7
:1077780018B1D4F81824002A5AD0DAB2991C013367
:1077880004EB8202DBB204EB8303D268DB68049368
:1077980002F00303022B0392029154D1BDF80E307C
:1077A8006448C3F38917502F3E4628BF502606F178
:1077B800080166F38F13C1F30901ADF80E3000F02C
:1077C800A4FD0546002800F09C8000F0CDFD0023B4
:1077D800082203A9284600F0D9FD0299CB43DBB261
:1077E8000133C9B20331B6EB830F4FEA830204EBCE
:1077F800810125D95FFA82F80823A6EB08062846F6
:1078080000F0C4FDF6B208F108034B4903F0FC038D
:107818003246284600F0BAFD029B033703EB970770
:107828000297D4F81834002B43D1D4F8106453E0ED
:1078380062689A4294D8A260284606B0BDE8F081F2
:1078480008233246E5E7012B5BD1BDF80C303948F7
:10785800C3F38311062928BF062161F38913023176
:1078680001F00F018900ADF80C3000F04EFD05461F
:10787800002846D000F078FD0023082203A92846F6
:1078880000F084FD0026BDF80C20C2F38312B3007B
:10789800964203F10803C4D202994A1CC9B20331C3
:1078A800029204EB81010422284600F06FFD0136A4
:1078B800E9E7284600F05CFDFFF738FF80F001009B
:1078C800C5B2B9E7F3685B7923B1336829461B6809
:1078D80030469847F3681E68002EF3D1284600F01A
:1078E80047FD0DF107008DF8076000F0F5F9D4F8B1
:1078F80018340BB9029BA3609DF8070000F010FA3A
:10790800DAE7D4F8104454B90C4B0D480D49C01AA5
:10791800C008000440F0020000F05EF8CCE72368DD
:1079280020469B689847E3681C68ECE7002583E7D6
:10793800101F0020BC9B02001C1F0020249B02007B
:107948004C9B0200359C02002DE9F34704460E4685
:10795800924601A9012218469946FFF71FFE1C4FBF
:1079680010B3019D4FF00008AA1CC84508EB02019E
:1079780025D11848002100F00FFA80F31000000408
:1079880040EA1440E4006B1C04F03804DBB2EDB2AA
:1079980044F0010407EB8303033544EA881444EAFE
:1079A8008624D86047F825403B781BB1FFF7C8FE0E
:1079B8000028FBD1FFF7B8FE02B0BDE8F087C9B2D6
:1079C80007EB81015AF82830CB6008F10108CCE7B1
:1079D800101F00202C23002000231A46FFF7B4BFF5
:1079E80038B5084B0125D3F810441D7004B938BDCB
:1079F800E3685D71236820465B689847E3681C6804
:107A0800F4E700BF101F002030B5C38885B00446D6
:107A18000D4633B1144A00921449154A284600F01D
:107A280051FA217A05291DD0637A4BB1A088FFF756
:107A380065FE104B104953F82020284600F042FA02
:107A4800227A0E4BA08853F8222003920021FFF7D8
:107A580039FE039A0A490346284605B0BDE8304076
:107A680000F030BA05B030BD6A9C0200529C02009A
:107A78004A9C0200D89C02006F9C0200FC9C0200F9
:107A8800729C020007B503460846197A052911D0E9
:107A98005B7A2BB1094A0A49019000F013FA019860
:107AA8000849019000F00EFA019803B05DF804EB64
:107AB80000F0FDB9002AF8D0F2E700BF6A9C020086
:107AC8006F9C0200679C02002DE9F04385B01F46B9
:107AD8000C9D002395F80C902B7306460C46904697
:107AE80029463846FFF790FFB8F1060F09D8DFE8B6
:107AF80008F00412181F283340003146284600F0C9
:107B0800E1F9002229463846FFF7BCFF85F80C90BA
:107B180005B0BDE8F08322683146284600F0D2F966
:107B2800EFE7D4E900233146284600F0CBF9E8E72F
:107B3800A36800933146D4E90023284600F0C2F92F
:107B4800DFE7E3680193A36800933146D4E9002393
:107B5800284600F0B7F9D4E723690293E368019354
:107B6800A36800933146D4E90023284600F0AAF917
:107B7800C7E76369039323690293E3680193A368E2
:107B880000933146D4E90023284600F09BF9B8E772
:107B980008292DE9F74F80460E4617461C463DD862
:107BA80000251B7B2573214610460193FFF72CFF08
:107BB800DFF88CA0DFF88CB0AE4232D918F8052077
:107BC8005946204600F07EF90135082DF4D11B49AD
:107BD800DFF874A0DFF874B0204600F073F94FF0B6
:107BE80000094E4524D918F809507E2D1ED828467C
:107BF80001F026FF002814BF2A462E2259462046A7
:107C080000F060F909F10109B9F1080FE9D1012281
:107C180021463846FFF736FF019B237303B0BDE8C2
:107C2800F08F5146204600F04DF9CDE72E22E5E7CA
:107C38005146204600F046F9E4E700BF869C020062
:107C4800829C02007C9C0200849C0200889C0200AA
:107C58001FB50021039001AA44F20100CDE90111EA
:107C680000F004F805B05DF804FB000038B572B602
:107C7800FFF7B6FEFFF764FD0028FBD1104B114C4F
:107C8800114D1249E41AE408240444F00100FFF7F6
:107C9800A3FED5F8F030DB0700D500BE0C4944F050
:107CA8000200FFF799FEBFF34F8FEA68094B02F411
:107CB800E0621343EB60BFF34F8F00BFFDE700BFE7
:107CC800249B02004C9B020000ED00E01B9D02007B
:107CD800279D02000400FA0570B5EFF3108672B60E
:107CE8000C4A946801239CB993600B4B0B4DD3F855
:107CF800801029401160C3F88050D3F88410516077
:107D08004FF0FF32C3F88420047006B962B670BD24
:107D18000370FAE73023002000E100E0FC06FFBD15
:107D2800084B9A6810B55AB150B9EFF3108172B682
:107D3800054A1C6814605C685460986001B962B6B2
:107D480010BD00BF3023002000E100E0024B034AD1
:107D58001B681068184700BF442300203C230020FC
:107D680001F01F024B090121914000EB830000F054
:107D78001EB801F01F0301229A404B0900EB830053
:107D8800D14300F02CB84B0901F01F0150F8230033
:107D9800C84000F00100704710B5034653E8000FD3
:107DA8000A4643E8002494F0000FF7D110BD10B53F
:107DB800034653E8002F42EA010043E8000494F028
:107DC800000FF6D110BD10B5034653E8000F00EAC6
:107DD800010243E8002494F0000FF6D110BD10B55D
:107DE800034653E8002F02EA010043E8000494F038
:107DF800000FF6D110BD10B5034653E8002F02EB73
:107E0800010043E8000494F0000FF6D110BD10B54E
:107E1800034653E8002FA2EB010043E8000494F066
:107E2800000FF6D110BD0121FFF7C1BF0021FFF7F8
:107E3800CABF37B5054600240DF107008DF8074085
:107E4800FFF74AFF2A686B68116899420ED9481EE5
:107E5800106011F8013CEC68298A01FB0344AB6807
:107E680011791B1ADBB2994238BF13719DF80700CC
:107E7800FFF756FF204603B030BD37B5054600234F
:107E88000DF107000C468DF80730FFF725FF2A682B
:107E98001368591C1160E968641A298AB4FBF1F463
:107EA8001C709DF80700FFF73BFF03B030BD8268E8
:107EB80010B504462AB14369016800699847002350
:107EC800A36010BD0EB403B5039921B104AB01AA98
:107ED800019300F077F802B05DF804EB03B0704747
:107EE8000A2938B504460D4602D10D21FFF7F8FFDF
:107EF800A3682268591CA160D554D4E901329A427A
:107F080004D32046BDE83840FFF7D1BF38BD000094
:107F18002DE9F84F9846DDE90A43154682460F4693
:107F28000A464FF00109AA420FD2C14538BFC146DF
:107F380013F0010B01D16CB900240126B8F1010F2F
:107F48001BD908F1FF386E43F8E709F10109B2FBC4
:107F5800F5F2E8E79B070ED5B8F1000F0CBF302605
:107F68002026A145E9D2013C31465046FFF7B8FF2B
:107F7800002CF6D1E0E72026F3E7B7FBF6F39D42A5
:107F8800E1D9DFF83C80B7FBF6F3504618F8031048
:107F980006FB1377FFF7A4FF3346AB42B6FBF5F6B3
:107FA800F1D2BBF1000F02D00CB1A14501D3BDE85D
:107FB800F88F20215046013CFFF792FFF4E700BFFD
:107FC8003E9D02002DE9F74F0546174688460029D1
:107FD80000F03E8118F8011B49B92B7B002B00F0FB
:107FE8003781284603B0BDE8F04FFFF760BF252969
:107FF80040F0B780002698F800302D2B424608F153
:10800800010823D0302B24D02B2B25D000242A2B59
:1080180002F1010123D13B681A1D1B683A601C4418
:108028000A4613782E2B26D101324FF0000A10464B
:1080380010F8011BA1F1300CBCF1090F1DD80A235F
:1080480003FB0A13A3F1300A0246F0E746F00106E3
:10805800D1E746F00206CEE746F00406CBE711F872
:10806800013CA3F130000928DBD80A2202FB0434C2
:10807800303C0A46CBE74FF0000A12F8011B01F02A
:10808800FB0068289046F8D0782909D86F290CD8C1
:10809800632962D022D8252963D0582900F0888026
:1080A80098F80030002B95D197E770390829F7D850
:1080B80001A353F821F000BF33820200A980020017
:1080C800A9800200C9810200A9800200A7810200DC
:1080D800A9800200A9800200B9810200642901D0A8
:1080E8006929DDD13A68D2F80090111D89EAE97250
:1080F8003960A2EBE9724FF0010B092A35DCD34550
:1081080038BFD3462CB1B9F1000F01DB720700D597
:10811800013CB30702D5BAF1000F03D0F00701D430
:108128004CBB0024B9F1000F2DDAC9F100092D214B
:108138002846FFF7D5FE06F00302022A04D1BAF159
:10814800000F01D11CBB0024CDE9004653460A228A
:1081580049462846FFF7DCFEA2E73B681A1D197856
:108168003A602846FFF7BCFE9AE70A230BF1010B99
:10817800B2FBF3F2C1E7A345D4D220212846013C43
:10818800FFF7AEFECCE77107D5D52B21D0E7A34585
:10819800DAD230212846013CFFF7A2FED2E739683F
:1081A800CDE900460A1D3A6053460A220968D0E71D
:1081B80039680A1D3A60CDE9004653461022F5E7B2
:1081C8003B681A1D3A6016F00106D3F8009024D1D6
:1081D800B9F1000F03D0484601F063FC0646B442EB
:1081E8001DD809F1FF3919F8011F00293FF458AFCC
:1081F8002846FFF775FEF6E728460136FFF770FEBA
:1082080019F806100029F7D1A642BFF449AF20217A
:108218002846013CFFF764FEF6E70026F0E7202138
:108228002846013CFFF75CFED9E73B681A1D3A6017
:10823800302128461C68FFF753FE78212846FFF7AF
:108248004FFE00220823CDE900322146102280E7A4
:1082580003B0BDE8F08F00BF2DE9F84FB0F806A0D5
:108268004579D2F800B09DF828900AFB05F5043D41
:1082780088460BEB0301A94203F1040488BFA5EB70
:10828800030BB4FBFAF607460AFB1644C2F800B023
:108298004EB9AAEB04055D4528BF5D46BBF1000F4A
:1082A80004D1BDE8F88F3F68013EF1E7043408EBDC
:1082B80006003C442A46B9F1000F0DD02146ABEB2D
:1082C800050B01F0C5FBDA452E443F6855464FF0D3
:1082D800000428BF5D46E1E701462046EFE7F8B510
:1082E80046790146721E0546002393422D6803D342
:1082F8000024A64202D8F8BD0133F6E70F682846E5
:10830800FFF7BBFD01343946F3E72DE9F843068A48
:10831800CD1C0746FFF78DFD043E35440446B5FBEA
:10832800F6F5F0B14FF48073EDB28380C680013D5D
:10833800076081464FF00008A84512D23846FFF77B
:1083480078FD064648B163790133637108F1010885
:10835800C9F8000007608146EEE72046FFF7BFFF37
:1083680034462046BDE8F88301210430FFF743BDB9
:1083780010B5012104460430FFF749FDC0B220B909
:108388002046BDE81040FFF7AABF10BD1FB50392F5
:108398000022009203AAFFF75FFF05B05DF804FB17
:1083A8001FB503920122009203AAFFF755FF05B0FB
:1083B8005DF804FB0B684A684360934208BF0023DA
:1083C800016008BF43607047436843B10268916821
:1083D80052680B449342436004BF002343607047D4
:1083E8004FF08053D3F83001A0F1080358425841A8
:1083F800704700004FF08053D3F83021082A06D187
:10840800D3F83431052B02D8024AD05C70470020DB
:10841800704700BF669D0200024AD2F80034002B64
:10842800FBD0704700E0014010B5FFF7D9FF40B11D
:108438004FF080430022C3F80C21C3F81021C3F881
:108448003825FFF7CDFF002846D04FF08052654B06
:10845800D2F80414C3F82015D2F80814C3F8241568
:10846800D2F80C14C3F82815D2F81014C3F82C1538
:10847800D2F81414C3F83015D2F81814C3F8341508
:10848800D2F81C14C3F84015D2F82014C3F84415C8
:10849800D2F82414C3F84815D2F82814C3F84C1598
:1084A800D2F82C14C3F85015D2F83014C3F8541568
:1084B800D2F83414C3F86015D2F83814C3F8641528
:1084C800D2F83C14C3F86815D2F84014C3F86C15F8
:1084D800D2F84424C3F87025FFF78CFF18B1424B3B
:1084E800424AC3F88C26FFF785FF18B1404BFB22A0
:1084F800C3F81825FFF77EFF70B14FF080414FF0A9
:108508008053D1F8E42ED3F8583222F00F0203F04A
:108518000F031343C1F8E43EFFF76CFF20B1354B5E
:108528004FF40072C3F84026FFF75AFF48B14FF0E6
:108538008043D3F80024D20744BF6FF00102C3F888
:1085480000242D4AD2F8883043F47003C2F88830EA
:10855800BFF34F8FBFF36F8F4FF08053D3F83021A5
:10856800082A0ED1D3F83431052B02D8234AD35C1C
:108578003BB14FF01023D3F808224FF08043C3F8E3
:1085880058254FF01023D3F80022002A03DBD3F834
:108598000432002B22DA1A4901234FF01020C1F8C7
:1085A80004351224FFF738FFC0F80042FFF734FF04
:1085B800C0F80442FFF730FF0023C1F80435FFF785
:1085C8002BFFBFF34F8F0C490E4BCA6802F4E062D1
:1085D8001343CB60BFF34F8F00BFFDE70A4B0B4A35
:1085E8001A6010BD00C000400050004048810300E0
:1085F80000F000400090024000ED00E0609D0200A5
:1086080000E001400400FA05E41D00200090D003BA
:1086180038B5074C051E04F1080318BF1C4623682B
:108628002BB11A6822605B6828469847F7E738BD7F
:108638005023002020B9054B01225A70FFF7E8BFEC
:10864800012802D1014A9070F8E7704748230020BA
:1086580020B9034B01225A70FFF7DABF704700BFF9
:108668004823002038B50E4C2378B3B90D48636011
:10867800A3602361E36000F0E7F8054601F0A6F87F
:1086880008B900F0EDF801232370074BD3F8003444
:108698000BB10123A370284638BD8525F5E700BF37
:1086A800482300203D8602000000014037B50D4CEC
:1086B80000230DF107008DF80730FFF70DFBE36885
:1086C800013BE360E36833B9074BD3F8005415B9AD
:1086D80000F0D8F8A5709DF80700FFF721FB03B05C
:1086E80030BD00BF4823002000000140012813B519
:1086F8000CD0032820D038B9134B0122C3F88020AE
:10870800BFF34F8FBFF36F8F02B010BD0F4C002324
:108718000DF107008DF80730FFF7DEFA23780BB963
:10872800FFF7A0FFE3689DF807000133E36001232A
:10873800A370FFF7F5FAE7E700F092F802B0BDE89A
:108748001040FFF7B3BF00BF00E100E0482300205E
:108758001FB503788DF800304368019383688DF85E
:108768000830C368054A0393054B684653F821301F
:1087780052F82110984705B05DF804FB5C230020EF
:10878800642300201FB503788DF8003043680193F7
:1087980083688DF80830C368054A0393054B68461B
:1087A80053F8213052F82110984705B05DF804FBC2
:1087B8005C23002064230020F0B5194B90F800C01A
:1087C800DFF86CE043F82C20164B16460A6943F88C
:1087D8002C204B7F0EF80C300C4607460FCC89B086
:1087E8006D460FC594E80F0085E80F003B78CDF87B
:1087F80010C01EF803304BB1002E0B4A694608BF63
:108808003246381D00F0C4FC09B0F0BD002E074AFE
:10881800694608BF324607F10C0000F07DFAF3E71D
:10882800642300205C230020598702008D87020002
:108838006C23002000F18040002382B003600368AD
:108848000193019B02B07047044A137923B90121AF
:10885800106091801846704785207047702300206B
:10886800074B1A68D20704D4C02283F800230122D8
:108878001A604FF080430122C3F81825704700BFE3
:1088880000E100E04FF0804208B50223C2F8083347
:108898004FF48270FFF7CEFF0123D360D2F818346B
:1088A800DB03FBD408BD00004FF0804110B5D1F8C0
:1088B800003163B14FF48070FFF7BCFF0D4B58795E
:1088C8000122C1F8082310B95A711B6898474FF064
:1088D8008042D2F8043163B14FF48270FFF7AAFFE7
:1088E8000223C2F80833034BBDE810401B6801207F
:1088F800184710BD7023002000F1804000F5C040EB
:10890800002382B0036003680193019B02B07047A3
:1089180003681F2B83BF03F01F03036001484FF058
:10892800A04070470003005007B5019001A8FFF769
:10893800EFFF019B00EB8300D0F8003723F44033AE
:10894800C0F80037D0F8003743EA0141C0F80017F3
:1089580003B05DF804FB00002DE9FF470024CDE9D2
:108968000244584D4FF48072012102F1804303F50F
:10897800C04390B21B68012B06D1D5F804330B42D3
:1089880002D0FFF7B9FF0C430432B2F5907F4FEAEB
:108998004101EAD14B4BD3F87C31012B11D14FF473
:1089A800BE70FFF7A9FF4FF0A04344F00044D3F88E
:1089B80020250292C3F82025D3F820280392C3F873
:1089C8002028E3B2D3B1404F00250126344210D00D
:1089D800AB0003F1804303F5C043D3F81005D3F887
:1089E800101557F8253023B1C1F30141C0F3052014
:1089F80098470135082D4FEA4606E7D1002C59DA89
:108A0800314D324C324E4FF00008012716F9013B28
:108A18005A1C3CD0C3F3C201103169445FFA83F990
:108A280011F8081C03F03F0203F0070307FA03F3E9
:108A380019422CD001A80192FFF76AFF019B03F5A8
:108A4800E07350F82330C3F3014ABAF1020F0CBFA8
:108A5800032102211046FFF767FF01A80192FFF7E3
:108A680057FF019B07FA03F3C0F82035AB1893F9B9
:108A7800303055F8233053B14FEA9911032904D007
:108A8800BAF1020F19D1012901D11046984708F10E
:108A98000108B8F1040FB9D14FF0A043D3F820254D
:108AA8000292C3F82025D4F820350393C4F8203562
:108AB8001343A7D104B0BDE8F087BAF1030FE6D19C
:108AC8000229E1E7006000407823002000030050FD
:108AD800D8230020014B1B68184700BFE42300205F
:108AE8000E4B984237B50C4602D0002003B030BD7B
:108AF80000230DF107008DF80730FFF7EDF8084B5C
:108B08001D7915B901221C601A719DF80700FFF73D
:108B180007F9002DE9D01120E8E700BF0020004048
:108B2800E4230020034B984201BF034B00221A6044
:108B38001A71704700200040E423002000234350AE
:108B480082B043580193019B02B070470A4610B5A2
:108B58004FF48E71FFF7F2FF136A9168C95C136ACC
:108B680001331362C0F81C1510BD8B690A4610B595
:108B78004FF4847123B9FFF7E1FFD0F8183510BD21
:108B8800FFF7DCFF536AD168D0F81805C854536A58
:108B980001335362F3E700001FB501238DF800305D
:108BA800044BCDE90110D3E900126846904705B09F
:108BB8005DF804FBEC23002030B54D4DD5F80433A7
:108BC8009A0585B051D5D5F82431002B4DD04FF4F6
:108BD80092712846FFF7B2FF4FF40173C5F80833C6
:108BE800444B93F829200AB901226A6040490222BD
:108BF8008DF80020D1F88024C1F8802403929A6966
:108C08000292DA6801920022C3E906226846D3E993
:108C1800001290473648D0F81C315BB1354A51698B
:108C2800136A99424DD992F82830002B49D1114640
:108C3800FFF78CFF2E48D0F84431002B56D04FF464
:108C4800A271FFF77BFF2B4B93F829200AB1012271
:108C580002609A69002A49D0586AD96800229A6144
:108C680005B0BDE83040FFF797BFD5F804335B0780
:108C7800D0D5D5F80831002BCCD01E4C1C48214645
:108C8800FFF773FF636AA2699A42C3D1E369E16897
:108C98004BB1A3612369E3600023606AE361636207
:108CA800FFF77AFFB6E794F829300BB901236B6018
:108CB8000F4B4FF40172C3F808230023606AA361C5
:108CC800EEE70B484FF48E71FFF738FF5369002B1E
:108CD800B0D051690291002391688DF8003001915C
:108CE80053616846D2E900139847A3E705B030BD41
:108CF80000200040EC2300201F2886BF00F01F0042
:108D0800044B4FF0A04300F5E070022243F8202006
:108D1800704700BF000300502DE9F843604D90F8FC
:108D280004802C2303FB0853064693F82A300C468C
:108D38009146002B40F0AF805A490068FFF7D0FEFB
:108D48000746002840F0A9802268531C10D01F2A2B
:108D580087BF554902F01F0313464FF0A041012079
:108D6800984003F5E073C1F80805032041F8230093
:108D78006168481C0DD01F298BBF01F01F030B46EB
:108D880049484FF0A04003F5E0734FF0000C40F85D
:108D980023C03068A369C0F8243594F814C0637DF3
:108DA800BCF1010F4CEA0303C0F86C35C0F8141588
:108DB800C0F80C252BD1A368591C0DD01F2B8BBFD5
:108DC80003F01F021A4638494FF0A04102F5E0723D
:108DD8004FF0000C41F822C0E1684A1C13D01F294B
:108DE80087BF314A01F01F0C8C464FF0A0424FF06C
:108DF800010E0EFA0CFE0CF5E07CC2F808E54FF007
:108E0800030E42F82CE0C0F80815C0F810352C22E3
:108E180002FB08F2AB18C3F804902369AB50B9F110
:108E2800000F20D04FF48E71247FFFF787FE4FF498
:108E3800A2713068FFF782FE32681C4BC2F8043317
:108E4800130B42F307326101002AC9B21EDB18482E
:108E5800841884F800130121520903F01F0301FA52
:108E680003F340F8223033680422C3F800252C238A
:108E780003FB08530022C3E9062283F829205A611C
:108E8800012283F82A203846BDE8F883094A03F00E
:108E98000F03D154E7E70827F5E71127F3E700BFE9
:108EA800EC230020C18B0200000300508000020068
:108EB80000E100E014ED00E02DE9F04103680579D8
:108EC800284C0022C3F800252C2202FB054201464B
:108ED8005268A2B1244AC3F808231A0B43F3073394
:108EE800002B0CDB02F01F005B09012282402033BB
:108EF8001E4840F82320BFF34F8FBFF36F8F0B68D6
:108F0800D3F80C05D3F81485D3F80865D3F8107591
:108F18004FF0FF329042C3F81425C3F80C25C3F86C
:108F28000825C3F8102501D0FFF7E6FEB8F1FF3F8A
:108F380002D04046FFF7E0FE7A1C02D03846FFF721
:108F4800DBFE731C02D03046FFF7D6FE0868FFF739
:108F5800E9FD2C2303FB0544002384F82A306360D1
:108F6800BDE8F081EC2300208402020000E100E06B
:108F78000279044B2C2101FB02335869003818BFD1
:108F880001207047EC2300202DE9F84F064690F8A1
:108F9800048089469246FFF7EBFF044600283CD13F
:108FA800204F2C2508FB057B4FF48E71CBF814A0BD
:108FB800CBF80890CBF820008BF828003068FFF732
:108FC800BDFD3068012383605946FFF7BFFDDBF81C
:108FD80004305D461BBB3068DBF814402B6A9C42AA
:108FE80011D83368D3F81C21002AFBD00122DA609B
:108FF80000202C2303FB087700237B61BDE8F88F52
:1090080095F828303BB9D0F81C31002BF8D05946D8
:10901800FFF79CFDE2E70F20EBE71120EEE7204683
:10902800ECE700BFEC2300200023435082B04358F4
:109038000193019B02B070471FB501238DF80030E2
:10904800044BCDE90110D3E900126846904705B0FA
:109058005DF804FB182400207FB5434AD2F8246148
:10906800002E60D010464FF49271FFF7DDFF022307
:109078008DF80030D2F88034C2F880340393D2F8E7
:109088003C350293394BDA6801920022C3E9062283
:109098006846D3E9001290473348D0F8443173B199
:1090A8004FF4A271FFF7C0FF304B9A693AB1002222
:1090B800C3E90622D968D0F83C05FFF7BDFF2A4866
:1090C800D0F82031ABB14FF49071FFF7ADFF012319
:1090D800C360264B5A6962B1D0F84C150291002240
:1090E80099688DF8002001915A616846D3E9001209
:1090F80090471D48D0F858319BB14FF4AC71FFF739
:1091080093FF1A4B5A6962B1D0F84C1502910022AC
:1091180099688DF8002001915A616846D3E90012D8
:10912800904704B070BDD2F81031002BB4D04FF482
:1091380088711046FFF778FF0C4BD2F83C05996907
:109148008842A9D1DC69D96864B1D2F8005225F007
:109158002005C2F800521A699C61DA60DE61FFF7E7
:109168006BFF99E79C61FAE7002000401824002073
:109178001F2886BF00F01F00044B4FF0A04300F5E6
:10918800E070022243F82020704700BF000300501F
:109198002DE9F843664E90F80480242303FB086306
:1091A800044693F820300D469146002B40F0BC80D1
:1091B80060490068FFF794FC0746002840F0B68035
:1091C80029684B1C10D01F2987BF5B4A01F01F0379
:1091D8000B464FF0A0420120984003F5E073C2F817
:1091E8000805032042F823006A68501C0DD01F2A86
:1091F8008BBF02F01F0313464F484FF0A04003F502
:10920800E0734FF0000C40F823C02068AB69C0F849
:10921800243595F814C06B7DBCF1010F4CEA0303AB
:10922800C0F86C35C0F80C15C0F814252BD1AB6804
:10923800591C0DD01F2B8BBF03F01F021A463E4945
:109248004FF0A04102F5E0724FF0000C41F822C047
:10925800E9684A1C13D01F2987BF374A01F01F0C41
:109268008C464FF0A0424FF0010E0EFA0CFE0CF5A2
:10927800E07CC2F808E54FF0030E42F82CE0C0F895
:109288000815C0F81035242202FB08F2B318C3F8F9
:1092980004902B69B350B9F1000F2FD04FF48871A7
:1092A8002A7FFFF7C1FE20684FF49071FFF7BCFEDC
:1092B80020684FF49271FFF7B7FE20684FF4A2714F
:1092C800FFF7B2FE4FF4AC712068FFF7ADFE2368DC
:1092D8001A49C3F80413190B43F307335201002B3F
:1092E800D2B21CDB1648C51885F8002301225B0999
:1092F80001F01F0102FA01F140F823102368082247
:10930800C3F80025242303FB08660023C6E90633B7
:109318007361012386F820303846BDE8F883094B8D
:1093280001F00F015A54E9E70827F5E71127F3E799
:10933800182400206190020000030050100342002E
:1093480000E100E014ED00E02DE9F0413D4D067923
:109358000468242303FB065302465B68ABB13A4B0F
:10936800C4F8083344F30733002B4FEA14310CDBFD
:1093780001F01F005B09012181402033334840F888
:109388002310BFF34F8FBFF36F8FD4F8003223F051
:109398002003C4F80032242303FB06539B6933B12E
:1093A8004FF4A2712046FFF73FFE012363604FF49C
:1093B800AC712046FFF738FE0123E360242303FB4A
:1093C8000653D4F858110029FBD0996919B1D4F87B
:1093D80044110029F5D00023C4F800351368D3F8E8
:1093E8000C05D3F81485D3F80815D3F810754FF089
:1093F800FF329042C3F80C25C3F81425C3F808259A
:10940800C3F8102501D0FFF7B3FEB8F1FF3F02D033
:109418004046FFF7ADFE7A1C02D03846FFF7A8FE9B
:109428004B1C02D00846FFF7A3FE2046FFF77AFB45
:10943800242303FB0655002385F820306B60BDE824
:10944800F08100BF182400201003420000E100E072
:109458000279044B242101FB02335869003818BFF4
:10946800012070471824002001F06043B3F1005F29
:109478002DE9F0470646884692463BD190F804907D
:10948800FFF7E6FF0446002836D11D4F3068242533
:1094980005FB09754FF49071C5F814A0C5F808804C
:1094A800FFF7C2FD4FF4AC713068FFF7BDFD3368BC
:1094B8006A69A968C3F84415C3F8482501229A6067
:1094C8006A68DAB9D3F82021D3F858011AB9002804
:1094D800F8D00F2007E00028FBD10122DA60D3F88A
:1094E8005821002AFBD0242303FB097700237B6142
:1094F800BDE8F0871020FBE71120F9E72046F7E7E1
:1095080018240020032811D8012A0AD101290FD1D3
:1095180000F10E02D2B20D4B00EB40001A540020AD
:1095280070470129F7D0022904D049B107207047B4
:109538000022F8E7054B00EB400018444270EEE7C4
:10954800024B00EB400018448270E8E73C240020FE
:1095580008B5012202210020FFF7D4FF08B107282F
:1095680010D1072202210120FFF7CCFF08B10728FC
:1095780008D100210A220846FFF7C4FF10B10728C6
:1095880008BF002008BD00000388102B10B502D0CA
:10959800112B1ED010BD1A4C2168B1B90122084602
:1095A800FFF7B0FF08B1072824D1072202210120C4
:1095B800FFF7A8FF08B107281CD1042202210020C8
:1095C800FFF7A0FF08B1072814D1236801332360EF
:1095D800E0E70B4A1368013B1360002BDAD1FFF771
:1095E800B7FF0028D6D0074B1B68002BD2D0BDE8A8
:1095F80010401847034B1B68002BE6D09847E4E758
:109608004C2400204824002000B58BB003239FED94
:10961800138A0293124B0193124B9FED131A9FED7D
:10962800130A13480093F0EE480A124B04227521DE
:1096380000F038F9104B0E48069305AA0F4B079314
:1096480006A900F041F90E4B0948069305AA06A998
:109658008DED078A00F038F9FEE700BF0000000032
:10966800909D02001CA302002AFEEF3AE37B7B3F99
:1096780050240020A09D0200CDCCCC3ECDCCCC3DCA
:10968800000040400AB1FEF76BBBFEF772BB73B532
:109698000191019C06466CB100252C46294601A87B
:1096A800FEF771FB18B106EB440301349D800135C8
:1096B800142DF3D13046346002B070BD2DE9F04767
:1096C80003888488103B8CB005460A2B21D8DFE834
:1096D80003F0064020202020202020654700DFF8E6
:1096E800E880D8F80830DB430093D8F804106846BF
:1096F800FEF775FB009901A8FFF7C9FF0DF10809EE
:109708000027019B9F4207D3132C12D90420FEF790
:109718009FFA0CB0BDE8F08739F802AB0026013695
:10972800514608EB8600FEF724FB1E2EF7D10137C1
:10973800E7E71F482146FEF713FB1E482146FEF7C0
:109748000FFBEB7B022BE4D11B482146FEF708FBFD
:10975800DFE7174821460CB0BDE8F047FEF709BB24
:10976800027A16483F2A4FEA1215214694BF002272
:109778000122FFF787FF022D94BF00220122104823
:109788002146FFF77FFF012D0E4894BF00220122DA
:1097980021460CB0BDE8F047FFF774BF037A002BF1
:1097A800B7D1427A0548C2F3C0022146F1E700BFAB
:1097B8007C24002078240020802400208C24002091
:1097C800882400208424002074240020014B187869
:1097D800704700BFF024002007B508496846FEF727
:1097E800E9FD019B13B903B05DF804FBD3E9002040
:1097F80090476846FEF7E8FDF3E700BFACAA020011
:10980800FFF7EABF61DF704730B5134B1B7891B0A3
:10981800FBB1124D34240DF1020103A8ADF802404A
:10982800FFF7F0FF70B9294601A8FEF7C3FD029BB8
:10983800002BF0D003A8D3E90021904701A8FEF738
:10984800C3FDF4E7052804D011B0BDE83040FEF7A9
:10985800FFB911B030BD00BFF1240020C4AA020036
:109868004BDF70471FB50E4C01A8FFF7F9FF70B921
:10987800214602A8FEF79EFD039B002BF4D0019819
:10988800D3E90021904702A8FEF79EFDF4E70528DA
:1098980004D004B0BDE81040FEF7DAB904B010BD3A
:1098A800DCAA020010B5DDE902EC049CC0ED070A51
:1098B80080ED081AC0E9033EC0E905C480ED020A3C
:1098C800C0E9001210BD00002DE9F04F81B02DED68
:1098D8000A8B82B00192824690ED028A0068E8B352
:1098E800DAE900B4DAF818609AED079A9AED08AA4E
:1098F800A1F10409DAE903574FF000089FED21BAF6
:1099080012E0B0EE4B1AB0EE490A01EE0A0A05EB76
:10991800880090ED00CA304600F036F80CEE008A58
:1099280008F10108D84519D2002CEAD0DAF8040069
:10993800012898BF0120391F4A460346B0EE4B1A4A
:1099480091ED010A92ED012A02EE001A0432013B60
:1099580001F10401F4D107EB8007D4E7DAF8140029
:109968000021B5EE408AF1EE10FA88BF012150F8C7
:1099780021000199086002B0BDEC0A8B01B0BDE876
:10998800F08F00BF000000000228B8BF7047013008
:10999800B0EE401A21EE001A01380228FADCB0EEC7
:1099A800410A70477F2805D8034A044B105C5B5C6A
:1099B8001840704700207047F4AA020074AB0200F8
:1099C800A0F16103192B98BF20387047A0F141031B
:1099D800192B98BF203070477F299ABF017001204A
:1099E8006FF02E00704700BF5AB10A787F2A0AD854
:1099F80000B102600021501AC3E9001118BF01200C
:109A08007047104670476FF02E007047A0F1610351
:109A1800192B98BF20387047A0F14103192B98BF24
:109A2800203070477F2805D8034A044B105C5B5CE4
:109A38001840704700207047F4AA020074AB020077
:109A4800024B5B689B6809211B681847E81D0020CA
:109A5800844640EA010313F0030F18D18446202AF4
:109A68000BD32DE9F007B1E8F807A0E8F807A2F151
:109A78002002202AF7D2BDE8F007042A07D351F8BC
:109A8800043B40F8043BA2F10402042AF7D2002A5E
:109A980005D011F8013B00F8013B013AF9D16046C5
:109AA800704700F1010110F0030F11D010F8012BDD
:109AB800002A23D010F0030F0AD010F8012B002A37
:109AC8001CD010F0030F03D010F8012B002A15D07A
:109AD8002DE970004FF001324FF0803350F8044BFD
:109AE800A4EB020525EA04051D4000D1F6E7A0F124
:109AF800040070BC10F8012B002AFBD1A0EB010078
:049B080070470000A2
:089B0C00598602000000000070
:109B1400C5960200000000009195020000000000BC
:109B2400729D020000000000789D02000000000009
:109B34007F9D020000000000839D020000000000E1
:109B4400889D020000000000469C02000000030300
:109B5400109D020000000000349D0200000000007F
:109B64006CAA02000000030399AA02000000030388
:109B740090AA0200000003036C9D02000000000094
:109B840078AA02000000030385AA02000000030370
:109B9400A3AA020000000303B8AA02000000030302
:109BA400D0AA0200000003034E9D02000000000042
:089BB400579D020000000000B3
:109BBC00401E0020081F0020101F0020481E0020FF
:049BCC00180000007D
:089BD000F58602000000000010
:109BD80011980200000000006D98020000000000CB
:109BE800189C020000000000249C0200DC1D0020DC
:109BF800FFFFFFFFFFFFFFFFFFFFFFFFFFFFFFFF6D
:109C080000000000000000000000D601060100006E
:109C1800D97402003D75020089740200756172747E
:109C28005F6C6F675F6261636B656E64004261635E
:109C38006B656E647320666C75736865640061702B
:109C480070001B5B313B33316D0025734C6F6773BC
:109C58002064726F70706564202825642925730D4F
:109C68000A001B5B306D002573003C25733E2025E0
:109C7800733A2000202530327800202020007C0014
:109C88002563001B5B313B33306D001B5B313B337D
:109C9800326D001B5B313B33336D001B5B313B3353
:109CA800346D001B5B313B33356D001B5B313B333F
:109CB800366D001B5B313B33376D007761726E691F
:109CC8006E6700696E666F00646562756700000004
:109CD8006A9C02008B9C02004A9C0200939C020032
:109CE8009B9C0200A39C0200AB9C0200B39C020058
:109CF800BB9C020000000000219D0200C39C0200E2
:109D0800CB9C0200D09C02006170705F6275747415
:109D18006F6E00466174616C206572726F720053D9
:109D2800797374656D207265736574006170705F16
:109D380074696D65720030313233343536373839ED
:109D48004142434445467077725F6D676D74007396
:109D58006F72746C697374000000000001010100E7
:109D680000000000636C6F636B00434C4F434B0073
:109D78004750494F544500505253005541525400E2
:109D88005541525445000000000000000100000049
:109D980002000000030000007C08443F0000803FF0
:109DA8000000803F0000803FB6B01E3F4B9B583FED
:109DB8000000803F0000803F0000803F000000005E
:109DC8000000803F0000803F00000000000000000D
:109DD8000000803F00000000000000000000803FFD
:109DE800000000000000803F0000803F00000000ED
:109DF8000000803F0000000000000000000000009C
:109E08000000803F0000803F0000803F0000803F4E
:109E18000000803F0000803F5EC5C73E0000803FD5
:109E280092FA783F07FB963E000000000000803F52
:109E38000000803F000080BF000080BF000080BF9E
:109E4800000080BF000080BF000080BF000080BF0E
:109E5800278B14BF036E27BF000080BF000080BFA0
:109E6800000080BF000080BF000080BF000080BFEE
:109E7800000080BF000080BF000080BF000080BFDE
:109E8800000080BF000080BF8A4445BF81677FBF54
:109E98000C0A63BF000080BF000080BF000080BFC5
:109EA80000000080000000800000008000000080AA
:109EB80000000080000080BF0000008000000080DB
:109EC80000000080000000801940AABE0000008049
:109ED800000000800000008000000080000080BFBB
:109EE800000000800000008000000080000000806A
:109EF80000000080000080BFBC751CBF000000800F
:109F08000000008000000080000080BFF8F86BBFF0
:109F18002964F0BE000080BF000080BF0000008000
:109F28000000008000000080000000800000008029
:109F3800000000805279C5BD000080BF000000808D
:109F48000000008000000080000000800000008009
:109F580000000080000000800000008000000080F9
:109F68000000008000000080000000800000000069
:109F780000000000000000000000000000000000D9
:109F880000000000000000000000000000000000C9
:109F98008461C03C00000000000000000000803F19
:109FA8002187433F000000000000803F00000000C0
:109FB8000000000082C6BB3E000000000000000058
:109FC80092DD4C3F00000000C84A7D3F00000000C1
:109FD8000000000000000000000000000000000079
:109FE8000000000000000000000000000000000069
:109FF8000000000000000000000000000000000059
:10A008000000000000000000000000000000000048
:10A018000000000000000000000000000000000038
:10A028000000000000000000000000000000000028
:10A038002778283F00000000000000000000803F53
:10A048000000000000000000000000000000000008
:10A0580000000000000000000000000000000000F8
:10A068000000000000000000000000003765743F99
:10A0780000000000E7A8FCBD000000800000008090
:10A088000000008000000080BAAC15BF000000800E
:10A0980000000080000000800000008000000080B8
:10A0A80000000080000000800000008000000080A8
:10A0B800B7565CBE000000800000008000000080F1
:10A0C8000000008000000080000080BF00000080C9
:10A0D800000000800000008000000080D88530BFAC
:10A0E800552536BE0000008000000080000080BFBB
:10A0F8000000008000000080000000800000008058
:10A1080000000080000000807D0DA8BE000080BF18
:10A118000000008000000080000000800000008037
:10A128000000008000000080000000800000008027
:10A138000000008000000080000000800000008017
:10A148000000000000000000000000000000000007
:10A1580000000000000000000000000000000000F7
:10A16800000000001283933E000000000000000081
:10A178000000803F00000000000000001558663F06
:10A188000000803F00000000000000000000000008
:10A19800000000002EDD593D000000000000000016
:10A1A80049458F3EABF1FB3C000000000000000079
:10A1B8000000000000000000000000000000000097
:10A1C8000000000000000000000000000000000087
:10A1D80094A06F3F00000000000000000000000095
:10A1E8000000000000000000000000000000000067
:10A1F8000000000000000000000000000000000057
:10A20800000000000000803F000000000000000087
:10A21800A7DC3D3F00000000000000000000000037
:10A228000000000000000000000000000000000026
:10A238000000000000000000000000000000000016
:10A248006DB3433F00000000000000004356913EFC
:10A258000000803F0000803F0000803F00000000B9
:10A268000000803F0000803F0000803F0000803FEA
:10A278000000000055D03D3F0000803F0000803FB7
:10A288000000803F0000803F0000803F0000803FCA
:10A298000000803F0000803F0000803F0000000079
:10A2A800000000000000803F0000803F0000803F69
:10A2B8000000803F00000080000080BF000080BFD9
:10A2C800000080BF000080BF000080BF1A0E41BFA1
:10A2D800000080BF000080BF000080BF000080BF7A
:10A2E80000000080000080BF000080BF000080BF29
:10A2F800000080BF000080BF000080BF000080BF5A
:10A30800000080BF000080BF000080BFC1538CBE2A
:10A318007C437FBF000058C2000094C2000098C26E
:10A328000000AAC2000064C2000094C20000B2C2C9
:10A338000000AAC2000064C2000092C2000096C2D7
:10A348000000ACC2000064C2000092C2000098C2C3
:10A358000000ACC2000038C2000092C20000AAC2CD
:10A368000000A8C2000040C2000084C20000AAC2C7
:10A378000000AAC2000038C2000094C20000ACC2AB
:10A388000000AAC2000064C2000092C20000B4C269
:10A398000000AAC2000038C2000094C20000AAC28D
:10A3A8000000AAC2000038C2000070C20000AAC2A1
:10A3B8000000A8C2000060C2000092C20000B4C23F
:10A3C8000000AAC2000058C2000094C2000098C24F
:10A3D8000000AAC2000064C2000080C2000098C247
:10A3E8000000A8C200006CC2000092C20000AAC20D
:10A3F8000000A8C2000038C2000094C20000AAC22F
:10A408000000A8C200006CC2000092C2000096C200
:10A418000000A0C2000058C2000086C2000096C218
:10A428000000A0C2000064C2000092C2000096C2F0
:10A438000000ACC200006CC2000092C2000096C2CC
:10A448000000A8C2000038C2000094C20000ACC2DC
:10A458000000A8C2000038C200008AC20000AAC2D8
:10A468000000AAC2000068C2000092C20000B6C282
:10A478000000A0C2000064C2000092C20000B6C280
:10A488000000A8C200006CC2000092C2000096C280
:10A498000000A8C200006CC2000092C2000096C270
:10A4A8000000AAC2000020C2000080C2000086C2CC
:10A4B8000000A8C2000064C2000094C20000B4C238
:10A4C8000000A8C2000058C2000094C2000098C250
:10A4D8000000AAC2000064C2000094C20000B2C218
:10A4E8000000AAC2000064C2000092C2000096C226
:10A4F8000000ACC2000038C2000092C20000AAC22C
:10A508000000A8C2000038C2000092C20000AAC21F
:10A518000000A8C2000064C2000092C20000B4C2D9
:10A528000000A8C2000064C2000092C2000098C2E5
:10A538000000ACC2000038C2000092C20000AAC2EB
:10A548000000A8C2000040C2000084C20000AAC2E5
:10A558000000AAC200006CC2000092C2000096C2AD
:10A568000000AAC2000038C2000094C20000ACC2B9
:10A578000000AAC2000064C2000092C20000B4C277
:10A588000000AAC2000050C200008EC20000B4C27F
:10A598000000B2C2000030C2000090C20000ACC28D
:10A5A8000000B4C2000058C2000096C20000A2C257
:10A5B8000000B2C2000058C2000096C20000A0C24B
:10A5C8000000B4C2000058C2000096C20000A2C237
:10A5D8000000B2C2000058C2000096C20000A2C229
:10A5E8000000B2C2000058C2000096C20000A2C219
:10A5F8000000B2C2000040C200008EC20000ACC21F
:10A608000000B4C200002CC200009AC20000ACC214
:10A618000000B4C2000058C2000094C20000B6C2D4
:10A628000000B2C2000058C2000092C20000A0C2DE
:10A638000000B4C2000040C200008EC20000B2C2D6
:10A648000000ACC2000058C2000094C20000A0C2C2
:10A658000000B4C2000060C200008EC20000B2C296
:10A668000000ACC2000050C200008EC20000B4C29C
:10A678000000B2C2000030C2000090C20000ACC2AC
:10A688000000B4C2000058C2000096C20000A2C276
:10A698000000B2C2000058C2000096C20000A0C26A
:10A6A8000000B4C2000058C2000096C20000A2C256
:10A6B8000000B2C2000058C2000096C20000A2C248
:10A6C8000000B2C2000058C2000096C20000A2C238
:10A6D8000000B2C2000050C200008EC20000B4C226
:10A6E8000000B4C200002CC200009AC20000ACC234
:10A6F8000000B4C2000058C2000094C20000A2C208
:10A708000000B4C2000058C2000094C20000B6C2E3
:10A718000000B2C2000058C2000092C20000A0C2ED
:10A728000000B4C2000040C200008EC20000B2C2E5
:10A738000000ACC20000B2C2000080C20000A2C289
:10A748000000A0C200008AC200007CC20000A2C2B1
:10A758000000A0C2000088C200007CC20000A4C2A1
:10A768000000A2C2000098C2000078C200008CC29B
:10A778000000A2C2000098C2000068C200008CC29B
:10A788000000A4C200008AC2000084C20000A4C263
:10A798000000A6C200008AC200007CC20000A2C25B
:10A7A8000000A0C2000096C2000068C20000A4C257
:10A7B8000000A4C2000096C200007CC200008CC247
:10A7C8000000A2C2000096C200007CC200008CC239
:10A7D8000000A4C200008AC2000084C20000A2C215
:10A7E8000000A6C2000098C200006CC20000A4C20B
:10A7F80000009CC200008AC200007CC20000A2C205
:10A808000000A2C2000096C200007CC200008CC2F8
:10A818000000A2C200008AC2000082C2000098C2E2
:10A828000000A2C2000086C2000080C200008CC2E4
:10A838000000A4C200008AC200007CC20000A2C2BC
:10A848000000A0C200008AC2000082C2000098C2B4
:10A858000000A2C200009AC2000078C200008CC2A8
:10A868000000A4C2000088C200007CC20000A0C290
:10A878000000A0C2000088C200007CC20000A2C282
:10A8880000009AC2000088C2000082C20000A2C272
:10A898000000A6C2000088C2000082C20000A0C258
:10A8A8000000A0C2000088C2000080C20000A0C250
:10A8B8000000A2C2000088C2000080C20000A0C23E
:10A8C8000000A0C2000088C2000080C20000A0C230
:10A8D8000000A0C2000084C2000080C20000A0C224
:10A8E8000000A0C2000084C2000070C2000092C232
:10A8F8000000B0C2000084C2000070C2000096C20E
:10A908000000A0C2000084C2000070C2000096C20D
:10A918000000A0C2000086C2000086C2000092C2E9
:10A928000000A4C2000086C2000070C2000096C2E7
:10A938000000A2C2000086C2000070C2000096C2D9
:10A948000000A2C2000084C2000070C2000096C2CB
:10A958000000A2C2000084C2000070C2000096C2BB
:10A968000000A2C2000094C2000058C200009EC2AB
:10A978000000A2C2000084C2000070C2000096C29B
:10A988000000A2C20000AEC2000058C200009AC275
:10A998000000A2C2000074C2000070C2000092C28F
:10A9A8000000A4C2000084C2000070C2000096C269
:10A9B8000000A2C2000084C2000070C2000096C25B
:10A9C8000000A2C2000084C2000070C2000096C24B
:10A9D8000000A2C2000096C2000058C200009AC23D
:10A9E8000000A2C2000096C2000058C200009AC22D
:10A9F8000000A2C2000084C2000070C2000096C21B
:10AA08000000A2C2000084C2000070C2000096C20A
:10AA18000000A2C2000094C2000058C200009AC2FE
:10AA28000000A2C2000084C2000070C2000096C2EA
:10AA38000000A2C2000084C2000070C2000096C2DA
:10AA48000000A2C2000094C2000058C200009AC2CE
:10AA58000000A2C2000084C2000070C2000096C2BA
:10AA68000000A2C2626C655F64625F646973630020
:10AA78006E72665F626C655F67617474006E7266A1
:10AA88005F626C655F677100626C655F7363616EBE
:10AA980000626C655F6C62735F63006E72665F7301
:10AAA80064680000D89B0200E89B020008000000D0
:10AAB8006E72665F7364685F626C6500149B020067
:10AAC800249B0200080000006E72665F7364685F72
:10AAD800736F63000C9B0200149B020008000000C7
:10AAE80043000000504F5349580000002020202008
:10AAF80020202020206828282828202020202020E6
:10AB08002020202020202020202020204810101045
:10AB1800101010101010101010101010848484845D
:10AB28008484848484841010101010101081818112
:10AB3800818181010101010101010101010101017D
:10AB48000101010101010110101010101082828210
:10AB5800828282020202020202020202020202024D
:10AB68000202020202020210101010200007032045
:10AB7800041702010857104080000000E8AA0200EC
:10AB8800ECAB020000AD020053756E004D6F6E0015
:10AB9800547565005765640054687500467269000D
:10ABA80053617400000000004A616E00466562004F
:10ABB8004D617200417072004D6179004A756E00F6
:10ABC8004A756C0041756700536570004F637400E7
:10ABD8004E6F76004465630000000000414D005050
:10ABE8004D00000024AD020020AD020020AD02009F
:10ABF80020AD020020AD020020AD020020AD020011
:10AC080020AD020020AD020020AD0200FFFFFFFFD3
:10AC1800FFFFFFFFFFFFFFFFFFFF000060AC020028
:10AC280090AB02009CAC0200B0AB0200E4AB0200A7
:10AC380044AC0200F4AC020050AC0200256D2F2594
:10AC4800642F2579000000002561202562202565F4
:10AC5800202554202559000053756E646179004DF4
:10AC68006F6E646179005475657364617900576526
:10AC7800646E657364617900546875727364617990
:10AC88000046726964617900536174757264617910
:10AC9800000000004A616E75617279004665627253
:10ACA80075617279004D6172636800417072696CF8
:10ACB800004D6179004A756E65004A756C790041EE
:10ACC80075677573740053657074656D626572009D
:10ACD8004F63746F626572004E6F76656D62657260
:10ACE80000446563656D62657200000025483A2579
:10ACF8004D3A255300000000AD990200C9990200A1
:10AD0800D59902002D9A0200159A0200219A020094
:10AD1800E1990200F1990200000000002E000000F5
:10AD2800000000000020004000000000002000405B
:10AD38000000000000000000FF0000000090D003A9
:10AD480084AB020084AB020084AB020084AB020037
:04AD580084AB0200C6
:040000032000735D09
:00000001FF
