:10100000000004205D13000045130000471300009A
:10101000491300004B1300004D13000000000000B6
:101020000000000000000000000000004F1300005E
:10103000511300000000000053130000551300007E
:101040006DBF000099D20400571300005713000031
:101050005713000057130000C5B4000057130000D9
:1010600057130000571300005713000057130000D8
:101070005713000081C903005713000057130000E5
:1010800057130000B18C00005713000057130000E5
:1010900057130000571300005713000057130000A8
:1010A0005713000057130000571300005713000098
:1010B000571300005713000000000000000000005C
:1010C0005713000057130000571300005713000078
:1010D00045B70300571300005713000019E1000043
:1010E00057130000571300005713000000000000C2
:1010F000000000005713000000000000571300001C
:1011000000000000000000000000000000000000DF
:1011100000000000000000000000000000000000CF
:1011200000000000000000000000000000000000BF
:1011300000000000000000000000000000000000AF
:10114000000000000000000000000000000000009F
:10115000000000000000000000000000000000008F
:10116000000000000000000000000000000000007F
:10117000000000000000000000000000000000006F
:10118000000000000000000000000000000000005F
:10119000000000000000000000000000000000004F
:1011A000000000000000000000000000000000003F
:1011B000000000000000000000000000000000002F
:1011C000000000000000000000000000000000001F
:1011D000000000000000000000000000000000000F
:1011E00000000000000000000000000000000000FF
:1011F00000000000000000000000000000000000EF
:10120000314932480A1A02D0072291438D463049AB
:1012100030480A1A06D00722914381F30988022236
:1012200082F314882C482D492D4A00F03CF82D48B3
:101230002D492E4A00F037F82D482E492E4A00F04D
:1012400032F82E482E492F4A00F02DF82E482F490B
:101250002F4A00F028F82F482F49304A00F023F891
:101260002F483049304A00F01EF8304830490022FB
:1012700000F024F82F483049002200F01FF82F4AD0
:1012800090471F481F49884205D00268043003B4C4
:10129000904703BCF7E700208646EC46002000217B
:1012A000274A9047FEE7884207D0521A05D00378B4
:1012B00001300B700131013AF9D17047884202D0F8
:1012C00002700130FAE770470000042000E00320BC
:1012D00000000420000004204067060008000020F1
:1012E0008D010020B8130000B8130000D8BA050023
:1012F00040670600080000200800002064BB0500CD
:1013000064BB050064BB050064BB050064BB05004D
:1013100064BB050064BB050064BB050040670600B4
:10132000C868060090010020900100209001002074
:101330004A4601204C4601205046012085130000FA
:10134000EDFD0000FEE7FEE7FEE7FEE7FEE7FEE755
:10135000FEE7FEE7FEE7FEE700F002B8FFF7FCBF9E
:101360000F484FF00701884385460E4880470E48D6
:10137000016841F470010160BFF34F8FBFF36F8FBD
:10138000FFF73EBF09480A490A4A884207D0521A65
:1013900005D0037801300B700131013AF9D1704763
:1013A00000000420C529000088ED00E064BB0500B2
:0813B0000800002008000020E5
:1013B8000048704744460120FEE7000000B585B0AC
:1013C8000190019B002B0AD0074B43F001030393C4
:1013D800019B9B010293039B0298984700E000BF82
:1013E80005B05DF804FB00BF70BB050000B583B015
:1013F8000190019B002B0AD04FF47A70FFF7DEFFB3
:10140800019B013B0193019B002BF5D100E000BF3C
:1014180003B05DF804FB08B50EF0A0FE00BF08BDE0
:1014280000B589B0039002910192019B002B33D043
:101438000023079303230693029A079B1344019AF8
:10144800194600200EF00CFE0590079A059B1344E0
:101458000793019A059BD31A0193059B002B13D17F
:101468000F4B1B7883F00103DBB2002B13D1012053
:10147800FFF7BCFF069B013B0693069B002B03D19D
:10148800074B00221A7007E0054B01221A70019BD6
:10149800002BD1D100E000BF00BF09B05DF804FB0C
:1014A8009001002000B585B003900291054B009390
:1014B8004023054A0299039800F012F800BF05B0CE
:1014C8005DF804FB291400009401002082B001900B
:1014D80000BF02B0704782B0019000BF02B07047F1
:1014E80000B5A1B00590049103920293049808F006
:1014F800A7FC039B1593029B1693002317930023C5
:101508008DF8603000231993229B1A9300231F93B0
:101518000FA91F9B0822049808F06CFD08231F934D
:10152800119B1293BDF84030ADF84C30BDF84230F5
:10153800ADF84E3000238DF851309DF83C3003F063
:101548000303DBB2012B26D10F9BC3F395231C9316
:101558009DF83C30C3F3C203DBB28DF85030BDF8C0
:101568003C30C3F38313DBB21B931B9B9A0009A97E
:101578001F9B049808F03EFD1B9B9B001F9A134479
:101588001F9312AA09A915AB009313461B9A1C981E
:1015980000F0C8FE2FE09DF83C3003F00303DBB2F7
:1015A800022B28D1BDF83E30C3F389139BB21E939A
:1015B8009DF83C30C3F3C203DBB28DF850301E9B5C
:1015C800082B28BF08231D9307A91F9B1D9A049861
:1015D80008F010FD1F9A1D9B13441F931E9A1D9B14
:1015E800D31A1E9315AB12AA07A81D9900F03CFF49
:1015F8001E9B002BE3D1049808F031FC00BF21B0FA
:101608005DF804FB82B00190019BDB6801225A71EE
:1016180000BF02B07047000000B583B04FF0FF3341
:101628000193FFF7F8FE0421084800F095FD0190AA
:10163800019B002B03DA0649412007F0D5FC03483B
:10164800FFF7E0FF00BF03B05DF804FB40BB0500F7
:1016580088BB050000B583B001900091019B1B6811
:101668001B6800990198984700BF03B05DF804FB18
:1016780000B583B00190019B1B685B68019898478F
:1016880000BF03B05DF804FB00B583B00190019B77
:101698001B689B680198984700BF03B05DF804FB7E
:1016A80082B001900B468DF80330019BDB689DF8F2
:1016B80003201A7100BF02B0704782B00190019BED
:1016C800DB681B79184602B0704782B00190019B15
:1016D800DB6801225A7100BF02B0704782B00190E6
:1016E800019BDB685B79184602B0704700B585B08E
:1016F80001900091154BFF229A60144B00221A604A
:10170800124B00225A60114B0022C3F818240F4BC9
:101718000022C3F814240D4B002283F820240C481F
:1017280008F0F2FA0390039B002B01D0039B08E01A
:10173800084808F07FFC084A084BD31ADB080293D4
:101748000023184605B05DF804FB00BF3C030020E9
:1017580050BB050008BC050040BB0500D8BA050011
:10176800024A034BD31ADB081846704740BB0500F2
:10177800D8BA050000B587B001900B468DF8033044
:101788009DF80330002B1FD0FFF7EAFF04900023D9
:10179800059313E0059B9B000E4A13440393039B98
:1017A8001B881A46019B1B689A4204D1019B059A23
:1017B8001A60002309E0059B01330593059A049BF1
:1017C8009A42E7D3052300E00023184607B05DF8E6
:1017D80004FB00BF0800002000B585B001900B464F
:1017E8008DF803309DF8032001AB11461846FFF72A
:1017F800C1FF0346002B07D1019BDB00054A1344B8
:101808000393039B1B6800E00023184605B05DF8AE
:1018180004FB00BFD8BA050084B001900B468DF8D0
:101828000330019BDB00174A134402939DF80330F1
:10183800013B032B1CD801A252F823F055180000D5
:101848005D180000651800006F18000002238DF86D
:101858000F3011E004238DF80F300DE0029B1B7947
:101868008DF80F3008E0029B5B798DF80F3003E0AC
:1018780000238DF80F3000BF9DF80F30184604B0D4
:10188800704700BFD8BA050084B0019000910023CA
:101898008DF80F30019B1B7803F00403DBB2002B9B
:1018A80024D0019B1B78C3F30103DBB2012B02D0C8
:1018B800022B0CD017E0009B1B68019A1288C2F318
:1018C8008312D2B213449A1C009B1A600BE0009B4F
:1018D8001B68019A5288C2F3891292B213449A1C67
:1018E800009B1A6000BF01238DF80F309DF80F3060
:1018F800184604B07047000000B58BB00023ADF85F
:1019080026303E4807F01AFD3D4807F017FD3D4BCD
:101918005B6804933B4B9B680693049A069B1340B1
:1019280002339B00374A13440433089304AB194627
:101938000898FFF7A9FF0346002B09D0049A069BD5
:10194800134002339B002F4A134404330893EDE7F6
:1019580000BF0023079311E0049B5A1C0492069AC7
:101968001340079A920001A90A44264902339B00B2
:101978000B445B681360079B01330793079B012B9C
:10198800EAD99DF80430C3F30103DBB2012B10D070
:10199800022B1CD1BDF80A30ADF82630BDF8063050
:1019A800C3F389139BB203339A08049B134404932B
:1019B80013E0BDF80A30ADF82630BDF80430C3F3A3
:1019C8008313DBB21A46049B1344049305E00E49C3
:1019D8004FF4BF7007F008FB00BF094807F0BAFCD6
:1019E8000590059B002B02D0049B064A5360BDF866
:1019F800263018460BB05DF804FB00BF54070020E2
:101A0800500700203C03002018BC050000B585B035
:101A18000021074807F001FC0390039B0293029BF7
:101A280083F310030193019B184605B05DF804FB8E
:101A38005807002000B589B00390029101920093E5
:101A4800039B1B0C0793FFF7E1FF0690FFF788FE47
:101A58000246079B934204D3214940F2A31007F0A2
:101A6800C3FA069B1904009B5A1C0A9B1340079A49
:101A78000A431C4902339B000B445A60009A0A9B94
:101A8800134002339B00174A134404330593039B06
:101A980003F00703D9B2059A137861F3C5031370ED
:101AA800019B03F00F03D9B2059A138861F38913D8
:101AB8001380029BC3F31501059A136861F39F23F2
:101AC8001360059A1378012161F301031370059AD5
:101AD80013786FF38203137000BF09B05DF804FB3D
:101AE80018BC05003C03002000B58BB003900291A0
:101AF80013468DF80730039B0233089301238DF8B2
:101B08001F30002006F0B2FC3E4B1A68029B1A6098
:101B18003C4B9A683B4B59683A4B1B68CB1A1344A9
:101B28000133099314E00121374807F0BDFBFFF7A3
:101B3800E3FE05900599344807F0B6FB314B9A68E7
:101B4800304B59682F4B1B68CB1A13440133099348
:101B5800089A099B9A42E6D89DF81F30002B48D076
:101B6800002304939DF80730002B17D09DF8103000
:101B7800012262F301038DF810309DF8103043F014
:101B880004038DF81030039B03F00F03DAB2BDF89D
:101B9800103062F38913ADF8103016E09DF810305C
:101BA800022262F301038DF810309DF8103043F0E3
:101BB80004038DF81030039BC3F309039AB2BDF8F0
:101BC800123062F38F13ADF812300E4B1A680D4BBA
:101BD8009B68134002339B000A4A1344043306935C
:101BE800049A069B1A60074B1A68089B1344054A17
:101BF8001360002006F04EFC9DF81F3018460BB00D
:101C08005DF804FB3C0300205807002000B58BB0AA
:101C180005900491039202931F4B9B68079306ABB0
:101C2800012219460298FFF75FFF0346002B24D0D4
:101C3800069B023309930023089311E0089B9B003D
:101C4800039A1A44099B591C099107990B40126879
:101C5800114902339B000B445A60089B01330893D7
:101C6800089A029B9A42E9D3069A079B0093134667
:101C7800029A04990598FFF7DDFE074B93F8203484
:101C8800002B05D000BF00F065F80346002BFAD101
:101C980000BF0BB05DF804FB3C03002000B583B027
:101CA800019000910023002200990198FFF7AEFFF0
:101CB80000BF03B05DF804FB00B587B00390029144
:101CC8000192019B059305AA012302990398FFF746
:101CD8009DFF00BF07B05DF804FB00B587B0039017
:101CE800029101920093019B0493009B059304AA1F
:101CF800022302990398FFF789FF00BF07B05DF838
:101D080004FB00B58BB00390029101920093019BF4
:101D18000593009B06930C9B07930D9B08930E9BC2
:101D2800099305AA052302990398FFF76FFF00BFDF
:101D38000BB05DF804FB0000054B5A68044B1B68A8
:101D48009A420CBF01230023DBB21846704700BF3C
:101D58003C03002000B599B0FFF7EEFF0346002BC7
:101D680001D00023B7E19B4B0022C3F81824BFF32E
:101D78004F8F00BF974B5B680493964B9B681093FB
:101D8800049A109B134002339B00924A1344043375
:101D98001193002317930023169300230F9304AB8A
:101DA80019461198FFF770FD0346002B19D0894B8F
:101DB800D3F81834002B14D1864B1A68049B9A4226
:101DC80005D8844B1B68834A5360002383E1049A37
:101DD800109B134002339B007E4A13440433119333
:101DE800DDE70023159311E0049B5A1C0492109A16
:101DF8001340159A920001A90A44764902339B00C0
:101E08000B445B681360159B01331593159B012BDD
:101E1800EAD99DF8043003F00303DBB2022B40F04B
:101E28009C80BDF80630C3F389139BB20D93BDF8AF
:101E38000630C3F389139BB2502B28BF50239BB2A3
:101E48000C930C9BC3F309039AB2BDF8063062F3F6
:101E58008F13ADF806300C9B08330B939DF80430B4
:101E6800C3F3C203DBB20F930B995B4807F057FF2C
:101E78001790179B002B00F0D180179807F0E0FF10
:101E880001A9169B0822179808F096F8169B0833A4
:101E98001693049BDA43109B134001339B000A936B
:101EA8000C9A0A9B9A4242D90A9B002B08D0049AA2
:101EB800109B134002339B00464A1344043300E04E
:101EC800464B08930A9B002B02D00A9BDBB201E029
:101ED8000C9BDBB28DF81F300A9B002B01D03F4BC7
:101EE80000E0002306930A9B002B06D00C9BDAB275
:101EF8000A9BDBB2D31ADBB200E000238DF817305F
:101F08009DF81F20169B0899179808F055F89DF81A
:101F18001F30169A13441693069B002B16D09DF873
:101F28001720169B0699179808F046F80EE0049AB1
:101F3800109B134002339B00264A13440433099331
:101F4800169B0C9A0999179808F036F80D9B0333DD
:101F58009A08049B1344049360E09DF8043003F04E
:101F68000303DBB2012B59D1BDF80430C3F383134B
:101F7800DBB2062B28BF0623DAB2BDF8043062F3C1
:101F88008913ADF80430BDF80430C3F38313DBB212
:101F980002330E939DF80430C3F3C203DBB20F93F0
:101FA8000E9B9B0019460C4807F0B9FE1790179B2B
:101FB800002B33D0179807F043FF01A9169B08227E
:101FC800179807F0F9FF169B08331693002315930B
:101FD8001BE000BF3C03002050BB05004803002065
:101FE800049B5A1C0492109A134002339B003C4AEB
:101FF8001344191D169B0422179807F0DDFF169B42
:1020080004331693159B01331593BDF80430C3F3BD
:102018008313DBB21A46159B9342E1D3179B002B1F
:1020280039D02F4BD3F8103414932D4BD3F81834E0
:10203800002B1BD0179807F012FF46E000238DF8FD
:102048004F301498FFF74AFB0346002B02D00123B8
:102058008DF84F309DF84F30002B03D01799149806
:10206800FFF7F8FA149BDB681B681493149B002B8A
:10207800E4D1179807F0F3FE002006F0F7F9184BA3
:10208800D3F81834002B02D1049B154A5360002062
:1020980006F000FA19E0124BD3F81034129306E058
:1020A8001298FFF7F1FA129BDB681B681293129BD8
:1020B800002BF5D10B4A0C4BD31ADB081B0443F059
:1020C80002030A491846FFF7E9FDFFF735FE034604
:1020D80083F00103DBB2184619B05DF804FB00BFBA
:1020E8003C030020F0BA0500D8BA050090BC0500F2
:1020F80000B585B00023039323E0164BD3F81034C2
:10210800029301238DF807300FE00298FFF7D5FA04
:1021180003461A46039B934203D100238DF80730E8
:1021280006E0029BDB681B680293029B002BECD144
:102138009DF80730002B01D0039B07E0039B013378
:102148000393039B092BD8DD4FF0FF33184605B0E6
:102158005DF804FB3C03002000B585B001900B46F8
:102168008DF80330FFF7C4FF0390039BB3F1FF3FE3
:1021780001D1039B22E0039BDBB219460198FFF7CC
:102188008FFA104BD3F81034002B08D10D4A019B5D
:10219800C2F81034019BDB6800221A600DE0094B7D
:1021A800D3F81034DA68019BDB6812681A60054BB3
:1021B800D3F81034DB68019A1A60039B184605B0FF
:1021C8005DF804FB3C03002000B583B00D4BD3F849
:1021D800103401930B4B012283F8202409E0019865
:1021E800FFF773FA0198FFF743FA019BDB681B6856
:1021F8000193019B002BF2D100BF00BF03B05DF833
:1022080004FB00BF3C03002082B00190009100BF96
:1022180002B0704710B584B003900291039BDB882D
:10222800002B0AD0039BDB881A461F4B00931346EA
:102238001E4A1F49029807F0BBF9039B1B7A052B1E
:102248002ED0039B5B7A002B12D0039B9B881A46E7
:10225800039B1B7A19461046FFF7DEFA03461A4617
:10226800144B53F822301A461349029807F0A0F984
:10227800039B1B6819460298FFF7C6FF039B1B7A4E
:102288001A460E4B53F82240039B9B8800211846A0
:10229800FFF7A2FA034622460949029807F088F98F
:1022A80000BF04B010BD00BFC4BC0500D4BC05000D
:1022B8000CBD05002400002024BD050010000020EE
:1022C80028BD050000B585B00390029113468DF82E
:1022D8000730039B1B7A052B0FD0039B5B7A002BDF
:1022E80006D00D4B1B681A460C49029807F060F996
:1022F8000B49029807F05CF907E09DF80730002BBE
:1023080003D00749029807F053F9029807F02EF90D
:1023180000BF05B05DF804FB2400002024BD0500C3
:1023280034BD050030B58BB0079006910592049333
:102338000E9B1B7B8DF827300E9B00221A730E997B
:102348000498FFF767FF059B062B7FD801A252F878
:1023580023F000BF792300008323000093230000AB
:10236800A7230000C5230000ED2300001D24000062
:1023780007990E9807F01CF969E0069B1B681A4636
:1023880007990E9807F014F961E0069B1A68069BF6
:1023980004331B6807990E9807F00AF957E0069B63
:1023A8001A68069B04331968069B08331B68009358
:1023B8000B4607990E9807F0FBF848E0069B19684A
:1023C800069B04331868069B08331B68069A0C3270
:1023D80012680192009303460A4607990E9807F07F
:1023E800E7F834E0069B1868069B04331C68069BD4
:1023F80008331B68069A0C3212680699103109686E
:102408000291019200932346024607990E9807F01D
:10241800CFF81CE0069B1C68069B04331D68069BCE
:1024280008331B68069A0C3212680699103109683D
:1024380006981430006803900291019200932B468D
:10244800224607990E9807F0B3F800E000BF002273
:102458000E990498FFF736FF0E9B9DF827201A73F4
:1024680000BF0BB030BD00BF00B587B0039002912C
:1024780001920093029B082B60D8009B1B7B8DF870
:102488001330009B00221A7300990198FFF7C2FECF
:102498000023059314E0059A029B9A4209D2039AF5
:1024A800059B13441B781A462649009807F080F8C4
:1024B80003E02549009807F07BF8059B0133059355
:1024C800059B072BE7D92149009807F071F80023ED
:1024D800059326E0059A029B9A421BD2039A059B14
:1024E80013441B788DF812309DF812307E2B0AD8D1
:1024F8009DF8123018464DF0A1FF0346002B02D07C
:102508009DF8123000E02E231A461149009807F072
:102518004FF803E00F49009807F04AF8059B01338C
:102528000593059B072BD5D9012200990198FFF740
:10253800C9FE009B9DF813201A7300E000BF07B086
:102548005DF804FB38BD050040BD050044BD05002D
:1025580048BD05004CBD050000B583B00190019B46
:102568001B682F2B04D90B4940F2CD1006F03CFD17
:10257800019B1B681F2B02D84FF0A04306E0019B6C
:102588001B6803F01F02019B1A60034B184603B037
:102598005DF804FB50BD05000003005000B585B090
:1025A8000190084611461A4603468DF803300B463B
:1025B8008DF8023013468DF8013001AB1846FFF74D
:1025C800CBFF03909DF803209DF802305B001A436F
:1025D8009DF801309B001A439DF818301B0242EA0F
:1025E80003019DF81C301B04019A1943039B02F553
:1025F800E07243F8221000BF05B05DF804FB00B597
:1026080085B0039000230193002300930023012247
:1026180001210398FFF7C2FF00BF05B05DF804FB76
:1026280000B585B003900B468DF80B309DF80B3044
:102638000022019200220092002200210398FFF755
:10264800ADFF00BF05B05DF804FB00B585B0019093
:1026580001AB1846FFF780FF0390019B012202FAA5
:1026680003F31946039800F069F800BF05B05DF858
:1026780004FB00B585B0019001AB1846FFF76CFF6D
:102688000390019B012202FA03F31946039800F014
:102698005FF800BF05B05DF804FB00B585B0019098
:1026A80001AB1846FFF758FF0390039BD3F8043596
:1026B8000293029BDA43019B012101FA03F31A40BA
:1026C800039BC3F80825019B01229A40029B1A40EC
:1026D800039BC3F80C2500BF05B05DF804FB00B5EB
:1026E80083B001900091009B002B03D10198FFF764
:1026F800C0FF02E00198FFF7A8FF00BF03B05DF834
:1027080004FB00B585B0019001AB1846FFF724FF24
:102718000390039800F00AF80246019B22FA03F39B
:1027280003F00103184605B05DF804FB82B0019080
:10273800019BD3F80435184602B0704782B0019067
:102748000091019B009AC3F8082500BF02B07047AA
:1027580082B001900091019B009AC3F80C2500BF3C
:1027680002B0704700B585B00190019B042B03D9D6
:1027780011493A2006F038FC104A019B13441B7893
:102788001846FFF7BEFF0346002B14BF01230023A2
:102798008DF80F309DF80F30002B14BF0123002354
:1027A800DBB283F00103DBB203F00103DBB21846AE
:1027B80005B05DF804FB00BFB4BD050014BE0500FC
:1027C80000B583B00190019B042B03D90749412030
:1027D80006F00AFC064A019B13441B7800211846A0
:1027E800FFF77DFF00BF03B05DF804FBB4BD050033
:1027F80014BE050000B583B00190019B042B03D9DA
:102808000749472006F0F0FB064A019B13441B7852
:1028180001211846FFF763FF00BF03B05DF804FB12
:10282800B4BD050014BE050000B583B000230193B4
:1028380005E00198FFF7DEFF019B01330193019B3F
:10284800042BF6D900BF00BF03B05DF804FB00B548
:1028580083B00023019305E00198FFF7B1FF019BC6
:1028680001330193019B042BF6D900BF00BF03B0CD
:102878005DF804FB00B583B00190019B042B03D9DC
:1028880007495F2006F0B0FB064A019B13441B78FA
:102898001846FFF702FF00BF03B05DF804FB00BF56
:1028A800B4BD050014BE050000B583B00023019334
:1028B80009E0094A019B13441B781846FFF79FFE5D
:1028C800019B01330193019B042BF2D9FFF7ACFF65
:1028D80000BF03B05DF804FB14BE050000B583B06B
:1028E800002301930AE0094A019B13441B78032142
:1028F8001846FFF795FE019B01330193019B032BBB
:10290800F1D900BF00BF03B05DF804FB1CBE050091
:1029180084B001904FF0FF330293002303930DE03E
:102928000A4A039B13441B781A46019B934202D11F
:10293800039B029305E0039B01330393039B032B43
:10294800EED9029B184604B0704700BF1CBE0500B4
:1029580000B583B00190019B03F00103002B01D067
:10296800FFF7A2FF019B03F00203002B01D0FFF742
:10297800B5FF00BF03B05DF804FB0000BFF34F8F45
:1029880000BF074BDB6803F4E0620549054B1343BE
:10299800CB60BFF34F8F00BF00BF00BFFCE700BF95
:1029A80000ED00E00400FA05024B034A1A6000BF7C
:1029B800704700BF480000200090D00308B500F021
:1029C80027F90346002B0ED04FF080430022C3F8AE
:1029D8000C214FF080430022C3F810214FF08043B0
:1029E8000022C3F8382500F037F90346002B76D0CB
:1029F8004FF080537D4AD3F80434C2F820354FF0A5
:102A080080537A4AD3F80834C2F824354FF08053FB
:102A1800764AD3F80C34C2F828354FF08053734AFD
:102A2800D3F81034C2F82C354FF080536F4AD3F8DE
:102A38001434C2F830354FF080536C4AD3F8183448
:102A4800C2F834354FF08053684AD3F81C34C2F8C2
:102A580040354FF08053654AD3F82034C2F84435E6
:102A68004FF08053614AD3F82434C2F848354FF008
:102A780080535E4AD3F82834C2F84C354FF080535F
:102A88005A4AD3F82C34C2F850354FF08053574A7D
:102A9800D3F83034C2F854354FF08053534AD3F842
:102AA8003434C2F860354FF08053504AD3F8383484
:102AB800C2F864354FF080534C4AD3F83C34C2F81E
:102AC80068354FF08053494AD3F84034C2F86C3522
:102AD8004FF08053454AD3F84434C2F8703500F0BB
:102AE800DFF80346002B02D0414B424A1A6000F03F
:102AF800E9F80346002B03D03F4BFB22C3F8182507
:102B080000F0F2F80346002B0AD03C4B1B6823F078
:102B18000F023B4B1B6803F00F03384913430B604C
:102B280000F0F4F80346002B03D0364B4FF4007244
:102B38001A6000F0FDF80346002B0DD04FF08043DB
:102B4800D3F8003403F00103002B05D04FF0804385
:102B58006FF00102C3F800242B4BD3F888302A4ABF
:102B680043F47003C2F88830BFF34F8F00BFBFF340
:102B78006F8F00BF4FF01023D3F80032002B05DB16
:102B88004FF01023D3F80432002B2BDA1F4B01220D
:102B9800C3F8042500BF1D4BD3F80034002BFAD02E
:102BA8004FF010231222C3F8002200BF174BD3F8AE
:102BB8000034002BFAD04FF010231222C3F804225D
:102BC80000BF124BD3F80034002BFAD00F4B002271
:102BD800C3F8042500BF0D4BD3F80034002BFAD0FE
:102BE800FFF7CCFEFFF7E0FE00BF08BD00C00040C5
:102BF8008C5600404881030000F00040E40E00407D
:102C0800580200104096024000ED00E000E001404C
:102C18000F4B1B68082B17D10E4B1B68002B01D1DB
:102C2800012312E00B4B1B68012B01D101230CE09F
:102C3800084B1B68022B01D1012306E0054B1B68DA
:102C4800032B01D1012300E001231846704700BF80
:102C580030010010340100100F4B1B68082B17D1EE
:102C68000E4B1B68002B01D1012312E00B4B1B6894
:102C7800012B01D101230CE0084B1B68022B01D169
:102C8800012306E0054B1B68032B01D1012300E05B
:102C980001231846704700BF3001001034010010AE
:102CA800064B1B68082B05D1054B1B68002B01D16F
:102CB800012300E000231846704700BF30010010D0
:102CC80034010010064B1B68082B05D1054B1B6807
:102CD800002B01D1012300E000231846704700BFF4
:102CE8003001001034010010064B1B68082B05D179
:102CF800054B1B68002B01D1012300E00023184677
:102D0800704700BF3001001034010010064B1B68EB
:102D1800082B05D1054B1B68002B01D1012300E0CE
:102D280000231846704700BF30010010340100101E
:102D38000F4B1B68082B17D10E4B1B68002B01D1BA
:102D4800012312E00B4B1B68012B01D101230CE07E
:102D5800084B1B68022B01D1012306E0054B1B68B9
:102D6800032B01D1012300E001231846704700BF5F
:102D7800300100103401001084B003468DF807308C
:102D88009DF807305B08DBB21A460D4B9B5C8DF84B
:102D98000F309DF8073003F00103002B04D09DF895
:102DA8000F301B09DBB204E09DF80F3003F00F036E
:102DB800DBB28DF80E309DF80E30184604B070471F
:102DC8009807002084B003460A468DF8073013465A
:102DD8008DF806309DF8073003F00103002B01D071
:102DE8000F2300E0F0238DF80F309DF8073003F033
:102DF8000103002B04D09DF806301B01DBB201E073
:102E08009DF806308DF80E309DF807305B08DBB270
:102E18001A46114B9A5C9DF807305B08DBB21946DD
:102E28009DF80F301340DAB20B4B5A549DF8073017
:102E38005B08DBB21A46084B9A5C9DF807305B08C2
:102E4800DBB219469DF80E301343DAB2024B5A54DE
:102E580000BF04B0704700BF9807002000B585B0D8
:102E680003468DF807300023039310E00F4B1A68D0
:102E7800039BDB0013440293029B1B789DF80720F9
:102E88009A4201D1029B0DE0039B01330393084B47
:102E98001B781A46039B9342E8DB0649882006F014
:102EA800A3F80023184605B05DF804FB600700206E
:102EB800640700202CBE050000B585B003460A460D
:102EC8008DF8073013468DF806309DF80730184600
:102ED800FFF7C4FF0390039B002B0BD0039B5B6899
:102EE800002B07D0039B5B689DF806109DF8072010
:102EF8001046984700BF05B05DF804FB2DE9F04F78
:102F080085B003460A468DF80F3013468DF80E300B
:102F18009DF80F301846FFF72FFF0346042B00F2E9
:102F2800B48001A252F823F0452F0000AB2F000017
:102F3800C72F0000F72F00000D3000009DF80E305D
:102F4800002B00F09F809DF80F3001211846FFF7F5
:102F580039FF002005F08AFA9DF80F104FF00102A2
:102F68004FF00003A1F12004C1F1200003FA01F79A
:102F780002FA04F4274322FA00F0074302FA01F6A2
:102F8800444BD3E9002346EA020100913B430193F5
:102F9800404BDDE90012C3E90012002005F07AFA7F
:102FA80070E09DF80E30002B01D0022200E00022D4
:102FB8009DF80F3011461846FFF704FF65E09DF8AD
:102FC8000E30002B0CD09DF80F3003211846FFF768
:102FD800F9FE9DF80F3001211846FFF76DFF54E008
:102FE8009DF80F3001211846FFF7ECFE4DE09DF8E3
:102FF8000E30002B48D19DF80F3004211846FFF7FA
:10300800E1FE41E09DF80E30002B06D09DF80F3010
:1030180003211846FFF7D6FE37E09DF80F30002150
:103028001846FFF7CFFE9DF80F3000211846FFF72E
:1030380043FF002005F01AFA9DF80F104FF0010227
:103048004FF00003A1F12006C1F1200003FA01F5B9
:1030580002FA06F6354322FA00F0054302FA01F4B3
:103068006FEA04086FEA05090A4BD3E9002308EA66
:10307800020A09EA030B074BC3E900AB002005F07D
:1030880009FA02E000BF00E000BF00BF05B0BDE8DC
:10309800F08F00BF9007002000B583B00648074BAB
:1030A8001B685B080022194600F0CAFE019000BFA9
:1030B80003B05DF804FB00BF70070020680700201C
:1030C80000B587B001900023059328E01C4B1A68CF
:1030D800059BDB0013440493049B1B78184608F0F7
:1030E800D3F903468DF80F30049B5B78012B0CBF96
:1030F80001230023DBB21A469DF80F309A420CBF19
:10310800012300238DF80E30049B1B789DF80E20B8
:1031180011461846FFF7F2FE059B01330593094B4C
:103128001B781A46059B9342D0DB074BD3E9002353
:10313800134301D0FFF7B0FF00BF07B05DF804FBF1
:1031480060070020640700209007002000B585B0C4
:1031580001900B468DF80330019BDBB21846FFF750
:103168007DFE0390039B1B78184608F08DF90346F3
:103178008DF80B30039B5B78012B0CBF01230023D8
:10318800DBB21A469DF80B309A420CBF012300238C
:103198008DF80A309DF80A30002B06D0054BD3E98C
:1031A8000023134301D1FFF777FF00BF05B05DF897
:1031B80004FB00BF9007002000B58BB003900B46BE
:1031C80001928DF80B30019B092B01D8072367E08A
:1031D80008F04CF8034683F00103DBB2002B09D05A
:1031E80007F0F2FF0990099B0893089B002B01D078
:1031F800089B55E02C4A039B13602C4A9DF80B3022
:1032080013702B4A019B13602022002129484DF09E
:103218005CFB29494FF000024FF00003C1E900238D
:1032280031E09DF80B30DB00039A13440793032326
:103238008DF8143000238DF815309DF816306FF393
:1032480000038DF816309DF816306FF341038DF8A2
:1032580016309DF816306FF382038DF81630079BF1
:103268009B788DF81530079B1B78184605AB134AD9
:10327800194608F007F80990099B0693069B002B4E
:1032880001D0069B0CE09DF80B305A1E8DF80B20E0
:10329800002BC6D10A4A00210A4800F09DFD0346CA
:1032A80018460BB05DF804FB600700206407002097
:1032B800680700209807002090070020553100007B
:1032C800C93000009CBE050000B583B0114B1B68D7
:1032D800002B04D1104940F2351005F085FE00237B
:1032E80001930CE00B4B1A68019BDB0013441B781D
:1032F8000121184608F040F8019B01330193074B60
:103308001B781A46019B9342ECD30023184603B05E
:103318005DF804FB600700202CBE05006407002050
:1033280086B003900291019201238DF817309DF821
:103338001730214A039B13601F4A029B53601E4AA1
:10334800019B9360039B44F20102934213D0039BB9
:1033580044F20202934221D1019B174AD360164BD3
:10336800DB681B881A46144B9A61134BDB685B6851
:10337800114AD36112E0019B0F4A13610E4B1B697E
:103388009B680D4A53610C4B1B691B680A4A936181
:10339800094B1B695B68084AD36100BF72B600BF5E
:1033A80000BF9DF81730DBB2002BFAD162B600BF20
:1033B80000BF06B0704700BFB807002000B583B053
:1033C80002900091019244F2010071466A4600F0B1
:1033D80003F803B000BD00BF30B58BB0079006916D
:1033E800059272B600BFFEF7EFFE00BFFEF7B2FC13
:1033F8000346002BFAD1079B44F20102934216D0F0
:10340800079B44F2020293423ED1059B09932C4A42
:103418002C4BD31ADB081B0443F00100099B5B68A3
:103428001A46099B1B882849FEF757FC39E0059B7B
:103438000893234A234BD31ADB081B0443F00104E7
:10344800089B9D68089B9B68184606F0B7FE0346D4
:103458001846089B5B681946089B1B68069A0292E7
:103468000193009103462A4618492046FEF749FC75
:10347800134A144BD31ADB081B0443F00103144905
:103488001846FEF70BFC0CE00D4A0E4BD31ADB086E
:103498001B0443F00103069A0E491846FEF70CFC7C
:1034A80000BF0D4B1B6803F00103002B00D000BECA
:1034B800059A06990798FFF733FF00BF0BB030BD98
:1034C800F0BA0500D8BA0500A0BE0500BCBE0500CC
:1034D800E4BE0500F8BE0500F0ED00E082B0019002
:1034E800019B03F00303002B0CBF01230023DBB275
:1034F800184602B07047000082B003468DF80730C6
:103508009DF807309AB2064B1B889A4204D29DF860
:1035180007300133DBB200E00023184602B07047E1
:10352800E407002000B583B00B4B1B788DF80730FB
:103538000A4B1B78DBB21846FFF7DEFF03461A4634
:103548009DF8073093420CBF01230023DBB21846D5
:1035580003B05DF804FB00BFE0070020E10700208E
:1035680082B0084B1B788DF80730074B1B78DBB20D
:103578009DF807209A420CBF01230023DBB21846AE
:1035880002B07047E0070020E107002000B585B0D1
:1035980003460092ADF806300B46ADF80430BDF88E
:1035A800043001339BB2DB00ADF80E300098FFF712
:1035B80095FF034683F00103DBB2002B01D00723FC
:1035C80017E00E4A009B1360BDF80E30009A1344B2
:1035D8000B4A13600B4B00221A700B4B00221A7017
:1035E8000A4ABDF806301380094ABDF80430138032
:1035F8000023184605B05DF804FB00BFD80700207B
:10360800DC070020E1070020E0070020E207002097
:10361800E407002000B587B003900B460192ADF88F
:103628000A30334B1B88BDF80A209A4259D84FF606
:10363800FF73ADF81230002004F018FFFFF772FF97
:103648000346002B0ED12B4B1B78DBB2ADF81230A2
:10365800284B1B78DBB21846FFF74EFF03461A4685
:10366800244B1A70002004F015FFBDF812304FF6F5
:10367800FF72934232D0204B1A68BDF81230DB003B
:103688001344019A1A60039B002B1CD0BDF80A3022
:10369800002B18D0194B1B68BDF812201449098853
:1036A80001FB02F21344BDF80A20039918464DF0B5
:1036B800E3F8114B1A68BDF81230DB001344BDF86B
:1036C8000A209A8007E00C4B1A68BDF81230DB001C
:1036D800134400229A800023059304E004230593F1
:1036E80001E009230593059B184607B05DF804FB24
:1036F800E2070020E1070020D8070020DC070020AF
:10370800002318467047000000B585B02FE0204B15
:103718001B78DBB2ADF80E301E4B1B68BDF80E20CF
:103728001D49098801FB02F2134402931B4B1A68D6
:10373800BDF80E30DB0013449B88ADF80630174BFC
:103748001A68BDF80E30DB0013441B680093BDF8FF
:103758000620009B1146029898470D4B1B78DBB258
:103768001846FFF7C9FE03461A46094B1A70FFF7B9
:10377800C7FF034683F00103DBB2002B04D0FFF739
:10378800EFFE0346002BC2D000BF05B05DF804FB76
:10379800E0070020DC070020E2070020D80700200F
:1037A8002DE9F04383B0144805F064FA034600227B
:1037B8001C461546114BD3E9002314EB020845EBD0
:1037C8000309CDE900890E4BD3E90023DDE90001A7
:1037D800904271EB030307D2DDE9002312F18076F2
:1037E80043F10007CDE90067DDE9002310461946DB
:1037F80003B0BDE8F08300BF4C000020F0070020B4
:10380800F807002088B001900091019B0793009B66
:103818000693079BD3E90223CDE90423069BD3E94A
:103828000223CDE90223DDE90423DDE90201904208
:1038380071EB03032CBF01230023DBB2184608B049
:103848007047000000B585B001900B46ADF8023016
:10385800BDF80230082B03D007498F2005F0C4FBC0
:10386800019B0393039B1B68039A52681046984771
:1038780000BF05B05DF804FB1CBF0500F0B589B0BA
:103888000190019B5B69002B03D13349A22005F00D
:10389800ABFB00238DF81F30304B1B78002B56D024
:1038A800019B002B53D0019B1B7FDBB2002B4ED01A
:1038B800FFF776FF019BD3E90223904271EB0303E4
:1038C8003DD3019B1B69002B02D1019B00221A7773
:1038D800019B5B690393019B9B69049303AB204A9B
:1038E80008211846FFF796FE0690069B0593059B50
:1038F800002B04D0184AB5210598FFF75FFD019BFE
:103908001B69002B23D0019B1B7FDBB2002B1ED031
:10391800019BD3E902230199096900200C46054659
:10392800161943EB0507019BC3E90267019B19467A
:103938000C4806F09DFB01238DF81F3007E0019B22
:103948001946084806F094FB01238DF81F309DF8AE
:103958001F30184609B0F0BD1CBF0500EC07002059
:103968004D38000090BF0500F0B589B00190009176
:103978000D230793009B00221A70019BD3E902458F
:10398800FFF70EFF02460B46A61A65EB0307CDE9C3
:103998000467DDE90423012A73F100031BDB049BA0
:1039A800B3F5350F05D300F0ABFA0246154B1344B7
:1039B80003E0019BD3E90223134603934FF49603D4
:1039C800039A0021104805F057F80790079B002B31
:1039D80005D1012313E000210B4805F025F9079BC9
:1039E8000D2B07D10198FFF749FF03461A46009BA4
:1039F8001A7003E00549F52005F0F6FA0023184689
:103A080009B0F0BDFFFFB4004C0000201CBF05004A
:103A180000B583B0044806F065FB0190019B184689
:103A280003B05DF804FB00BF90BF050000B583B08C
:103A3800044806F079FB0190019B184603B05DF835
:103A480004FB00BF90BF050000B583B0FFF7E0FF9F
:103A58000190019B002B02D0019B00221A77019B49
:103A6800002BF3D100BF00BF03B05DF804FB0000DA
:103A7800054BD3E9002312F1807043F10001024B9A
:103A8800C3E9000100BF7047F007002000B583B00C
:103A98000190134B1B68002B1DD0019805F0EAF824
:103AA8000F4B1B68D3E90223134623F07F431946C3
:103AB80000F01AFA0346B3F5960F04D309494FF4F8
:103AC800957005F091FA064B1B681846FFF7D6FE6D
:103AD800034B00221A6000BF03B05DF804FB00BF6F
:103AE800E80700201CBF050000B583B00190FFF770
:103AF80057FE02460B460349C1E9002300BF03B045
:103B08005DF804FBF807002000B585B00190FFF7C9
:103B18008DFF039000238DF80B30039B002B48D0BA
:103B28002B4B1B68002B03D101238DF80B3019E0B8
:103B3800039BD3E90201264B1B68D3E90223904279
:103B480071EB03030ED201238DF80B30204B1B6859
:103B58001B7FDBB2002B05D01D4B1B6819461D4887
:103B680006F086FA9DF80B30002B2AD0FFF750FF9D
:103B780003900DF10A0319460398FFF7F5FE034673
:103B8800002B12D0124B1B68002B02D1019804F0B5
:103B98007FFE0F4A039B13609DF80A3083F00103F0
:103BA800DBB2002BB3D000BF0EE0094B00221A6035
:103BB800ADE7074B1B68002B05D1019804F07EFE8A
:103BC80001E000BF00E000BF00BF05B05DF804FBE6
:103BD800E807002090BF050000B587B001902C4A87
:103BE80003AB1946104605F0EBFA059048E0059B33
:103BF8001B78022B2ED0022B32DC002B02D0012B9B
:103C080014D02DE0059B5B681B7FDBB283F00103BA
:103C1800DBB2002B26D0059B5B6801221A77059B37
:103C28005B6819461B4806F023FA1BE0059B5A6897
:103C3800194B1B689A4203D1174B00221A6012E0F5
:103C4800059B5B681946134806F082FA03468DF80F
:103C5800133008E0FFF7F8FE104B01221A7002E05B
:103C680000BF00E000BF0A4A03AB1946104605F042
:103C7800C0FA074A03AB1946104605F0A1FA0590A9
:103C8800059B002BB3D100BF00BF07B05DF804FB54
:103C98005808002090BF0500E8070020EC07002026
:103CA80000B583B00190019804F0B1FF0346002BE2
:103CB80001D0FFF7DDFE0021019804F0C6FF03469E
:103CC800002B02D00198FFF7E1FE0121019804F0D2
:103CD800BCFF0346002B02D00198FFF705FF0198AF
:103CE800FFF77AFF0198FFF70FFF00BF03B05DF8F9
:103CF80004FB000008B5024804F0C9FF00BF08BD76
:103D08004C00002000B585B0034600918DF80730BF
:103D1800114A02AB1946104605F025FA0390039B99
:103D2800002B13D0039B9DF807201A70039B009A61
:103D38005A60094A02AB1946104605F02DFA0346A7
:103D4800002B01D0FFF7D6FF002300E0042318461C
:103D580005B05DF804FB00BF5808002000B583B02B
:103D6800164B1B680093164808235822154905F07E
:103D7800C7F90190019B002B01D0019B19E06B460C
:103D8800114A1946114804F005FD0190019B002BCA
:103D980001D0019B0DE001210C4804F027FF01230D
:103DA8000B4A0121094804F09FFD0A4B01221A70B1
:103DB800019B184603B05DF804FB00BF8CBF0500EB
:103DC8005808002000080020A93C00004C000020F2
:103DD800FFFF7F00EC07002000B587B003900B467B
:103DE80001928DF80B30039B002B04D1134940F24C
:103DF8002E2005F0F9F8019B002B04D10F4940F261
:103E08002F2005F0F1F8019B002B01D1072310E0CA
:103E1800039B1B680593059B019A5A619DF80B301B
:103E2800012B0CBF01230023DBB21A46059B1A6144
:103E38000023184607B05DF804FB00BF1CBF05004F
:103E4800F0B587B0039002910192039B002B04D137
:103E5800164940F23E2005F0C7F8039B0593059BE1
:103E68001B7FDBB2002B01D000231CE0059B019ACD
:103E78009A61FFF795FC02460B46029900200C4612
:103E88000546161943EB0507059BC3E90267059B21
:103E98001B69002B02D0059B029A1A610599002024
:103EA800FFF730FF0346184607B0F0BD1CBF0500FA
:103EB80000B585B00190019B002B04D109494FF44E
:103EC800157005F091F8019B0393039B00221A7764
:103ED80003990120FFF716FF0346184605B05DF861
:103EE80004FB00BF1CBF050082B001900091019A3D
:103EF800009BD31A23F07F43184602B07047000096
:103F080008B5034804F0B6FE0346184608BD00BFCE
:103F18004C000020024BD3F88034DBB218467047BF
:103F280000700240024BD3F88434DBB21846704765
:103F38000070024008B50AF0D1FA0023184608BDFF
:103F480000B585B003468DF807300B468DF806306E
:103F580013468DF805309DF8073003F01F029DF8D1
:103F680006305B0103F060031A439DF80530DB015E
:103F7800DBB213430393039BFF2B04D905494FF48A
:103F8800AC7005F031F8039BDBB2184605B05DF85C
:103F980004FB00BF9CBF050082B00190019B1B7A07
:103FA800184602B07047000000B585B001900B4676
:103FB8008DF80330019B002B04D10F494FF4887012
:103FC80005F012F80198FFF7E7FF03461A469DF837
:103FD8000330934201D3002309E0019B0933039383
:103FE8009DF8032013465B001344039A13441846B4
:103FF80005B05DF804FB00BF10C0050082B0019059
:10400800019B1B78184602B0704782B00190019B53
:104018005B78184602B0704700B585B001900B4632
:104028008DF80330019B002B04D10D4940F2431059
:1040380004F0DAFF019B5B789DF803209A4201D3D4
:10404800002309E0019B9B781A46019B13440393C4
:104058009DF80330039A1344184605B05DF804FB35
:1040680010C0050082B00190019B1B78184602B071
:10407800704782B00190019B1B68184602B07047D8
:1040880000B583B00190019B002B04D1064940F292
:10409800432004F0A9FF0198FFF7EBFF03461B68D4
:1040A800184603B05DF804FB88C0050000B583B06E
:1040B8000190019B002B04D1064940F25F2004F0D7
:1040C80093FF0198FFF7D5FF03465B68184603B0D6
:1040D8005DF804FB88C0050000B583B00190019B22
:1040E800002B04D1064940F27B2004F07DFF0198A3
:1040F800FFF7BFFF03465B68184603B05DF804FB93
:1041080088C00500014B1846704700BF40C4050031
:104118004FF08043D3F838341846704708B5FFF796
:10412800F7FF034603F00103002B14BF012300230C
:10413800DBB2184608BD08B5FFF7EAFF034603F0EF
:104148000203002B14BF01230023DBB2184608BD6D
:1041580000B583B001900091019B002B04D1114957
:1041680040F20F1004F040FF019B5B68002B04D164
:104178000C494FF4887004F037FF019B5B681B689B
:10418800002B04D1074940F2111004F02DFF019BC8
:104198005B681B680099019898470346184603B066
:1041A8005DF804FB00C1050000B583B001900091E3
:1041B800019B002B04D1114940F2191004F014FF9F
:1041C800019B1B68002B04D10C494FF48D7004F03F
:1041D8000BFF019B1B689B68002B04D1074940F229
:1041E8001B1004F001FF019B1B689B68009A528812
:1041F8001046984700BF03B05DF804FB00C10500F6
:1042080000B583B001900B468DF80330074B1B684F
:10421800002B06D0054B1B689DF80320114601981A
:10422800984700BF03B05DF804FB00BF2C0A0020CC
:1042380000B583B003468DF80730074B5B68002B49
:1042480005D0054B5B689DF807201046984700BFCE
:1042580003B05DF804FB00BF2C0A002010B58EB037
:10426800039001930B468DF80B3013468DF80A30F6
:104278000023099300230D9302E00D9B01330D9356
:10428800039B5B685C6809A8012300220399A04787
:104298000346002BF1D100238DF8233000230C9323
:1042A80000238DF82F30002306934FE0039B5B68B3
:1042B8005C680DF1230206A801230399A047039B1C
:1042C8005B685C680DF1170206A801230399A047F3
:1042D8009DF817309DF80B209A4227D19DF82F2082
:1042E8009DF80A309A421CD19DF823301A46109B3B
:1042F8001A60019B5A1C01929DF823201A70019B99
:104308005A1C01929DF80B201A70039B5B685C682D
:104318009DF82330023B06A8019A0399A047002381
:1043280019E09DF82F3001338DF82F30039B5B681F
:104338005C689DF82330023B06A800220399A04739
:104348009DF823301A460C9B13440C930C9A0D9B32
:104358009A42ABD3052318460EB010BD00B585B000
:1043680003468DF807309DF90730002B14DA9DF8C5
:10437800073003F00F038DF80E309DF80E30082B30
:1043880004D911494FF4CC7004F02EFE9DF80E307C
:10439800DB000E4A134413E09DF8073003F00F03C7
:1043A8008DF80F309DF80F30082B04D906494FF4CB
:1043B800CF7004F019FE9DF80F30DB00044A134457
:1043C800184605B05DF804FB00C105008C09002003
:1043D800D409002000B583B003468DF807309DF856
:1043E80007301846FFF7BAFF03461B68184603B0A4
:1043F8005DF804FB00B585B0034600918DF80730E1
:104408009DF807301846FFF7A9FF0390039B009A11
:104418001A60009B002B10D19DF80730002B03D0A9
:104428009DF80730802B04D108494FF4E17004F05F
:10443800DBFD039B00225A6004E0009B5B681A685E
:10444800039B5A6000BF05B05DF804FB00C105007E
:1044580000B583B00190064B5B68054A1268019964
:10446800104698470346184603B05DF804FB00BFA2
:10447800D409002000B58BB00190019B0993099BDA
:104488001B78052B1AD1FFF74DFD03468DF8233015
:10449800FFF740FD03468DF81B3000220021002065
:1044A800FFF74EFD03461A469DF81B30934205D18F
:1044B8009DF82330052B01D1334B0993099B1B78B9
:1044C800002B27D101F06AF8079007E009990798AF
:1044D800FFF76AFE0798FFF7FFFD0790079B002B81
:1044E800F4D1002003F0C2FF284B1B68002B03D136
:1044F800099B5A88264B1A800121244804F0D4FECF
:10450800002003F0C7FF01210998FFF779FE1F4B30
:104518001B6835E01F4A03AB1946104604F023FE1A
:104528000590059B002B2BD0059A099B1B681360EF
:10453800002003F09BFF164B1A88144B1B689BB294
:10454800D31A9BB201339AB2059BDA8000210F4837
:1045580004F063FE03469AB2059B9A80002003F09C
:1045680099FF0C4A03AB1946104604F015FE0346A2
:104578008DF813309DF8133019460998FFF740FE5F
:104588000BB05DF804FB00BF78C10500840900206A
:10459800880900207409002000B583B003468DF80F
:1045A80007309DF80730022B0ED0022B10DC002BB1
:1045B80002D0012B04D00BE00A48FFF75BFF0DE0A7
:1045C8000948FFF757FF09E00848FFF753FF05E0E0
:1045D800074940F2622004F007FD00BF00BF03B0A6
:1045E8005DF804FB6CC1050070C1050074C10500CD
:1045F80000C1050000B583B001900198FFF73AFFAC
:1046080000BF03B05DF804FB00B583B003468DF826
:1046180007309DF80730002B04D0064940F27B2074
:1046280004F0E2FC0448FFF725FF00BF03B05DF883
:1046380004FB00BF00C105007CC1050082B0034631
:104648008DF807309DF80730082B27D801A252F8BB
:1046580023F000BF8146000085460000894600001F
:104668008D460000914600009546000099460000DE
:104678009D460000A1460000002310E000230EE044
:1046880001230CE000230AE0002308E0012306E0F0
:10469800012304E0012302E0012300E0002318467F
:1046A80002B0704782B003468DF807309DF8073096
:1046B800082B27D801A252F823F000BFE9460000D2
:1046C800ED460000F1460000F5460000F9460000FE
:1046D800FD460000014700000547000009470000AB
:1046E800002310E000230EE001230CE000230AE081
:1046F800002308E0002306E0002304E0002302E092
:10470800012300E00023184602B07047014B1B78D4
:1047180018467047280A002010B582B003468DF865
:1047280007309DF807301846FFF788FF03461C46F8
:104738001C4B1B781846FFF781FF03469C420DD09F
:104748009DF807301846FFF779FF0346002B03D082
:10475800154805F091FE01E005F0DEFE9DF80730F2
:104768001846FFF79FFF03461C460E4B1B7818465A
:10477800FFF798FF03469C420CD09DF80730184677
:10478800FFF790FF0346002B02D00AF0B1F801E0D2
:104798000AF0A4F8034A9DF80730137000BF02B06E
:1047A80010BD00BF280A00205400002000B587B0C3
:1047B80001900B468DF8033013468DF802300198AE
:1047C800FFF7EAFB03461A469DF80330934204D9E3
:1047D8001B4940F2F92004F007FC9DF80230002B39
:1047E80001D0072328E09DF8033019460198FFF708
:1047F800DBFB04900498FFF708FC03468DF80F30A4
:1048080000238DF8173010E09DF8173019460498EA
:10481800FFF702FC0290029B1B78184600F086FE08
:104828009DF8173001338DF817309DF817209DF843
:104838000F309A42E8D30023184607B05DF804FB0E
:1048480000C1050000B587B001900B468DF8033014
:104858000198FFF7A1FB03461A469DF803309342DF
:1048680004D919494FF4467004F0BEFB9DF8033093
:1048780019460198FFF798FB04900498FFF7C5FBC9
:1048880003468DF80F3000238DF8173010E09DF89F
:10489800173019460498FFF7BFFB0290029B1B785C
:1048A800184600F061FE9DF8173001338DF8173077
:1048B8009DF817209DF80F309A42E8D300BF00BF3B
:1048C80007B05DF804FB00BF00C1050000B589B062
:1048D800019005F0E9FC0346002B04D1484940F259
:1048E800313004F081FB474808234FF4847246496D
:1048F80004F006FC0690069B002B01D003237BE006
:10490800424809F067FD0690069B002B01D0069BE4
:1049180072E03F4B00221A703E4B00221A603E4B59
:1049280000221A60482200213C484BF0CEFF482262
:1049380000213B484BF0C9FF019B002B09D1394BA3
:1049480000221A60374B00225A60364B00221A7236
:1049580004E0344B019A07CA83E80700002005F0F9
:104968004BFE0690069B002B08D0069B852B05D096
:10497800234A40F25F310698FEF720FDFFF7C2FB9D
:10498800059000238DF81F3018E000238DF81E30A5
:1049980007E00398FFF766FB034605991846FFF7FB
:1049A80029FD9DF81E305A1C8DF81E2019460498C2
:1049B800FFF732FB0390039B002BEAD19DF81F30D1
:1049C8005A1C8DF81F2019460598FFF7EDFA049038
:1049D800049B002BD9D10B238DF8083002AB194664
:1049E8000598FFF7B5FB0690069B002B03D0FFF751
:1049F800A1FA069B00E00023184609B05DF804FB05
:104A080000C10500740900206C080020FD45000065
:104A1800280A00201C0A0020200A00208C090020F7
:104A2800D40900202C0A002000B587B005F015FE37
:104A3800FFF780FA0490274B05930BE0059B1B6852
:104A48001846FFF716FB03460193059B00221A60E0
:104A5800019B0593059B1B68002BEFD11E4B05930B
:104A68000CE0059B1B681846FFF703FB034604335D
:104A78000293059B00221A60029B0593059B1B6805
:104A8800002BEED1154B05930CE0059B1B681846CF
:104A9800FFF7EFFA034604330393059B00221A60DD
:104AA800039B0593059B1B68002BEED14822002130
:104AB8000B484BF00AFF482200210A484BF005FF3B
:104AC8000C22002108484BF000FF049B184607B051
:104AD8005DF804FB1C0A0020200A0020240A00209C
:104AE8008C090020D40900202C0A002000B583B0CE
:104AF80009F05AFE034683F00103DBB2002B04D110
:104B080009F05EFE0346002B01D008230FE00A4897
:104B180005F094FD0190019B0093009B002B05D0AC
:104B2800064A40F2C2310098FEF748FC00231846B6
:104B380003B05DF804FB00BF80C1050000C105009B
:104B480008B509F0E3FC00BF08BD000008B509F08E
:104B580043FE034683F00103DBB2002B04D1044972
:104B680040F2D13004F040FA09F0A2FD00BF08BDC0
:104B780000C1050008B509F023FE0346002B0DD13E
:104B88000D494FF4767004F02FFA07E0FFF7C6FAE4
:104B9800034683F00103DBB2002B0BD1FFF7CBFAFE
:104BA800034683F00103DBB2002BEFD10348FFF784
:104BB80061FC00E000BF08BD00C1050084C105001C
:104BC80000B583B082238DF8043001AB1846FFF797
:104BD80051FC00BF03B05DF804FB000000B587B0CE
:104BE8000190DD4B1B68002B04D1DC4940F22540C5
:104BF80004F0FAF903F081FC0346052B04D8D749E1
:104C080040F22C4004F0F0F9019B1B78852B00F250
:104C18006A8201A252F823F0394F0000974F000032
:104C280025500000B94F0000E94F00004D5000002A
:104C38005D500000EF500000C5500000D350000048
:104C4800E1500000EF500000EF500000EF5000006E
:104C5800EF5000003F500000EF500000EF50000000
:104C6800EF500000EF500000EF500000EF50000040
:104C7800EF500000EF500000EF500000EF50000030
:104C8800EF500000EF500000EF500000EF50000020
:104C9800EF500000EF500000EF500000EF50000010
:104CA800EF500000EF500000EF500000EF50000000
:104CB800EF500000EF500000EF500000EF500000F0
:104CC800EF500000EF500000EF500000EF500000E0
:104CD800EF500000EF500000EF500000EF500000D0
:104CE800EF500000EF500000EF500000EF500000C0
:104CF800EF500000EF500000EF500000EF500000B0
:104D0800EF500000EF500000EF500000EF5000009F
:104D1800EF500000EF500000EF500000EF5000008F
:104D2800EF500000EF500000EF500000EF5000007F
:104D3800EF500000EF500000EF500000EF5000006F
:104D4800EF500000EF500000EF500000EF5000005F
:104D5800EF500000EF500000EF500000EF5000004F
:104D6800EF500000EF500000EF500000EF5000003F
:104D7800EF500000EF500000EF500000EF5000002F
:104D8800EF500000EF500000EF500000EF5000001F
:104D9800EF500000EF500000EF500000EF5000000F
:104DA800EF500000EF500000EF500000EF500000FF
:104DB800EF500000EF500000EF500000EF500000EF
:104DC800EF500000EF500000EF500000EF500000DF
:104DD800EF500000EF500000EF500000EF500000CF
:104DE800EF500000EF500000EF500000EF500000BF
:104DF800EF500000EF500000EF500000EF500000AF
:104E0800EF500000EF500000EF500000EF5000009E
:104E1800EF500000EF500000B74E0000394E000080
:104E28007D4E0000EB4E00000B4F00005550000077
:104E38004B48FFF70DFB4A4800F03AFC0D20FFF7FE
:104E4800F7F900F059FD03F05EF9464B1B68002B9B
:104E580003D1454B1B7A002B01D0012300E000232E
:104E680003F00103DBB2184609F042FC0120FFF70A
:104E780053FC45E100F040FD09F072FC0020FFF70B
:104E88004BFC3A4800F014FC3848FFF7E1FA0E20D2
:104E9800FFF7CEF9FFF73AFC03461846FFF7CEFBBB
:104EA8000346002B00F0258105F036FB21E1FFF7D2
:104EB8002DFC0346072B0ED0072B10DC052B02D048
:104EC800062B04D00BE00220FFF726FC08E00820A0
:104ED800FFF722FC04E00220FFF71EFC00E000BF01
:104EE8000EE1FFF713FC0346032B40F0048109F0A1
:104EF80087FC0346002B00F0FE800420FFF70CFC23
:104F0800F9E0FFF703FC0346032B07D109F078FC0F
:104F18000346002B02D00420FFF7FEFB09F0A0FC9B
:104F28000346002B00F0E9800620FFF7F5FBE4E0DC
:104F3800FFF7ECFB0346032B04D0FFF7E7FB034620
:104F4800082B02D10A48FFF749FE0020FFF770F945
:104F580000F01EFB059016E01C0A002000C10500A9
:104F680088C10500200A00202C0A00208CC10500F9
:104F780090C1050001990598FFF7EAF80390059894
:104F8800FFF794F80590059B002BF3D1B8E000F0EB
:104F9800B3FC03F0AFF80220FFF7BEFB0120FFF7D8
:104FA80047F90198FFF754FA019800F081FBA7E050
:104FB800FFF7ACFB0346082B05D10220FFF7ACFB3B
:104FC80009F0A0FC02E00520FFF7A6FB0320FFF78D
:104FD8002FF90198FFF73CFA019800F069FB8FE080
:104FE8000320FFF725F94848FFF732FA464800F052
:104FF8005FFBFFF78BFB0346062B02D0082B04D080
:1050080007E00720FFF788FB07E00220FFF784FB93
:1050180003E00220FFF780FB72E071E00320FFF756
:105028007BFB0220FFF704F9019800F041FB01988F
:10503800FFF70EFA64E00F20FFF7FAF8019800F086
:1050480037FB5DE00198FFF703FA59E00198FFF795
:10505800FFF955E0019B9B781846FFF77FF904900C
:10506800049B1B68002B04D1284940F2025003F02E
:10507800BBFF049B5B68002B04D1244940F203501A
:1050880003F0B2FF049B5B68049A1268019910460A
:1050980098470346002B32D0019B9B7803F00F03FF
:1050A800002B2CD0019B9B7803F00803002B26D102
:1050B800019B9B78184609F066FE20E00820FFF760
:1050C800B7F8019800F0F4FA1AE00920FFF7B0F8F1
:1050D800019800F0EDFA13E00A20FFF7A9F801980B
:1050E80000F0E6FA0CE0094940F2265003F07CFF94
:1050F80006E000BF04E000BF02E000BF00E000BF20
:1051080000BF07B05DF804FB94C1050000C10500AD
:1051180000B583B000230193354B1B68002B07D1E2
:10512800344B3549184604F04BF80346304A1360AF
:105138002F4B1B68002B32D02D4B1B689B88002BF4
:105148001ED02B4B1B68DB88B3F5006F03D3284BAD
:105158001B680022DA80264B1B68DA88511C89B24A
:10516800D9801346ADF80630214B1B689A88013A5E
:1051780092B29A8001AB1846FFF730FD012333E065
:105188001B4B1B681846FFF729FD1A4B1A4918468E
:1051980004F02FF8164B00221A60012324E0174B65
:1051A8001B68002B1FD0002003F060F9144B1B88EC
:1051B800B3F5006F02D3124B00221A80104B1B88E4
:1051C8005A1C91B20E4A1180ADF8063001210B48E5
:1051D80004F09AF8002003F05DF901AB1846FFF7D8
:1051E800FDFC012300E00023184603B05DF804FB32
:1051F800380A0020740900203C0A00208409002095
:105208008809002000B589B00190019B002B04D1CA
:105218005A4940F26A5003F0E7FE019B5B68002B95
:1052280004D1564940F26B5003F0DEFE019B5B68E7
:105238001B68002B04D1514940F26C5003F0D4FE96
:105248000198FEF716FF03461B68002B04D04B4954
:1052580040F26D5003F0C8FE09F0B2FA034683F03D
:105268000103DBB2002B04D009F09EFA0346002BA1
:1052780004D1424940F2715003F0B6FE00238DF884
:105288001F301CE000238DF81E300BE00398FEF75A
:10529800E9FE03461846FFF79DF80346002B01D0A8
:1052A800112367E09DF81E305A1C8DF81E20194600
:1052B8000598FEF7B1FE0390039B002BE6D19DF8FD
:1052C8001F305A1C8DF81F2019460198FEF76CFEF6
:1052D8000590059B002BD5D100238DF81F3018E0D1
:1052E80000238DF81D3007E00498FEF7BBFE034647
:1052F80001991846FFF77EF89DF81D305A1C8DF865
:105308001D2019460598FEF787FE0490049B002B84
:10531800EAD19DF81F305A1C8DF81F2019460198B4
:10532800FEF742FE0590059B002BD9D1144B06933E
:1053380010E0069B1B68019A9A4204D10F4940F27B
:10534800975003F051FE069B1B681846FEF791FE26
:1053580003460693069B1B68002BEAD1069B019A1D
:105368001A600B238DF8083002AB19460198FEF736
:10537800EFFE0346184609B05DF804FB00C10500BE
:105388001C0A002000B587B00190019B002B04D1B6
:10539800504940F2A45003F027FE019B5B68002BA4
:1053A80004D14C4940F2A55003F01EFE019B5B68F6
:1053B8001B68002B04D1474940F2A65003F014FEA5
:1053C80009F0FEF9034683F00103DBB2002B04D099
:1053D80009F0EAF90346002B04D13E494FF4B560C1
:1053E80003F002FE3C4B05936AE0059B1B68019A9B
:1053F8009A425ED10C238DF8083002AB1946019809
:10540800FEF7A6FE0390039B002B01D0039B5CE0F4
:105418000198FEF72EFE03461A68059B1A6001984C
:10542800FEF727FE034600221A6000238DF813308A
:1054380019E09DF8133063F07F038DF80A309DF86A
:105448000A301846FEF7C6FF0246019B934205D173
:105458009DF80A3000211846FEF7CCFF9DF813305E
:1054680001338DF813309DF81330082BE1D9002350
:105478008DF8133017E09DF813308DF80B309DF838
:105488000B301846FEF7A6FF0246019B934205D152
:105498009DF80B3000211846FEF7ACFF9DF813303D
:1054A80001338DF813309DF81330082BE3D900230E
:1054B8000BE0059B1B681846FEF7DBFD03460593CA
:1054C800059B1B68002B90D10523184607B05DF893
:1054D80004FB00BF00C105001C0A002000B583B012
:1054E8000023019308E00A4B1B681846FFF74AFFA0
:1054F8000190019B002B04D1054B1B68002BF2D1B6
:1055080000E000BF019B184603B05DF804FB00BF34
:105518001C0A0020044B1B78002B14BF0123002316
:10552800DBB21846704700BF290A002000B583B0D7
:1055380003468DF807309DF8073003F00803002B69
:1055480009D19DF80730184609F065FC9DF8073029
:10555800184609F02AFC9DF80730184609F050FA59
:1055680000BF03B05DF804FB00B583B003468DF8B7
:1055780007309DF80730184609F092FA00BF03B0CB
:105588005DF804FB014B1B68184670471C0A002095
:10559800014B1B6818467047200A0020014B1B6806
:1055A80018467047240A002000B587B003460091CA
:1055B8008DF80730FFF7E6FF059031E00598FEF714
:1055C800EBFC03468DF8123000238DF813301DE0F4
:1055D8009DF8133019460598FEF7E6FC03900398EA
:1055E800FEF70CFD03461A469DF80730934208D192
:1055F800009B002B03D0009B9DF813201A70059B7D
:1056080012E09DF8133001338DF813309DF8132004
:105618009DF812309A42DBD30598FEF731FD0590CC
:10562800059B002BCAD10023184607B05DF804FB80
:1056380000B585B003900B4601928DF80B300199A7
:105648000398FEF785FD0346184605B05DF804FB90
:1056580000B585B0034600918DF807309DF90730F5
:10566800002B05DA9DF8073003F00F03082B09DD3E
:105678009DF90730002B16DB9DF8073003F00F0368
:10568800082B10DC9DF807301846FEF767FE034626
:105698001B680393039B002B05D000990398FEF722
:1056A80057FD034600E01023184605B05DF804FBDB
:1056B80000B585B00190FFF765FF039007E00199F9
:1056C8000398FEF745FD0398FEF7DAFC0390039B69
:1056D800002BF4D100BF00BF05B05DF804FB00B596
:1056E80085B0019006230293FFF74CFF03900BE06F
:1056F80001990398FEF72CFD0290029B062B07D117
:105708000398FEF7BDFC0390039B002BF0D100E04B
:1057180000BF029B184605B05DF804FB00B583B0D6
:10572800034600918DF807309DF80730184609F0B8
:1057380054F9034683F00103DBB2002B01D00823A0
:105748000CE0084B1B78022B01D0082306E09DF8DB
:1057580007300099184609F0C3F90346184603B004
:105768005DF804FB280A002000B583B003460091C9
:105778008DF807309DF80730184609F02EF90346D2
:1057880083F00103DBB2002B01D008230CE0084BA7
:105798001B78022B01D0082306E09DF807300099FA
:1057A800184609F06BFA0346184603B05DF804FB87
:1057B800280A002000B585B001900B468DF803300B
:1057C80013468DF8023006230393019B5B689B68A0
:1057D800002B09D0019B5B689B689DF802209DF80F
:1057E8000310019898470390039B062B08D19DF856
:1057F80002209DF8033019460198FEF7D7FF039061
:10580800039B184605B05DF804FB00B583B0019012
:105818000B468DF80330019B5B68DB68002B07D0D3
:10582800019B5B68DB689DF8032011460198984747
:105838009DF8033019460198FFF704F800BF03B03C
:105848005DF804FB00B585B001900B468DF8033078
:1058580000238DF80F30019B5B681B69002B0AD071
:10586800019B5B681B699DF80320114601989847C6
:1058780003468DF80F309DF80F30184605B05DF8D7
:1058880004FB000000B585B0FFF77CFE039028E01C
:105898000398FEF781FB03468DF80A3000238DF844
:1058A8000B3014E09DF80B30002219460398FFF7DF
:1058B80081FF0190019B002B04D00E4940F26A70D1
:1058C80003F092FB9DF80B3001338DF80B309DF8F7
:1058D8000B209DF80A309A42E4D30398FEF7D0FBD8
:1058E8000390039B002BD3D100BF00BF05B05DF828
:1058F80004FB00BF00C1050000B583B0FFF742FEFE
:1059080001901EE00198FEF747FB03468DF8023030
:1059180000238DF803300AE09DF8033019460198FA
:10592800FFF773FF9DF8033001338DF803309DF8BE
:1059380003209DF802309A42EED30198FEF7A0FBAF
:105948000190019B002BDDD100BF00BF03B05DF8C3
:1059580004FB82B003468DF807309DF8073003F04A
:105968001F03DBB2184602B0704782B003468DF8B9
:1059780007309DF807305B0903F00303DBB21846D4
:1059880002B0704782B003468DF807309DF80730A3
:10599800DB09DBB2184602B0704782B00190019B68
:1059A8001B7A184602B0704700B585B001900B46C7
:1059B8008DF80330019B002B04D10F494FF48870F8
:1059C80003F012FB0198FFF7E8FF03461A469DF81B
:1059D8000330934201D3002309E0019B0933039369
:1059E8009DF8032013465B001344039A134418469A
:1059F80005B05DF804FB00BF0CC2050082B0019041
:105A0800019B1B78184602B0704782B00190019B39
:105A18005B78184602B0704700B585B001900B4618
:105A28008DF80330019B002B04D10D4940F243103F
:105A380003F0DAFA019B5B789DF803209A4201D3C0
:105A4800002309E0019B9B781A46019B13440393AA
:105A58009DF80330039A1344184605B05DF804FB1B
:105A68000CC2050082B00190019B1B78184602B059
:105A7800704782B00190019B184602B07047000041
:105A880000B583B00190019B002B03D1044952203B
:105A980003F0AAFA019B184603B05DF804FB00BFA7
:105AA8008CC2050000B583B00190019B002B03D187
:105AB80009495F2003F098FA019B1B68002B03D16A
:105AC8000549602003F090FA019B1B680C331846C7
:105AD80003B05DF804FB00BF8CC2050000B585B0BB
:105AE80001900B468DF803300198FFF7C9FF03902A
:105AF800039BDB69002B06D0039BDB699DF8032021
:105B080011460198984700BF05B05DF804FB00B541
:105B180085B0019000210198FFF746FF039000210E
:105B28000398FFF779FF02900298FFF79BFF03465F
:105B3800184605B05DF804FB00B585B00190012159
:105B48000198FFF731FF039000210398FFF764FFE6
:105B580002900298FFF786FF0346184605B05DF8E5
:105B680004FB00B585B0019001210198FFF71CFFE7
:105B7800039001210398FFF74FFF02900298FFF767
:105B880071FF0346184605B05DF804FB00B589B0FF
:105B980003900291029B5B781846FFF7DAFE0346F2
:105BA800012B28D1029B9B78062B24D10023059337
:105BB80004AB184602F01CFB0790029B1979029B64
:105BC800DA7805AB0093079B0398FEF747FB06902E
:105BD800069B052B0FD0059B3F2B03D90849C920ED
:105BE80003F002FA029B0133059A0799184602F05E
:105BF80093FA034600E00623184609B05DF804FB53
:105C08008CC2050082B00190009100BF062318469F
:105C180002B0704700B585B0019000910198FFF778
:105C28002FFF03900398FFF73DFF0290009B9B789E
:105C3800212B11D1009BB3F807309BB2072B01D061
:105C480006230BE0009B581C029B0C3307221946C5
:105C580002F062FA034601E000BF0623184605B0C9
:105C68005DF804FB00B585B0034600918DF8073058
:105C78009DF80730002B01D0032316E0009B039307
:105C88000398FFF70FFF0290029B1B78202B0BD184
:105C9800029B03F10C00029B0233072219464AF0CB
:105CA800EBFD00BF002300E00623184605B05DF8B1
:105CB80004FB000000B58BB0019000910198FFF73C
:105CC800DFFE08900898FFF7EDFE0790009B9A7892
:105CD800079B1A70009BB3F807309BB2DAB2079B98
:105CE8005A70079B02330493079B5B780593002344
:105CF8000693002002F0BAFB04AB19460020FFF718
:105D08000DFD0990099B002B09D1094B0293089BB3
:105D1800039302AB1946002002F04CFA09900020C8
:105D280002F0B8FB099B18460BB05DF804FB00BFF6
:105D38006D5C000000B585B001900198FFF7A0FEEA
:105D480003900398FFF7AEFE0290029B00229A820E
:105D5800029B00229A61029B00221A62029B002287
:105D6800DA66029B00221A67029B00225A67029B8E
:105D780000229A67029B03F12802029B9A6600BFE1
:105D880005B05DF804FB00B587B00190009101985B
:105D9800FFF776FE05900598FFF784FE0490009BB8
:105DA8009B78202B04D0222B10D000BF06237BE049
:105DB800009BB3F807309BB2072B01D0062373E092
:105DC80000990198FFF776FF03466DE0009BB3F852
:105DD80007309BB2002B01D0062365E0049B9B8A09
:105DE80003F00103002B14BF012300238DF80F30AB
:105DF800009BB3F803309AB2049B9A82049B9B8A57
:105E080003F00103002B14BF012300238DF80E308B
:105E18009DF80F209DF80E309A4201D1002343E0EF
:105E28009DF80E30002B01D0022300E003238DF8EB
:105E38000D309DF80D3019460198FFF74FFE9DF87B
:105E48000E3083F00103DBB2002B2CD00198FFF752
:105E580073FE03468DF80C309DF80C30184607F099
:105E680065FB0198FFF77DFE03468DF80C309DF821
:105E78000C30184607F05AFB049B00229A61049BD9
:105E880000221A62049B0022DA66049B00221A6729
:105E9800049B00225A67049B00229A67049B03F123
:105EA8002802049B9A660023184607B05DF804FB95
:105EB80000B583B001900091019B002B04D12449C7
:105EC8004FF4E47003F090F8009B002B04D12049B4
:105ED80040F2C91003F088F8009B5B781846FFF77A
:105EE80051FD0346012B16D1009B5B781846FFF73E
:105EF8003CFD0346002B02D0012B06D022E000997E
:105F08000198FFF743FE03461DE000990198FFF74B
:105F180081FE034617E0009B5B781846FFF725FDD6
:105F28000346002B02D0012B06D00BE00099019804
:105F3800FFF768FE034606E000990198FFF723FF84
:105F4800034600E00623184603B05DF804FB00BFD3
:105F58008CC2050086B00390029101920093029BC7
:105F68000593039B009A5A60059BDB69009A9A4245
:105F78001DD8059B9A69039B1A60059B9A69009B2B
:105F88001A44059B9A61059B1A6F009B1A44059B4E
:105F98001A67059BDA69009BD21A059BDA61059B93
:105FA800DB69002B14BF01230023DBB208E0059B4B
:105FB80003F12802039B1A60059B009A9A67002345
:105FC800184606B0704786B003900291019200937C
:105FD800029B0593039B009A5A60059BDB69009A14
:105FE8009A420AD8059B9A69039B1A60059B009AF6
:105FF8001A67059B009ADA6107E0059B03F12802FE
:10600800039B1A60059B009A9A670023184606B0FE
:106018007047000000B58BB001900198FFF730FD84
:1060280008900898FFF73EFD07900198FFF799FD43
:1060380003468DF81B306C4B0393079B0493079B17
:10604800DB69002B26D1079B1A6F079B5A67079BB2
:1060580000221A67079B0022DA66079B1B6A002B3F
:1060680013D0079B079A1833203292E8030083E87D
:106078000300079B00221A6203AA9DF81B301146F1
:106088001846FFF771FB0346A9E0079B00229A61B7
:106098000023A4E0079B9B6F0593059B0993079B2F
:1060A800DB69059A9A4202D9079BDB690993079B2A
:1060B8009869079B2833099A19464AF0DDFB079B24
:1060C8001A6F099B1A44079B5A67079B00221A6795
:1060D800059A099BD21A079BDA66079B03F12802E7
:1060E800099B1A44079B9A66079B1B6A002B65D07D
:1060F800079B079A1833203292E8030083E80300CD
:10610800079B00221A6254E0079BDA6E079BDB6943
:106118009A4232D3079B9869079B996E079BDB6964
:106128001A464AF0A9FB079BDA6E079BDB69D21A6D
:10613800079BDA66079B9A6E079BDB691A44079BE5
:106148009A66079BDA69079B5A6700210198FFF74F
:10615800C5FC079B1B6A002B0BD0079B079A1833BB
:10616800203292E8030083E80300079B00221A62AA
:106178001FE0079B00229A6123E0079B9869079B11
:10618800996E079BDB6E1A464AF076FB079BDA6E20
:10619800079B1A67079BDA69079BDB6ED21A079B76
:1061A800DA61079B9A69079BDB6E1A44079B9A6121
:1061B80007E0079BDB6E002BA6D102E0079B0022BD
:1061C8009A61079B9B69002B08D003AA9DF81B3096
:1061D80011461846FFF7C8FA034600E000231846A0
:1061E8000BB05DF804FB00BF5D5F000000B585B033
:1061F800019000910198FFF78AFC03461A46009B1C
:106208009B789A4201D1002334E0009B9B785BB2D3
:10621800002B10DA009BDB78002B02D0032B06D072
:1062280007E001210198FFF759FC002322E0002331
:1062380020E003231EE0009B9B785BB2002B18DB59
:10624800009BDB78032B10D0032B10DC002B02D033
:10625800012B0AD00BE00198FFF7DCFE0390002128
:106268000198FFF73BFC039B04E0002302E00323B3
:1062780000E00623184605B05DF804FB00B585B0BC
:1062880001900091019B002B04D12B4940F2DD20A5
:1062980002F0AAFE009B002B04D1274940F2DE2021
:1062A80002F0A2FE00230393009B1B780E2B39D823
:1062B80001A252F823F000BF33630000FD62000022
:1062C80033630000336300002D63000005630000A2
:1062D800116300002D6300002D6300001D630000A2
:1062E8002D63000033630000336300003363000054
:1062F800336300000198FFF71DFD17E0009901982E
:10630800FFF7D6FD039011E000990198FFF76EFFA3
:1063180003900BE003210198FFF7E0FB0198FFF7DA
:1063280009FD03E00623039300E000BF039B184622
:1063380005B05DF804FB00BF8CC2050010B58AB03B
:1063480003900291019200930298FFF726FB0346FF
:106358001A46C24B1A700298FFF792FB0990039BEA
:10636800002B04D1BE4940F2113002F03DFE019BE2
:10637800059300230693009B0793039B0893089BB0
:106388001B68002B00F00A81B3F5647F00F2D78602
:10639800B3F5457FC0F0D386A3F545737C2B00F297
:1063A800CE8601A252F823F0C3650000F96500000B
:1063B800316600006F660000A5660000DB6600001D
:1063C800136700004967000047710000477100002B
:1063D80047710000477100004771000047710000D5
:1063E80089670000BF67000047710000477100001F
:1063F80047710000477100001168000047680000FD
:10640800876800004771000047710000477100006D
:10641800D1680000076900003F690000477100006B
:10642800477100004771000047710000896900004A
:10643800C7690000FB690000477100004771000050
:106448004771000047710000477100004771000064
:106458003B6A000047710000477100004771000067
:1064680047710000856A0000B96A0000ED6A000003
:10647800216B0000556B0000477100004771000058
:10648800896B0000BD6B0000F16B0000256C0000FB
:10649800636C00004771000047710000976C0000B2
:1064A800CB6C0000FF6C0000336D000047710000EA
:1064B80047710000676D00009B6D0000CF6D000004
:1064C800056E00003B6E0000477100004771000038
:1064D80047710000477100004771000047710000D4
:1064E80047710000477100004771000047710000C4
:1064F80047710000477100004771000047710000B4
:1065080047710000477100004771000047710000A3
:1065180047710000A96E0000DD6E000047710000A1
:106528004771000047710000316F0000477100009B
:10653800477100004771000047710000796F000043
:106548004771000047710000477100004771000063
:10655800C36F0000477100004771000047710000D9
:106568004771000047710000477100000370000088
:106578003770000047710000477100004771000044
:1065880047710000837000004771000047710000E8
:106598004771000047710000E3700000089B082263
:1065A8001A71069A079B9A4206D3089B4FF44572C4
:1065B8001A60012300F0C7BD00BF059B002B05D062
:1065C800089A0599069B0B4412791A70069B0133A9
:1065D8000693089B0B221A71069A079B9A4206D3C8
:1065E800089B40F215321A60012300F0ACBD00BFD1
:1065F800059B002B05D0089A0599069B0B44127938
:106608001A70069B01330693089B099A127D1A712A
:10661800069A079B9A4206D3089B40F216321A60E4
:10662800012300F090BD00BF059B002B05D0089A00
:106638000599069B0B4412791A70069B0133069341
:10664800089B02221A71069A079B9A420AD3089B52
:1066580040F217321A60012300F075BD400A00208D
:106668008CC2050000BF059B002B05D0089A059930
:10667800069B0B4412791A70069B01330693089BFC
:1066880002221A71069A079B9A4206D3089B4FF476
:1066980046721A60012300F056BD00BF059B002B0F
:1066A80005D0089A0599069B0B4412791A70069B27
:1066B80001330693089B02221A71069A079B9A4295
:1066C80006D3089B40F219321A60012300F03BBD43
:1066D80000BF059B002B05D0089A0599069B0B4423
:1066E80012791A70069B01330693089B099A527E09
:1066F8001A71069A079B9A4206D3089B40F21A32EF
:106708001A60012300F01FBD00BF059B002B05D0B8
:10671800089A0599069B0B4412791A70069B013357
:106728000693089B00221A71069A079B9A4206D381
:10673800089B40F21B321A60012300F004BD00BF21
:10674800059B002B05D0089A0599069B0B441279E6
:106758001A70069B01330693964B00221A7000F0BC
:10676800E1BC089B09221A71069A079B9A4206D334
:10677800089B40F222321A60012300F0E4BC00BFFB
:10678800059B002B05D0089A0599069B0B441279A6
:106798001A70069B01330693089B04221A71069A05
:1067A800079B9A4206D3089B40F223321A600123C2
:1067B80000F0C9BC00BF059B002B05D0089A0599BD
:1067C800069B0B4412791A70069B01330693794B8A
:1067D8001B7819460298FFF7E7F80346764A1360D4
:1067E800754B1B68089C1846FFF708F90346237188
:1067F800069A079B9A4206D3089B4FF44A721A607E
:10680800012300F0A0BC00BF059B002B05D0089A0F
:106818000599069B0B4412791A70069B013306935F
:10682800089B00221A71069A079B9A4206D3089B76
:1068380040F229321A60012300F085BC00BF059B95
:10684800002B05D0089A0599069B0B4412791A70FB
:10685800069B01330693584B1B68089C1846FFF7A4
:10686800D4F803462371069A079B9A4206D3089BDD
:1068780040F22A321A60012300F065BC00BF059B74
:10688800002B05D0089A0599069B0B4412791A70BB
:10689800069B01330693099B1C7D474B1B681846D2
:1068A800FFF7ACF803469C4252D1089B02221A71AA
:1068B800069A079B9A4206D3089B40F22E321A602A
:1068C800012300F040BC00BF059B002B05D0089AAF
:1068D8000599069B0B4412791A70069B013306939F
:1068E800089B02221A71069A079B9A4206D3089BB4
:1068F80040F22F321A60012300F025BC00BF059B2F
:10690800002B05D0089A0599069B0B4412791A703A
:10691800069B01330693089B099A527E1A71069AC0
:10692800079B9A4206D3089B4FF44C721A600123C6
:1069380000F009BC00BF059B002B05D0089A0599FB
:10694800069B0B4412791A70069B0133069362E08A
:10695800099B9C7D184B1B681846FFF74FF80346A8
:106968009C4253D1089B0A221A71069A079B9A42A5
:1069780005D3089B40F235321A600123E3E300BFD8
:10698800059B002B05D0089A0599069B0B441279A4
:106998001A70069B01330693089B00221A71069A07
:1069A800079B9A420AD3089B40F236321A600123A9
:1069B800C9E300BF410A0020440A002000BF059B2C
:1069C800002B05D0089A0599069B0B4412791A707A
:1069D800069B01330693089B00221A71069A079BAF
:1069E8009A4205D3089B40F237321A600123AAE382
:1069F80000BF059B002B05D0089A0599069B0B4400
:106A080012791A70069B0133069304E0904940F20C
:106A18003B3002F0E9FA089B00221A71069A079B9C
:106A28009A4205D3089B40F23E321A6001238AE35A
:106A380000BF059B002B05D0089A0599069B0B44BF
:106A480012791A70069B01330693099B1C7D814BB2
:106A58001B681846FEF7D2FF03469C4240F0F681B9
:106A6800089B05221A71069A079B9A4205D3089B30
:106A780040F243321A60012365E300BF059B002BF7
:106A880005D0089A0599069B0B4412791A70069B43
:106A980001330693089B24221A71069A079B9A428F
:106AA80005D3089B4FF451721A6001234BE300BFD2
:106AB800059B002B05D0089A0599069B0B44127973
:106AC8001A70069B01330693089B00221A71069AD6
