:020000022000DC
:1070000000000420757302005D7302005F730200CC
:1070100061730200637302006573020000000000E8
:107020000000000000000000000000006773020084
:1070300069730200000000006B7302006D730200B0
:10704000C1C502006F73020061D302006F730200BA
:107050006F7302006F73020059D202006F73020057
:107060006F7302006F7302006F7302006F73020090
:107070006F7302006F7302006F7302006F73020080
:107080006F730200D19F02006F7302006F730200E2
:107090006F7302006F7302008D0703006F730200AD
:1070A0006F7302006F7302006F7302006F73020050
:1070B0006F7302006F730200000000000000000008
:1070C0006F7302006F7302006F7302006F73020030
:1070D0006F7302006F7302006F7302006F73020020
:1070E0006F7302006F7302006F73020000000000F4
:1070F000000000006F730200000000006F730200C8
:10710000000000000000000000000000000000007F
:10711000000000000000000000000000000000006F
:10712000000000000000000000000000000000005F
:10713000000000000000000000000000000000004F
:10714000000000000000000000000000000000003F
:10715000000000000000000000000000000000002F
:10716000000000000000000000000000000000001F
:10717000000000000000000000000000000000000F
:1071800000000000000000000000000000000000FF
:1071900000000000000000000000000000000000EF
:1071A00000000000000000000000000000000000DF
:1071B00000000000000000000000000000000000CF
:1071C00000000000000000000000000000000000BF
:1071D00000000000000000000000000000000000AF
:1071E000000000000000000000000000000000009F
:1071F000000000000000000000000000000000008F
:10720000354936480A1A02D0072291438D4634493F
:1072100034480A1A06D00722914381F309880222D2
:1072200082F3148830483149314A00F044F831483B
:107230003149324A00F03FF831483249324A00F0D1
:107240003AF832483249334A00F035F83248334987
:10725000334A00F030F833483349344A00F02BF811
:1072600033483449344A00F026F83448344900227F
:1072700000F02CF833483449002200F027F8334856
:107280003349091A082902DB002202604160314AB1
:1072900090471F481F49884205D00268043003B454
:1072A000904703BCF7E700208646EC46002000210B
:1072B000294A9047FEE7884207D0521A05D0037842
:1072C00001300B700131013AF9D17047884202D088
:1072D00002700130FAE770470000042000E003204C
:1072E00000000420000004206C2A0300002300207A
:1072F00028240020D0730200D0730200780E03000F
:107300006C2A030000230020002300202C0F030020
:107310002C0F03002C0F03002C0F03002C0F030075
:107320002C0F03002C0F03002C0F03006C2A03000A
:10733000942B030028240020282400202824002047
:10734000472C0020482C0020482C0020482C0020EE
:10735000484C00209D730200B1F80200FEE7FEE7F2
:10736000FEE7FEE7FEE7FEE7FEE7FEE7FEE7FEE7F5
:1073700000F002B8FFF7FCBF0F484FF00701884349
:1073800085460E4880470E48016841F4700101604F
:10739000BFF34F8FBFF36F8FFFF732BF09480A4922
:1073A0000A4A884207D0521A05D0037801300B7080
:1073B0000131013AF9D1704700000420B5B702004D
:1073C00088ED00E02C0F03000023002000230020A4
:1073D00000B5A1B00590049103920293049803F0C4
:1073E0000FFD039B1593029B169300231793002315
:1073F0008DF8603000231993229B1A9300231F936A
:107400000FA91F9B0822049803F0D4FD08231F93A3
:10741000119B1293BDF84030ADF84C30BDF84230AE
:10742000ADF84E3000238DF851309DF83C3003F01C
:107430000303DBB2012B26D10F9BC3F395231C93CF
:107440009DF83C30C3F3C203DBB28DF85030BDF879
:107450003C30C3F38313DBB21B931B9B9A0009A937
:107460001F9B049803F0A6FD1B9B9B001F9A1344CF
:107470001F9312AA09A915AB009313461B9A1C98D7
:1074800000F0E0FF2FE09DF83C3003F00303DBB297
:10749000022B28D1BDF83E30C3F389139BB21E9353
:1074A0009DF83C30C3F3C203DBB28DF850301E9B15
:1074B000082B28BF08231D9307A91F9B1D9A04981A
:1074C00003F078FD1F9A1D9B13441F931E9A1D9B6A
:1074D000D31A1E9315AB12AA07A81D9901F054F8F0
:1074E0001E9B002BE3D1049803F099FC00BF21B050
:1074F0005DF804FB00B583B00190019B1B781A4630
:107500000C4B9B5C002B05D0019B0433184607F005
:107510001FFA0BE0019B1B781A46064B9B5C002B65
:1075200004D1019B0C33184606F08EFB00BF03B05C
:107530005DF804FB182B002000B587B00390029182
:1075400013468DF8073000230593039B1B781A46DA
:10755000114B9B5C002B09D0039B04339DF8072043
:107560000299184607F056FA05900FE0039B1B7826
:107570001A46094B9B5C002B08D1039B0C339DF8EA
:1075800007200299184606F0D7FB0590059B184680
:1075900007B05DF804FB00BF182B002082B00190FB
:1075A0000091034B01221A7000BF02B0704700BF68
:1075B0006824002030B58DB003468DF807301A4B93
:1075C00002AC1D460FCD0FC495E80F0084E80F00F4
:1075D000062302934FF0FF3303934FF0FF330493DE
:1075E0004FF0FF3305934FF0EB7308939DF807308E
:1075F000002B01D00D4A00E0002202AB19460C48D6
:1076000004F0ECFD0B900B9B0A930A9B002B04D01B
:10761000084A43210A9801F05DFB074A9DF80730AC
:10762000137000BF0DB030BD900F03009D750200B8
:10763000002300202C0F03006924002000B583B034
:1076400001238DF807309DF807301846FFF7B2FF89
:1076500000BF03B05DF804FB00B589B00390029150
:107660000192019B8DF81F30124B00221A709DF879
:107670001F301A4602991048FFF75EFF0690069BDE
:107680000593059B002B04D00C4A5321059801F06B
:1076900021FB00BF0A4B1B78002B07D0054B1B7842
:1076A000DBB283F00103DBB2002BF3D100BF09B0E2
:1076B0005DF804FB68240020002300202C0F030049
:1076C0006924002000B585B003900291054B00931A
:1076D0004023054A02990398FFF77AFE00BF05B0E0
:1076E0005DF804FB597602002824002082B0019046
:1076F00000BF02B07047000000B583B0019005489C
:10770000FFF7F8FE0020FFF755FF00BF03B05DF85C
:1077100004FB00BF0023002082B00190019BDB68C6
:1077200001225A7100BF02B07047000000B583B05B
:107730004FF0FF330193FFF781FF0421084800F069
:107740009DFD0190019B002B03DA0649482007F0BC
:107750006BFF0348FFF7E0FF00BF03B05DF804FBD9
:107760001C0F0300D00F030000B583B001900091FF
:10777000019B1B681B6800990198984700BF03B0E4
:107780005DF804FB00B583B00190019B1B685B684A
:107790000198984700BF03B05DF804FB00B583B0C3
:1077A0000190019B1B689B680198984700BF03B03C
:1077B0005DF804FB82B001900B468DF80330019B0D
:1077C000DB689DF803201A7100BF02B0704782B0D9
:1077D0000190019BDB681B79184602B0704782B0AC
:1077E0000190019BDB6801225A7100BF02B0704713
:1077F00082B00190019BDB685B79184602B070474C
:1078000000B585B0019000910C4B00221A700C4815
:1078100003F05AFA0390039B002B01D0039B08E06E
:10782000084803F085FC084A084BD31ADB0802938A
:107830000023184605B05DF804FB00BFD4250020E6
:10784000980E0300381003001C0F0300AC0E030059
:10785000024A034BD31ADB08184670471C0F03007B
:10786000AC0E030000B587B001900B468DF80330D5
:107870009DF80330002B1FD0FFF7EAFF0490002390
:10788000059313E0059B9B000E4A13440393039B4F
:107890001B881A46019B1B689A4204D1019B059ADA
:1078A0001A60002309E0059B01330593059A049BA8
:1078B0009A42E7D3052300E00023184607B05DF89D
:1078C00004FB00BF0023002000B585B001900B46EB
:1078D0008DF803309DF8032001AB11461846FFF7E1
:1078E000C1FF0346002B07D1019BDB00054A13446F
:1078F0000393039B1B6800E00023184605B05DF866
:1079000004FB00BFAC0E030084B001900B468DF861
:107910000330019BDB00174A134402939DF80330A8
:10792000013B032B1CD801A252F823F03D79020041
:10793000457902004D7902005779020002238DF843
:107940000F3011E004238DF80F300DE0029B1B79FE
:107950008DF80F3008E0029B5B798DF80F3003E063
:1079600000238DF80F3000BF9DF80F30184604B08B
:10797000704700BFAC0E030084B00190009100235B
:107980008DF80F30019B1B7803F00403DBB2002B52
:1079900024D0019B1B78C3F30103DBB2012B02D07F
:1079A000022B0CD017E0009B1B68019A1288C2F3CF
:1079B0008312D2B213449A1C009B1A600BE0009B06
:1079C0001B68019A5288C2F3891292B213449A1C1E
:1079D000009B1A6000BF01238DF80F309DF80F3017
:1079E000184604B07047000000B58BB00023ADF816
:1079F00026303E4802F073FC3D4802F070FC3D4BDF
:107A00009B6804933C4B1B680693049A069B1340A7
:107A100002339B00374A13440433089304AB1946DE
:107A20000898FFF7A9FF0346002B09D0049A069B8C
:107A3000134002339B002F4A134404330893EDE7AD
:107A400000BF0023079311E0049B5A1C0492069A7E
:107A50001340079A920001A90A44264902339B0069
:107A60000B445B681360079B01330793079B012B53
:107A7000EAD99DF80430C3F30103DBB2012B10D027
:107A8000022B1CD1BDF80A30ADF82630BDF8063007
:107A9000C3F389139BB203339A08049B13440493E2
:107AA00013E0BDF80A30ADF82630BDF80430C3F35A
:107AB0008313DBB21A46049B1344049305E00F4979
:107AC0004FF4C27007F0B0FD00BF094802F013FC8C
:107AD0000590059B002B02D0049B064A9360BDF8DD
:107AE000263018460BB05DF804FB00BFEC290020DF
:107AF000E8290020D42500201C2300204810030082
:107B000000B585B00021074802F072FB0390039B8B
:107B10000293029B83F310030193019B184605B067
:107B20005DF804FBF029002000B589B003900291B4
:107B300001920093039B1B0C0793FFF7E1FF069054
:107B4000FFF786FE0246079B934204D3214940F289
:107B5000A91007F069FD069B1904009B5A1C0A9B9B
:107B60001340079A0A431C4902339B000B445A6096
:107B7000009A0A9B134002339B00174A13440433B4
:107B80000593039B03F00703D9B2059A137861F3B9
:107B9000C5031370019B03F00F03D9B2059A138834
:107BA00061F389131380029BC3F31501059A1368CF
:107BB00061F39F231360059A1378012161F3010398
:107BC0001370059A13786FF38203137000BF09B026
:107BD0005DF804FB48100300D425002000BF704767
:107BE00000B58DB00390029113468DF80730039BCA
:107BF00002330A9301238DF8273000238DF81B30C0
:107C00000DF11B03184601F0B7FD404B5A68029B6B
:107C10001A603F4B1A683D4B99683C4B5B68CB1A26
:107C2000134401330B9314E001213A4802F027FB7F
:107C3000FFF7DAFE07900799364802F020FB344B35
:107C40001A68324B9968314B5B68CB1A1344013385
:107C50000B930A9A0B9B9A42E6D89DF82730002B8B
:107C600048D0002305939DF80730002B17D09DF8CE
:107C70001430012262F301038DF814309DF81430A2
:107C800043F004038DF81430039B03F00F03DAB2C2
:107C9000BDF8143062F38913ADF8143016E09DF886
:107CA0001430022262F301038DF814309DF8143071
:107CB00043F004038DF81430039BC3F309039AB215
:107CC000BDF8163062F38F13ADF816300F4B5A68BB
:107CD0000F4B1B68134002339B000C4A13440433C0
:107CE0000893059A089B1A60084B5A680A9B13442C
:107CF000064A53609DF81B30184601F053FD9DF86D
:107D0000273018460DB05DF804FB00BFD4250020D5
:107D10001C230020F029002000B58BB005900491B1
:107D200003920293204B1B68079306AB012219466E
:107D30000298FFF755FF0346002B24D0069B023321
:107D400009930023089311E0089B9B00039A1A44AF
:107D5000099B591C099107990B401268134902337A
:107D60009B000B445A60089B01330893089A029BBE
:107D70009A42E9D3069A079B00931346029A049904
:107D80000598FFF7D1FE094B1B78002B05D000BFEB
:107D900000F06AF80346002BFAD1FFF71FFF00BF7F
:107DA0000BB05DF804FB00BF1C230020D42500208D
:107DB00000B583B001900091002300220099019842
:107DC000FFF7AAFF00BF03B05DF804FB00B587B062
:107DD000039002910192019B059305AA0123029948
:107DE0000398FFF799FF00BF07B05DF804FB00B5EB
:107DF00087B00390029101920093019B0493009B32
:107E0000059304AA022302990398FFF785FF00BF98
:107E100007B05DF804FB00B58BB0039002910192AE
:107E20000093019B0593009B06930C9B07930D9B6E
:107E300008930E9B099305AA052302990398FFF75F
:107E40006BFF00BF0BB05DF804FB0000054B9A68A8
:107E5000044B5B689A420CBF01230023DBB2184637
:107E6000704700BFD425002000B599B0FFF7EEFFA2
:107E70000346002B01D00023C0E19B4B0022C3F836
:107E80001824BFF34F8F00BF974B9B680493974B09
:107E90001B681093049A109B134002339B00924A74
:107EA00013440433119300231793002316930023E4
:107EB0000F9304AB19461198FFF75EFD0346002BA4
:107EC00019D0894BD3F81834002B14D1864B5A683B
:107ED000049B9A4205D8844B5B68834A93600023D5
:107EE0008CE1049A109B134002339B007E4A13449A
:107EF00004331193DDE70023159311E0049B5A1C12
:107F00000492109A1340159A920001A90A447649E6
:107F100002339B000B445B681360159B0133159380
:107F2000159B012BEAD99DF8043003F00303DBB263
:107F3000022B40F09C80BDF80630C3F389139BB23E
:107F40000D93BDF80630C3F389139BB2502B28BFA5
:107F500050239BB20C930C9BC3F309039AB2BDF858
:107F6000063062F38F13ADF806300C9B08330B9389
:107F70009DF80430C3F3C203DBB20F930B995C4846
:107F800002F0ADFE1790179B002B00F0D3801798DE
:107F900002F036FF01A9169B0822179802F0ECFFA9
:107FA000169B08331693049BDA43109B134001334E
:107FB0009B000A930C9A0A9B9A4242D90A9B002B77
:107FC00008D0049A109B134002339B00464A134486
:107FD000043300E0474B08930A9B002B02D00A9B16
:107FE000DBB201E00C9BDBB28DF81F300A9B002B4B
:107FF00001D0404B00E0002306930A9B002B06D0E3
:108000000C9BDAB20A9BDBB2D31ADBB200E000238E
:108010008DF817309DF81F20169B0899179802F0CD
:10802000ABFF9DF81F30169A13441693069B002B46
:1080300016D09DF81720169B0699179802F09CFF02
:108040000EE0049A109B134002339B00264A13440F
:1080500004330993169B0C9A0999179802F08CFF28
:108060000D9B03339A08049B1344049362E09DF82C
:10807000043003F00303DBB2012B5BD1BDF8043005
:10808000C3F38313DBB2062B28BF0623DAB2BDF895
:10809000043062F38913ADF80430BDF80430C3F343
:1080A0008313DBB202330E939DF80430C3F3C20393
:1080B000DBB20F930E9B9B0019460D4802F00FFE9A
:1080C0001790179B002B35D0179802F099FE01A945
:1080D000169B0822179802F04FFF169B0833169341
:1080E000002315931DE000BFD42500201C23002091
:1080F000980E0300E0250020049B5A1C0492109A5D
:10810000134002339B003F4A1344191D169B04225F
:10811000179802F031FF169B04331693159B013319
:108120001593BDF80430C3F38313DBB21A46159BD5
:108130009342E1D3179B002B40D0324BD3F810343D
:108140001493304BD3F81834002B1BD0179802F03F
:1081500066FE4DE000238DF84F301498FFF748FB82
:108160000346002B02D001238DF84F309DF84F308D
:10817000002B03D017991498FFF7F6FA149BDB68CD
:108180001B681493149B002BE4D1179802F047FE50
:1081900000238DF803300DF10303184601F0ECFACB
:1081A000184BD3F81834002B02D1049B154A936066
:1081B0009DF80330184601F0F5FA19E0114BD3F899
:1081C0001034129306E01298FFF7E8FA129BDB686E
:1081D0001B681293129B002BF5D10B4A0B4BD31A41
:1081E000DB081B0443F0020309491846FFF7E0FDD2
:1081F000FFF72CFE034683F00103DBB2184619B0EB
:108200005DF804FBD4250020D40E0300AC0E03005F
:10821000A810030000B585B00023039323E0164B9C
:10822000D3F81034029301238DF807300FE0029841
:10823000FFF7CDFA03461A46039B934203D100236E
:108240008DF8073006E0029BDB681B680293029BF7
:10825000002BECD19DF80730002B01D0039B07E0E9
:10826000039B01330393039B092BD8DD4FF0FF33AE
:10827000184605B05DF804FBD425002000B585B094
:1082800001900B468DF80330FFF7C4FF0390039B6A
:10829000B3F1FF3F01D1039B22E0039BDBB2194600
:1082A0000198FFF787FA104BD3F81034002B08D150
:1082B0000D4A019BC2F81034019BDB6800221A6052
:1082C0000DE0094BD3F81034DA68019BDB681268C3
:1082D0001A60054BD3F81034DB68019A1A60039BCF
:1082E000184605B05DF804FBD425002000B583B026
:1082F0000C4BD3F8103401930A4B01221A7009E099
:108300000198FFF76CFA0198FFF73CFA019BDB68D4
:108310001B680193019B002BF2D100BF00BF03B08B
:108320005DF804FBD425002082B00190009100BFCD
:1083300002B0704710B584B003900291039BDB88B4
:10834000002B0AD0039BDB881A461F4B0093134671
:108350001E4A1F49029802F00BF9039B1B7A052B5A
:108360002ED0039B5B7A002B12D0039B9B881A466E
:10837000039B1B7A19461046FFF7C6FA03461A46B6
:10838000144B53F822301A461349029802F0F0F8C1
:10839000039B1B6819460298FFF7C6FF039B1B7AD5
:1083A0001A460E4B53F82240039B9B880021184627
:1083B000FFF78AFA034622460949029802F0D8F8E4
:1083C00000BF04B010BD00BFDC100300EC100300C0
:1083D00024110300342300203C110300202300203B
:1083E0004011030000B585B00390029113468DF84B
:1083F0000730039B1B7A052B0FD0039B5B7A002B66
:1084000006D00D4B1B681A460C49029802F0B0F8D2
:108410000B49029802F0ACF807E09DF80730002BFA
:1084200003D00749029802F0A3F8029802F07EF800
:1084300000BF05B05DF804FB342300203C110300AD
:108440004C11030030B58BB0079006910592049350
:108450000E9B1B7B8DF827300E9B00221A730E9902
:108460000498FFF767FF059B062B7FD801A252F8FF
:1084700023F000BF918402009B840200AB840200C1
:10848000BF840200DD8402000585020035850200FC
:1084900007990E9802F06CF869E0069B1B681A4673
:1084A00007990E9802F064F861E0069B1A68069B33
:1084B00004331B6807990E9802F05AF857E0069BA0
:1084C0001A68069B04331968069B08331B680093DF
:1084D0000B4607990E9802F04BF848E0069B196886
:1084E000069B04331868069B08331B68069A0C32F7
:1084F00012680192009303460A4607990E9802F00B
:1085000037F834E0069B1868069B04331C68069B0A
:1085100008331B68069A0C321268069910310968F4
:108520000291019200932346024607990E9802F0A9
:108530001FF81CE0069B1C68069B04331D68069B05
:1085400008331B68069A0C321268069910310968C4
:1085500006981430006803900291019200932B4614
:10856000224607990E9802F003F800E000BF0022AF
:108570000E990498FFF736FF0E9B9DF827201A737B
:1085800000BF0BB030BD00BF00B587B003900291B3
:1085900001920093029B082B60D8009B1B7B8DF8F7
:1085A0001330009B00221A7300990198FFF7C2FE56
:1085B0000023059314E0059A029B9A4209D2039A7C
:1085C000059B13441B781A462649009801F0D0FFFA
:1085D00003E02549009801F0CBFF059B013305938B
:1085E000059B072BE7D92149009801F0C1FF002323
:1085F000059326E0059A029B9A421BD2039A059B9B
:1086000013441B788DF812309DF812307E2B0AD857
:108610009DF81230184608F09BFB0346002B02D051
:108620009DF8123000E02E231A461149009801F0FF
:108630009FFF03E00F49009801F09AFF059B01336B
:108640000593059B072BD5D9012200990198FFF7C7
:10865000C9FE009B9DF813201A7300E000BF07B00D
:108660005DF804FB50110300581103005C11030076
:10867000601103006411030084B003468DF80730D5
:108680009DF807305B08DBB21A460D4B9B5C8DF8FA
:108690000F309DF8073003F00103002B04D09DF844
:1086A0000F301B09DBB204E09DF80F3003F00F031D
:1086B000DBB28DF80E309DF80E30184604B07047CE
:1086C000082A002084B003460A468DF80730134676
:1086D0008DF806309DF8073003F00103002B01D020
:1086E0000F2300E0F0238DF80F309DF8073003F0E2
:1086F0000103002B04D09DF806301B01DBB201E022
:108700009DF806308DF80E309DF807305B08DBB21F
:108710001A46114B9A5C9DF807305B08DBB219468C
:108720009DF80F301340DAB20B4B5A549DF80730C6
:108730005B08DBB21A46084B9A5C9DF807305B0871
:10874000DBB219469DF80E301343DAB2024B5A548D
:1087500000BF04B0704700BF082A002000B585B0F4
:1087600003468DF807300023039310E00F4B1A687F
:10877000039BDB0013440293029B1B789DF80720A8
:108780009A4201D1029B0DE0039B01330393084BF6
:108790001B781A46039B9342E8DB0649882006F0C3
:1087A00043FF0023184605B05DF804FBF4290020C0
:1087B000F82900207411030000B585B003460A466D
:1087C0008DF8073013468DF806309DF807301846AF
:1087D000FFF7C4FF0390039B002B0BD0039B5B6848
:1087E000002B07D0039B5B689DF806109DF80720BF
:1087F0001046984700BF05B05DF804FB2DE9F04F27
:1088000087B003460A468DF80F3013468DF80E30B8
:108810009DF80F301846FFF72FFF0346042B00F298
:10882000C28001A252F823F03D880200B188020004
:10883000CD880200FD880200138902009DF80E30E9
:10884000002B00F0AD809DF80F3001211846FFF796
:1088500039FF00238DF817300DF11703184600F08B
:108860008BFF9DF80F104FF001024FF00003A1F1B4
:108870002004C1F1200003FA01F702FA04F42743AF
:1088800022FA00F0074302FA01F6494BD3E900232C
:1088900046EA020100913B430193454BDDE900129A
:1088A000C3E900129DF81730184600F07BFF77E00F
:1088B0009DF80E30002B01D0022200E000229DF82E
:1088C0000F3011461846FFF7FDFE6CE09DF80E30A4
:1088D000002B0CD09DF80F3003211846FFF7F2FE55
:1088E0009DF80F3001211846FFF766FF5BE09DF809
:1088F0000F3001211846FFF7E5FE54E09DF80E30D9
:10890000002B4FD19DF80F3004211846FFF7DAFEF7
:1089100048E09DF80E30002B06D09DF80F30032163
:108920001846FFF7CFFE3EE09DF80F3000211846B5
:10893000FFF7C8FE9DF80F3000211846FFF73CFFF7
:1089400000238DF816300DF11603184600F014FFC1
:108950009DF80F104FF001024FF00003A1F1200627
:10896000C1F1200003FA01F502FA06F6354322FAB6
:1089700000F0054302FA01F46FEA04086FEA050902
:108980000B4BD3E9002308EA020A09EA030B084B60
:10899000C3E900AB9DF81630184600F003FF02E073
:1089A00000BF00E000BF00BF07B0BDE8F08F00BF10
:1089B000002A002000B583B00648074B1B685B08FF
:1089C0000022194600F0B0FD019000BF03B05DF831
:1089D00004FB00BF58230020FC29002000B587B00D
:1089E00001900023059328E01C4B1A68059BDB00CF
:1089F00013440493049B1B78184604F07DFB034644
:108A00008DF80F30049B5B78012B0CBF01230023F2
:108A1000DBB21A469DF80F309A420CBF01230023A7
:108A20008DF80E30049B1B789DF80E2011461846D9
:108A3000FFF7E4FE059B01330593094B1B781A46AB
:108A4000059B9342D0DB074BD3E90023134301D0AE
:108A5000FFF7B0FF00BF07B05DF804FBF42900206A
:108A6000F8290020002A002000B585B001900B46AF
:108A70008DF80330019BDBB21846FFF76FFE0390C1
:108A8000039B1B78184604F037FB03468DF80B3028
:108A9000039B5B78012B0CBF01230023DBB21A463A
:108AA0009DF80B309A420CBF012300238DF80A3049
:108AB0009DF80A30002B06D0054BD3E90023134361
:108AC00001D1FFF777FF00BF05B05DF804FB00BFE1
:108AD000002A002000B58BB003900B4601928DF860
:108AE0000B30019B092B01D8072367E004F0F8F94C
:108AF000034683F00103DBB2002B09D004F08CF9AC
:108B00000990099B0893089B002B01D0089B55E016
:108B10002C4A039B13602C4A9DF80B3013702B4A90
:108B2000019B136020220021294808F042F92949BD
:108B30004FF000024FF00003C1E9002331E09DF83F
:108B40000B30DB00039A1344079303238DF8143092
:108B500000238DF815309DF816306FF300038DF863
:108B600016309DF816306FF341038DF816309DF8DE
:108B700016306FF382038DF81630079B9B788DF8C3
:108B80001530079B1B78184605AB134A194604F0AD
:108B9000B3F90990099B0693069B002B01D0069B15
:108BA0000CE09DF80B305A1E8DF80B20002BC6D11F
:108BB0000A4A00210A4800F07DFC034618460BB023
:108BC0005DF804FBF4290020F8290020FC2900208E
:108BD000082A0020002A0020698A0200DD8902009C
:108BE000CC11030000B583B0114B1B68002B04D1DE
:108BF000104940F2351006F017FD002301930CE0F8
:108C00000B4B1A68019BDB0013441B7801211846AB
:108C100004F0EEF9019B01330193074B1B781A46D0
:108C2000019B9342ECD30023184603B05DF804FB8C
:108C3000F429002074110300F829002086B0039065
:108C40000291019201238DF817309DF81730204AC8
:108C5000039B13601E4A029B53601D4A019B936055
:108C6000039B44F20102934212D0039B44F202029E
:108C7000934220D1019B164AD360154BDB681B68D9
:108C8000134A9361124BDB685B68114AD36112E0AF
:108C9000019B0F4A13610E4B1B699B680C4A536181
:108CA0000B4B1B691B680A4A9361094B1B695B6884
:108CB000074AD36100BF72B600BF00BF9DF81730EE
:108CC000DBB2002BFAD162B600BF00BF06B070471E
:108CD000282A002000B583B002900091019244F24E
:108CE000010071466A4600F003F803B000BD00BF02
:108CF00030B58BB007900691059272B600BFFFF7B2
:108D0000F5FA00BFFFF7B0F80346002BFAD1079B36
:108D100044F2020293422FD0079B44F20202934294
:108D200069D8079B44F20102934237D0079B44F273
:108D3000010293425FD8079B012B05D0079B41F2AC
:108D4000010293420CD056E0394A3A4BD31ADB0861
:108D50001B0443F0010338491846FFF729F857E090
:108D6000334A344BD31ADB081B0443F00103334965
:108D70001846FFF71DF84BE0059B09932C4A2D4B35
:108D8000D31ADB081B0443F00100099B5B681A46F9
:108D9000099B1B682A49FFF72AF839E0059B0893CD
:108DA000234A244BD31ADB081B0443F00104089B1D
:108DB0009D68089B9B68184602F0DAFA034618463D
:108DC000089B5B681946089B1B68069A02920193F0
:108DD000009103462A461B492046FFF71CF8144A17
:108DE000144BD31ADB081B0443F001031649184641
:108DF000FEF7DEFF0CE00E4A0E4BD31ADB081B0415
:108E000043F00103069A11491846FEF7DFFF00BF41
:108E10000F4B1B6803F00103002B00D000BE059A26
:108E200006990798FFF70AFF00BF0BB030BD00BFDF
:108E3000D40E0300AC0E0300D0110300F0110300A8
:108E40001412030030120300581203006C120300C6
:108E5000F0ED00E02DE9F04383B0144801F09DF8F7
:108E6000034600221C461546114BD3E9002314EBA0
:108E7000020845EB0309CDE900890E4BD3E9002335
:108E8000DDE90001904271EB030307D2DDE9002325
:108E900012F1807643F10007CDE90067DDE9002398
:108EA0001046194603B0BDE8F08300BF78230020C8
:108EB000502A0020582A002088B001900091019B80
:108EC0000793009B0693079BD3E90223CDE9042374
:108ED000069BD3E90223CDE90223DDE90423DDE982
:108EE0000201904271EB03032CBF01230023DBB28C
:108EF000184608B070470000F0B585B00190019B9E
:108F00005B69002B03D14349A52006F08DFB0023AC
:108F10008DF80F30404B1B78002B75D0019B002B38
:108F200072D0FFF797FF019BD3E90223904271EBC8
:108F3000030358D300238DF80D300DF10D031846AF
:108F400000F01AFC019B1B69002B06D101994FF020
:108F5000FF324FF0FF33C1E902239DF80D30184670
:108F600000F020FC019B5B69019A926910469847CA
:108F700000238DF80C3003AB184600F0FDFB019B7D
:108F80001B69002B1AD0019BD3E90223B3F1FF3FE9
:108F900008BFB2F1FF3F11D0019BD3E90223019931
:108FA000096900200C460546161943EB0507019B8D
:108FB000C3E9026701238DF80E3002E000238DF82B
:108FC0000E309DF80C30184600F0ECFB9DF80E308A
:108FD000002B19D0019B1946104802F023F90123F8
:108FE0008DF80F3010E0019BD3E90223B3F1FF3F6E
:108FF00008BFB2F1FF3F07D0019B1946074802F0B6
:1090000011F901238DF80F309DF80F30184605B087
:10901000F0BD00BF901203004C2A0020EC120300A8
:1090200030B58BB0019000910D230993009B002275
:109030001A70019BD3E90223CDE90623FFF70AFF4B
:10904000DDE90623141A63EB0105CDE90445DDE9EA
:109050000423012A73F1000318DB049BB3F5350FD9
:1090600005D300F00BFB0246144B134400E0069BB3
:1090700003934FF49603039A0021114800F080FEF9
:109080000990099B002B05D1012314E000210C4815
:1090900000F04EFF099B0D2B07D10198FFF72CFF25
:1090A00003461A46009B1A7004E006494FF4867086
:1090B00006F0BAFA002318460BB030BDFFFFB4002B
:1090C000782300209012030000B583B0044802F01A
:1090D000E3F80190019B184603B05DF804FB00BF64
:1090E000EC12030000B583B0044802F0F7F80190D9
:1090F000019B184603B05DF804FB00BFEC120300AF
:1091000000B583B0FFF7E0FF0190019B002B06D074
:1091100001994FF0FF324FF0FF33C1E90223019B69
:10912000002BEFD100BF00BF03B05DF804FB0000CF
:10913000054BD3E9002312F1807043F10001024B8B
:10914000C3E9000100BF7047502A002010B582B06B
:109150000190124B1B68002B1DD0019800F01DFFE1
:1091600004460021019800F009FF034619462046F5
:1091700000F078FA0346B3F5960F04D3084940F29D
:10918000411006F051FA054B1B681846FFF7B4FE74
:10919000024B00221A6000BF02B010BD482A002016
:1091A0009012030000B583B00190FFF753FE024612
:1091B0000B460349C1E9002300BF03B05DF804FB7F
:1091C000582A002000B587B00190FFF78BFF04906C
:1091D00000238DF81730049B002B58D0049BD3E953
:1091E0000223B3F1FF3F08BFB2F1FF3F02D1FFF707
:1091F0006BFF54E02E4B1B68002B03D101238DF82D
:1092000017301DE0049BD3E90201294B1B68D3E909
:109210000223904271EB030312D201238DF8173021
:10922000234B1B68D3E90223B3F1FF3F08BFB2F120
:10923000FF3F05D01E4B1B6819461E4801F0F2FF88
:109240009DF81730002B2BD0FFF73EFF04900DF157
:109250000F0319460498FFF7E3FE0346002B12D0D4
:10926000134B1B68002B02D1019800F095FC104AAB
:10927000049B13609DF80F3083F00103DBB2002BD9
:10928000A3D000BF0FE00A4B00221A609DE7084BF5
:109290001B68002B06D1019800F094FC02E094E7D3
:1092A00000BF00E000BF00BF07B05DF804FB00BFD7
:1092B000482A0020EC12030000B587B001902B4A29
:1092C00003AB1946104600F066FF049045E0049B8E
:1092D0001B78022B2BD0022B2FDC002B02D0012B72
:1092E00011D02AE0049B5B68D3E90223B3F1FF3F6E
:1092F00008BFB2F1FF3F22D0049B5B6819461C48AF
:1093000001F090FF1BE0049B5A681A4B1B689A42BD
:1093100003D1184B00221A6012E0049B5B681946C7
:10932000134801F0EFFF03468DF8173008E0FFF710
:10933000E7FE114B01221A7002E000BF00E000BFFF
:109340000A4A03AB1946104600F03EFF074A03AB3A
:109350001946104600F01FFF0490049B002BB6D165
:1093600000BF00BF07B05DF804FB00BFB82A0020B3
:10937000EC120300482A00204C2A002000B583B0DC
:109380000190019800F0C7FD0346002B01D0FFF7C4
:10939000CFFE0021019800F0DCFD0346002B02D037
:1093A0000198FFF7D3FE0121019800F0D2FD03469A
:1093B000002B02D00198FFF7F5FE0198FFF77CFF24
:1093C0000198FFF7FFFE00BF03B05DF804FB00004B
:1093D00008B5024800F0EEFD00BF08BD782300206C
:1093E00000B585B0034600918DF80730114A02ABF5
:1093F0001946104600F0A2FE0390039B002B13D0E9
:10940000039B9DF807201A70039B009A5A60094A33
:1094100002AB1946104600F0AAFE0346002B01D00D
:10942000FFF7D6FF002300E00423184605B05DF8DF
:1094300004FB00BFB82A002000B583B0164B1B68A0
:109440000093164808235822154900F044FE019065
:10945000019B002B01D0019B19E06B46114A194674
:10946000114800F01BFB0190019B002B01D0019BD8
:109470000DE001210C4800F03DFD01230B4A0121C4
:10948000094800F0B5FB0A4B01221A70019B1846EF
:1094900003B05DF804FB00BFE8120300B82A002007
:1094A000602A00207D93020078230020FFFF7F00C8
:1094B0004C2A002000B587B003900B4601928DF82E
:1094C0000B30039B002B04D1164940F25A2006F0C2
:1094D000ABF8019B002B04D1124940F25B2006F04F
:1094E000A3F8019B002B01D1072317E0039B1B6806
:1094F000059305994FF0FF324FF0FF33C1E9022386
:10950000059B019A5A619DF80B30012B0CBF01237A
:109510000023DBB21A46059B1A610023184607B0E8
:109520005DF804FB90120300F0B589B0039002913E
:109530000192039B002B04D1264940F26B2006F0D8
:1095400073F8039B069300238DF817300DF1170372
:10955000184600F011F9069BD3E90223B3F1FF3F4F
:1095600008BFB2F1FF3F11D1FFF774FC02460B4672
:10957000029900200C460546161943EB0507069B89
:10958000C3E9026701238DF81F3002E000238DF844
:109590001F309DF81730184600F004F99DF81F3071
:1095A00083F00103DBB2002B01D000230EE0069B09
:1095B000019A9A61069B1B69002B02D0069B029AB6
:1095C0001A6106990020FFF70BFF0346184609B001
:1095D000F0BD00BF9012030000B587B00190019B61
:1095E000002B04D11E4940F2932006F01DF8019B88
:1095F000049300238DF80F300DF10F03184600F08F
:10960000BBF8049BD3E90223B3F1FF3F08BFB2F1DB
:10961000FF3F03D100238DF8173009E004994FF084
:10962000FF324FF0FF33C1E9022301238DF81730D9
:109630009DF80F30184600F0B5F89DF8173083F00C
:109640000103DBB2002B01D0002304E004990120C8
:10965000FFF7C6FE0346184607B05DF804FB00BFDF
:109660009012030082B001900091019A009BD31ADE
:1096700023F07F43184602B07047000008B5034846
:1096800000F08BFC0346184608BD00BF782300207D
:1096900082B0EFF310830093009B019372B600BF7A
:1096A000019B184602B0704762B600BF00BF70470A
:1096B00000B585B00190FFF7EBFF0390164B9B6858
:1096C000002B1BD1144B01229A60144BD3F880203D
:1096D000134B1340104A1360104B114AC3F88020FB
:1096E0000E4BD3F884300C4A53600C4B4FF0FF32D2
:1096F000C3F88420019B00221A7002E0019B012222
:109700001A70039B002B01D1FFF7CEFF00231846F0
:1097100005B05DF804FB00BFCC2A002000E100E0AA
:10972000FC06FFBD00B585B003468DF80730104B31
:109730009B68002B16D09DF80730002B12D1FFF745
:10974000A7FF03900B4A0A4B1B681360094A084B9A
:109750005B685360064B00229A60039B002B01D18B
:10976000FFF7A2FF0023184605B05DF804FB00BF19
:10977000CC2A002000E100E000B583B0019000F0A9
:109780002BF80346012B03D00549432005F04CFF7D
:109790000198FFF78DFF00BF03B05DF804FB00BF29
:1097A000F812030000B583B003468DF8073000F0CF
:1097B00013F80346012B03D00649512005F034FF6E
:1097C0009DF807301846FFF7ADFF00BF03B05DF806
:1097D00004FB00BFF812030084B0EFF3058301938C
:1097E000019BC3F308030393039B002B0DD1EFF3FD
:1097F00014830093009B0293029B03F00103002B50
:109800000CBF01230023DBB200E00123184604B0A3
:109810007047000082B003468DF807309DF907308D
:10982000002B0CDB9DF8073003F01F0205499DF962
:1098300007305B09012000FA02F241F8232000BF43
:1098400002B0704700E100E082B003468DF80730B7
:109850009DF90730002B0DDB9DF8073003F01F0248
:1098600006499DF907305B09012000FA02F24033F6
:1098700041F8232000BF02B0704700BF00E100E0C4
:1098800082B0034600918DF807309DF90730002B18
:109890000ADB009BDAB20C499DF907305201D2B2C3
:1098A0000B4483F800230BE0009BDAB207499DF8D4
:1098B000073003F00F03043B5201D2B20B441A7677
:1098C00000BF02B0704700BF00E100E000ED00E023
:1098D00000B583B003460A468DF8073013468DF86D
:1098E00006309DF80630012B03D99DF80630032B76
:1098F0000BD99DF80630042B03D99DF80630072BB1
:1099000003D908496B2005F08FFE9DF806209DF9CC
:10991000073011461846FFF7B3FF00BF03B05DF8EC
:1099200004FB00BF5813030000B583B003468DF855
:1099300007309DF907301846FFF76CFF00BF03B0F2
:109940005DF804FB00B585B00190019B002B0AD0A7
:10995000074B43F001030393019B9B010293039B7D
:109960000298984700E000BF05B05DF804FB00BF17
:109970009014030084B0039002910192039B029A19
:1099800002F5A872019943F8221000BF04B0704795
:1099900082B001900091019B009A02F5A87253F8E1
:1099A0002230184602B0704782B001900091019BAE
:1099B000009AC3F8042300BF02B0704782B0019040
:1099C0000091019B009AC3F8082300BF02B07047C2
:1099D00082B001900B46ADF80230BDF80230019A1A
:1099E00013441B68184602B0704784B001900B46C0
:1099F000ADF80230BDF80230019A134400221A601B
:109A0000BDF80230019A13441B680393039B00BF07
:109A100004B0704782B00190019BD3F8043518461A
:109A200002B0704700B583B001900091009BB3F580
:109A3000805F04D306494FF4BE7005F0F5FD019B2D
:109A4000009AC3F8082500BF03B05DF804FB00BF0F
:109A5000A413030082B001900B468DF803309DF8EB
:109A60000320019B13441A460123136000BF02B078
:109A7000704782B001900091019B009AC3F8442383
:109A800000BF02B0704782B001900091019B009A24
:109A9000C3F8482300BF02B07047000000B587B08C
:109AA000039002910192039B002B03D1334955206F
:109AB00005F0BAFD029B002B03D13049562005F07A
:109AC000B3FD019B002B03D12C49572005F0ACFDC1
:109AD000039B5B7919462A4A019B42F82130039B7C
:109AE0005B79284ADB0013441B79002B0ED0082336
:109AF0000593254A254BD31ADB081B0443F00203C8
:109B000023491846FEF754F9059B32E0039B1A6877
:109B1000029B1B8819461046FFF784FF039B93F9AD
:109B20000420029B9B7819461046FFF7D1FE039B49
:109B300093F904301846FFF7F7FE039B5B79114A4F
:109B4000DB00134401221A71039B5B7919460D4A0D
:109B5000039B42F83130002305930B4A0B4BD31A79
:109B6000DB081B0443F003030A491846FEF720F9FB
:109B7000059B184607B05DF804FB00BFF013030017
:109B8000D82A0020DC2A0020E40E0300AC0E0300DB
:109B9000441403006814030000B583B00190019BD6
:109BA000002B03D10649872005F03EFD019B1B6871
:109BB00000211846FFF74EFF00BF03B05DF804FB1D
:109BC000F013030000B583B00190019B002B03D17B
:109BD00006498D2005F028FD019B1B6804211846CD
:109BE000FFF738FF00BF03B05DF804FBF01303007C
:109BF00000B587B00390029101928DF80330039B6A
:109C0000002B03D12149962005F00EFD4FF4803240
:109C1000029B02FA03F30593029B50339BB29B0015
:109C2000ADF81230019B23F07F430193039B1B6827
:109C300005991846FFF7C2FE039B1B680599184655
:109C4000FFF721FF039B1B68BDF812201146184641
:109C5000FFF7CBFE039B1B68019A02991846FFF79A
:109C600089FE039B1B6805991846FFF702FF9DF8C4
:109C70000330002B05D0039B1B6805991846FFF79E
:109C800093FE00BF07B05DF804FB00BFF0130300B4
:109C900000B585B00390029113468DF80730039B01
:109CA000002B03D10B49A92005F0BEFC039B1B68C8
:109CB00002991846FFF7DDFE9DF80730002B05D00E
:109CC000039B1B6802991846FFF76EFE00BF05B0A4
:109CD0005DF804FBF013030000B583B00190009120
:109CE000019B002B03D10A49B32005F09DFC019B89
:109CF0001B6800991846FFF7C6FE019B1B68009978
:109D00001846FFF75BFE00BF03B05DF804FB00BF21
:109D1000F013030000B583B001900B46ADF802309C
:109D2000019B002B03D10F49BA2005F07DFC019B5C
:109D30001B68BDF8022011461846FFF749FE03468E
:109D4000002B09D0019B1B68BDF802201146184664
:109D5000FFF74BFE012300E00023184603B05DF837
:109D600004FB00BFF013030082B001900091019A40
:109D7000009BD31A23F07F43184602B070470000BF
:109D800000B58BB00390029101920093039B002BCE
:109D900003D15749CD2005F047FC4FF48032029B98
:109DA00002FA03F30993029B50339BB29B00ADF878
:109DB0002230019B23F07F43019309990398FFF719
:109DC0008BFF039B1B681846FFF724FE0790039B3D
:109DD0001B6802991846FFF7DBFD0690039B1B6882
:109DE000079A02991846FFF7C5FD039B1B68BDF84B
:109DF000222011461846FFF7F8FD07990698FFF74D
:109E0000B3FF0346012B0AD11020FFF79BFD039BF4
:109E10001B68BDF8222011461846FFF7E6FD039B9C
:109E20001B681846FFF7F6FD079007990198FFF7A2
:109E30009BFF0590039B1B6809991846FFF719FEC5
:109E4000059B012B15D1039B1868019B01331A4612
:109E50000299FFF78FFD1020FFF774FD039B1B682D
:109E60001846FFF7D7FD0246079B934235D00D23D6
:109E700039E0039B1B68019A02991846FFF77AFDA7
:109E8000039B1B681846FFF7C5FD0790019B013B2C
:109E900007991846FFF768FF0590009BC3F1FF1371
:109EA00003F57F43059A9A4201D90D231BE0059BD8
:109EB000002B12D1039B1868019B01331A460299AB
:109EC000FFF758FD039B1B681846FFF7A3FD0246EA
:109ED000079B934201D00D2305E0012209990398C5
:109EE000FFF7D6FE002318460BB05DF804FB00BF59
:109EF000F013030000B583B001900B468DF80330DA
:109F00009DF803301A4602210198FFF7C1FE00BFF9
:109F100003B05DF804FB00B583B001904FF482718B
:109F20000198FFF7F7FE0346184603B05DF804FBFF
:109F300000B583B0019000914FF48032009B02FA8B
:109F400003F319460198FFF7C7FE00BF03B05DF8A1
:109F500004FB00B585B001900091009B50339BB28B
:109F60009B00ADF80E30BDF80E3019460198FFF792
:109F7000D1FE0346184605B05DF804FB00B583B07A
:109F800001900091019B1B6800991846FFF700FDA6
:109F90000346184603B05DF804FB00B583B001909A
:109FA000019B1B681846FFF735FD0346184603B0B2
:109FB0005DF804FB00B583B00190019B93F9043078
:109FC0001846FFF741FC00BF03B05DF804FB00003A
:109FD00008B5044B1B68044A12681046984700BF36
:109FE00008BD00BFD82A0020DC2A002086B00190DE
:109FF0000091019B53E8011F8AB2D88902449889D5
:10A00000824228BF121A1889824202BFBFF32F8FE3
:10A01000002307E0C2EA010243E801200028E9D159
:10A020004FF001038DF80F30059002910492029ACF
:10A03000009B1A609DF80F30DBB2184606B07047DF
:10A0400084B00190019951E8013FC3EA034341E81C
:10A050000132002AF7D10392029300BF04B0704787
:10A0600086B001900091019B53E8021F1FFAA1F2F4
:10A07000D888824202BFBFF32F8F00230DE0D8891A
:10A0800002449889824228BF121AC1EA024243E878
:10A0900002200028E8D14FF001038DF80F30059021
:10A0A00002910492029A009B1A609DF80F30DBB275
:10A0B000184606B0704784B00190019951E8023FFC
:10A0C000C3EA234341E80232002AF7D10392029304
:10A0D00000BF04B0704784B00390029111461A4645
:10A0E0000B46ADF806301346ADF80430029B002B4A
:10A0F00001D10E231FE0BDF80630BDF80420B3FBEC
:10A10000F2F101FB02F29B1A9BB2002B01D0092352
:10A1100011E0039B029A1A60039B00225A60039B82
:10A1200000229A60039BBDF806209A81039BBDF82C
:10A130000420DA810023184604B0704700B585B0CA
:10A1400001900091009B19460198FFF74FFF0346CD
:10A15000002B07D0019B1B68009A128813440393BD
:10A16000039B00E00023184605B05DF804FB00B532
:10A1700083B001900091009B1A88009B5B889A42F3
:10A1800004D10198FFF75CFF012300E0002318468B
:10A1900003B05DF804FB00B585B001900091009B11
:10A1A00019460198FFF75CFF0346002B07D0019B7F
:10A1B0001B68009A528813440393039B00E000231A
:10A1C000184605B05DF804FB00B583B0019000911E
:10A1D000009B1A88009B5B889A4204D10198FFF784
:10A1E0006AFF012300E00023184603B05DF804FB7A
:10A1F00010B487B001900091019B009A53E8004F82
:10A20000104643E8000191F0000FF7D10594049047
:10A210000391059B184607B05DF8044B704710B4D6
:10A2200087B001900091019B009A53E8004F44EAE7
:10A23000020043E8000191F0000FF6D1059404906C
:10A240000391049B184607B05DF8044B704710B4A7
:10A2500087B001900091019B009A53E8004F04EAF7
:10A26000020043E8000191F0000FF6D1059404903C
:10A270000391059B184607B05DF8044B704710B476
:10A2800087B001900091019B009A53E8004F04EBC6
:10A29000020043E8000191F0000FF6D1059404900C
:10A2A0000391049B184607B05DF8044B704710B447
:10A2B00087B001900091019B009A53E8004FA4EBF6
:10A2C000020043E8000191F0000FF6D105940490DC
:10A2D0000391049B184607B05DF8044B704700B526
:10A2E00083B0019001210198FFF799FF03461846BA
:10A2F00003B05DF804FB00B583B001900021019824
:10A30000FFF7A5FF0346184603B05DF804FB000005
:10A3100000B583B001900B468DF80330019B002BF4
:10A3200003D10849E82005F07FF9019BDA689DF820
:10A3300003300199098A01FB03F31344184603B063
:10A340005DF804FB9814030000B583B00190009100
:10A35000019B002B03D10849F52005F065F9009B0E
:10A36000019AD2689B1A019A128AB3FBF2F3DBB20C
:10A37000184603B05DF804FB9814030000B585B0DF
:10A380000190019B002B01D10E234CE0019B1B6827
:10A39000002B03D12649FF2005F046F9019B5B689D
:10A3A000002B04D122494FF4807005F03DF9019B48
:10A3B0009B68002B04D11E4940F2011005F034F9CE
:10A3C000019BDB68002B04D119494FF4817005F023
:10A3D0002BF9019B1B8A002B04D1154940F2031075
:10A3E00005F022F9019B9A68019B5B68D31A8DF8EE
:10A3F0000F30019B1B68019A52681A6007E0019BAD
:10A400001A681368591C11609DF80F201A709DF886
:10A410000F305A1E8DF80F20002BF0D1019B1B68C6
:10A4200000221A710023184605B05DF804FB00BF36
:10A430009814030000B585B00190019B002B04D156
:10A440001F494FF4927005F0EFF8002303930023A7
:10A450008DF80A300DF10A031846FFF78DF9019BBC
:10A460001B681A68019B5B689A421FD9019B1B6895
:10A470001A68013A1A601B681B7819460198FFF7A1
:10A4800047FF0390019B9A68019B1B681B68D31AC6
:10A490008DF80B30019B1B681B799DF80B209A42AD
:10A4A00004D9019B1B689DF80B201A719DF80A3096
:10A4B0001846FFF777F9039B184605B05DF804FBD3
:10A4C0009814030010B584B001900091019B002BFB
:10A4D00004D1154940F2471005F0A6F8009B002B67
:10A4E00004D111494FF4A47005F09EF8009B03932A
:10A4F00000238DF80B300DF10B031846FFF73CF9E4
:10A50000019B1B681C68621C1A6003990198FFF785
:10A510001BFF034623709DF80B301846FFF742F9E6
:10A5200000BF04B010BD00BF9814030000B583B095
:10A530000190019B002B03D10C49312005F074F8E8
:10A54000019B9B68002B0CD0019B5B69019A1069F1
:10A55000019A1168019A92689847019B00229A60BB
:10A5600000E000BF03B05DF804FB00BFF01403007F
:10A570000EB400B584B00190019B002B03D11849A3
:10A58000422005F051F8019B5B69002B03D114496F
:10A59000432005F049F8019B1B68002B03D11049AB
:10A5A000442005F041F8019B5B68002B03D10C4966
:10A5B000452005F039F8059B002B0AD000230393B2
:10A5C00006AB039303AB1A460599019800F0B8F95E
:10A5D00000E000BF04B05DF804EB03B0704700BFBB
:10A5E000F014030000B583B001900B468DF80330E2
:10A5F0009DF803300A2B03D10D210198FFF7F2FFDC
:10A60000019B1A68019B9B68581C01998860134440
:10A610009DF803201A70019B9A68019B5B689A421F
:10A6200002D30198FFF782FF00BF03B05DF804FB7F
:10A6300000B587B003900291019200930023059327
:10A64000009B03F00103002B24D00BE0029B01339D
:10A650000293059B013305939DF813301946039827
:10A66000FFF7C0FF029B1B788DF813309DF8133065
:10A67000002BEBD106E0019B013B019320210398C5
:10A68000FFF7B0FF019A059B9A422ED9019B002B40
:10A69000F1D12AE0029B002B0BD0029806F0BCFB04
:10A6A000059006E0019B013B019320210398FFF7F1
:10A6B00099FF019A059B9A420FD9019B002BF1D17A
:10A6C0000BE0029B01330293059B013305939DF838
:10A6D000133019460398FFF785FF029B1B788DF80E
:10A6E00013309DF81330002BEBD100BF07B05DF89D
:10A6F00004FB000000B589B0039002910192009321
:10A70000029B07930123069307E0079A019BB2FB84
:10A71000F3F30793069B01330693079A019B9A4232
:10A72000F3D2009A069B9A4201D9009B06930B9B99
:10A7300003F00103002B22D10A9B002B1FD00B9B9F
:10A7400003F00203002B06D0009B002B03D1302323
:10A750008DF8173002E020238DF8173008E00A9BAF
:10A76000013B0A939DF8173019460398FFF73AFF0B
:10A770000A9B002B03D0069A0A9B9A42EFD301232F
:10A780000793009B012B03D9009B013B009309E039
:10A79000029A079BB2FBF3F30493049A019B9A423B
:10A7A00000D205E0079B019A02FB03F30793E8E759
:10A7B000029A079BB2FBF3F30493049B079A02FBF4
:10A7C00003F3029AD31A0293154A049B13441B788D
:10A7D00019460398FFF706FF079A019BB2FBF3F3B4
:10A7E0000793079B002BE3D10B9B03F00103002B86
:10A7F00011D00A9B002B0ED006E00A9B013B0A9366
:10A8000020210398FFF7EEFE0A9B002B03D0069A47
:10A810000A9B9A42F1D300BF09B05DF804FB00BF68
:10A820009815030000B589B0059004910392029336
:10A83000049B002BB8BF5B4206930123079307E0FC
:10A84000039B069A92FBF3F30693079B013307934E
:10A85000039B069A9A42F3DA029A079B9A4201D91D
:10A86000029B07930A9B002B0AD0049B002B04DB5E
:10A870000B9B03F00403002B02D00A9B013B0A93BD
:10A880000B9B03F00203002B02D0029B002B16D07F
:10A890000B9B03F00103002B11D10A9B002B0ED060
:10A8A00006E00A9B013B0A9320210598FFF79AFED8
:10A8B0000A9B002B03D0079A0A9B9A42F1D3049B70
:10A8C000002B07DA049B5B4204932D210598FFF7C8
:10A8D00089FE08E00B9B03F00403002B03D02B211F
:10A8E0000598FFF77FFE0B9B03F00203002B19D0A6
:10A8F0000B9B03F00103002B14D1029B002B11D101
:10A900000A9B002B0ED006E00A9B013B0A933021E4
:10A910000598FFF767FE0A9B002B03D0079A0A9B56
:10A920009A42F1D304990B9B01930A9B0093029BDB
:10A93000039A0598FFF7DEFE00BF09B05DF804FB3F
:10A9400000B58FB0059004910392059B002B04D1B4
:10A95000AD4940F2522004F067FE059B5B69002B75
:10A9600004D1A9494FF4157004F05EFE059B1B68E5
:10A97000002B04D1A44940F2552004F055FE059B5C
:10A980005B68002B04D1A04940F2562004F04CFE35
:10A99000049B002B00F09381049B1B788DF83730CB
:10A9A000049B013304939DF83730002B00F07E8127
:10A9B0009DF83730252B40F06D8100230A93012349
:10A9C0000C93049B1B788DF837309DF83730302B73
:10A9D0000DD0302B1BDC2B2B11D02D2B17D10A9B2C
:10A9E00043F001030A93049B0133049312E00A9B92
:10A9F00043F002030A93049B013304930AE00A9B89
:10AA000043F004030A93049B0133049302E0002300
:10AA10000C9300BF0C9B002BD3D1002309939DF80E
:10AA200037302A2B0CD1039B1B68191D039A116028
:10AA30001B68099A13440993049B013304931AE099
:10AA4000049B1B788DF837309DF837302F2B12D9A7
:10AA50009DF83730392B0ED8049B01330493099AA3
:10AA600013469B0013445B001A469DF8373013448D
:10AA7000303B0993D3E700230B93049B1B788DF89D
:10AA800037309DF837302E2B1DD1049B01330493B2
:10AA9000049B1B788DF837309DF837302F2B12D957
:10AAA0009DF83730392B0ED8049B013304930B9A51
:10AAB00013469B0013445B001A469DF8373013443D
:10AAC000303B0B93E4E7049B1B788DF837309DF8FF
:10AAD00037306C2B03D09DF83730682B07D1049B9F
:10AAE00001330493049B1B788DF83730EFE79DF812
:10AAF0003730252B00F0C480252BC0F2C680782B80
:10AB000000F3C380582BC0F2C080583B202B00F2CA
:10AB1000BC8001A252F823F00DAC02008BAC020005
:10AB20008BAC02008BAC02008BAC02008BAC020041
:10AB30008BAC02008BAC02008BAC02008BAC020031
:10AB40008BAC02009DAB0200BFAB02008BAC0200DD
:10AB50008BAC02008BAC02008BAC0200BFAB0200DE
:10AB60008BAC02008BAC02008BAC02008BAC020001
:10AB70008BAC02008BAC02004DAC02008BAC02002F
:10AB80008BAC020031AC02008BAC0200E3AB0200E4
:10AB90008BAC02008BAC02000DAC0200039B1B6867
:10ABA000191D039A11601B680C930C9B8DF81F30C4
:10ABB0009DF81F3019460598FFF714FD66E0039BCA
:10ABC0001B68191D039A11601B680C930A9B019363
:10ABD000099B00930B9B0A220C990598FFF722FE14
:10ABE00054E0039B1B68191D039A11601B680C93AA
:10ABF0000C990A9B0193099B00930B9B0A220598D1
:10AC0000FFF778FD42E000BF40150300039B1B687F
:10AC1000191D039A11601B680C930C990A9B0193F0
:10AC2000099B00930B9B10220598FFF763FD2DE015
:10AC3000039B1B68191D039A11601B6808930A9BEC
:10AC4000099A08990598FFF7F3FC1FE0039B1B681E
:10AC5000191D039A11601B680C9330210598FFF7AA
:10AC6000C1FC78210598FFF7BDFC0C9900230193E6
:10AC700008230093082310220598FFF73BFD05E009
:10AC800025210598FFF7AEFC00E000BF049B0133CF
:10AC9000049305E09DF8373019460598FFF7A2FCAC
:10ACA000049B1B78002B7FF477AE00E000BF059B70
:10ACB0001B7B002B04D00598FFF738FC00E000BF99
:10ACC0000FB05DF804FB00BF00B583B001900198A0
:10ACD000FFF754FB0346184603B05DF804FB00B5CC
:10ACE0008BB001900091019B1B8A043B0793009A53
:10ACF000079B1344DA1C079BB2FBF3F38DF81B3060
:10AD00000198FFF797FB0590059B002B01D10023CD
:10AD100038E0059B00221A71059B01225A71079B9E
:10AD20009AB2059BDA80059B09939DF81B30013B85
:10AD30000493099B019A1A60002308931DE001986F
:10AD4000FFF778FB0390039B002B0ED0059B5B79EC
:10AD50000133DAB2059B5A71099B039A1A60039B6F
:10AD6000019A1A60039B099304E0059800F00EF81D
:10AD7000002307E0089B01330893089A049B9A423A
:10AD8000DDD3059B18460BB05DF804FB00B58BB016
:10AD90000190019B0793079B5B798DF81B30019B0A
:10ADA00008939DF81B30013B05930023099305E0B0
:10ADB000089B1B680893099B01330993099A059B1B
:10ADC0009A42F5D3089B1B680493019B08930023C8
:10ADD00009930BE0089B1B68039308990498FFF7FD
:10ADE00071FB039B0893099B013309939DF81B306A
:10ADF000099A9A42EED300BF00BF0BB05DF804FB86
:10AE000000B585B00190019B0393039B043301219E
:10AE10001846FFF734FA00BF05B05DF804FB00B533
:10AE200087B00190019B0593059B043301211846CF
:10AE3000FFF73DFA0346039303AB0493049B1B788F
:10AE4000002B02D10198FFF7A1FF00BF07B05DF80A
:10AE500004FB000000B591B00390029101920093B1
:10AE6000039B002B03D14349B62004F0DDFB039B79
:10AE70000993039B0F93099BDB881A46099B5B7917
:10AE800002FB03F3043B0893009A089B9A4203D306
:10AE90003849C42004F0C8FB099BDB880793009B5A
:10AEA0001A1D079BB2FBF3F30E93009B0433079A22
:10AEB000B3FBF2F2079901FB02F29B1A0D93019B7F
:10AEC0001A68009B1344089A9A4203D2089A009B7E
:10AED000D31A01E0019B1B680C93019B0C9A1A602A
:10AEE00005E00F9B1B680F930E9B013B0E930E9B7F
:10AEF000002BF6D100230B93079A0D9BD31A0A93CC
:10AF00000A9A0C9B934228BF13460A932AE0029A9E
:10AF10000B9B134406930F9A0D9B13440433059324
:10AF20009DF84830002B05D00A9A0599069805F03F
:10AF300017FF04E00A9A0699059805F011FF00230F
:10AF40000D930F9B1B680F930C9A0A9BD31A0C93BB
:10AF50000B9A0A9B13440B93079A0C9B934228BFAE
:10AF600013460A930C9B002BD1D100BF00BF11B038
:10AF70005DF804FBA815030000B589B005900491A5
:10AF800003920293039B079307AA00230093029B5B
:10AF900004990598FFF75EFF079B039A9A4203D036
:10AFA0000349F62004F040FB00BF09B05DF804FB44
:10AFB000A815030000B589B005900491039202938F
:10AFC000039B079307AA01230093029B049905980A
:10AFD000FFF740FF079B039A9A4204D004494FF4BD
:10AFE000807004F021FB00BF09B05DF804FB00BFD6
:10AFF000A815030082B003468DF807309DF907308D
:10B00000002B0DDB9DF8073003F01F0206499DF968
:10B0100007305B09012000FA02F2603341F8232077
:10B0200000BF02B0704700BF00E100E000B583B090
:10B030000190019B002B03D10649722004F0F4FA21
:10B04000019B00221A60BFF35F8F00BF00BF03B0F7
:10B050005DF804FB7416030041DF704700BF18461B
:10B0600000B585B000238DF807300DF107031846B1
:10B07000FEF782FBF1EE103A0393039B23F09F034C
:10B080000293029BE1EE103A00BFBFF35F8F00BF57
:10B090002620FFF7AFFF9DF807301846FEF782FB2A
:10B0A000039B03F00703002B03D004497D2004F029
:10B0B000BBFA00BF05B05DF804FB00BFD416030067
:10B0C00008B5064B00221A700548FFF7AFFF054987
:10B0D000054800F04BF80023184608BDE82A002078
:10B0E000E42A002030170300EC2A002000B583B0CA
:10B0F000FFF7B6FF05F01CFB0346002B0ED0FFF751
:10B10000ABFF0190019B002B0BD0019B022B08D0C1
:10B1100006494FF4B07004F087FA02E020BF40BF48
:10B1200020BF00BF03B05DF804FB00BFD4160300CE
:10B1300082B00190019B9B6800229A60019B9B68F2
:10B1400000221A61019B9B6800225A61019B9B6847
:10B150000022DA60019B9B6800225A60019B9B6879
:10B1600000221A6000BF02B07047000000B583B033
:10B1700001900091019B002B03D11049502004F055
:10B1800053FA009B002B03D10C49512004F04CFAD8
:10B19000019B009A1A60019B1B681A68019B5A6008
:10B1A000019B5A68019B1B685B689A4202D1019B14
:10B1B00000225A6000BF03B05DF804FB3C17030097
:10B1C00000B583B00190019B002B03D1144963208B
:10B1D00004F02AFA019B1B68002B03D1104964205C
:10B1E00004F022FA019B5B68002B14D0019B5B6882
:10B1F0001A46019B1B689B6813441A46019B5A60C0
:10B20000019B5A68019B1B685B689A4204D1019BB1
:10B2100000225A6000E000BF03B05DF804FB00BFED
:10B220003C17030000B585B001900091019B002BF5
:10B2300003D118493A2004F0F7F9009B002B03D101
:10B2400014493B2004F0F0F9019B5B6803930FE085
:10B25000019B9B68039A1268009910469847034621
:10B2600083F00103DBB2002B07D1039B1B68039320
:10B27000039B1B68002BEBD100E000BF039B1A6807
:10B28000009B1A60039B009A1A6000BF05B05DF82E
:10B2900004FB00BFBC17030000B585B00190019B03
:10B2A000002B03D10C49512004F0BEF9019B5B68CF
:10B2B0001B680393019B5B681B68002B06D0019BF6
:10B2C0005B681A68019B5B6812681A60039B1846EA
:10B2D00005B05DF804FB00BFBC17030000B583B0E8
:10B2E0000190019B002B03D105495D2004F09CF9DE
:10B2F000019B5B681B68184603B05DF804FB00BF48
:10B30000BC17030000B585B001900091019B002B94
:10B3100003D11649692004F087F9009B002B03D163
:10B3200012496A2004F080F900238DF80B30019B4C
:10B330005B6803930FE0039B1B68009A9A4207D156
:10B34000009B1A68039B1A6001238DF80B3006E0FE
:10B35000039B1B680393039B1B68002BEBD19DF899
:10B360000B30184605B05DF804FB00BFBC170300A6
:10B3700000B585B00190019800F00EF80390039B92
:10B38000002B01D0039B00E0024B184605B05DF88E
:10B3900004FB00BF1818030086B00190164B0593FC
:10B3A000164B04931FE0049A059BD31ADB10DA0FA7
:10B3B00013445B10DB00059A13440393039B1B6843
:10B3C0000293029A019B9A4202D9039B04930AE0DA
:10B3D000029A019B9A4203D2039B0833059302E031
:10B3E000039B5B6804E0059A049B9A42DBD300232D
:10B3F000184606B0704700BF181C0300401D03002C
:10B40000BFF34F8F00BF064BDB6803F4E0620449D3
:10B41000044B1343CB60BFF34F8F00BF00BFFDE76A
:10B4200000ED00E00400FA0582B0164B1B680193A2
:10B43000154B1B680093019B082B1FD1009B052B0C
:10B440001AD801A252F823F061B4020065B40200D8
:10B4500069B402006DB4020071B4020075B4020058
:10B4600001230CE001230AE0012308E0012306E0A8
:10B47000012304E0012302E0012300E00023184639
:10B4800002B07047300100103401001082B0164B3A
:10B490001B680193154B1B680093019B082B1FD160
:10B4A000009B052B1AD801A252F823F0C5B4020064
:10B4B000C9B40200CDB40200D1B40200D5B4020078
:10B4C000D9B4020001230CE001230AE0012308E0C3
:10B4D000012306E0012304E0012302E0012300E050
:10B4E0000023184602B070473001001034010010EC
:10B4F00082B0164B1B680193154B1B680093019B90
:10B50000082B1FD1009B052B1AD801A252F823F05B
:10B5100029B502002DB5020031B5020035B5020093
:10B5200039B502003DB5020001230CE000230AE01A
:10B53000002308E0002306E0002304E0002302E0EB
:10B54000002300E00023184602B0704730010010CD
:10B550003401001082B0164B1B680193154B1B6819
:10B560000093019B082B1FD1009B052B1AD801A229
:10B5700052F823F08DB5020091B5020095B5020096
:10B5800099B502009DB50200A1B5020001230CE0AF
:10B5900000230AE0002308E0002306E0002304E083
:10B5A000002302E0002300E00023184602B07047A9
:10B5B000300100103401001082B0164B1B6801935B
:10B5C000154B1B680093019B082B1FD1009B052B7B
:10B5D0001AD801A252F823F0F1B50200F5B5020025
:10B5E000F9B50200FDB5020001B6020005B6020081
:10B5F00001230CE000230AE0002308E0002306E01A
:10B60000002304E0002302E0002300E000231846AA
:10B6100002B07047300100103401001082B0164BA8
:10B620001B680193154B1B680093019B082B1FD1CE
:10B63000009B052B1AD801A252F823F055B6020040
:10B6400059B602005DB6020061B6020065B602009E
:10B6500069B6020001230CE000230AE0002308E0A1
:10B66000002306E0002304E0002302E0002300E0C2
:10B670000023184602B0704730010010340100105A
:10B6800082B0164B1B680193154B1B680093019BFE
:10B69000082B1FD1009B052B1AD801A252F823F0CA
:10B6A000B9B60200BDB60200C1B60200C5B60200BE
:10B6B000C9B60200CDB6020001230CE001230AE066
:10B6C000012308E0012306E0012304E0012302E056
:10B6D000012300E00023184602B07047300100103B
:10B6E0003401001082B0164B1B680193154B1B6888
:10B6F0000093019B082B1FD1009B052B1AD801A298
:10B7000052F823F01DB7020021B7020025B702004E
:10B7100029B702002DB7020031B7020000230CE068
:10B7200000230AE0002308E0002306E0012304E0F0
:10B73000012302E0012300E00023184602B0704715
:10B74000300100103401001008B5FFF7CBFF0346AD
:10B75000002B07D04FF010234FF08042D3F808326F
:10B76000C2F8583500BF08BD00BF044BD3F8003401
:10B77000002BFAD000BF00BF704700BF00E00140BF
:10B7800000B583B00190054A019BC2F80435FFF76C
:10B79000EBFF00BF03B05DF804FB00BF00E0014019
:10B7A000024B034A1A6000BF704700BF802300208D
:10B7B0000090D00308B5FFF737FE0346002B0ED0EC
:10B7C0004FF080430022C3F80C214FF08043002249
:10B7D000C3F810214FF080430022C3F83825FFF74B
:10B7E00055FE0346002B76D04FF08053734AD3F8B2
:10B7F0000434C2F820354FF08053704AD3F808342F
:10B80000C2F824354FF080536C4AD3F80C34C2F898
:10B8100028354FF08053694AD3F81034C2F82C35DC
:10B820004FF08053654AD3F81434C2F830354FF0E6
:10B830008053624AD3F81834C2F834354FF080533D
:10B840005E4AD3F81C34C2F840354FF080535B4A4F
:10B85000D3F82034C2F844354FF08053574AD3F818
:10B860002434C2F848354FF08053544AD3F8283472
:10B87000C2F84C354FF08053504AD3F82C34C2F8FC
:10B8800050354FF080534D4AD3F83034C2F8543518
:10B890004FF08053494AD3F83434C2F860354FF042
:10B8A0008053464AD3F83834C2F864354FF0805399
:10B8B000424AD3F83C34C2F868354FF080533F4ACF
:10B8C000D3F84034C2F86C354FF080533B4AD3F87C
:10B8D0004434C2F87035FFF70BFE0346002B02D04C
:10B8E000374B384A1A60FFF735FE0346002B03D06A
:10B8F000354BFB22C3F81825FFF75EFE0346002BED
:10B900000AD0324B1B6823F00F02314B1B6803F047
:10B910000F032E4913430B60FFF780FE0346002BF5
:10B9200003D02C4B4FF400721A60FFF7A9FE0346B8
:10B93000002B0DD04FF08043D3F8003403F0010307
:10B94000002B05D04FF080436FF00102C3F80024B4
:10B95000214BD3F88830204A43F47003C2F8883072
:10B96000BFF34F8F00BFBFF36F8F00BFFFF7ECFE39
:10B970004FF01023D3F80032002B05DB4FF01023DB
:10B98000D3F80432002B15DA0120FFF7F9FE4FF04F
:10B9900010231222C3F80022FFF7E6FE4FF0102317
:10B9A0001222C3F80422FFF7DFFE0020FFF7E8FEB3
:10B9B000FFF726FDFFF7F4FE00BF08BD00C0004002
:10B9C0008C5600404881030000F00040E40E004027
:10B9D000580200104096024000ED00E000B583B030
:10B9E0000190019B1B68184600F002F90346002BEA
:10B9F00004D10B494FF4F67003F016FE019B1B684F
:10BA00001F2B02D84FF0A04306E0019B1B6803F0F8
:10BA10001F02019B1A60034B184603B05DF804FB3C
:10BA2000401D03000003005000B585B0019008469A
:10BA300011461A4603468DF803300B468DF8023046
:10BA400013468DF8013001AB1846FFF7C7FF03908E
:10BA50009DF803209DF802305B001A439DF80130E9
:10BA60009B001A439DF818301B0242EA03019DF81F
:10BA70001C301B04019A1943039B02F5E07243F842
:10BA8000221000BF05B05DF804FB00B585B003903F
:10BA90000023019300230093002301220121039836
:10BAA000FFF7C2FF00BF05B05DF804FB00B585B02D
:10BAB00003900B468DF80B309DF80B30002201925D
:10BAC00000220092002200210398FFF7ADFF00BF83
:10BAD00005B05DF804FB00B585B0019001AB1846D8
:10BAE000FFF77CFF0390019B012202FA03F3194642
:10BAF000039800F069F800BF05B05DF804FB00B5DD
:10BB000085B0019001AB1846FFF768FF0390019BD9
:10BB1000012202FA03F31946039800F05FF800BF10
:10BB200005B05DF804FB00B585B0019001AB184687
:10BB3000FFF754FF0390039BD3F804350293029B55
:10BB4000DA43019B012101FA03F31A40039BC3F876
:10BB50000825019B01229A40029B1A40039BC3F8CF
:10BB60000C2500BF05B05DF804FB00B583B0019063
:10BB70000091009B002B03D10198FFF7C0FF02E06A
:10BB80000198FFF7A8FF00BF03B05DF804FB00B504
:10BB900085B0019001AB1846FFF720FF0390039892
:10BBA00000F00AF80246019B22FA03F303F00103B6
:10BBB000184605B05DF804FB82B00190019BD3F8F4
:10BBC0000435184602B0704782B001900091019B85
:10BBD000009AC3F8082500BF02B0704782B00190F8
:10BBE0000091019B009AC3F80C2500BF02B070477A
:10BBF00084B00190019B5B09029300230393029B95
:10BC0000002B03D0029B012B04D007E04FF0FF3341
:10BC1000039303E04FF6FF73039300BF019B03F010
:10BC20001F030193039A019B22FA03F303F001031C
:10BC3000002B14BF01230023DBB2184604B0704769
:10BC400000B585B00190019B032B03D911493A201F
:10BC500003F0EAFC104A019B13441B781846FFF7D7
:10BC600096FF0346002B14BF012300238DF80F30ED
:10BC70009DF80F30002B14BF01230023DBB283F0AB
:10BC80000103DBB203F00103DBB2184605B05DF837
:10BC900004FB00BF8C1D0300D81D030000B583B05A
:10BCA0000190019B032B03D90749412003F0BCFC01
:10BCB000064A019B13441B7800211846FFF755FFE5
:10BCC00000BF03B05DF804FB8C1D0300D81D03000A
:10BCD00000B583B00190019B032B03D9074947208E
:10BCE00003F0A2FC064A019B13441B78012118466D
:10BCF000FFF73BFF00BF03B05DF804FB8C1D0300A2
:10BD0000D81D030000B583B00023019305E001981E
:10BD1000FFF7DEFF019B01330193019B032BF6D953
:10BD200000BF00BF03B05DF804FB00B583B0002383
:10BD3000019305E00198FFF7B1FF019B01330193E7
:10BD4000019B032BF6D900BF00BF03B05DF804FBD5
:10BD500000B583B00190019B032B03D907495F20F5
:10BD600003F062FC064A019B13441B781846FFF758
:10BD7000DAFE00BF03B05DF804FB00BF8C1D0300BA
:10BD8000D81D030000B583B00023019309E0094AE0
:10BD9000019B13441B781846FFF777FE019B013384
:10BDA0000193019B032BF2D9FFF7ACFF00BF03B057
:10BDB0005DF804FBD81D030000B583B00023019398
:10BDC0000AE0094A019B13441B7803211846FFF738
:10BDD0006DFE019B01330193019B032BF1D900BF41
:10BDE00000BF03B05DF804FBDC1D030084B00190CC
:10BDF0004FF0FF330293002303930DE00A4A039BA5
:10BE000013441B781A46019B934202D1039B029371
:10BE100005E0039B01330393039B032BEED9029BA5
:10BE2000184604B0704700BFDC1D030000B583B0A6
:10BE30000190019B03F00103002B01D0FFF7A2FF4B
:10BE4000019B03F00203002B01D0FFF7B5FF00BFF9
:10BE500003B05DF804FB000082B003468DF80730A4
:10BE60009DF90730002B13DB9DF8073003F01F020C
:10BE700009499DF907305B09012000FA02F22033DD
:10BE800041F82320BFF34F8F00BFBFF36F8F00BF78
:10BE900000BF02B0704700BF00E100E0044BD3F8E0
:10BEA0000034002B14BF01230023DBB21846704777
:10BEB0000000014008B504F03BFC034683F0010399
:10BEC000DBB2002B03D109497B2003F0ADFBFFF768
:10BED000E5FF034683F00103DBB2002B04D000F042
:10BEE0004FFB034B00229A7000BF08BDE81D030002
:10BEF000F42A002000B583B000230193184B1B786F
:10BF0000002B02D0852301931CE0154B00229A6080
:10BF1000134B00225A60124B00221A61104B002270
:10BF2000DA60104800F0F2FA019004F001FC0346D8
:10BF300083F00103DBB2002B01D000F00DFB084BB6
:10BF400001221A70FFF7AAFF0346002B02D0044B10
:10BF500001229A70019B184603B05DF804FB00BFF4
:10BF6000F42A00203DC0020084B00190019B1B68B0
:10BF70000393039B002B03D0039B1A68019B1A6059
:10BF8000039B184604B0704700B583B0164B1B786E
:10BF9000002B04D1154940F2171003F045FB124B5A
:10BFA000DB68002B04D111494FF48C7003F03CFB8B
:10BFB00000238DF807300DF107031846FDF7DCFB71
:10BFC000094BDB68013B084AD360074BDB68002B59
:10BFD00001D1FFF76FFF9DF807301846FDF7E2FB30
:10BFE00000BF03B05DF804FBF42A0020E81D030045
:10BFF00000B585B003468DF807309DF80730002B5B
:10C0000002D10C4B039301E00B4B03930398FFF712
:10C01000ABFF0290029B002B06D0029B5B689DF851
:10C02000072010469847F1E700BF00BF05B05DF854
:10C0300004FB00BFFC2A0020042B002000B583B0C5
:10C0400003468DF807309DF80730002B05D10A4BC9
:10C0500001225A700020FFF7CBFF9DF80730012B1B
:10C0600005D1054B01229A700120FFF7C1FF00BFE7
:10C0700003B05DF804FB00BFF42A002000B583B0D4
:10C0800001900091019B002B05D1054B01225A70B4
:10C090000020FFF7ADFF00BF03B05DF804FB00BF59
:10C0A000F42A002000B585B0034600918DF80730D2
:10C0B0009DF80730032B29D0032B35DC002B02D051
:10C0C000012B04D030E00020FFF7C6FE2DE0002356
:10C0D0008DF80F300DF10F031846FDF74DFB154B92
:10C0E0001B7883F00103DBB2002B01D0FFF702FFC6
:10C0F000104BDB6801330F4AD3600E4B01229A705C
:10C100009DF80F301846FDF74DFB0EE0094B1B78EC
:10C11000002B04D1084940F2522003F085FA00F0C8
:10C120001BFAFFF731FF00E000BF00BF05B05DF86C
:10C1300004FB00BFF42A0020E81D030000B589B00D
:10C1400001900091009B0793019B1B788DF80C30A8
:10C15000019B5B680493019B9B68DBB28DF81430F4
:10C16000019BDB680693074A079B52F82330064978
:10C17000079A51F8221003AA1046984700BF09B049
:10C180005DF804FB082B0020102B002000B589B0BF
:10C1900001900091009B0793019B1B788DF80C3058
:10C1A000019B5B680493019B9B68DBB28DF81430A4
:10C1B000019BDB680693074A079B52F82330064928
:10C1C000079A51F8221003AA1046984700BF09B0F9
:10C1D0005DF804FB082B0020102B002030B58FB039
:10C1E000039002910192039B1B780C932C490C9BAA
:10C1F000019A41F82320029B1A692A490C9B41F8B5
:10C2000023200C9B012B07D1029B5B7F002B03D1CA
:10C210002549762003F008FA029B5B7F1946234AE2
:10C220000C9B13440A461A70029B04AC1D460FCDAA
:10C230000FC495E80F0084E80F000C9B08930023BF
:10C240000D93039B1B781A46184B9B5C002B0DD05B
:10C25000039B181D019B002B01D0154A00E0002212
:10C2600004AB194602F00EFB0D9014E0039B1B7803
:10C270001A460E4B9B5C002B0DD1039B03F10C0067
:10C28000019B002B01D00B4A00E0002204AB1946B1
:10C2900001F070FC0D900D9B18460FB030BD00BF33
:10C2A000082B0020102B0020401E0300182B00201C
:10C2B0003DC102008DC1020082B003468DF80730F7
:10C2C0009DF90730002B0CDB9DF8073003F01F02AF
:10C2D00005499DF907305B09012000FA02F241F897
:10C2E000232000BF02B0704700E100E082B00346A7
:10C2F00000918DF807309DF90730002B0ADB009B79
:10C30000DAB20C499DF907305201D2B20B4483F8DE
:10C3100000230BE0009BDAB207499DF8073003F0D9
:10C320000F03043B5201D2B20B441A7600BF02B095
:10C33000704700BF00E100E000ED00E082B0019036
:10C34000019B1B0B5BB2184602B0704700B583B06F
:10C3500003460A468DF8073013468DF806309DF8DF
:10C360000630012B03D99DF80630032B0BD99DF81D
:10C370000630042B03D99DF80630072B03D9084952
:10C380006B2003F051F99DF806209DF90730114606
:10C390001846FFF7ABFF00BF03B05DF804FB00BF1A
:10C3A000981E030000B583B003468DF807309DF951
:10C3B00007301846FFF780FF00BF03B05DF804FBAD
:10C3C00082B003468DF807300F4A9DF90730002BE5
:10C3D00000DA1F335B115BB252F823209DF907305E
:10C3E000594203F01F0301F01F0158BF4B425BB2DB
:10C3F00022FA03F303F00103002B14BF01230023EF
:10C40000DBB2184602B0704700E100E082B0019054
:10C410004FF08042019BC2F8083300BF02B0704762
:10C4200082B003468DF807309DF8073003F1804352
:10C4300001221A6000BF02B0704784B00346ADF815
:10C440000630BDF8063003F1804300221A60BDF8C3
:10C45000063003F180431B680393039B00BF04B0C5
:10C46000704782B00346ADF80630BDF8063003F1E0
:10C4700080431B68002B14BF01230023DBB2184646
:10C4800002B0704782B001904FF08042019BC2F829
:10C49000183500BF02B070474FF08043D3F818340E
:10C4A0001B0C03F00103002B14BF01230023DBB29C
:10C4B0001846704700B583B006238DF807304FF05B
:10C4C0008040FFF73BFF03461846FFF779FF03461E
:10C4D00083F00103DBB2002B13D04FF08040FFF755
:10C4E0002DFF03461A469DF8073019461046FFF700
:10C4F0002DFF4FF08040FFF721FF03461846FFF75E
:10C5000051FF00BF03B05DF804FB000000B585B02B
:10C510000190019B002B03D10D49A42003F084F866
:10C52000002303930B4B1B79002B02D0852303932D
:10C5300008E0084A019B1360064B01221A71054B63
:10C5400000225A71039B184605B05DF804FB00BF3A
:10C55000EC1E03001C2B002008B5074B1B79002B99
:10C5600003D10649BD2003F05FF8FFF7A3FF0120C8
:10C57000FFF788FF00BF08BD1C2B0020EC1E030046
:10C5800008B50D4B1B79002B03D10C49F72003F0A4
:10C590004BF80220FFF73AFF4FF48270FFF74DFF90
:10C5A0000C20FFF73DFF00BFFFF776FF0346002B8F
:10C5B000FAD100BF00BF08BD1C2B0020EC1E0300F9
:10C5C00008B54FF48070FFF74CFF0346002B14D0E2
:10C5D0004FF48070FFF731FF0120FFF717FF114B79
:10C5E0005B7983F00103DBB2002B06D00D4B0122F7
:10C5F0005A710C4B1B68002098474FF48270FFF76C
:10C6000030FF0346002B0AD04FF48270FFF715FF6E
:10C610000220FFF7FBFE034B1B680120984700BF79
:10C6200008BD00BF1C2B002082B003468DF80730E8
:10C630009DF90730002B0CDB9DF8073003F01F023B
:10C6400005499DF907305B09012000FA02F241F823
:10C65000232000BF02B0704700E100E082B0034633
:10C6600000918DF807309DF90730002B0ADB009B05
:10C67000DAB20C499DF907305201D2B20B4483F86B
:10C6800000230BE0009BDAB207499DF8073003F066
:10C690000F03043B5201D2B20B441A7600BF02B022
:10C6A000704700BF00E100E000ED00E082B00190C3
:10C6B000019B1B0B5BB2184602B0704700B583B0FC
:10C6C00003460A468DF8073013468DF806309DF86C
:10C6D0000630012B03D99DF80630032B0BD99DF8AA
:10C6E0000630042B03D99DF80630072B03D90849DF
:10C6F0006B2002F099FF9DF806209DF90730114646
:10C700001846FFF7ABFF00BF03B05DF804FB00BFA6
:10C71000441F030000B583B003468DF807309DF930
:10C7200007301846FFF780FF00BF03B05DF804FB39
:10C7300000B583B00346ADF80630BDF806301846A4
:10C7400000F026F803461B68012B0CBF01230023D1
:10C75000DBB2184603B05DF804FB00B585B00346B4
:10C76000ADF80630BDF80630184600F011F8034663
:10C770001A4600231360BDF80630184600F008F88A
:10C7800003461B680393039B00BF05B05DF804FBE1
:10C7900082B00346ADF80630BDF8063003F18043A1
:10C7A00003F5C043184602B07047000082B0019004
:10C7B000034A019BC2F8043300BF02B0704700BFB8
:10C7C0000060004082B00190034BD3F80423019B2A
:10C7D0001340184602B070470060004082B00190DC
:10C7E000084A019B03F5A27352F82330054943F030
:10C7F0000102019B03F5A27341F8232000BF02B0A0
:10C80000704700BF0060004084B00390029113465F
:10C810008DF80730144A039B03F5A27352F82330B6
:10C82000114923F44F3323F44073039A02F5A272A3
:10C8300041F822300C4A039B03F5A27352F82320DF
:10C84000029B1B0203F47C519DF807301B0403F488
:10C8500040330B4304491A43039B03F5A27341F889
:10C86000232000BF04B070470060004082B00190F8
:10C87000054A019B03F5A27352F823301B0A03F00B
:10C880003F03184602B070470060004082B001903C
:10C89000064A019B03F5A27352F823301B0C03F0E8
:10C8A0000303DBB2184602B0704700BF00600040CF
:10C8B00000B583B00190019B1B68184600F02AF96F
:10C8C0000346002B04D10B494FF4F67002F0ACFE86
:10C8D000019B1B681F2B02D84FF0A04306E0019B71
:10C8E0001B6803F01F02019B1A60034B184603B03C
:10C8F0005DF804FB901F03000003005000B585B0F5
:10C900000190084611461A4603468DF803300B463F
:10C910008DF8023013468DF8013001AB1846FFF751
:10C92000C7FF03909DF803209DF802305B001A4377
:10C930009DF801309B001A439DF818301B0242EA13
:10C9400003019DF81C301B04019A1943039B02F557
:10C95000E07243F8221000BF05B05DF804FB00B59B
:10C9600085B003900B468DF80B309DF80B300022FC
:10C97000019200220092002200210398FFF7BEFFDF
:10C9800000BF05B05DF804FB00B585B0019001ABB8
:10C990001846FFF78DFF0390019A039B02F5E072A2
:10C9A00053F8223023F002030293019A039B02F50D
:10C9B000E072029943F8221000BF05B05DF804FB55
:10C9C00000B585B001900B468DF8033001AB1846D9
:10C9D000FFF76EFF0390019A039B02F5E07253F894
:10C9E0002230019A23F44031039B02F5E07243F8B0
:10C9F0002210019A039B02F5E07253F822309DF851
:10CA0000032012041146019A1943039B02F5E072B8
:10CA100043F8221000BF05B05DF804FB00B585B0F7
:10CA2000019001AB1846FFF743FF0390039800F015
:10CA300020F80246019B22FA03F303F00103184693
:10CA400005B05DF804FB00B585B0019001AB184658
:10CA5000FFF72EFF0390019A039B02F5E07253F853
:10CA600022301B0C03F00303DBB2184605B05DF85F
:10CA700004FB82B00190019BD3F81035184602B038
:10CA80007047000088B0039002910192164A05ABEE
:10CA900092E8030083E80300039B079319E0079BD8
:10CAA0009B0020336B4453F80C3CD3F82025019BAA
:10CAB0001A60079B9B0020336B4453F80C3C019A8F
:10CAC0001268C3F82025019B04330193079B0133AF
:10CAD0000793039A029B1344079A9A42DFD300BF3D
